{
  "contractName": "Main",
  "abi": [
    {
      "inputs": [],
      "stateMutability": "nonpayable",
      "type": "constructor"
    },
    {
      "inputs": [],
      "name": "admin",
      "outputs": [
        {
          "internalType": "address",
          "name": "",
          "type": "address"
        }
      ],
      "stateMutability": "view",
      "type": "function"
    }
  ],
  "bytecode": "0x608060405260008060146101000a81548160ff02191690831515021790555034801561002a57600080fd5b50336000806101000a81548173ffffffffffffffffffffffffffffffffffffffff021916908373ffffffffffffffffffffffffffffffffffffffff16021790555060f7806100796000396000f3fe6080604052348015600f57600080fd5b506004361060285760003560e01c8063f851a44014602d575b600080fd5b60336047565b604051603e919060a8565b60405180910390f35b60008054906101000a900473ffffffffffffffffffffffffffffffffffffffff1681565b600073ffffffffffffffffffffffffffffffffffffffff82169050919050565b6000609482606b565b9050919050565b60a281608b565b82525050565b600060208201905060bb6000830184609b565b9291505056fea2646970667358221220b9a318ad04dfe74bbad3d4ae05187333bdfbaa65d6f3f7711ad916c6bb65964164736f6c634300080a0033",
  "immutableReferences": {},
  "source": "pragma solidity >=0.4.0 <0.9.0;\r\ncontract Main{\r\n    struct DataChange{\r\n        uint IdItem;\r\n        uint priceDeviation;\r\n        uint valueChangePricingOtherPaticipant;\r\n        uint numberChangePricingOtherPaticipant;\r\n    }\r\n\r\n    struct Paticipant{\r\n        address addressAccount;\r\n        string fullName;\r\n        string email;\r\n        string passwordAccount;\r\n        uint countPricedSesstion; \r\n        DataChange[] listDataChange;\r\n    }\r\n    address public admin;\r\n    bool status = false;\r\n    enum StatusSesstion {START, PRICING, ENDING ,DONE}\r\n   \r\n    constructor(){\r\n        admin = msg.sender;\r\n    }\r\n\r\n    modifier onlyAdmin(){\r\n        require(msg.sender == admin,\"Only admin can solve\");\r\n        _;\r\n    }\r\n\r\n    modifier notOnlyAdmin(){\r\n        require(msg.sender != admin,\"Not only admin\");\r\n        _;\r\n    }\r\n}",
  "sourcePath": "C:\\Users\\Admin\\Desktop\\FunixPriceChanging\\contracts\\Main.sol",
  "compiler": {
    "name": "solc",
    "version": "0.8.10+commit.fc410830.Emscripten.clang"
  },
  "schemaVersion": "3.4.3",
  "updatedAt": "2021-12-25T02:13:22.253Z",
  "devdoc": {
    "kind": "dev",
    "methods": {},
    "version": 1
  },
  "userdoc": {
    "kind": "user",
    "methods": {},
    "version": 1
  }
}