{
  "contractName": "Main",
  "abi": [
    {
      "inputs": [],
      "stateMutability": "nonpayable",
      "type": "constructor"
    },
    {
      "inputs": [],
      "name": "admin",
      "outputs": [
        {
          "internalType": "address",
          "name": "",
          "type": "address"
        }
      ],
      "stateMutability": "view",
      "type": "function"
    },
    {
      "inputs": [
        {
          "internalType": "uint256",
          "name": "",
          "type": "uint256"
        }
      ],
      "name": "listHashImage",
      "outputs": [
        {
          "internalType": "string",
          "name": "",
          "type": "string"
        }
      ],
      "stateMutability": "view",
      "type": "function"
    },
    {
      "inputs": [
        {
          "internalType": "uint256",
          "name": "",
          "type": "uint256"
        }
      ],
      "name": "listInformationOfImage",
      "outputs": [
        {
          "internalType": "string",
          "name": "",
          "type": "string"
        }
      ],
      "stateMutability": "view",
      "type": "function"
    },
    {
      "inputs": [
        {
          "internalType": "uint256",
          "name": "",
          "type": "uint256"
        }
      ],
      "name": "listNameOfItems",
      "outputs": [
        {
          "internalType": "string",
          "name": "",
          "type": "string"
        }
      ],
      "stateMutability": "view",
      "type": "function"
    },
    {
      "inputs": [
        {
          "internalType": "uint256",
          "name": "",
          "type": "uint256"
        }
      ],
      "name": "listPrice",
      "outputs": [
        {
          "internalType": "uint256",
          "name": "",
          "type": "uint256"
        }
      ],
      "stateMutability": "view",
      "type": "function"
    }
  ],
  "bytecode": "0x608060405260008060146101000a81548160ff021916908315150217905550600a67ffffffffffffffff8111156200003c576200003b62000a44565b5b6040519080825280602002602001820160405280156200007157816020015b60608152602001906001900390816200005b5790505b5060019080519060200190620000899291906200086d565b50600a67ffffffffffffffff811115620000a857620000a762000a44565b5b604051908082528060200260200182016040528015620000dd57816020015b6060815260200190600190039081620000c75790505b5060029080519060200190620000f59291906200086d565b50600a67ffffffffffffffff81111562000114576200011362000a44565b5b6040519080825280602002602001820160405280156200014957816020015b6060815260200190600190039081620001335790505b5060039080519060200190620001619291906200086d565b50600a67ffffffffffffffff81111562000180576200017f62000a44565b5b604051908082528060200260200182016040528015620001af5781602001602082028036833780820191505090505b5060049080519060200190620001c7929190620008d4565b50348015620001d557600080fd5b50336000806101000a81548173ffffffffffffffffffffffffffffffffffffffff021916908373ffffffffffffffffffffffffffffffffffffffff160217905550600180600181540180825580915050600190039060005260206000200160006040518060400160405280601681526020017f53616d73756e672047616c617879204e6f746532302000000000000000000000815250909190915090805190602001906200028592919062000926565b50600180600181540180825580915050600190039060005260206000200160006040518060400160405280600e81526020017f53616d73756e67205a466c69703300000000000000000000000000000000000081525090919091509080519060200190620002f592919062000926565b50600180600181540180825580915050600190039060005260206000200160006040518060400160405280600e81526020017f4173757320526f672050686f6e65000000000000000000000000000000000000815250909190915090805190602001906200036592919062000926565b50600180600181540180825580915050600190039060005260206000200160006040518060400160405280600d81526020017f47616c617879205a466f6c64330000000000000000000000000000000000000081525090919091509080519060200190620003d592919062000926565b50600180600181540180825580915050600190039060005260206000200160006040518060400160405280601181526020017f4970686f6e652031322050726f204d6178000000000000000000000000000000815250909190915090805190602001906200044592919062000926565b50600280600181540180825580915050600190039060005260206000200160006040518060600160405280602e81526020016200132b602e9139909190915090805190602001906200049992919062000926565b50600280600181540180825580915050600190039060005260206000200160006040518060600160405280602e8152602001620010ae602e913990919091509080519060200190620004ed92919062000926565b50600280600181540180825580915050600190039060005260206000200160006040518060600160405280602e815260200162001477602e9139909190915090805190602001906200054192919062000926565b50600280600181540180825580915050600190039060005260206000200160006040518060600160405280602e815260200162001560602e9139909190915090805190602001906200059592919062000926565b50600280600181540180825580915050600190039060005260206000200160006040518060600160405280602e815260200162001449602e913990919091509080519060200190620005e992919062000926565b50600380600181540180825580915050600190039060005260206000200160006040518060e0016040528060bc81526020016200126f60bc9139909190915090805190602001906200063d92919062000926565b506003806001815401808255809150506001900390600052602060002001600060405180610100016040528060dc8152602001620010dc60dc9139909190915090805190602001906200069292919062000926565b506003806001815401808255809150506001900390600052602060002001600060405180610120016040528060f081526020016200135960f0913990919091509080519060200190620006e792919062000926565b50600380600181540180825580915050600190039060005260206000200160006040518060e0016040528060bb8152602001620014a560bb9139909190915090805190602001906200073b92919062000926565b50600380600181540180825580915050600190039060005260206000200160006040518060e0016040528060b78152602001620011b860b79139909190915090805190602001906200078f92919062000926565b5060046103a2908060018154018082558091505060019003906000526020600020016000909190919091505560046106cc908060018154018082558091505060019003906000526020600020016000909190919091505560046103169080600181540180825580915050600190039060005260206000200160009091909190915055600461050a908060018154018082558091505060019003906000526020600020016000909190919091505560046103da908060018154018082558091505060019003906000526020600020016000909190919091505562000ad8565b828054828255906000526020600020908101928215620008c1579160200282015b82811115620008c0578251829080519060200190620008af92919062000926565b50916020019190600101906200088e565b5b509050620008d09190620009b7565b5090565b82805482825590600052602060002090810192821562000913579160200282015b8281111562000912578251825591602001919060010190620008f5565b5b509050620009229190620009df565b5090565b828054620009349062000aa2565b90600052602060002090601f016020900481019282620009585760008555620009a4565b82601f106200097357805160ff1916838001178555620009a4565b82800160010185558215620009a4579182015b82811115620009a357825182559160200191906001019062000986565b5b509050620009b39190620009df565b5090565b5b80821115620009db5760008181620009d19190620009fe565b50600101620009b8565b5090565b5b80821115620009fa576000816000905550600101620009e0565b5090565b50805462000a0c9062000aa2565b6000825580601f1062000a20575062000a41565b601f01602090049060005260206000209081019062000a409190620009df565b5b50565b7f4e487b7100000000000000000000000000000000000000000000000000000000600052604160045260246000fd5b7f4e487b7100000000000000000000000000000000000000000000000000000000600052602260045260246000fd5b6000600282049050600182168062000abb57607f821691505b6020821081141562000ad25762000ad162000a73565b5b50919050565b6105c68062000ae86000396000f3fe608060405234801561001057600080fd5b50600436106100575760003560e01c8063358c371f1461005c5780633fe911211461008c57806387d81f7c146100bc5780638df2873e146100ec578063f851a4401461011c575b600080fd5b610076600480360381019061007191906103c1565b61013a565b6040516100839190610487565b60405180910390f35b6100a660048036038101906100a191906103c1565b6101e6565b6040516100b39190610487565b60405180910390f35b6100d660048036038101906100d191906103c1565b610292565b6040516100e391906104b8565b60405180910390f35b610106600480360381019061010191906103c1565b6102b6565b6040516101139190610487565b60405180910390f35b610124610362565b6040516101319190610514565b60405180910390f35b6003818154811061014a57600080fd5b9060005260206000200160009150905080546101659061055e565b80601f01602080910402602001604051908101604052809291908181526020018280546101919061055e565b80156101de5780601f106101b3576101008083540402835291602001916101de565b820191906000526020600020905b8154815290600101906020018083116101c157829003601f168201915b505050505081565b600181815481106101f657600080fd5b9060005260206000200160009150905080546102119061055e565b80601f016020809104026020016040519081016040528092919081815260200182805461023d9061055e565b801561028a5780601f1061025f5761010080835404028352916020019161028a565b820191906000526020600020905b81548152906001019060200180831161026d57829003601f168201915b505050505081565b600481815481106102a257600080fd5b906000526020600020016000915090505481565b600281815481106102c657600080fd5b9060005260206000200160009150905080546102e19061055e565b80601f016020809104026020016040519081016040528092919081815260200182805461030d9061055e565b801561035a5780601f1061032f5761010080835404028352916020019161035a565b820191906000526020600020905b81548152906001019060200180831161033d57829003601f168201915b505050505081565b60008054906101000a900473ffffffffffffffffffffffffffffffffffffffff1681565b600080fd5b6000819050919050565b61039e8161038b565b81146103a957600080fd5b50565b6000813590506103bb81610395565b92915050565b6000602082840312156103d7576103d6610386565b5b60006103e5848285016103ac565b91505092915050565b600081519050919050565b600082825260208201905092915050565b60005b8381101561042857808201518184015260208101905061040d565b83811115610437576000848401525b50505050565b6000601f19601f8301169050919050565b6000610459826103ee565b61046381856103f9565b935061047381856020860161040a565b61047c8161043d565b840191505092915050565b600060208201905081810360008301526104a1818461044e565b905092915050565b6104b28161038b565b82525050565b60006020820190506104cd60008301846104a9565b92915050565b600073ffffffffffffffffffffffffffffffffffffffff82169050919050565b60006104fe826104d3565b9050919050565b61050e816104f3565b82525050565b60006020820190506105296000830184610505565b92915050565b7f4e487b7100000000000000000000000000000000000000000000000000000000600052602260045260246000fd5b6000600282049050600182168061057657607f821691505b6020821081141561058a5761058961052f565b5b5091905056fea2646970667358221220bb2275b76544dc118f132a327484b033cf7755aa6898ef6bea545decfe4332f164736f6c634300080a0033516d643633454c6b5a6737467a4b424d33516336377750766e4a3251386b675269596d39634267465057526d4d6b556e6971756520666f6c64696e672073637265656e2c207365616d6c65737320646973706c6179202d2044796e616d696320414d4f4c45442032582c20313230487a207265667265736820726174652c2048445220737570706f72742c20446f6c627920566973696f6e2e203c62722f3e556e6971756520666f6c64696e672073637265656e2c207365616d6c65737320646973706c6179202d2044796e616d696320414d4f4c45442032582c20313230487a207265667265736820726174652c2048445220737570706f72742c20446f6c627920566973696f6e2e506f77657266756c2c2073757065722d6661737420776974682041313420636869702c203647422052414d2c20686967682d7370656564203547206e6574776f726b203c62722f3e4272696c6c69616e742c2073686172702c2068696768206272696768746e657373202d205072656d69756d204f4c454420646973706c6179203c62722f3e537570657220526574696e6120584452207769746820484452313020737570706f72742c20446f6c627920566973696f6e4c75787572792c20686967682d636c617373202d20556e6971756520616e64206174747261637469766520636f6c6f7273203c62722f3e54616b652070726f66657373696f6e616c2070686f746f73202d20536574206f6620332063616d65726173207468617420737570706f7274205a6f6f6d20757020746f20333058203c62722f3e54616b6520717569636b2c206163637572617465206e6f746573207769746820746865206e65772067656e65726174696f6e20532d50656e516d4e7156597448346d584736394c6e4159453478793168676666315a6b59427476566343447941345250693669427265616b20616c6c20746865206c696d697473206f6620706572666f726d616e6365202d20686967682d656e6420536e6170647261676f6e203836352b2c20354720636f6e6e65637469766974792c20313247422052414d203c62722f3e5374616e646172642067616d696e672073637265656e202d20414d4f4c45442070616e656c2c20686967682072656672657368207261746520313434487a2c2048445231302b3c62722f3e506c61792067616d657320776974686f757420696e74657272757074696f6e202d20363030306d416820626174746572792c20637573746f6d2062617474657279206d6f6465516d5865593537516658446e79744c3750554141796e727454566675424845596158577858346a464641794c7964516d54703638734438654158535046616f5a707153366276627848467047384141454c58314a3754663843657269496d7072657373697665206475616c2073637265656e202d20372e39206d61696e2073637265656e20616e64207375622073637265656e3a20362e32332c20313230487a20736d6f6f7468206d6f74696f6e203c62722f3e537570657220696d70726573736976652063616d6572612073797374656d202d20536574206f6620332031324d502063616d657261206c656e7365732c2073656c6669652063616d6572612068696464656e20756e646572207468652073637265656e516d61476a6e7043337358656b516f6e385636326e5a467a356f4b7542316770794a614d754a744343344e376638",
  "immutableReferences": {},
  "source": "pragma solidity >=0.4.0 <0.9.0;\r\ncontract Main{\r\n    struct DataChange{\r\n        uint IdItem;\r\n        uint priceDeviation;\r\n        uint valueChangePricingOtherPaticipant;\r\n        uint numberChangePricingOtherPaticipant;\r\n    }\r\n\r\n    struct Paticipant{\r\n        uint IDPaticipant;\r\n        address addressAccount;\r\n        string fullName;\r\n        string email;\r\n        uint countPricedSesstion; \r\n        DataChange[] listDataChange;\r\n    }\r\n    address public admin;\r\n    bool status = false;\r\n    enum StatusSesstion {START, PRICING, DONE}\r\n    string[] public listNameOfItems = new string[](10);\r\n    string[] public listHashImage = new string[](10);\r\n    string[] public listInformationOfImage = new string[](10);\r\n    uint[] public listPrice = new uint[](10);\r\n\r\n    constructor(){\r\n        admin = msg.sender;\r\n        listNameOfItems.push(\"Samsung Galaxy Note20 \");\r\n        listNameOfItems.push(\"Samsung ZFlip3\");\r\n        listNameOfItems.push(\"Asus Rog Phone\");\r\n        listNameOfItems.push(\"Galaxy ZFold3\");\r\n        listNameOfItems.push(\"Iphone 12 Pro Max\");\r\n        // listNameOfItems.push(\"Iphone 15 Pro\");\r\n        // listNameOfItems.push(\"Oneplus-8T\");\r\n        // listNameOfItems.push(\"Red Magic\");\r\n        // listNameOfItems.push(\"Xiaomi Mi-11\");\r\n        // listNameOfItems.push(\"Zte Nubia Red Magic\");\r\n        listHashImage.push(\"QmNqVYtH4mXG69LnAYE4xy1hgff1ZkYBtvVcCDyA4RPi6i\");\r\n        listHashImage.push(\"Qmd63ELkZg7FzKBM3Qc67wPvnJ2Q8kgRiYm9cBgFPWRmMk\");\r\n        listHashImage.push(\"QmTp68sD8eAXSPFaoZpqS6bvbxHFpG8AAELX1J7Tf8Ceri\");\r\n        listHashImage.push(\"QmaGjnpC3sXekQon8V62nZFz5oKuB1gpyJaMuJtCC4N7f8\");\r\n        listHashImage.push(\"QmXeY57QfXDnytL7PUAAynrtTVfuBHEYaXWxX4jFFAyLyd\");\r\n        // listHashImage.push(\"QmcrrFf78e1emiSgCe3U9QEC4Qs7JqBT4LJtyvM53c58mJ\");\r\n        // listHashImage.push(\"QmdMz1RrsPh1B15HMFRVHXmaq8vMbKZrKt5eeEz3ypg9g2\");\r\n        // listHashImage.push(\"Qmako3qesiYwjfQAuKKJ356cRP1bjsKAx3RjTVWeidgEZd\");\r\n        // listHashImage.push(\"Qmc5NiYcSnTqpcMs7Vi5YrnWX8dk2vs9RYWwQ6DG4X7ak5\");\r\n        // listHashImage.push(\"QmUZWp9kb9bP7YQGAuyaLRnJfoPPEM74nwWmmwjog25Vcz\");\r\n        listInformationOfImage.push(\"Luxury, high-class - Unique and attractive colors <br/>Take professional photos - Set of 3 cameras that support Zoom up to 30X <br/>Take quick, accurate notes with the new generation S-Pen\");\r\n        listInformationOfImage.push(\"Unique folding screen, seamless display - Dynamic AMOLED 2X, 120Hz refresh rate, HDR support, Dolby Vision. <br/>Unique folding screen, seamless display - Dynamic AMOLED 2X, 120Hz refresh rate, HDR support, Dolby Vision.\");\r\n        listInformationOfImage.push(\"Break all the limits of performance - high-end Snapdragon 865+, 5G connectivity, 12GB RAM <br/>Standard gaming screen - AMOLED panel, high refresh rate 144Hz, HDR10+<br/>Play games without interruption - 6000mAh battery, custom battery mode\");\r\n        listInformationOfImage.push(\"Impressive dual screen - 7.9 main screen and sub screen: 6.23, 120Hz smooth motion <br/>Super impressive camera system - Set of 3 12MP camera lenses, selfie camera hidden under the screen\");\r\n        listInformationOfImage.push(\"Powerful, super-fast with A14 chip, 6GB RAM, high-speed 5G network <br/>Brilliant, sharp, high brightness - Premium OLED display <br/>Super Retina XDR with HDR10 support, Dolby Vision\");\r\n        // listInformationOfImage.push(\"Vibrant display space <br/>6.1 Super Retina XDR display with high brightness and sharpness <br/>The ultimate cinematic experience <br/> 12MP dual cameras with optical image stabilization\");\r\n        // listInformationOfImage.push(\"Outstanding performance <br/>Powerful Apple A15 Bionic chip<br/>supports high-speed 5G network\");\r\n        // listInformationOfImage.push(\"Experience the perfect, smooth edge-to-edge screen - 6.67 inches, 144Hz AMOLED display<br/>Capturing every moment fully - 64MP + 8MP + 5MP + 2MP quality rear camera cluster\");\r\n        // listInformationOfImage.push(\"Strong and stable performance - Snapdragon 780G chip on 5nm, 128GB of memory and 8GB of RAM<br/>Impressive photography camera - Cluster of 3 64MP rear cameras, clear night photography\");\r\n        // listInformationOfImage.push(\"Fight games without worrying about running out of battery <br/>5050 mAh battery<br/>30W fast charging, up to 65W charging support\");\r\n        listPrice.push(930);\r\n        listPrice.push(1740);\r\n        listPrice.push(790);\r\n        listPrice.push(1290);\r\n        listPrice.push(986);\r\n        // listPrice.push(748);\r\n        // listPrice.push(1490);\r\n        // listPrice.push(620);\r\n        // listPrice.push(348);\r\n        // listPrice.push(728);\r\n    }\r\n\r\n    modifier onlyAdmin(){\r\n        require(msg.sender == admin,\"Only admin can solve\");\r\n        _;\r\n    }\r\n\r\n    modifier notOnlyAdmin(){\r\n        require(msg.sender != admin,\"Not only admin\");\r\n        _;\r\n    }\r\n}",
  "sourcePath": "C:\\Users\\Admin\\Desktop\\FunixPriceChanging\\contracts\\Main.sol",
  "compiler": {
    "name": "solc",
    "version": "0.8.10+commit.fc410830.Emscripten.clang"
  },
  "schemaVersion": "3.4.3",
  "updatedAt": "2021-12-18T04:03:40.781Z",
  "devdoc": {
    "kind": "dev",
    "methods": {},
    "version": 1
  },
  "userdoc": {
    "kind": "user",
    "methods": {},
    "version": 1
  }
}