{
  "contractName": "Session",
  "abi": [
    {
      "inputs": [],
      "stateMutability": "nonpayable",
      "type": "constructor"
    },
    {
      "anonymous": false,
      "inputs": [
        {
          "indexed": true,
          "internalType": "address",
          "name": "tokenOwner",
          "type": "address"
        },
        {
          "indexed": true,
          "internalType": "address",
          "name": "spender",
          "type": "address"
        },
        {
          "indexed": false,
          "internalType": "uint256",
          "name": "tokens",
          "type": "uint256"
        }
      ],
      "name": "Approval",
      "type": "event"
    },
    {
      "anonymous": false,
      "inputs": [
        {
          "indexed": true,
          "internalType": "uint256",
          "name": "_IdItems",
          "type": "uint256"
        },
        {
          "indexed": false,
          "internalType": "string",
          "name": "_nameItem",
          "type": "string"
        },
        {
          "indexed": false,
          "internalType": "string",
          "name": "_fullName",
          "type": "string"
        },
        {
          "indexed": false,
          "internalType": "uint256",
          "name": "_valueChangePricing",
          "type": "uint256"
        }
      ],
      "name": "LogChainPriceOfSession",
      "type": "event"
    },
    {
      "anonymous": false,
      "inputs": [
        {
          "indexed": true,
          "internalType": "uint256",
          "name": "_IdItems",
          "type": "uint256"
        },
        {
          "indexed": false,
          "internalType": "string",
          "name": "_nameItem",
          "type": "string"
        },
        {
          "indexed": false,
          "internalType": "uint256",
          "name": "_firstPrice",
          "type": "uint256"
        }
      ],
      "name": "LogStartSession",
      "type": "event"
    },
    {
      "anonymous": false,
      "inputs": [
        {
          "indexed": true,
          "internalType": "uint256",
          "name": "_IdItems",
          "type": "uint256"
        },
        {
          "indexed": false,
          "internalType": "string",
          "name": "_nameItem",
          "type": "string"
        },
        {
          "indexed": false,
          "internalType": "uint256",
          "name": "_firstPrice",
          "type": "uint256"
        }
      ],
      "name": "LogStopSession",
      "type": "event"
    },
    {
      "anonymous": false,
      "inputs": [
        {
          "indexed": true,
          "internalType": "address",
          "name": "from",
          "type": "address"
        },
        {
          "indexed": true,
          "internalType": "address",
          "name": "to",
          "type": "address"
        },
        {
          "indexed": false,
          "internalType": "uint256",
          "name": "tokens",
          "type": "uint256"
        }
      ],
      "name": "Transfer",
      "type": "event"
    },
    {
      "inputs": [],
      "name": "_totalSupply",
      "outputs": [
        {
          "internalType": "uint256",
          "name": "",
          "type": "uint256"
        }
      ],
      "stateMutability": "view",
      "type": "function",
      "constant": true
    },
    {
      "inputs": [],
      "name": "admin",
      "outputs": [
        {
          "internalType": "address",
          "name": "",
          "type": "address"
        }
      ],
      "stateMutability": "view",
      "type": "function",
      "constant": true
    },
    {
      "inputs": [
        {
          "internalType": "address",
          "name": "tokenOwner",
          "type": "address"
        },
        {
          "internalType": "address",
          "name": "spender",
          "type": "address"
        }
      ],
      "name": "allowance",
      "outputs": [
        {
          "internalType": "uint256",
          "name": "remaining",
          "type": "uint256"
        }
      ],
      "stateMutability": "view",
      "type": "function",
      "constant": true
    },
    {
      "inputs": [
        {
          "internalType": "address",
          "name": "spender",
          "type": "address"
        },
        {
          "internalType": "uint256",
          "name": "tokens",
          "type": "uint256"
        }
      ],
      "name": "approve",
      "outputs": [
        {
          "internalType": "bool",
          "name": "success",
          "type": "bool"
        }
      ],
      "stateMutability": "nonpayable",
      "type": "function"
    },
    {
      "inputs": [
        {
          "internalType": "address",
          "name": "spender",
          "type": "address"
        },
        {
          "internalType": "uint256",
          "name": "tokens",
          "type": "uint256"
        },
        {
          "internalType": "bytes",
          "name": "data",
          "type": "bytes"
        }
      ],
      "name": "approveAndCall",
      "outputs": [
        {
          "internalType": "bool",
          "name": "success",
          "type": "bool"
        }
      ],
      "stateMutability": "nonpayable",
      "type": "function"
    },
    {
      "inputs": [
        {
          "internalType": "address",
          "name": "tokenOwner",
          "type": "address"
        }
      ],
      "name": "balanceOf",
      "outputs": [
        {
          "internalType": "uint256",
          "name": "balance",
          "type": "uint256"
        }
      ],
      "stateMutability": "view",
      "type": "function",
      "constant": true
    },
    {
      "inputs": [],
      "name": "decimals",
      "outputs": [
        {
          "internalType": "uint8",
          "name": "",
          "type": "uint8"
        }
      ],
      "stateMutability": "view",
      "type": "function",
      "constant": true
    },
    {
      "inputs": [
        {
          "internalType": "uint256",
          "name": "",
          "type": "uint256"
        }
      ],
      "name": "emptyArray1",
      "outputs": [
        {
          "internalType": "uint256",
          "name": "",
          "type": "uint256"
        }
      ],
      "stateMutability": "view",
      "type": "function",
      "constant": true
    },
    {
      "inputs": [
        {
          "internalType": "uint256",
          "name": "",
          "type": "uint256"
        }
      ],
      "name": "emptyArray2",
      "outputs": [
        {
          "internalType": "uint256",
          "name": "",
          "type": "uint256"
        }
      ],
      "stateMutability": "view",
      "type": "function",
      "constant": true
    },
    {
      "inputs": [],
      "name": "index",
      "outputs": [
        {
          "internalType": "uint256",
          "name": "",
          "type": "uint256"
        }
      ],
      "stateMutability": "view",
      "type": "function",
      "constant": true
    },
    {
      "inputs": [
        {
          "internalType": "uint256",
          "name": "",
          "type": "uint256"
        }
      ],
      "name": "itemsList",
      "outputs": [
        {
          "internalType": "uint256",
          "name": "IdItem",
          "type": "uint256"
        },
        {
          "internalType": "string",
          "name": "nameItem",
          "type": "string"
        },
        {
          "internalType": "string",
          "name": "imageHash",
          "type": "string"
        },
        {
          "internalType": "uint256",
          "name": "firstPrice",
          "type": "uint256"
        },
        {
          "internalType": "string",
          "name": "itemDescription",
          "type": "string"
        },
        {
          "internalType": "uint256",
          "name": "countPaticipantJoinSesstion",
          "type": "uint256"
        },
        {
          "internalType": "uint256",
          "name": "valueChangePricing",
          "type": "uint256"
        },
        {
          "internalType": "enum Main.StatusSesstion",
          "name": "statusSesstion",
          "type": "uint8"
        },
        {
          "internalType": "uint256",
          "name": "timeSesstionEachOtherproduct",
          "type": "uint256"
        },
        {
          "internalType": "uint256",
          "name": "timeFinishSesstionEachOtherproduct",
          "type": "uint256"
        }
      ],
      "stateMutability": "view",
      "type": "function",
      "constant": true
    },
    {
      "inputs": [
        {
          "internalType": "uint256",
          "name": "",
          "type": "uint256"
        }
      ],
      "name": "listHashImage",
      "outputs": [
        {
          "internalType": "string",
          "name": "",
          "type": "string"
        }
      ],
      "stateMutability": "view",
      "type": "function",
      "constant": true
    },
    {
      "inputs": [
        {
          "internalType": "uint256",
          "name": "",
          "type": "uint256"
        }
      ],
      "name": "listInformationOfImage",
      "outputs": [
        {
          "internalType": "string",
          "name": "",
          "type": "string"
        }
      ],
      "stateMutability": "view",
      "type": "function",
      "constant": true
    },
    {
      "inputs": [
        {
          "internalType": "uint256",
          "name": "",
          "type": "uint256"
        }
      ],
      "name": "listNameOfItems",
      "outputs": [
        {
          "internalType": "string",
          "name": "",
          "type": "string"
        }
      ],
      "stateMutability": "view",
      "type": "function",
      "constant": true
    },
    {
      "inputs": [
        {
          "internalType": "uint256",
          "name": "",
          "type": "uint256"
        }
      ],
      "name": "listPrice",
      "outputs": [
        {
          "internalType": "uint256",
          "name": "",
          "type": "uint256"
        }
      ],
      "stateMutability": "view",
      "type": "function",
      "constant": true
    },
    {
      "inputs": [],
      "name": "name",
      "outputs": [
        {
          "internalType": "string",
          "name": "",
          "type": "string"
        }
      ],
      "stateMutability": "view",
      "type": "function",
      "constant": true
    },
    {
      "inputs": [
        {
          "internalType": "address",
          "name": "",
          "type": "address"
        }
      ],
      "name": "paticipants",
      "outputs": [
        {
          "internalType": "address",
          "name": "addressAccount",
          "type": "address"
        },
        {
          "internalType": "string",
          "name": "fullName",
          "type": "string"
        },
        {
          "internalType": "string",
          "name": "email",
          "type": "string"
        },
        {
          "internalType": "string",
          "name": "passwordAccount",
          "type": "string"
        },
        {
          "internalType": "uint256",
          "name": "countPricedSesstion",
          "type": "uint256"
        }
      ],
      "stateMutability": "view",
      "type": "function",
      "constant": true
    },
    {
      "inputs": [
        {
          "internalType": "uint256",
          "name": "a",
          "type": "uint256"
        },
        {
          "internalType": "uint256",
          "name": "b",
          "type": "uint256"
        }
      ],
      "name": "safeAdd",
      "outputs": [
        {
          "internalType": "uint256",
          "name": "c",
          "type": "uint256"
        }
      ],
      "stateMutability": "pure",
      "type": "function",
      "constant": true
    },
    {
      "inputs": [
        {
          "internalType": "uint256",
          "name": "a",
          "type": "uint256"
        },
        {
          "internalType": "uint256",
          "name": "b",
          "type": "uint256"
        }
      ],
      "name": "safeDiv",
      "outputs": [
        {
          "internalType": "uint256",
          "name": "c",
          "type": "uint256"
        }
      ],
      "stateMutability": "pure",
      "type": "function",
      "constant": true
    },
    {
      "inputs": [
        {
          "internalType": "uint256",
          "name": "a",
          "type": "uint256"
        },
        {
          "internalType": "uint256",
          "name": "b",
          "type": "uint256"
        }
      ],
      "name": "safeMul",
      "outputs": [
        {
          "internalType": "uint256",
          "name": "c",
          "type": "uint256"
        }
      ],
      "stateMutability": "pure",
      "type": "function",
      "constant": true
    },
    {
      "inputs": [
        {
          "internalType": "uint256",
          "name": "a",
          "type": "uint256"
        },
        {
          "internalType": "uint256",
          "name": "b",
          "type": "uint256"
        }
      ],
      "name": "safeSub",
      "outputs": [
        {
          "internalType": "uint256",
          "name": "c",
          "type": "uint256"
        }
      ],
      "stateMutability": "pure",
      "type": "function",
      "constant": true
    },
    {
      "inputs": [],
      "name": "symbol",
      "outputs": [
        {
          "internalType": "string",
          "name": "",
          "type": "string"
        }
      ],
      "stateMutability": "view",
      "type": "function",
      "constant": true
    },
    {
      "inputs": [
        {
          "internalType": "uint256",
          "name": "",
          "type": "uint256"
        }
      ],
      "name": "totalAccounts",
      "outputs": [
        {
          "internalType": "address",
          "name": "",
          "type": "address"
        }
      ],
      "stateMutability": "view",
      "type": "function",
      "constant": true
    },
    {
      "inputs": [],
      "name": "totalSupply",
      "outputs": [
        {
          "internalType": "uint256",
          "name": "",
          "type": "uint256"
        }
      ],
      "stateMutability": "view",
      "type": "function",
      "constant": true
    },
    {
      "inputs": [
        {
          "internalType": "address",
          "name": "to",
          "type": "address"
        },
        {
          "internalType": "uint256",
          "name": "tokens",
          "type": "uint256"
        }
      ],
      "name": "transfer",
      "outputs": [
        {
          "internalType": "bool",
          "name": "success",
          "type": "bool"
        }
      ],
      "stateMutability": "nonpayable",
      "type": "function"
    },
    {
      "inputs": [
        {
          "internalType": "address",
          "name": "from",
          "type": "address"
        },
        {
          "internalType": "address",
          "name": "to",
          "type": "address"
        },
        {
          "internalType": "uint256",
          "name": "tokens",
          "type": "uint256"
        }
      ],
      "name": "transferFrom",
      "outputs": [
        {
          "internalType": "bool",
          "name": "success",
          "type": "bool"
        }
      ],
      "stateMutability": "nonpayable",
      "type": "function"
    },
    {
      "stateMutability": "payable",
      "type": "receive",
      "payable": true
    },
    {
      "inputs": [
        {
          "internalType": "string",
          "name": "_nameItem",
          "type": "string"
        },
        {
          "internalType": "string",
          "name": "_imageHash",
          "type": "string"
        },
        {
          "internalType": "string",
          "name": "_itemDescription",
          "type": "string"
        },
        {
          "internalType": "uint256",
          "name": "_firstPrice",
          "type": "uint256"
        }
      ],
      "name": "createNewItem",
      "outputs": [],
      "stateMutability": "nonpayable",
      "type": "function"
    },
    {
      "inputs": [],
      "name": "addData",
      "outputs": [],
      "stateMutability": "nonpayable",
      "type": "function"
    },
    {
      "inputs": [
        {
          "internalType": "uint256",
          "name": "_IdItem",
          "type": "uint256"
        }
      ],
      "name": "convertStateToString",
      "outputs": [
        {
          "internalType": "string",
          "name": "",
          "type": "string"
        }
      ],
      "stateMutability": "view",
      "type": "function",
      "constant": true
    },
    {
      "inputs": [],
      "name": "getLengthItems",
      "outputs": [
        {
          "internalType": "uint256",
          "name": "",
          "type": "uint256"
        }
      ],
      "stateMutability": "view",
      "type": "function",
      "constant": true
    },
    {
      "inputs": [
        {
          "internalType": "uint256",
          "name": "_IdItem",
          "type": "uint256"
        }
      ],
      "name": "stopSesstion",
      "outputs": [],
      "stateMutability": "nonpayable",
      "type": "function"
    },
    {
      "inputs": [
        {
          "internalType": "uint256",
          "name": "_IdItem",
          "type": "uint256"
        }
      ],
      "name": "startSesstion",
      "outputs": [],
      "stateMutability": "nonpayable",
      "type": "function"
    },
    {
      "inputs": [
        {
          "internalType": "uint256",
          "name": "_IdItem",
          "type": "uint256"
        },
        {
          "internalType": "uint256",
          "name": "_price",
          "type": "uint256"
        }
      ],
      "name": "setFinalPriceOfItem",
      "outputs": [],
      "stateMutability": "nonpayable",
      "type": "function"
    },
    {
      "inputs": [
        {
          "internalType": "uint256",
          "name": "_IdItem",
          "type": "uint256"
        },
        {
          "internalType": "address",
          "name": "_address",
          "type": "address"
        }
      ],
      "name": "showDataPrice",
      "outputs": [
        {
          "internalType": "uint256[]",
          "name": "",
          "type": "uint256[]"
        }
      ],
      "stateMutability": "view",
      "type": "function",
      "constant": true
    },
    {
      "inputs": [
        {
          "internalType": "uint256",
          "name": "_IdItem",
          "type": "uint256"
        },
        {
          "internalType": "address",
          "name": "_address",
          "type": "address"
        }
      ],
      "name": "showDataDeviation",
      "outputs": [
        {
          "internalType": "uint256[]",
          "name": "",
          "type": "uint256[]"
        }
      ],
      "stateMutability": "view",
      "type": "function",
      "constant": true
    },
    {
      "inputs": [
        {
          "internalType": "uint256",
          "name": "_IdItem",
          "type": "uint256"
        }
      ],
      "name": "getAddressChangedPriceOfItems",
      "outputs": [
        {
          "internalType": "address[]",
          "name": "",
          "type": "address[]"
        }
      ],
      "stateMutability": "view",
      "type": "function",
      "constant": true
    },
    {
      "inputs": [],
      "name": "getAddressUserRegister",
      "outputs": [
        {
          "internalType": "address[]",
          "name": "",
          "type": "address[]"
        }
      ],
      "stateMutability": "view",
      "type": "function",
      "constant": true
    },
    {
      "inputs": [
        {
          "internalType": "address",
          "name": "_address",
          "type": "address"
        },
        {
          "internalType": "string",
          "name": "_fullName",
          "type": "string"
        },
        {
          "internalType": "string",
          "name": "_email",
          "type": "string"
        },
        {
          "internalType": "string",
          "name": "_passwordAccount",
          "type": "string"
        }
      ],
      "name": "registerAccount",
      "outputs": [],
      "stateMutability": "nonpayable",
      "type": "function"
    },
    {
      "inputs": [
        {
          "internalType": "uint256",
          "name": "_IdItem",
          "type": "uint256"
        }
      ],
      "name": "getProposedPrice",
      "outputs": [],
      "stateMutability": "nonpayable",
      "type": "function"
    },
    {
      "inputs": [
        {
          "internalType": "uint256",
          "name": "_newPriceOfParticipan",
          "type": "uint256"
        },
        {
          "internalType": "uint256",
          "name": "_IdItem",
          "type": "uint256"
        }
      ],
      "name": "accumulatedDeviation",
      "outputs": [],
      "stateMutability": "nonpayable",
      "type": "function"
    },
    {
      "inputs": [
        {
          "internalType": "uint256",
          "name": "_IdItem",
          "type": "uint256"
        }
      ],
      "name": "timeOutOfSesstion",
      "outputs": [],
      "stateMutability": "nonpayable",
      "type": "function"
    }
  ],
  "bytecode": "0x608060405260008060146101000a81548160ff021916908315150217905550600060095560405180602001604052806040518060400160405280601581526020017f53616d73756e672047616c617879204e6f746532300000000000000000000000815250815250600b9060016200007992919062000a11565b5060405180602001604052806040518060600160405280602e815260200162006868602e9139815250600c906001620000b492919062000a11565b506040518060200160405280604051806101e001604052806101a58152602001620068966101a59139815250600d906001620000f292919062000a11565b5060405180602001604052806103a261ffff16815250600e9060016200011a92919062000a78565b506040518060200160405280600060ff16815250600f9060016200014092919062000ad0565b506040518060200160405280600060ff1681525060109060016200016692919062000ad0565b503480156200017457600080fd5b50336000806101000a81548173ffffffffffffffffffffffffffffffffffffffff021916908373ffffffffffffffffffffffffffffffffffffffff1602179055506040518060400160405280600581526020017f544f4b454e000000000000000000000000000000000000000000000000000000815250600190805190602001906200020292919062000b27565b506040518060400160405280600881526020017f457468657265756d000000000000000000000000000000000000000000000000815250600290805190602001906200025092919062000b27565b506000600360006101000a81548160ff021916908360ff16021790555060c860048190555060045460056000735bd4ecaa08dfa56423c0e83546e979e386003ccc73ffffffffffffffffffffffffffffffffffffffff1673ffffffffffffffffffffffffffffffffffffffff16815260200190815260200160002081905550735bd4ecaa08dfa56423c0e83546e979e386003ccc73ffffffffffffffffffffffffffffffffffffffff16600073ffffffffffffffffffffffffffffffffffffffff167fddf252ad1be2c89b69c2b068fc378daa952ba7f163c4a11628f55a4df523b3ef60045460405162000345919062000cef565b60405180910390a36200035d6200036360201b60201c565b62000e4c565b60005b600c805490508110156200091c57600080600090505b6008805490508110156200052a576200050560088281548110620003a557620003a462000d0c565b5b90600052602060002090600b02016002018054620003c39062000d6a565b80601f0160208091040260200160405190810160405280929190818152602001828054620003f19062000d6a565b8015620004425780601f10620004165761010080835404028352916020019162000442565b820191906000526020600020905b8154815290600101906020018083116200042457829003601f168201915b5050505050600c85815481106200045e576200045d62000d0c565b5b906000526020600020018054620004759062000d6a565b80601f0160208091040260200160405190810160405280929190818152602001828054620004a39062000d6a565b8015620004f45780601f10620004c857610100808354040283529160200191620004f4565b820191906000526020600020905b815481529060010190602001808311620004d657829003601f168201915b50505050506200091f60201b60201c565b9150811562000514576200052a565b8080620005219062000dcf565b9150506200037c565b5080620009055760606008604051806101600160405280858152602001600b86815481106200055e576200055d62000d0c565b5b906000526020600020018054620005759062000d6a565b80601f0160208091040260200160405190810160405280929190818152602001828054620005a39062000d6a565b8015620005f45780601f10620005c857610100808354040283529160200191620005f4565b820191906000526020600020905b815481529060010190602001808311620005d657829003601f168201915b50505050508152602001600c868154811062000615576200061462000d0c565b5b9060005260206000200180546200062c9062000d6a565b80601f01602080910402602001604051908101604052809291908181526020018280546200065a9062000d6a565b8015620006ab5780601f106200067f57610100808354040283529160200191620006ab565b820191906000526020600020905b8154815290600101906020018083116200068d57829003601f168201915b50505050508152602001600e8681548110620006cc57620006cb62000d0c565b5b90600052602060002001548152602001600d8681548110620006f357620006f262000d0c565b5b9060005260206000200180546200070a9062000d6a565b80601f0160208091040260200160405190810160405280929190818152602001828054620007389062000d6a565b8015620007895780601f106200075d5761010080835404028352916020019162000789565b820191906000526020600020905b8154815290600101906020018083116200076b57829003601f168201915b50505050508152602001600081526020016000815260200183815260200160006003811115620007be57620007bd62000e1d565b5b81526020016000815260200161025881525090806001815401808255809150506001900390600052602060002090600b02016000909190919091506000820151816000015560208201518160010190805190602001906200082192919062000b27565b5060408201518160020190805190602001906200084092919062000b27565b506060820151816003015560808201518160040190805190602001906200086992919062000b27565b5060a0820151816005015560c0820151816006015560e08201518160070190805190602001906200089c92919062000bb8565b506101008201518160080160006101000a81548160ff02191690836003811115620008cc57620008cb62000e1d565b5b0217905550610120820151816009015561014082015181600a0155505060096000815480929190620008fe9062000dcf565b9190505550505b508080620009139062000dcf565b91505062000366565b50565b60008083905060008390506000825190508151811462000946576000935050505062000a0b565b60005b8181101562000a025782818151811062000968576200096762000d0c565b5b602001015160f81c60f81b7effffffffffffffffffffffffffffffffffffffffffffffffffffffffffffff1916848281518110620009ab57620009aa62000d0c565b5b602001015160f81c60f81b7effffffffffffffffffffffffffffffffffffffffffffffffffffffffffffff191614620009ec57600094505050505062000a0b565b8080620009f99062000dcf565b91505062000949565b50600193505050505b92915050565b82805482825590600052602060002090810192821562000a65579160200282015b8281111562000a6457825182908051906020019062000a5392919062000b27565b509160200191906001019062000a32565b5b50905062000a74919062000c47565b5090565b82805482825590600052602060002090810192821562000abd579160200282015b8281111562000abc578251829061ffff1690559160200191906001019062000a99565b5b50905062000acc919062000c6f565b5090565b82805482825590600052602060002090810192821562000b14579160200282015b8281111562000b13578251829060ff1690559160200191906001019062000af1565b5b50905062000b23919062000c6f565b5090565b82805462000b359062000d6a565b90600052602060002090601f01602090048101928262000b59576000855562000ba5565b82601f1062000b7457805160ff191683800117855562000ba5565b8280016001018555821562000ba5579182015b8281111562000ba457825182559160200191906001019062000b87565b5b50905062000bb4919062000c6f565b5090565b82805482825590600052602060002090810192821562000c34579160200282015b8281111562000c335782518260006101000a81548173ffffffffffffffffffffffffffffffffffffffff021916908373ffffffffffffffffffffffffffffffffffffffff1602179055509160200191906001019062000bd9565b5b50905062000c43919062000c6f565b5090565b5b8082111562000c6b576000818162000c61919062000c8e565b5060010162000c48565b5090565b5b8082111562000c8a57600081600090555060010162000c70565b5090565b50805462000c9c9062000d6a565b6000825580601f1062000cb0575062000cd1565b601f01602090049060005260206000209081019062000cd0919062000c6f565b5b50565b6000819050919050565b62000ce98162000cd4565b82525050565b600060208201905062000d06600083018462000cde565b92915050565b7f4e487b7100000000000000000000000000000000000000000000000000000000600052603260045260246000fd5b7f4e487b7100000000000000000000000000000000000000000000000000000000600052602260045260246000fd5b6000600282049050600182168062000d8357607f821691505b6020821081141562000d9a5762000d9962000d3b565b5b50919050565b7f4e487b7100000000000000000000000000000000000000000000000000000000600052601160045260246000fd5b600062000ddc8262000cd4565b91507fffffffffffffffffffffffffffffffffffffffffffffffffffffffffffffffff82141562000e125762000e1162000da0565b5b600182019050919050565b7f4e487b7100000000000000000000000000000000000000000000000000000000600052602160045260246000fd5b615a0c8062000e5c6000396000f3fe60806040526004361061024a5760003560e01c806387d81f7c11610139578063c9907777116100b6578063e3ce9ba71161007a578063e3ce9ba7146109a1578063e6cb9013146109b8578063e8c06c54146109f5578063f11c37c514610a1e578063f53dbb2e14610a5b578063f851a44014610a9857610254565b8063c990777714610884578063cae9ca51146108c1578063d05c78da146108fe578063d19757db1461093b578063dd62ed3e1461096457610254565b8063a293d1e8116100fd578063a293d1e81461075e578063a9059cbb1461079b578063b09da154146107d8578063b5931f7c14610801578063c2bd9d951461083e57610254565b806387d81f7c146106515780638df2873e1461068e5780639005bf74146106cb57806395d89b411461070857806398f685101461073357610254565b80633eaaf86b116101c75780635ef002321161018b5780635ef00232146105485780636b5750c31461057157806370a08231146105ae57806379daaa60146105eb57806385d34fb71461061457610254565b80633eaaf86b1461044b5780633fe911211461047657806340a1ca29146104b35780634ae19b1a146104dc5780635657198a1461051d57610254565b806323b872dd1161020e57806323b872dd146103525780632986c0e51461038f5780632d1c7f5e146103ba578063313ce567146103e3578063358c371f1461040e57610254565b806306fdde0314610259578063095ea7b3146102845780631043bd70146102c157806318160ddd146102ea57806322017e351461031557610254565b3661025457600080fd5b600080fd5b34801561026557600080fd5b5061026e610ac3565b60405161027b919061473e565b60405180910390f35b34801561029057600080fd5b506102ab60048036038101906102a69190614808565b610b51565b6040516102b89190614863565b60405180910390f35b3480156102cd57600080fd5b506102e860048036038101906102e3919061487e565b610c43565b005b3480156102f657600080fd5b506102ff610dcf565b60405161030c91906148ba565b60405180910390f35b34801561032157600080fd5b5061033c6004803603810190610337919061487e565b610e23565b60405161034991906148ba565b60405180910390f35b34801561035e57600080fd5b50610379600480360381019061037491906148d5565b610e47565b6040516103869190614863565b60405180910390f35b34801561039b57600080fd5b506103a46110d7565b6040516103b191906148ba565b60405180910390f35b3480156103c657600080fd5b506103e160048036038101906103dc9190614928565b6110dd565b005b3480156103ef57600080fd5b506103f86111e7565b6040516104059190614984565b60405180910390f35b34801561041a57600080fd5b506104356004803603810190610430919061487e565b6111fa565b604051610442919061473e565b60405180910390f35b34801561045757600080fd5b506104606112a6565b60405161046d91906148ba565b60405180910390f35b34801561048257600080fd5b5061049d6004803603810190610498919061487e565b6112ac565b6040516104aa919061473e565b60405180910390f35b3480156104bf57600080fd5b506104da60048036038101906104d5919061487e565b611358565b005b3480156104e857600080fd5b5061050360048036038101906104fe919061499f565b611923565b6040516105149594939291906149db565b60405180910390f35b34801561052957600080fd5b50610532611b11565b60405161053f9190614b01565b60405180910390f35b34801561055457600080fd5b5061056f600480360381019061056a9190614928565b611c2d565b005b34801561057d57600080fd5b5061059860048036038101906105939190614b23565b6125c9565b6040516105a59190614c21565b60405180910390f35b3480156105ba57600080fd5b506105d560048036038101906105d0919061499f565b612687565b6040516105e291906148ba565b60405180910390f35b3480156105f757600080fd5b50610612600480360381019061060d9190614d78565b6126d0565b005b34801561062057600080fd5b5061063b6004803603810190610636919061487e565b612841565b6040516106489190614b01565b60405180910390f35b34801561065d57600080fd5b506106786004803603810190610673919061487e565b6128f4565b60405161068591906148ba565b60405180910390f35b34801561069a57600080fd5b506106b560048036038101906106b0919061487e565b612918565b6040516106c2919061473e565b60405180910390f35b3480156106d757600080fd5b506106f260048036038101906106ed919061487e565b6129c4565b6040516106ff919061473e565b60405180910390f35b34801561071457600080fd5b5061071d612bd8565b60405161072a919061473e565b60405180910390f35b34801561073f57600080fd5b50610748612c66565b60405161075591906148ba565b60405180910390f35b34801561076a57600080fd5b5061078560048036038101906107809190614928565b612c73565b60405161079291906148ba565b60405180910390f35b3480156107a757600080fd5b506107c260048036038101906107bd9190614808565b612ccc565b6040516107cf9190614863565b60405180910390f35b3480156107e457600080fd5b506107ff60048036038101906107fa919061487e565b612e6e565b005b34801561080d57600080fd5b5061082860048036038101906108239190614928565b613080565b60405161083591906148ba565b60405180910390f35b34801561084a57600080fd5b506108656004803603810190610860919061487e565b6130d8565b60405161087b9a99989796959493929190614eaa565b60405180910390f35b34801561089057600080fd5b506108ab60048036038101906108a69190614b23565b6132e1565b6040516108b89190614c21565b60405180910390f35b3480156108cd57600080fd5b506108e860048036038101906108e39190614ffc565b61339f565b6040516108f59190614863565b60405180910390f35b34801561090a57600080fd5b5061092560048036038101906109209190614928565b613503565b60405161093291906148ba565b60405180910390f35b34801561094757600080fd5b50610962600480360381019061095d919061506b565b613571565b005b34801561097057600080fd5b5061098b60048036038101906109869190615126565b613b09565b60405161099891906148ba565b60405180910390f35b3480156109ad57600080fd5b506109b6613b90565b005b3480156109c457600080fd5b506109df60048036038101906109da9190614928565b6140ef565b6040516109ec91906148ba565b60405180910390f35b348015610a0157600080fd5b50610a1c6004803603810190610a17919061487e565b614148565b005b348015610a2a57600080fd5b50610a456004803603810190610a40919061487e565b6142aa565b604051610a5291906148ba565b60405180910390f35b348015610a6757600080fd5b50610a826004803603810190610a7d919061487e565b6142ce565b604051610a8f9190615166565b60405180910390f35b348015610aa457600080fd5b50610aad61430d565b604051610aba9190615166565b60405180910390f35b60028054610ad0906151b0565b80601f0160208091040260200160405190810160405280929190818152602001828054610afc906151b0565b8015610b495780601f10610b1e57610100808354040283529160200191610b49565b820191906000526020600020905b815481529060010190602001808311610b2c57829003601f168201915b505050505081565b600081600660003373ffffffffffffffffffffffffffffffffffffffff1673ffffffffffffffffffffffffffffffffffffffff16815260200190815260200160002060008573ffffffffffffffffffffffffffffffffffffffff1673ffffffffffffffffffffffffffffffffffffffff168152602001908152602001600020819055508273ffffffffffffffffffffffffffffffffffffffff163373ffffffffffffffffffffffffffffffffffffffff167f8c5be1e5ebec7d5bd14f71427d1e84f3dd0314c0f7b2291e5b200ac8c7c3b92584604051610c3191906148ba565b60405180910390a36001905092915050565b60008054906101000a900473ffffffffffffffffffffffffffffffffffffffff1673ffffffffffffffffffffffffffffffffffffffff163373ffffffffffffffffffffffffffffffffffffffff1614610cd1576040517f08c379a0000000000000000000000000000000000000000000000000000000008152600401610cc89061522e565b60405180910390fd5b600160088281548110610ce757610ce661524e565b5b90600052602060002090600b020160080160006101000a81548160ff02191690836003811115610d1a57610d19614e33565b5b02179055504260088281548110610d3457610d3361524e565b5b90600052602060002090600b020160090181905550807faa3f0b5a9d087149295bb224b9c28e39af6cb01e0e04999b4c44626f6f14498560088381548110610d7f57610d7e61524e565b5b90600052602060002090600b020160010160088481548110610da457610da361524e565b5b90600052602060002090600b020160030154604051610dc4929190615312565b60405180910390a250565b6000600560008073ffffffffffffffffffffffffffffffffffffffff1673ffffffffffffffffffffffffffffffffffffffff16815260200190815260200160002054600454610e1e9190615371565b905090565b60108181548110610e3357600080fd5b906000526020600020016000915090505481565b6000610e92600560008673ffffffffffffffffffffffffffffffffffffffff1673ffffffffffffffffffffffffffffffffffffffff1681526020019081526020016000205483612c73565b600560008673ffffffffffffffffffffffffffffffffffffffff1673ffffffffffffffffffffffffffffffffffffffff16815260200190815260200160002081905550610f5b600660008673ffffffffffffffffffffffffffffffffffffffff1673ffffffffffffffffffffffffffffffffffffffff16815260200190815260200160002060003373ffffffffffffffffffffffffffffffffffffffff1673ffffffffffffffffffffffffffffffffffffffff1681526020019081526020016000205483612c73565b600660008673ffffffffffffffffffffffffffffffffffffffff1673ffffffffffffffffffffffffffffffffffffffff16815260200190815260200160002060003373ffffffffffffffffffffffffffffffffffffffff1673ffffffffffffffffffffffffffffffffffffffff16815260200190815260200160002081905550611024600560008573ffffffffffffffffffffffffffffffffffffffff1673ffffffffffffffffffffffffffffffffffffffff16815260200190815260200160002054836140ef565b600560008573ffffffffffffffffffffffffffffffffffffffff1673ffffffffffffffffffffffffffffffffffffffff168152602001908152602001600020819055508273ffffffffffffffffffffffffffffffffffffffff168473ffffffffffffffffffffffffffffffffffffffff167fddf252ad1be2c89b69c2b068fc378daa952ba7f163c4a11628f55a4df523b3ef846040516110c491906148ba565b60405180910390a3600190509392505050565b60095481565b60008054906101000a900473ffffffffffffffffffffffffffffffffffffffff1673ffffffffffffffffffffffffffffffffffffffff163373ffffffffffffffffffffffffffffffffffffffff161461116b576040517f08c379a00000000000000000000000000000000000000000000000000000000081526004016111629061522e565b60405180910390fd5b80600883815481106111805761117f61524e565b5b90600052602060002090600b0201600301819055506003600883815481106111ab576111aa61524e565b5b90600052602060002090600b020160080160006101000a81548160ff021916908360038111156111de576111dd614e33565b5b02179055505050565b600360009054906101000a900460ff1681565b600d818154811061120a57600080fd5b906000526020600020016000915090508054611225906151b0565b80601f0160208091040260200160405190810160405280929190818152602001828054611251906151b0565b801561129e5780601f106112735761010080835404028352916020019161129e565b820191906000526020600020905b81548152906001019060200180831161128157829003601f168201915b505050505081565b60045481565b600b81815481106112bc57600080fd5b9060005260206000200160009150905080546112d7906151b0565b80601f0160208091040260200160405190810160405280929190818152602001828054611303906151b0565b80156113505780601f1061132557610100808354040283529160200191611350565b820191906000526020600020905b81548152906001019060200180831161133357829003601f168201915b505050505081565b6002600381111561136c5761136b614e33565b5b600882815481106113805761137f61524e565b5b90600052602060002090600b020160080160009054906101000a900460ff1660038111156113b1576113b0614e33565b5b146113f1576040517f08c379a00000000000000000000000000000000000000000000000000000000081526004016113e8906153f1565b60405180910390fd5b600080600883815481106114085761140761524e565b5b90600052602060002090600b020160070180549050905060005b818110156116ec57600060076000600887815481106114445761144361524e565b5b90600052602060002090600b020160070184815481106114675761146661524e565b5b9060005260206000200160009054906101000a900473ffffffffffffffffffffffffffffffffffffffff1673ffffffffffffffffffffffffffffffffffffffff1673ffffffffffffffffffffffffffffffffffffffff16815260200190815260200160002060050185815481106114e1576114e061524e565b5b90600052602060002090600402016003015490506116d6846116d16007600060088a815481106115145761151361524e565b5b90600052602060002090600b020160070187815481106115375761153661524e565b5b9060005260206000200160009054906101000a900473ffffffffffffffffffffffffffffffffffffffff1673ffffffffffffffffffffffffffffffffffffffff1673ffffffffffffffffffffffffffffffffffffffff16815260200190815260200160002060050188815481106115b1576115b061524e565b5b906000526020600020906004020160010184815481106115d4576115d361524e565b5b90600052602060002001546116cc60646007600060088d815481106115fc576115fb61524e565b5b90600052602060002090600b02016007018a8154811061161f5761161e61524e565b5b9060005260206000200160009054906101000a900473ffffffffffffffffffffffffffffffffffffffff1673ffffffffffffffffffffffffffffffffffffffff1673ffffffffffffffffffffffffffffffffffffffff1681526020019081526020016000206005018b815481106116995761169861524e565b5b906000526020600020906004020160020187815481106116bc576116bb61524e565b5b9060005260206000200154612c73565b613503565b6140ef565b93505080806116e490615411565b915050611422565b5060006116fa606483613503565b9050600080600090505b838110156118d957600060076000600889815481106117265761172561524e565b5b90600052602060002090600b020160070184815481106117495761174861524e565b5b9060005260206000200160009054906101000a900473ffffffffffffffffffffffffffffffffffffffff1673ffffffffffffffffffffffffffffffffffffffff1673ffffffffffffffffffffffffffffffffffffffff16815260200190815260200160002060050187815481106117c3576117c261524e565b5b90600052602060002090600402016003015490506118c3836007600060088b815481106117f3576117f261524e565b5b90600052602060002090600b020160070186815481106118165761181561524e565b5b9060005260206000200160009054906101000a900473ffffffffffffffffffffffffffffffffffffffff1673ffffffffffffffffffffffffffffffffffffffff1673ffffffffffffffffffffffffffffffffffffffff16815260200190815260200160002060050189815481106118905761188f61524e565b5b906000526020600020906004020160020183815481106118b3576118b261524e565b5b90600052602060002001546140ef565b92505080806118d190615411565b915050611704565b5060006118ef856118ea8585612c73565b613080565b905080600887815481106119065761190561524e565b5b90600052602060002090600b020160060181905550505050505050565b60076020528060005260406000206000915090508060000160009054906101000a900473ffffffffffffffffffffffffffffffffffffffff169080600101805461196c906151b0565b80601f0160208091040260200160405190810160405280929190818152602001828054611998906151b0565b80156119e55780601f106119ba576101008083540402835291602001916119e5565b820191906000526020600020905b8154815290600101906020018083116119c857829003601f168201915b5050505050908060020180546119fa906151b0565b80601f0160208091040260200160405190810160405280929190818152602001828054611a26906151b0565b8015611a735780601f10611a4857610100808354040283529160200191611a73565b820191906000526020600020905b815481529060010190602001808311611a5657829003601f168201915b505050505090806003018054611a88906151b0565b80601f0160208091040260200160405190810160405280929190818152602001828054611ab4906151b0565b8015611b015780601f10611ad657610100808354040283529160200191611b01565b820191906000526020600020905b815481529060010190602001808311611ae457829003601f168201915b5050505050908060040154905085565b606060008054906101000a900473ffffffffffffffffffffffffffffffffffffffff1673ffffffffffffffffffffffffffffffffffffffff163373ffffffffffffffffffffffffffffffffffffffff1614611ba1576040517f08c379a0000000000000000000000000000000000000000000000000000000008152600401611b989061522e565b60405180910390fd5b600a805480602002602001604051908101604052809291908181526020018280548015611c2357602002820191906000526020600020905b8160009054906101000a900473ffffffffffffffffffffffffffffffffffffffff1673ffffffffffffffffffffffffffffffffffffffff1681526020019060010190808311611bd9575b5050505050905090565b60008054906101000a900473ffffffffffffffffffffffffffffffffffffffff1673ffffffffffffffffffffffffffffffffffffffff163373ffffffffffffffffffffffffffffffffffffffff161415611cbc576040517f08c379a0000000000000000000000000000000000000000000000000000000008152600401611cb3906154a6565b60405180910390fd5b600181816003811115611cd257611cd1614e33565b5b60088281548110611ce657611ce561524e565b5b90600052602060002090600b020160080160009054906101000a900460ff166003811115611d1757611d16614e33565b5b14611d57576040517f08c379a0000000000000000000000000000000000000000000000000000000008152600401611d4e906153f1565b60405180910390fd5b600060088481548110611d6d57611d6c61524e565b5b90600052602060002090600b0201600701805490501415611e8157611df5600760003373ffffffffffffffffffffffffffffffffffffffff1673ffffffffffffffffffffffffffffffffffffffff16815260200190815260200160002060000160009054906101000a900473ffffffffffffffffffffffffffffffffffffffff16600a612ccc565b5060088381548110611e0a57611e0961524e565b5b90600052602060002090600b0201600701339080600181540180825580915050600190039060005260206000200160009091909190916101000a81548173ffffffffffffffffffffffffffffffffffffffff021916908373ffffffffffffffffffffffffffffffffffffffff1602179055506120ae565b60005b60088481548110611e9857611e9761524e565b5b90600052602060002090600b020160070180549050811015611f7c573373ffffffffffffffffffffffffffffffffffffffff1660088581548110611edf57611ede61524e565b5b90600052602060002090600b02016007018281548110611f0257611f0161524e565b5b9060005260206000200160009054906101000a900473ffffffffffffffffffffffffffffffffffffffff1673ffffffffffffffffffffffffffffffffffffffff161415611f69576001600060146101000a81548160ff021916908315150217905550611f7c565b8080611f7490615411565b915050611e84565b5060001515600060149054906101000a900460ff16151514156120925760088381548110611fad57611fac61524e565b5b90600052602060002090600b0201600701339080600181540180825580915050600190039060005260206000200160009091909190916101000a81548173ffffffffffffffffffffffffffffffffffffffff021916908373ffffffffffffffffffffffffffffffffffffffff16021790555061208c600760003373ffffffffffffffffffffffffffffffffffffffff1673ffffffffffffffffffffffffffffffffffffffff16815260200190815260200160002060000160009054906101000a900473ffffffffffffffffffffffffffffffffffffffff16600a612ccc565b506120ad565b60008060146101000a81548160ff0219169083151502179055505b5b60006120ba8585614331565b90506000600760003373ffffffffffffffffffffffffffffffffffffffff1673ffffffffffffffffffffffffffffffffffffffff16815260200190815260200160002060050185815481106121125761211161524e565b5b90600052602060002090600402016003015490506000600760003373ffffffffffffffffffffffffffffffffffffffff1673ffffffffffffffffffffffffffffffffffffffff168152602001908152602001600020600501868154811061217c5761217b61524e565b5b90600052602060002090600402016003015490506000600760003373ffffffffffffffffffffffffffffffffffffffff1673ffffffffffffffffffffffffffffffffffffffff16815260200190815260200160002060050187815481106121e6576121e561524e565b5b906000526020600020906004020160020183815481106122095761220861524e565b5b90600052602060002001549050600061223e61222e6122288486613503565b876140ef565b6122398560016140ef565b613080565b9050600760003373ffffffffffffffffffffffffffffffffffffffff1673ffffffffffffffffffffffffffffffffffffffff16815260200190815260200160002060050188815481106122945761229361524e565b5b9060005260206000209060040201600201819080600181540180825580915050600190039060005260206000200160009091909190915055600760003373ffffffffffffffffffffffffffffffffffffffff1673ffffffffffffffffffffffffffffffffffffffff16815260200190815260200160002060050188815481106123205761231f61524e565b5b90600052602060002090600402016001018990806001815401808255809150506001900390600052602060002001600090919091909150556123c8600760003373ffffffffffffffffffffffffffffffffffffffff1673ffffffffffffffffffffffffffffffffffffffff16815260200190815260200160002060050189815481106123af576123ae61524e565b5b90600052602060002090600402016003015460016140ef565b600760003373ffffffffffffffffffffffffffffffffffffffff1673ffffffffffffffffffffffffffffffffffffffff168152602001908152602001600020600501898154811061241c5761241b61524e565b5b90600052602060002090600402016003018190555061247e600760003373ffffffffffffffffffffffffffffffffffffffff1673ffffffffffffffffffffffffffffffffffffffff1681526020019081526020016000206004015460016140ef565b600760003373ffffffffffffffffffffffffffffffffffffffff1673ffffffffffffffffffffffffffffffffffffffff168152602001908152602001600020600401819055506124f4600889815481106124db576124da61524e565b5b90600052602060002090600b02016005015460016140ef565b600889815481106125085761250761524e565b5b90600052602060002090600b020160050181905550877ffc94567f8570ffc605741a9414d18afce2f7a39ec1e0e0f6cb3339862d0e492160088a815481106125535761255261524e565b5b90600052602060002090600b0201600101600760003373ffffffffffffffffffffffffffffffffffffffff1673ffffffffffffffffffffffffffffffffffffffff1681526020019081526020016000206001018c6040516125b6939291906154c6565b60405180910390a2505050505050505050565b6060600760008373ffffffffffffffffffffffffffffffffffffffff1673ffffffffffffffffffffffffffffffffffffffff168152602001908152602001600020600501838154811061261f5761261e61524e565b5b906000526020600020906004020160020180548060200260200160405190810160405280929190818152602001828054801561267a57602002820191906000526020600020905b815481526020019060010190808311612666575b5050505050905092915050565b6000600560008373ffffffffffffffffffffffffffffffffffffffff1673ffffffffffffffffffffffffffffffffffffffff168152602001908152602001600020549050919050565b60008054906101000a900473ffffffffffffffffffffffffffffffffffffffff1673ffffffffffffffffffffffffffffffffffffffff163373ffffffffffffffffffffffffffffffffffffffff161461275e576040517f08c379a00000000000000000000000000000000000000000000000000000000081526004016127559061522e565b60405180910390fd5b600b8490806001815401808255809150506001900390600052602060002001600090919091909150908051906020019061279992919061452b565b50600c839080600181540180825580915050600190039060005260206000200160009091909190915090805190602001906127d592919061452b565b50600d8290806001815401808255809150506001900390600052602060002001600090919091909150908051906020019061281192919061452b565b50600e81908060018154018082558091505060019003906000526020600020016000909190919091505550505050565b6060600882815481106128575761285661524e565b5b90600052602060002090600b02016007018054806020026020016040519081016040528092919081815260200182805480156128e857602002820191906000526020600020905b8160009054906101000a900473ffffffffffffffffffffffffffffffffffffffff1673ffffffffffffffffffffffffffffffffffffffff168152602001906001019080831161289e575b50505050509050919050565b600e818154811061290457600080fd5b906000526020600020016000915090505481565b600c818154811061292857600080fd5b906000526020600020016000915090508054612943906151b0565b80601f016020809104026020016040519081016040528092919081815260200182805461296f906151b0565b80156129bc5780601f10612991576101008083540402835291602001916129bc565b820191906000526020600020905b81548152906001019060200180831161299f57829003601f168201915b505050505081565b6060600060038111156129da576129d9614e33565b5b600883815481106129ee576129ed61524e565b5b90600052602060002090600b020160080160009054906101000a900460ff166003811115612a1f57612a1e614e33565b5b1415612a62576040518060400160405280600981526020017f4e6f7420537461727400000000000000000000000000000000000000000000008152509050612bd3565b60016003811115612a7657612a75614e33565b5b60088381548110612a8a57612a8961524e565b5b90600052602060002090600b020160080160009054906101000a900460ff166003811115612abb57612aba614e33565b5b1415612afe576040518060400160405280600781526020017f53746172746564000000000000000000000000000000000000000000000000008152509050612bd3565b60026003811115612b1257612b11614e33565b5b60088381548110612b2657612b2561524e565b5b90600052602060002090600b020160080160009054906101000a900460ff166003811115612b5757612b56614e33565b5b1415612b9a576040518060400160405280600681526020017f456e64696e6700000000000000000000000000000000000000000000000000008152509050612bd3565b6040518060400160405280600481526020017f446f6e650000000000000000000000000000000000000000000000000000000081525090505b919050565b60018054612be5906151b0565b80601f0160208091040260200160405190810160405280929190818152602001828054612c11906151b0565b8015612c5e5780601f10612c3357610100808354040283529160200191612c5e565b820191906000526020600020905b815481529060010190602001808311612c4157829003601f168201915b505050505081565b6000600880549050905090565b600082821115612cb8576040517f08c379a0000000000000000000000000000000000000000000000000000000008152600401612caf90615557565b60405180910390fd5b8183612cc49190615371565b905092915050565b600080735bd4ecaa08dfa56423c0e83546e979e386003ccc9050612d2f600560008373ffffffffffffffffffffffffffffffffffffffff1673ffffffffffffffffffffffffffffffffffffffff1681526020019081526020016000205484612c73565b600560008373ffffffffffffffffffffffffffffffffffffffff1673ffffffffffffffffffffffffffffffffffffffff16815260200190815260200160002081905550612dbb600560008673ffffffffffffffffffffffffffffffffffffffff1673ffffffffffffffffffffffffffffffffffffffff16815260200190815260200160002054846140ef565b600560008673ffffffffffffffffffffffffffffffffffffffff1673ffffffffffffffffffffffffffffffffffffffff168152602001908152602001600020819055508373ffffffffffffffffffffffffffffffffffffffff168173ffffffffffffffffffffffffffffffffffffffff167fddf252ad1be2c89b69c2b068fc378daa952ba7f163c4a11628f55a4df523b3ef85604051612e5b91906148ba565b60405180910390a3600191505092915050565b600060088281548110612e8457612e8361524e565b5b90600052602060002090600b0201600901541415612eef57600060088281548110612eb257612eb161524e565b5b90600052602060002090600b020160080160006101000a81548160ff02191690836003811115612ee557612ee4614e33565b5b021790555061307d565b60088181548110612f0357612f0261524e565b5b90600052602060002090600b02016009015442118015612f77575060088181548110612f3257612f3161524e565b5b90600052602060002090600b0201600a015460088281548110612f5857612f5761524e565b5b90600052602060002090600b020160090154612f749190615577565b42105b15612fcf57600160088281548110612f9257612f9161524e565b5b90600052602060002090600b020160080160006101000a81548160ff02191690836003811115612fc557612fc4614e33565b5b021790555061307c565b60088181548110612fe357612fe261524e565b5b90600052602060002090600b0201600a0154600882815481106130095761300861524e565b5b90600052602060002090600b0201600901546130259190615577565b42111561307b576002600882815481106130425761304161524e565b5b90600052602060002090600b020160080160006101000a81548160ff0219169083600381111561307557613074614e33565b5b02179055505b5b5b50565b60008082116130c4576040517f08c379a00000000000000000000000000000000000000000000000000000000081526004016130bb90615619565b60405180910390fd5b81836130d09190615668565b905092915050565b600881815481106130e857600080fd5b90600052602060002090600b0201600091509050806000015490806001018054613111906151b0565b80601f016020809104026020016040519081016040528092919081815260200182805461313d906151b0565b801561318a5780601f1061315f5761010080835404028352916020019161318a565b820191906000526020600020905b81548152906001019060200180831161316d57829003601f168201915b50505050509080600201805461319f906151b0565b80601f01602080910402602001604051908101604052809291908181526020018280546131cb906151b0565b80156132185780601f106131ed57610100808354040283529160200191613218565b820191906000526020600020905b8154815290600101906020018083116131fb57829003601f168201915b505050505090806003015490806004018054613233906151b0565b80601f016020809104026020016040519081016040528092919081815260200182805461325f906151b0565b80156132ac5780601f10613281576101008083540402835291602001916132ac565b820191906000526020600020905b81548152906001019060200180831161328f57829003601f168201915b5050505050908060050154908060060154908060080160009054906101000a900460ff169080600901549080600a015490508a565b6060600760008373ffffffffffffffffffffffffffffffffffffffff1673ffffffffffffffffffffffffffffffffffffffff16815260200190815260200160002060050183815481106133375761333661524e565b5b906000526020600020906004020160010180548060200260200160405190810160405280929190818152602001828054801561339257602002820191906000526020600020905b81548152602001906001019080831161337e575b5050505050905092915050565b600082600660003373ffffffffffffffffffffffffffffffffffffffff1673ffffffffffffffffffffffffffffffffffffffff16815260200190815260200160002060008673ffffffffffffffffffffffffffffffffffffffff1673ffffffffffffffffffffffffffffffffffffffff168152602001908152602001600020819055508373ffffffffffffffffffffffffffffffffffffffff163373ffffffffffffffffffffffffffffffffffffffff167f8c5be1e5ebec7d5bd14f71427d1e84f3dd0314c0f7b2291e5b200ac8c7c3b9258560405161347f91906148ba565b60405180910390a38373ffffffffffffffffffffffffffffffffffffffff16638f4ffcb1338587866040518563ffffffff1660e01b81526004016134c694939291906156ee565b600060405180830381600087803b1580156134e057600080fd5b505af11580156134f4573d6000803e3d6000fd5b50505050600190509392505050565b60008183613511919061573a565b9050600083148061352c575081838261352a9190615668565b145b61356b576040517f08c379a0000000000000000000000000000000000000000000000000000000008152600401613562906157e0565b60405180910390fd5b92915050565b6000808054906101000a900473ffffffffffffffffffffffffffffffffffffffff1673ffffffffffffffffffffffffffffffffffffffff168573ffffffffffffffffffffffffffffffffffffffff161415613601576040517f08c379a00000000000000000000000000000000000000000000000000000000081526004016135f89061584c565b60405180910390fd5b600a80805490501115613649576040517f08c379a0000000000000000000000000000000000000000000000000000000008152600401613640906158de565b60405180910390fd5b60005b600a805490508110156136e757600a818154811061366d5761366c61524e565b5b9060005260206000200160009054906101000a900473ffffffffffffffffffffffffffffffffffffffff1673ffffffffffffffffffffffffffffffffffffffff168673ffffffffffffffffffffffffffffffffffffffff1614156136d457600191506136e7565b80806136df90615411565b91505061364c565b5080613ac757600a859080600181540180825580915050600190039060005260206000200160009091909190916101000a81548173ffffffffffffffffffffffffffffffffffffffff021916908373ffffffffffffffffffffffffffffffffffffffff16021790555084600760008773ffffffffffffffffffffffffffffffffffffffff1673ffffffffffffffffffffffffffffffffffffffff16815260200190815260200160002060000160006101000a81548173ffffffffffffffffffffffffffffffffffffffff021916908373ffffffffffffffffffffffffffffffffffffffff16021790555083600760008773ffffffffffffffffffffffffffffffffffffffff1673ffffffffffffffffffffffffffffffffffffffff168152602001908152602001600020600101908051906020019061382792919061452b565b5082600760008773ffffffffffffffffffffffffffffffffffffffff1673ffffffffffffffffffffffffffffffffffffffff168152602001908152602001600020600201908051906020019061387e92919061452b565b5081600760008773ffffffffffffffffffffffffffffffffffffffff1673ffffffffffffffffffffffffffffffffffffffff16815260200190815260200160002060030190805190602001906138d592919061452b565b506000600760008773ffffffffffffffffffffffffffffffffffffffff1673ffffffffffffffffffffffffffffffffffffffff1681526020019081526020016000206004018190555060005b600954811015613ac15760006040518060800160405280838152602001600f80548060200260200160405190810160405280929190818152602001828054801561398a57602002820191906000526020600020905b815481526020019060010190808311613976575b5050505050815260200160108054806020026020016040519081016040528092919081815260200182805480156139e057602002820191906000526020600020905b8154815260200190600101908083116139cc575b5050505050815260200160008152509050600760008873ffffffffffffffffffffffffffffffffffffffff1673ffffffffffffffffffffffffffffffffffffffff168152602001908152602001600020600501819080600181540180825580915050600190039060005260206000209060040201600090919091909150600082015181600001556020820151816001019080519060200190613a839291906145b1565b506040820151816002019080519060200190613aa09291906145b1565b50606082015181600301555050508080613ab990615411565b915050613921565b50613b02565b6040517f08c379a0000000000000000000000000000000000000000000000000000000008152600401613af99061594a565b60405180910390fd5b5050505050565b6000600660008473ffffffffffffffffffffffffffffffffffffffff1673ffffffffffffffffffffffffffffffffffffffff16815260200190815260200160002060008373ffffffffffffffffffffffffffffffffffffffff1673ffffffffffffffffffffffffffffffffffffffff16815260200190815260200160002054905092915050565b60005b600c805490508110156140ec57600080600090505b600880549050811015613d3257613d1260088281548110613bcc57613bcb61524e565b5b90600052602060002090600b02016002018054613be8906151b0565b80601f0160208091040260200160405190810160405280929190818152602001828054613c14906151b0565b8015613c615780601f10613c3657610100808354040283529160200191613c61565b820191906000526020600020905b815481529060010190602001808311613c4457829003601f168201915b5050505050600c8581548110613c7a57613c7961524e565b5b906000526020600020018054613c8f906151b0565b80601f0160208091040260200160405190810160405280929190818152602001828054613cbb906151b0565b8015613d085780601f10613cdd57610100808354040283529160200191613d08565b820191906000526020600020905b815481529060010190602001808311613ceb57829003601f168201915b5050505050614447565b91508115613d1f57613d32565b8080613d2a90615411565b915050613ba8565b50806140d85760606008604051806101600160405280858152602001600b8681548110613d6257613d6161524e565b5b906000526020600020018054613d77906151b0565b80601f0160208091040260200160405190810160405280929190818152602001828054613da3906151b0565b8015613df05780601f10613dc557610100808354040283529160200191613df0565b820191906000526020600020905b815481529060010190602001808311613dd357829003601f168201915b50505050508152602001600c8681548110613e0e57613e0d61524e565b5b906000526020600020018054613e23906151b0565b80601f0160208091040260200160405190810160405280929190818152602001828054613e4f906151b0565b8015613e9c5780601f10613e7157610100808354040283529160200191613e9c565b820191906000526020600020905b815481529060010190602001808311613e7f57829003601f168201915b50505050508152602001600e8681548110613eba57613eb961524e565b5b90600052602060002001548152602001600d8681548110613ede57613edd61524e565b5b906000526020600020018054613ef3906151b0565b80601f0160208091040260200160405190810160405280929190818152602001828054613f1f906151b0565b8015613f6c5780601f10613f4157610100808354040283529160200191613f6c565b820191906000526020600020905b815481529060010190602001808311613f4f57829003601f168201915b50505050508152602001600081526020016000815260200183815260200160006003811115613f9e57613f9d614e33565b5b81526020016000815260200161025881525090806001815401808255809150506001900390600052602060002090600b0201600090919091909150600082015181600001556020820151816001019080519060200190613fff92919061452b565b50604082015181600201908051906020019061401c92919061452b565b5060608201518160030155608082015181600401908051906020019061404392919061452b565b5060a0820151816005015560c0820151816006015560e08201518160070190805190602001906140749291906145fe565b506101008201518160080160006101000a81548160ff021916908360038111156140a1576140a0614e33565b5b0217905550610120820151816009015561014082015181600a01555050600960008154809291906140d190615411565b9190505550505b5080806140e490615411565b915050613b93565b50565b600081836140fd9190615577565b905082811015614142576040517f08c379a0000000000000000000000000000000000000000000000000000000008152600401614139906159b6565b60405180910390fd5b92915050565b60008054906101000a900473ffffffffffffffffffffffffffffffffffffffff1673ffffffffffffffffffffffffffffffffffffffff163373ffffffffffffffffffffffffffffffffffffffff16146141d6576040517f08c379a00000000000000000000000000000000000000000000000000000000081526004016141cd9061522e565b60405180910390fd5b6002600882815481106141ec576141eb61524e565b5b90600052602060002090600b020160080160006101000a81548160ff0219169083600381111561421f5761421e614e33565b5b0217905550807f59aa868b6aec147bb867da96fc0722ac554fcb1658ec8ac50a51d08a192f04726008838154811061425a5761425961524e565b5b90600052602060002090600b02016001016008848154811061427f5761427e61524e565b5b90600052602060002090600b02016003015460405161429f929190615312565b60405180910390a250565b600f81815481106142ba57600080fd5b906000526020600020016000915090505481565b600a81815481106142de57600080fd5b906000526020600020016000915054906101000a900473ffffffffffffffffffffffffffffffffffffffff1681565b60008054906101000a900473ffffffffffffffffffffffffffffffffffffffff1681565b60008060009050836008848154811061434d5761434c61524e565b5b90600052602060002090600b02016003015411156143d3576143cc6143a161439a600886815481106143825761438161524e565b5b90600052602060002090600b02016003015487612c73565b6064613503565b600885815481106143b5576143b461524e565b5b90600052602060002090600b020160030154613080565b905061443d565b61443a61440f61440886600887815481106143f1576143f061524e565b5b90600052602060002090600b020160030154612c73565b6064613503565b600885815481106144235761442261524e565b5b90600052602060002090600b020160030154613080565b90505b8091505092915050565b60008083905060008390506000825190508151811461446c5760009350505050614525565b60005b8181101561451c5782818151811061448a5761448961524e565b5b602001015160f81c60f81b7effffffffffffffffffffffffffffffffffffffffffffffffffffffffffffff19168482815181106144ca576144c961524e565b5b602001015160f81c60f81b7effffffffffffffffffffffffffffffffffffffffffffffffffffffffffffff191614614509576000945050505050614525565b808061451490615411565b91505061446f565b50600193505050505b92915050565b828054614537906151b0565b90600052602060002090601f01602090048101928261455957600085556145a0565b82601f1061457257805160ff19168380011785556145a0565b828001600101855582156145a0579182015b8281111561459f578251825591602001919060010190614584565b5b5090506145ad9190614688565b5090565b8280548282559060005260206000209081019282156145ed579160200282015b828111156145ec5782518255916020019190600101906145d1565b5b5090506145fa9190614688565b5090565b828054828255906000526020600020908101928215614677579160200282015b828111156146765782518260006101000a81548173ffffffffffffffffffffffffffffffffffffffff021916908373ffffffffffffffffffffffffffffffffffffffff1602179055509160200191906001019061461e565b5b5090506146849190614688565b5090565b5b808211156146a1576000816000905550600101614689565b5090565b600081519050919050565b600082825260208201905092915050565b60005b838110156146df5780820151818401526020810190506146c4565b838111156146ee576000848401525b50505050565b6000601f19601f8301169050919050565b6000614710826146a5565b61471a81856146b0565b935061472a8185602086016146c1565b614733816146f4565b840191505092915050565b600060208201905081810360008301526147588184614705565b905092915050565b6000604051905090565b600080fd5b600080fd5b600073ffffffffffffffffffffffffffffffffffffffff82169050919050565b600061479f82614774565b9050919050565b6147af81614794565b81146147ba57600080fd5b50565b6000813590506147cc816147a6565b92915050565b6000819050919050565b6147e5816147d2565b81146147f057600080fd5b50565b600081359050614802816147dc565b92915050565b6000806040838503121561481f5761481e61476a565b5b600061482d858286016147bd565b925050602061483e858286016147f3565b9150509250929050565b60008115159050919050565b61485d81614848565b82525050565b60006020820190506148786000830184614854565b92915050565b6000602082840312156148945761489361476a565b5b60006148a2848285016147f3565b91505092915050565b6148b4816147d2565b82525050565b60006020820190506148cf60008301846148ab565b92915050565b6000806000606084860312156148ee576148ed61476a565b5b60006148fc868287016147bd565b935050602061490d868287016147bd565b925050604061491e868287016147f3565b9150509250925092565b6000806040838503121561493f5761493e61476a565b5b600061494d858286016147f3565b925050602061495e858286016147f3565b9150509250929050565b600060ff82169050919050565b61497e81614968565b82525050565b60006020820190506149996000830184614975565b92915050565b6000602082840312156149b5576149b461476a565b5b60006149c3848285016147bd565b91505092915050565b6149d581614794565b82525050565b600060a0820190506149f060008301886149cc565b8181036020830152614a028187614705565b90508181036040830152614a168186614705565b90508181036060830152614a2a8185614705565b9050614a3960808301846148ab565b9695505050505050565b600081519050919050565b600082825260208201905092915050565b6000819050602082019050919050565b614a7881614794565b82525050565b6000614a8a8383614a6f565b60208301905092915050565b6000602082019050919050565b6000614aae82614a43565b614ab88185614a4e565b9350614ac383614a5f565b8060005b83811015614af4578151614adb8882614a7e565b9750614ae683614a96565b925050600181019050614ac7565b5085935050505092915050565b60006020820190508181036000830152614b1b8184614aa3565b905092915050565b60008060408385031215614b3a57614b3961476a565b5b6000614b48858286016147f3565b9250506020614b59858286016147bd565b9150509250929050565b600081519050919050565b600082825260208201905092915050565b6000819050602082019050919050565b614b98816147d2565b82525050565b6000614baa8383614b8f565b60208301905092915050565b6000602082019050919050565b6000614bce82614b63565b614bd88185614b6e565b9350614be383614b7f565b8060005b83811015614c14578151614bfb8882614b9e565b9750614c0683614bb6565b925050600181019050614be7565b5085935050505092915050565b60006020820190508181036000830152614c3b8184614bc3565b905092915050565b600080fd5b600080fd5b7f4e487b7100000000000000000000000000000000000000000000000000000000600052604160045260246000fd5b614c85826146f4565b810181811067ffffffffffffffff82111715614ca457614ca3614c4d565b5b80604052505050565b6000614cb7614760565b9050614cc38282614c7c565b919050565b600067ffffffffffffffff821115614ce357614ce2614c4d565b5b614cec826146f4565b9050602081019050919050565b82818337600083830152505050565b6000614d1b614d1684614cc8565b614cad565b905082815260208101848484011115614d3757614d36614c48565b5b614d42848285614cf9565b509392505050565b600082601f830112614d5f57614d5e614c43565b5b8135614d6f848260208601614d08565b91505092915050565b60008060008060808587031215614d9257614d9161476a565b5b600085013567ffffffffffffffff811115614db057614daf61476f565b5b614dbc87828801614d4a565b945050602085013567ffffffffffffffff811115614ddd57614ddc61476f565b5b614de987828801614d4a565b935050604085013567ffffffffffffffff811115614e0a57614e0961476f565b5b614e1687828801614d4a565b9250506060614e27878288016147f3565b91505092959194509250565b7f4e487b7100000000000000000000000000000000000000000000000000000000600052602160045260246000fd5b60048110614e7357614e72614e33565b5b50565b6000819050614e8482614e62565b919050565b6000614e9482614e76565b9050919050565b614ea481614e89565b82525050565b600061014082019050614ec0600083018d6148ab565b8181036020830152614ed2818c614705565b90508181036040830152614ee6818b614705565b9050614ef5606083018a6148ab565b8181036080830152614f078189614705565b9050614f1660a08301886148ab565b614f2360c08301876148ab565b614f3060e0830186614e9b565b614f3e6101008301856148ab565b614f4c6101208301846148ab565b9b9a5050505050505050505050565b600067ffffffffffffffff821115614f7657614f75614c4d565b5b614f7f826146f4565b9050602081019050919050565b6000614f9f614f9a84614f5b565b614cad565b905082815260208101848484011115614fbb57614fba614c48565b5b614fc6848285614cf9565b509392505050565b600082601f830112614fe357614fe2614c43565b5b8135614ff3848260208601614f8c565b91505092915050565b6000806000606084860312156150155761501461476a565b5b6000615023868287016147bd565b9350506020615034868287016147f3565b925050604084013567ffffffffffffffff8111156150555761505461476f565b5b61506186828701614fce565b9150509250925092565b600080600080608085870312156150855761508461476a565b5b6000615093878288016147bd565b945050602085013567ffffffffffffffff8111156150b4576150b361476f565b5b6150c087828801614d4a565b935050604085013567ffffffffffffffff8111156150e1576150e061476f565b5b6150ed87828801614d4a565b925050606085013567ffffffffffffffff81111561510e5761510d61476f565b5b61511a87828801614d4a565b91505092959194509250565b6000806040838503121561513d5761513c61476a565b5b600061514b858286016147bd565b925050602061515c858286016147bd565b9150509250929050565b600060208201905061517b60008301846149cc565b92915050565b7f4e487b7100000000000000000000000000000000000000000000000000000000600052602260045260246000fd5b600060028204905060018216806151c857607f821691505b602082108114156151dc576151db615181565b5b50919050565b7f4f6e6c792061646d696e2063616e20736f6c7665000000000000000000000000600082015250565b60006152186014836146b0565b9150615223826151e2565b602082019050919050565b600060208201905081810360008301526152478161520b565b9050919050565b7f4e487b7100000000000000000000000000000000000000000000000000000000600052603260045260246000fd5b60008190508160005260206000209050919050565b6000815461529f816151b0565b6152a981866146b0565b945060018216600081146152c457600181146152d657615309565b60ff1983168652602086019350615309565b6152df8561527d565b60005b83811015615301578154818901526001820191506020810190506152e2565b808801955050505b50505092915050565b6000604082019050818103600083015261532c8185615292565b905061533b60208301846148ab565b9392505050565b7f4e487b7100000000000000000000000000000000000000000000000000000000600052601160045260246000fd5b600061537c826147d2565b9150615387836147d2565b92508282101561539a57615399615342565b5b828203905092915050565b7f57726f6e6720737461747573206f66207365737374696f6e0000000000000000600082015250565b60006153db6018836146b0565b91506153e6826153a5565b602082019050919050565b6000602082019050818103600083015261540a816153ce565b9050919050565b600061541c826147d2565b91507fffffffffffffffffffffffffffffffffffffffffffffffffffffffffffffffff82141561544f5761544e615342565b5b600182019050919050565b7f4e6f74206f6e6c792061646d696e000000000000000000000000000000000000600082015250565b6000615490600e836146b0565b915061549b8261545a565b602082019050919050565b600060208201905081810360008301526154bf81615483565b9050919050565b600060608201905081810360008301526154e08186615292565b905081810360208301526154f48185615292565b905061550360408301846148ab565b949350505050565b7f7361666553756200000000000000000000000000000000000000000000000000600082015250565b60006155416007836146b0565b915061554c8261550b565b602082019050919050565b6000602082019050818103600083015261557081615534565b9050919050565b6000615582826147d2565b915061558d836147d2565b9250827fffffffffffffffffffffffffffffffffffffffffffffffffffffffffffffffff038211156155c2576155c1615342565b5b828201905092915050565b7f7361666544697600000000000000000000000000000000000000000000000000600082015250565b60006156036007836146b0565b915061560e826155cd565b602082019050919050565b60006020820190508181036000830152615632816155f6565b9050919050565b7f4e487b7100000000000000000000000000000000000000000000000000000000600052601260045260246000fd5b6000615673826147d2565b915061567e836147d2565b92508261568e5761568d615639565b5b828204905092915050565b600081519050919050565b600082825260208201905092915050565b60006156c082615699565b6156ca81856156a4565b93506156da8185602086016146c1565b6156e3816146f4565b840191505092915050565b600060808201905061570360008301876149cc565b61571060208301866148ab565b61571d60408301856149cc565b818103606083015261572f81846156b5565b905095945050505050565b6000615745826147d2565b9150615750836147d2565b9250817fffffffffffffffffffffffffffffffffffffffffffffffffffffffffffffffff048311821515161561578957615788615342565b5b828202905092915050565b7f736166654d756c00000000000000000000000000000000000000000000000000600082015250565b60006157ca6007836146b0565b91506157d582615794565b602082019050919050565b600060208201905081810360008301526157f9816157bd565b9050919050565b7f4163636f756e74206f662061646d696e2063616e277420726567697374657200600082015250565b6000615836601f836146b0565b915061584182615800565b602082019050919050565b6000602082019050818103600083015261586581615829565b9050919050565b7f546865206e756d626572206f66207061727469636970616e7473206973206c6560008201527f7373207468616e2074656e2e0000000000000000000000000000000000000000602082015250565b60006158c8602c836146b0565b91506158d38261586c565b604082019050919050565b600060208201905081810360008301526158f7816158bb565b9050919050565b7f546869732061646472657373205265616c6c7920657869737465640000000000600082015250565b6000615934601b836146b0565b915061593f826158fe565b602082019050919050565b6000602082019050818103600083015261596381615927565b9050919050565b7f7361666541646400000000000000000000000000000000000000000000000000600082015250565b60006159a06007836146b0565b91506159ab8261596a565b602082019050919050565b600060208201905081810360008301526159cf81615993565b905091905056fea264697066735822122044c87a36cf8d9c803ace485d9bcede864f8e4e0a6f689e3be7d42f29d63bb40264736f6c634300080a0033516d4e7156597448346d584736394c6e4159453478793168676666315a6b594274765663434479413452506936694c757875727920686967682d636c617373202d20556e6971756520616e64206174747261637469766520636f6c6f72732e3c62722f3e54616b652070726f66657373696f6e616c2070686f746f73202d20536574206f6620332063616d65726173207468617420737570706f7274205a6f6f6d20617320666172206173203330582e3c62722f3e54616b65206e6f74657320717569636b6c7920616e642061636375726174656c79207769746820746865206e65772067656e65726174696f6e20532d50656e2e3c62722f3e556c74696d6174652067616d696e67202d20506f77657266756c20376e6d204578796e6f73203939302c206f75747374616e64696e672070726f63657373696e6720706572666f726d616e63652e3c62722f3e53616d73756e67204e6f746520323020556c7472612035472070686f6e65202d204c75787572792c206f75747374616e64696e6720706572666f726d616e63652e3c62722f3e4d6f6e6f6c697468696320616c756d696e756d206672616d652064657369676e2c206c75787572696f75732074656d706572656420676c617373206261636b2e",
  "immutableReferences": {},
  "source": "pragma solidity >=0.4.0 <0.9.0;\r\nimport \"./Main.sol\";\r\nimport \"./TokenERC20.sol\";\r\ncontract Session is Main, TokenERC20{\r\n    //Set Data for items object\r\n    struct Items{\r\n        uint IdItem;\r\n        string nameItem;\r\n        string imageHash;\r\n        uint firstPrice;\r\n        string itemDescription;\r\n        uint countPaticipantJoinSesstion;\r\n        uint valueChangePricing;\r\n        address[] checkAccount;\r\n        StatusSesstion statusSesstion;\r\n        uint timeSesstionEachOtherproduct;\r\n        uint timeFinishSesstionEachOtherproduct;\r\n    }\r\n    //Reference paticipants throw address\r\n    mapping(address => Paticipant) public paticipants;\r\n    //List items\r\n    Items[] public itemsList;\r\n    //Count number items\r\n    uint public index = 0;\r\n    //List address of paticipants\r\n    address[] public totalAccounts;\r\n    //List name of items\r\n    string[] public listNameOfItems = [\"Samsung Galaxy Note20\"];\r\n    //List hashImage of items\r\n    string[] public listHashImage = [\"QmNqVYtH4mXG69LnAYE4xy1hgff1ZkYBtvVcCDyA4RPi6i\"];\r\n    //List information of image of items\r\n    string[] public listInformationOfImage = [\"Luxury high-class - Unique and attractive colors.<br/>Take professional photos - Set of 3 cameras that support Zoom as far as 30X.<br/>Take notes quickly and accurately with the new generation S-Pen.<br/>Ultimate gaming - Powerful 7nm Exynos 990, outstanding processing performance.<br/>Samsung Note 20 Ultra 5G phone - Luxury, outstanding performance.<br/>Monolithic aluminum frame design, luxurious tempered glass back.\"];\r\n    //List price of item\r\n    uint[] public listPrice = [930];\r\n    //Empty array\r\n    uint[] public emptyArray1 = [0];\r\n    uint[] public emptyArray2 = [0];\r\n    \r\n    //Modifiler check status of session\r\n    modifier checkStatus(StatusSesstion _statusSesstion, uint _IdItem){\r\n        require(itemsList[_IdItem].statusSesstion == _statusSesstion, \"Wrong status of sesstion\");\r\n        _;\r\n    }\r\n    //Event start session\r\n    event LogStartSession(uint indexed _IdItems, string _nameItem, uint _firstPrice);\r\n    //Event stop session\r\n    event LogStopSession(uint indexed _IdItems, string _nameItem, uint _firstPrice);\r\n    //Event changePriceSession\r\n    event LogChainPriceOfSession(uint indexed _IdItems, string _nameItem, string _fullName, uint _valueChangePricing);\r\n\r\n    constructor(){\r\n        addData();\r\n    }\r\n    //Add element of items to array\r\n    function createNewItem(string memory _nameItem, string memory _imageHash, string memory _itemDescription, uint _firstPrice) public onlyAdmin {\r\n        listNameOfItems.push(_nameItem);\r\n        listHashImage.push(_imageHash);\r\n        listInformationOfImage.push(_itemDescription);\r\n        listPrice.push(_firstPrice);\r\n    }\r\n    //Add item to itemsList\r\n    function addData() public{\r\n        \r\n        for(uint i = 0 ; i < listHashImage.length ; i++){\r\n            bool statusAdd;\r\n            for(uint j = 0 ; j < itemsList.length ; j++){\r\n               statusAdd = stringsEquals(itemsList[j].imageHash, listHashImage[i]);\r\n               if(statusAdd){\r\n                   break;\r\n               }\r\n            }\r\n            if(!statusAdd){\r\n                //uint[] memory emptyArray;\r\n                address[] memory amptyAddressArray;\r\n                itemsList.push(Items(i, listNameOfItems[i], listHashImage[i], listPrice[i], listInformationOfImage[i],  0, 0, amptyAddressArray, StatusSesstion.START, 0, 600));\r\n                index++;\r\n            }  \r\n        }\r\n    }\r\n    //Convert status session to string\r\n    function convertStateToString(uint _IdItem) public view returns(string memory){\r\n        if(itemsList[_IdItem].statusSesstion == StatusSesstion.START){\r\n            return \"Not Start\";\r\n        }else{\r\n            if(itemsList[_IdItem].statusSesstion == StatusSesstion.PRICING){\r\n                return \"Started\";\r\n            }else{\r\n               if(itemsList[_IdItem].statusSesstion == StatusSesstion.ENDING){\r\n                  return \"Ending\";\r\n               }else{\r\n                    return \"Done\";\r\n               }\r\n            }\r\n        }\r\n    }\r\n    //Check same data\r\n    function stringsEquals(string memory s1, string memory s2) private pure returns (bool) {\r\n        bytes memory b1 = bytes(s1);\r\n        bytes memory b2 = bytes(s2);\r\n        uint256 l1 = b1.length;\r\n        if (l1 != b2.length) return false;\r\n        for (uint256 i=0; i<l1; i++) {\r\n            if (b1[i] != b2[i]) return false;\r\n        }\r\n        return true;\r\n    }\r\n    //get length of items\r\n    function getLengthItems() public view returns(uint) {\r\n        return itemsList.length;\r\n    }\r\n    //stop session\r\n    function stopSesstion(uint _IdItem) public onlyAdmin {\r\n        itemsList[_IdItem].statusSesstion = StatusSesstion.ENDING;\r\n        emit LogStopSession(_IdItem,  itemsList[_IdItem].nameItem,  itemsList[_IdItem].firstPrice);\r\n    }\r\n    //statr session\r\n    function startSesstion(uint _IdItem) public onlyAdmin {\r\n        itemsList[_IdItem].statusSesstion = StatusSesstion.PRICING;\r\n        itemsList[_IdItem].timeSesstionEachOtherproduct = block.timestamp;\r\n        emit LogStartSession(_IdItem,  itemsList[_IdItem].nameItem,  itemsList[_IdItem].firstPrice);\r\n    }\r\n    // set final price for items\r\n    function setFinalPriceOfItem(uint _IdItem, uint _price) public onlyAdmin {\r\n         itemsList[_IdItem].firstPrice = _price;\r\n         itemsList[_IdItem].statusSesstion = StatusSesstion.DONE;\r\n    }\r\n    //Show the price proposal each item\r\n    function showDataPrice(uint _IdItem, address _address) public view returns(uint[] memory){\r\n        return paticipants[_address].listDataChange[_IdItem].priceDeviation;\r\n    }\r\n    //Show the accumulated Deviation\r\n    function showDataDeviation(uint _IdItem, address _address) public view returns(uint[] memory){\r\n        return paticipants[_address].listDataChange[_IdItem].valueChangePricingOtherPaticipant;\r\n    }\r\n    //Show all address join pricing product\r\n    function getAddressChangedPriceOfItems(uint _IdItem) public view returns(address[] memory){\r\n         return itemsList[_IdItem].checkAccount;\r\n    }\r\n    //Show all address to register account\r\n    function getAddressUserRegister() public onlyAdmin view returns(address[] memory){\r\n        return totalAccounts;\r\n    }\r\n    //Register new account\r\n    function registerAccount(address _address, string memory _fullName, string memory _email, string memory _passwordAccount) public{\r\n    //Check account exist    \r\n        bool checkStatusAddress = false;\r\n        if(_address == admin){\r\n            revert(\"Account of admin can't register\");\r\n        }\r\n    //Check total account less then ten account    \r\n        if(totalAccounts.length > 10){\r\n            revert(\"The number of participants is less than ten.\");\r\n        }else{\r\n            for(uint i = 0; i < totalAccounts.length; i++){\r\n                if(_address == totalAccounts[i]){\r\n                    checkStatusAddress = true;\r\n                    break;\r\n                }\r\n            }\r\n            if(!checkStatusAddress){\r\n     //Set data for paticipant           \r\n                totalAccounts.push(_address); \r\n                paticipants[_address].addressAccount = _address;\r\n                paticipants[_address].fullName = _fullName;\r\n                paticipants[_address].email = _email;\r\n                paticipants[_address].passwordAccount = _passwordAccount;\r\n                paticipants[_address].countPricedSesstion = 0;\r\n     //Set data items for paticipant           \r\n                for(uint i = 0 ; i < index ; i++){\r\n                    DataChange memory dataChange = DataChange({IdItem: i, priceDeviation: emptyArray1, valueChangePricingOtherPaticipant: emptyArray2 , numberChangePricingOtherPaticipant: 0});\r\n                    paticipants[_address].listDataChange.push(dataChange);\r\n                }\r\n            }else{\r\n                revert(\"This address Really existed\");\r\n            }\r\n        }   \r\n    }  \r\n    //get price proposol each other item/product\r\n    function getProposedPrice(uint _IdItem) public{\r\n    //Stautus of session is ENDING   \r\n        if(itemsList[_IdItem].statusSesstion != StatusSesstion.ENDING){\r\n            revert(\"Wrong status of sesstion\");\r\n        }\r\n        uint totalPriceOfPaticipantAbove;\r\n    //Get number items\r\n        uint numberPaticipantJoneSestion = itemsList[_IdItem].checkAccount.length;\r\n        for(uint i = 0 ; i < numberPaticipantJoneSestion ; i++){\r\n              uint lengthPriceDeviation = paticipants[itemsList[_IdItem].checkAccount[i]].listDataChange[_IdItem].numberChangePricingOtherPaticipant;\r\n              totalPriceOfPaticipantAbove = safeAdd(totalPriceOfPaticipantAbove, safeMul(paticipants[itemsList[_IdItem].checkAccount[i]].listDataChange[_IdItem].priceDeviation[lengthPriceDeviation],  safeSub(100, (paticipants[itemsList[_IdItem].checkAccount[i]].listDataChange[_IdItem].valueChangePricingOtherPaticipant[lengthPriceDeviation]))));  \r\n        }    \r\n        uint totalPriceOfPaticipantUnderLeft = safeMul(100, numberPaticipantJoneSestion);    \r\n        uint totalPriceOfPaticipantUnderRight;\r\n        for(uint i = 0 ; i < numberPaticipantJoneSestion ; i++){\r\n              uint lengthPriceDeviation = paticipants[itemsList[_IdItem].checkAccount[i]].listDataChange[_IdItem].numberChangePricingOtherPaticipant;\r\n              totalPriceOfPaticipantUnderRight = safeAdd(totalPriceOfPaticipantUnderRight, paticipants[ itemsList[_IdItem].checkAccount[i]].listDataChange[_IdItem].valueChangePricingOtherPaticipant[lengthPriceDeviation]);\r\n        }\r\n        uint result = safeDiv(totalPriceOfPaticipantAbove, safeSub(totalPriceOfPaticipantUnderLeft, totalPriceOfPaticipantUnderRight));\r\n    //Set price proposal for items\r\n        itemsList[_IdItem].valueChangePricing = result;\r\n    }\r\n    //Calculate accumulated deviation each participants\r\n    function accumulatedDeviation(uint _newPriceOfParticipan, uint _IdItem) public notOnlyAdmin checkStatus(StatusSesstion.PRICING, _IdItem){\r\n        if(itemsList[_IdItem].checkAccount.length == 0){\r\n            transfer(paticipants[msg.sender].addressAccount, 10);\r\n            itemsList[_IdItem].checkAccount.push(msg.sender);\r\n        }else{\r\n            for(uint i = 0 ; i < itemsList[_IdItem].checkAccount.length; i++){\r\n                if(itemsList[_IdItem].checkAccount[i] == msg.sender){\r\n                    status = true;\r\n                    break;\r\n                }\r\n            }\r\n            if(status == false){\r\n                itemsList[_IdItem].checkAccount.push(msg.sender);\r\n                transfer(paticipants[msg.sender].addressAccount, 10);\r\n            }else{\r\n                status = false;\r\n            }\r\n        }\r\n        uint calNewPriceOfParticipant = calculatingDeviation(_newPriceOfParticipan, _IdItem);\r\n        uint lengthPriceDeviation = paticipants[msg.sender].listDataChange[_IdItem].numberChangePricingOtherPaticipant;\r\n        uint numberPaticipant = paticipants[msg.sender].listDataChange[_IdItem].numberChangePricingOtherPaticipant;\r\n        uint currentPriceDeviation = paticipants[msg.sender].listDataChange[_IdItem].valueChangePricingOtherPaticipant[lengthPriceDeviation];\r\n        uint value = safeDiv(safeAdd(safeMul(currentPriceDeviation, numberPaticipant), calNewPriceOfParticipant), safeAdd(numberPaticipant, 1));\r\n        paticipants[msg.sender].listDataChange[_IdItem].valueChangePricingOtherPaticipant.push(value);\r\n        paticipants[msg.sender].listDataChange[_IdItem].priceDeviation.push(_newPriceOfParticipan);\r\n        paticipants[msg.sender].listDataChange[_IdItem].numberChangePricingOtherPaticipant = safeAdd(paticipants[msg.sender].listDataChange[_IdItem].numberChangePricingOtherPaticipant, 1);\r\n        paticipants[msg.sender].countPricedSesstion = safeAdd(paticipants[msg.sender].countPricedSesstion, 1);\r\n        itemsList[_IdItem].countPaticipantJoinSesstion = safeAdd(itemsList[_IdItem].countPaticipantJoinSesstion, 1);\r\n        emit LogChainPriceOfSession(_IdItem, itemsList[_IdItem].nameItem,  paticipants[msg.sender].fullName, _newPriceOfParticipan);\r\n    }\r\n    //Calculate Deviation \r\n    function calculatingDeviation(uint _priceOfParticipan, uint _IdItem) internal view returns (uint){\r\n        uint newPriceDeviation = 0;\r\n        if(itemsList[_IdItem].firstPrice > _priceOfParticipan){\r\n            newPriceDeviation = safeDiv(safeMul(safeSub(itemsList[_IdItem].firstPrice, _priceOfParticipan), 100), itemsList[_IdItem].firstPrice);\r\n        }else{\r\n            newPriceDeviation = safeDiv(safeMul(safeSub(_priceOfParticipan, itemsList[_IdItem].firstPrice), 100), itemsList[_IdItem].firstPrice);\r\n        }\r\n        return uint(newPriceDeviation);\r\n    }\r\n    //Set status for session\r\n    function timeOutOfSesstion(uint _IdItem) public{\r\n        if(itemsList[_IdItem].timeSesstionEachOtherproduct == 0){\r\n             itemsList[_IdItem].statusSesstion = StatusSesstion.START;\r\n        }else{\r\n            if(block.timestamp > itemsList[_IdItem].timeSesstionEachOtherproduct && block.timestamp < itemsList[_IdItem].timeSesstionEachOtherproduct +itemsList[_IdItem].timeFinishSesstionEachOtherproduct){\r\n                itemsList[_IdItem].statusSesstion = StatusSesstion.PRICING;\r\n            }else{\r\n                if(block.timestamp > itemsList[_IdItem].timeSesstionEachOtherproduct + itemsList[_IdItem].timeFinishSesstionEachOtherproduct){\r\n                    itemsList[_IdItem].statusSesstion = StatusSesstion.ENDING;\r\n                }\r\n            }\r\n        }\r\n        \r\n    }\r\n}",
  "sourcePath": "C:\\Users\\Admin\\Desktop\\FunixChainPrice\\FunixPriceChanging\\contracts\\Session.sol",
  "compiler": {
    "name": "solc",
    "version": "0.8.10+commit.fc410830.Emscripten.clang"
  },
  "schemaVersion": "3.4.4",
  "updatedAt": "2022-01-25T08:46:49.845Z",
  "networkType": "ethereum",
  "devdoc": {
    "kind": "dev",
    "methods": {},
    "version": 1
  },
  "userdoc": {
    "kind": "user",
    "methods": {},
    "version": 1
  }
}