{
  "contractName": "Session",
  "abi": [
    {
      "anonymous": false,
      "inputs": [
        {
          "indexed": true,
          "internalType": "uint256",
          "name": "_IdItems",
          "type": "uint256"
        },
        {
          "indexed": false,
          "internalType": "string",
          "name": "_nameItem",
          "type": "string"
        },
        {
          "indexed": false,
          "internalType": "string",
          "name": "_fullName",
          "type": "string"
        },
        {
          "indexed": false,
          "internalType": "uint256",
          "name": "_valueChangePricing",
          "type": "uint256"
        }
      ],
      "name": "LogChainPriceOfSession",
      "type": "event"
    },
    {
      "anonymous": false,
      "inputs": [
        {
          "indexed": true,
          "internalType": "uint256",
          "name": "_IdItems",
          "type": "uint256"
        },
        {
          "indexed": false,
          "internalType": "string",
          "name": "_nameItem",
          "type": "string"
        },
        {
          "indexed": false,
          "internalType": "uint256",
          "name": "_firstPrice",
          "type": "uint256"
        }
      ],
      "name": "LogStartSession",
      "type": "event"
    },
    {
      "anonymous": false,
      "inputs": [
        {
          "indexed": true,
          "internalType": "uint256",
          "name": "_IdItems",
          "type": "uint256"
        },
        {
          "indexed": false,
          "internalType": "string",
          "name": "_nameItem",
          "type": "string"
        },
        {
          "indexed": false,
          "internalType": "uint256",
          "name": "_firstPrice",
          "type": "uint256"
        }
      ],
      "name": "LogStopSession",
      "type": "event"
    },
    {
      "inputs": [],
      "name": "admin",
      "outputs": [
        {
          "internalType": "address",
          "name": "",
          "type": "address"
        }
      ],
      "stateMutability": "view",
      "type": "function",
      "constant": true
    },
    {
      "inputs": [],
      "name": "index",
      "outputs": [
        {
          "internalType": "uint256",
          "name": "",
          "type": "uint256"
        }
      ],
      "stateMutability": "view",
      "type": "function",
      "constant": true
    },
    {
      "inputs": [
        {
          "internalType": "uint256",
          "name": "",
          "type": "uint256"
        }
      ],
      "name": "itemsList",
      "outputs": [
        {
          "internalType": "uint256",
          "name": "IdItem",
          "type": "uint256"
        },
        {
          "internalType": "string",
          "name": "nameItem",
          "type": "string"
        },
        {
          "internalType": "string",
          "name": "imageHash",
          "type": "string"
        },
        {
          "internalType": "uint256",
          "name": "firstPrice",
          "type": "uint256"
        },
        {
          "internalType": "string",
          "name": "itemDescription",
          "type": "string"
        },
        {
          "internalType": "uint256",
          "name": "countPaticipantJoinSesstion",
          "type": "uint256"
        },
        {
          "internalType": "uint256",
          "name": "valueChangePricing",
          "type": "uint256"
        },
        {
          "internalType": "enum Main.StatusSesstion",
          "name": "statusSesstion",
          "type": "uint8"
        },
        {
          "internalType": "uint256",
          "name": "timeSesstionEachOtherproduct",
          "type": "uint256"
        },
        {
          "internalType": "uint256",
          "name": "timeFinishSesstionEachOtherproduct",
          "type": "uint256"
        }
      ],
      "stateMutability": "view",
      "type": "function",
      "constant": true
    },
    {
      "inputs": [
        {
          "internalType": "uint256",
          "name": "",
          "type": "uint256"
        }
      ],
      "name": "listHashImage",
      "outputs": [
        {
          "internalType": "string",
          "name": "",
          "type": "string"
        }
      ],
      "stateMutability": "view",
      "type": "function",
      "constant": true
    },
    {
      "inputs": [
        {
          "internalType": "uint256",
          "name": "",
          "type": "uint256"
        }
      ],
      "name": "listInformationOfImage",
      "outputs": [
        {
          "internalType": "string",
          "name": "",
          "type": "string"
        }
      ],
      "stateMutability": "view",
      "type": "function",
      "constant": true
    },
    {
      "inputs": [
        {
          "internalType": "uint256",
          "name": "",
          "type": "uint256"
        }
      ],
      "name": "listNameOfItems",
      "outputs": [
        {
          "internalType": "string",
          "name": "",
          "type": "string"
        }
      ],
      "stateMutability": "view",
      "type": "function",
      "constant": true
    },
    {
      "inputs": [
        {
          "internalType": "uint256",
          "name": "",
          "type": "uint256"
        }
      ],
      "name": "listPrice",
      "outputs": [
        {
          "internalType": "uint256",
          "name": "",
          "type": "uint256"
        }
      ],
      "stateMutability": "view",
      "type": "function",
      "constant": true
    },
    {
      "inputs": [
        {
          "internalType": "address",
          "name": "",
          "type": "address"
        }
      ],
      "name": "paticipants",
      "outputs": [
        {
          "internalType": "address",
          "name": "addressAccount",
          "type": "address"
        },
        {
          "internalType": "string",
          "name": "fullName",
          "type": "string"
        },
        {
          "internalType": "string",
          "name": "email",
          "type": "string"
        },
        {
          "internalType": "string",
          "name": "passwordAccount",
          "type": "string"
        },
        {
          "internalType": "uint256",
          "name": "countPricedSesstion",
          "type": "uint256"
        }
      ],
      "stateMutability": "view",
      "type": "function",
      "constant": true
    },
    {
      "inputs": [
        {
          "internalType": "uint256",
          "name": "",
          "type": "uint256"
        }
      ],
      "name": "totalAccounts",
      "outputs": [
        {
          "internalType": "address",
          "name": "",
          "type": "address"
        }
      ],
      "stateMutability": "view",
      "type": "function",
      "constant": true
    },
    {
      "inputs": [
        {
          "internalType": "string",
          "name": "_nameItem",
          "type": "string"
        },
        {
          "internalType": "string",
          "name": "_imageHash",
          "type": "string"
        },
        {
          "internalType": "string",
          "name": "_itemDescription",
          "type": "string"
        },
        {
          "internalType": "uint256",
          "name": "_firstPrice",
          "type": "uint256"
        }
      ],
      "name": "createNewItem",
      "outputs": [],
      "stateMutability": "nonpayable",
      "type": "function"
    },
    {
      "inputs": [],
      "name": "addData",
      "outputs": [],
      "stateMutability": "nonpayable",
      "type": "function"
    },
    {
      "inputs": [
        {
          "internalType": "uint256",
          "name": "_IdItem",
          "type": "uint256"
        }
      ],
      "name": "convertStateToString",
      "outputs": [
        {
          "internalType": "string",
          "name": "",
          "type": "string"
        }
      ],
      "stateMutability": "view",
      "type": "function",
      "constant": true
    },
    {
      "inputs": [],
      "name": "getLengthItems",
      "outputs": [
        {
          "internalType": "uint256",
          "name": "",
          "type": "uint256"
        }
      ],
      "stateMutability": "view",
      "type": "function",
      "constant": true
    },
    {
      "inputs": [
        {
          "internalType": "uint256",
          "name": "_IdItem",
          "type": "uint256"
        }
      ],
      "name": "stopSesstion",
      "outputs": [],
      "stateMutability": "nonpayable",
      "type": "function"
    },
    {
      "inputs": [
        {
          "internalType": "uint256",
          "name": "_IdItem",
          "type": "uint256"
        }
      ],
      "name": "startSesstion",
      "outputs": [],
      "stateMutability": "nonpayable",
      "type": "function"
    },
    {
      "inputs": [
        {
          "internalType": "uint256",
          "name": "_IdItem",
          "type": "uint256"
        },
        {
          "internalType": "uint256",
          "name": "_price",
          "type": "uint256"
        }
      ],
      "name": "setFinalPriceOfItem",
      "outputs": [],
      "stateMutability": "nonpayable",
      "type": "function"
    },
    {
      "inputs": [
        {
          "internalType": "address",
          "name": "_address",
          "type": "address"
        },
        {
          "internalType": "string",
          "name": "_fullName",
          "type": "string"
        },
        {
          "internalType": "string",
          "name": "_email",
          "type": "string"
        },
        {
          "internalType": "string",
          "name": "_passwordAccount",
          "type": "string"
        }
      ],
      "name": "registerAccount",
      "outputs": [],
      "stateMutability": "nonpayable",
      "type": "function"
    },
    {
      "inputs": [
        {
          "internalType": "uint256",
          "name": "_IdItem",
          "type": "uint256"
        }
      ],
      "name": "getProposedPrice",
      "outputs": [],
      "stateMutability": "nonpayable",
      "type": "function"
    },
    {
      "inputs": [
        {
          "internalType": "uint256",
          "name": "_newPriceOfParticipan",
          "type": "uint256"
        },
        {
          "internalType": "uint256",
          "name": "_IdItem",
          "type": "uint256"
        }
      ],
      "name": "accumulatedDeviation",
      "outputs": [],
      "stateMutability": "nonpayable",
      "type": "function"
    },
    {
      "inputs": [
        {
          "internalType": "uint256",
          "name": "_IdItem",
          "type": "uint256"
        }
      ],
      "name": "timeOutOfSesstion",
      "outputs": [],
      "stateMutability": "nonpayable",
      "type": "function"
    }
  ],
  "bytecode": "0x608060405260008060146101000a81548160ff021916908315150217905550600060035560405180602001604052806040518060400160405280601581526020017f53616d73756e672047616c617879204e6f7465323000000000000000000000008152508152506005906001620000799291906200016f565b5060405180602001604052806040518060600160405280602e815260200162003ddb602e91398152506006906001620000b49291906200016f565b506040518060200160405280604051806101e001604052806101a5815260200162003e096101a591398152506007906001620000f29291906200016f565b5060405180602001604052806103a261ffff1681525060089060016200011a929190620001d6565b503480156200012857600080fd5b50336000806101000a81548173ffffffffffffffffffffffffffffffffffffffff021916908373ffffffffffffffffffffffffffffffffffffffff160217905550620003b1565b828054828255906000526020600020908101928215620001c3579160200282015b82811115620001c2578251829080519060200190620001b19291906200022e565b509160200191906001019062000190565b5b509050620001d29190620002bf565b5090565b8280548282559060005260206000209081019282156200021b579160200282015b828111156200021a578251829061ffff16905591602001919060010190620001f7565b5b5090506200022a9190620002e7565b5090565b8280546200023c906200037b565b90600052602060002090601f016020900481019282620002605760008555620002ac565b82601f106200027b57805160ff1916838001178555620002ac565b82800160010185558215620002ac579182015b82811115620002ab5782518255916020019190600101906200028e565b5b509050620002bb9190620002e7565b5090565b5b80821115620002e35760008181620002d9919062000306565b50600101620002c0565b5090565b5b8082111562000302576000816000905550600101620002e8565b5090565b50805462000314906200037b565b6000825580601f1062000328575062000349565b601f016020900490600052602060002090810190620003489190620002e7565b5b50565b7f4e487b7100000000000000000000000000000000000000000000000000000000600052602260045260246000fd5b600060028204905060018216806200039457607f821691505b60208210811415620003ab57620003aa6200034c565b5b50919050565b613a1a80620003c16000396000f3fe608060405234801561001057600080fd5b506004361061012c5760003560e01c80638df2873e116100ad578063d19757db11610071578063d19757db14610372578063e3ce9ba71461038e578063e8c06c5414610398578063f53dbb2e146103b4578063f851a440146103e45761012c565b80638df2873e1461029f5780639005bf74146102cf57806398f68510146102ff578063b09da1541461031d578063c2bd9d95146103395761012c565b806340a1ca29116100f457806340a1ca29146101e75780634ae19b1a146102035780635ef002321461023757806379daaa601461025357806387d81f7c1461026f5761012c565b80631043bd70146101315780632986c0e51461014d5780632d1c7f5e1461016b578063358c371f146101875780633fe91121146101b7575b600080fd5b61014b60048036038101906101469190612d9e565b610402565b005b61015561058e565b6040516101629190612dda565b60405180910390f35b61018560048036038101906101809190612df5565b610594565b005b6101a1600480360381019061019c9190612d9e565b61069e565b6040516101ae9190612ece565b60405180910390f35b6101d160048036038101906101cc9190612d9e565b61074a565b6040516101de9190612ece565b60405180910390f35b61020160048036038101906101fc9190612d9e565b6107f6565b005b61021d60048036038101906102189190612f4e565b610be3565b60405161022e959493929190612f8a565b60405180910390f35b610251600480360381019061024c9190612df5565b610dd1565b005b61026d60048036038101906102689190613127565b611517565b005b61028960048036038101906102849190612d9e565b611688565b6040516102969190612dda565b60405180910390f35b6102b960048036038101906102b49190612d9e565b6116ac565b6040516102c69190612ece565b60405180910390f35b6102e960048036038101906102e49190612d9e565b611758565b6040516102f69190612ece565b60405180910390f35b61030761196c565b6040516103149190612dda565b60405180910390f35b61033760048036038101906103329190612d9e565b611979565b005b610353600480360381019061034e9190612d9e565b611b8a565b6040516103699a99989796959493929190613259565b60405180910390f35b61038c6004803603810190610387919061330a565b611d93565b005b610396612268565b005b6103b260048036038101906103ad9190612d9e565b612810565b005b6103ce60048036038101906103c99190612d9e565b612971565b6040516103db91906133c5565b60405180910390f35b6103ec6129b0565b6040516103f991906133c5565b60405180910390f35b60008054906101000a900473ffffffffffffffffffffffffffffffffffffffff1673ffffffffffffffffffffffffffffffffffffffff163373ffffffffffffffffffffffffffffffffffffffff1614610490576040517f08c379a00000000000000000000000000000000000000000000000000000000081526004016104879061342c565b60405180910390fd5b6001600282815481106104a6576104a561344c565b5b90600052602060002090600d0201600a0160006101000a81548160ff021916908360038111156104d9576104d86131e2565b5b021790555042600282815481106104f3576104f261344c565b5b90600052602060002090600d0201600b0181905550807faa3f0b5a9d087149295bb224b9c28e39af6cb01e0e04999b4c44626f6f1449856002838154811061053e5761053d61344c565b5b90600052602060002090600d0201600101600284815481106105635761056261344c565b5b90600052602060002090600d020160030154604051610583929190613571565b60405180910390a250565b60035481565b60008054906101000a900473ffffffffffffffffffffffffffffffffffffffff1673ffffffffffffffffffffffffffffffffffffffff163373ffffffffffffffffffffffffffffffffffffffff1614610622576040517f08c379a00000000000000000000000000000000000000000000000000000000081526004016106199061342c565b60405180910390fd5b80600283815481106106375761063661344c565b5b90600052602060002090600d0201600301819055506003600283815481106106625761066161344c565b5b90600052602060002090600d0201600a0160006101000a81548160ff02191690836003811115610695576106946131e2565b5b02179055505050565b600781815481106106ae57600080fd5b9060005260206000200160009150905080546106c9906134aa565b80601f01602080910402602001604051908101604052809291908181526020018280546106f5906134aa565b80156107425780601f1061071757610100808354040283529160200191610742565b820191906000526020600020905b81548152906001019060200180831161072557829003601f168201915b505050505081565b6005818154811061075a57600080fd5b906000526020600020016000915090508054610775906134aa565b80601f01602080910402602001604051908101604052809291908181526020018280546107a1906134aa565b80156107ee5780601f106107c3576101008083540402835291602001916107ee565b820191906000526020600020905b8154815290600101906020018083116107d157829003601f168201915b505050505081565b6002600381111561080a576108096131e2565b5b6002828154811061081e5761081d61344c565b5b90600052602060002090600d0201600a0160009054906101000a900460ff16600381111561084f5761084e6131e2565b5b1461088f576040517f08c379a0000000000000000000000000000000000000000000000000000000008152600401610886906135ed565b60405180910390fd5b600080600283815481106108a6576108a561344c565b5b90600052602060002090600d020160090180549050905060005b81811015610a8c5760016000600286815481106108e0576108df61344c565b5b90600052602060002090600d020160090183815481106109035761090261344c565b5b9060005260206000200160009054906101000a900473ffffffffffffffffffffffffffffffffffffffff1673ffffffffffffffffffffffffffffffffffffffff1673ffffffffffffffffffffffffffffffffffffffff168152602001908152602001600020600501848154811061097d5761097c61344c565b5b906000526020600020906004020160020154606461099b919061363c565b60016000600287815481106109b3576109b261344c565b5b90600052602060002090600d020160090184815481106109d6576109d561344c565b5b9060005260206000200160009054906101000a900473ffffffffffffffffffffffffffffffffffffffff1673ffffffffffffffffffffffffffffffffffffffff1673ffffffffffffffffffffffffffffffffffffffff1681526020019081526020016000206005018581548110610a5057610a4f61344c565b5b906000526020600020906004020160010154610a6c9190613670565b83610a7791906136ca565b92508080610a8490613720565b9150506108c0565b506000816064610a9c9190613670565b9050600080600090505b83811015610b95576001600060028881548110610ac657610ac561344c565b5b90600052602060002090600d02016009018381548110610ae957610ae861344c565b5b9060005260206000200160009054906101000a900473ffffffffffffffffffffffffffffffffffffffff1673ffffffffffffffffffffffffffffffffffffffff1673ffffffffffffffffffffffffffffffffffffffff1681526020019081526020016000206005018681548110610b6357610b6261344c565b5b90600052602060002090600402016002015482610b8091906136ca565b91508080610b8d90613720565b915050610aa6565b5060008183610ba4919061363c565b85610baf9190613798565b90508060028781548110610bc657610bc561344c565b5b90600052602060002090600d020160080181905550505050505050565b60016020528060005260406000206000915090508060000160009054906101000a900473ffffffffffffffffffffffffffffffffffffffff1690806001018054610c2c906134aa565b80601f0160208091040260200160405190810160405280929190818152602001828054610c58906134aa565b8015610ca55780601f10610c7a57610100808354040283529160200191610ca5565b820191906000526020600020905b815481529060010190602001808311610c8857829003601f168201915b505050505090806002018054610cba906134aa565b80601f0160208091040260200160405190810160405280929190818152602001828054610ce6906134aa565b8015610d335780601f10610d0857610100808354040283529160200191610d33565b820191906000526020600020905b815481529060010190602001808311610d1657829003601f168201915b505050505090806003018054610d48906134aa565b80601f0160208091040260200160405190810160405280929190818152602001828054610d74906134aa565b8015610dc15780601f10610d9657610100808354040283529160200191610dc1565b820191906000526020600020905b815481529060010190602001808311610da457829003601f168201915b5050505050908060040154905085565b60008054906101000a900473ffffffffffffffffffffffffffffffffffffffff1673ffffffffffffffffffffffffffffffffffffffff163373ffffffffffffffffffffffffffffffffffffffff161415610e60576040517f08c379a0000000000000000000000000000000000000000000000000000000008152600401610e5790613815565b60405180910390fd5b600181816003811115610e7657610e756131e2565b5b60028281548110610e8a57610e8961344c565b5b90600052602060002090600d0201600a0160009054906101000a900460ff166003811115610ebb57610eba6131e2565b5b14610efb576040517f08c379a0000000000000000000000000000000000000000000000000000000008152600401610ef2906135ed565b60405180910390fd5b600060028481548110610f1157610f1061344c565b5b90600052602060002090600d0201600901805490501415610fb75760028381548110610f4057610f3f61344c565b5b90600052602060002090600d0201600901339080600181540180825580915050600190039060005260206000200160009091909190916101000a81548173ffffffffffffffffffffffffffffffffffffffff021916908373ffffffffffffffffffffffffffffffffffffffff160217905550611176565b60005b60028481548110610fce57610fcd61344c565b5b90600052602060002090600d0201600901805490508110156110b2573373ffffffffffffffffffffffffffffffffffffffff16600285815481106110155761101461344c565b5b90600052602060002090600d020160090182815481106110385761103761344c565b5b9060005260206000200160009054906101000a900473ffffffffffffffffffffffffffffffffffffffff1673ffffffffffffffffffffffffffffffffffffffff16141561109f576001600060146101000a81548160ff0219169083151502179055506110b2565b80806110aa90613720565b915050610fba565b5060001515600060149054906101000a900460ff161515141561115a57600283815481106110e3576110e261344c565b5b90600052602060002090600d0201600901339080600181540180825580915050600190039060005260206000200160009091909190916101000a81548173ffffffffffffffffffffffffffffffffffffffff021916908373ffffffffffffffffffffffffffffffffffffffff160217905550611175565b60008060146101000a81548160ff0219169083151502179055505b5b600061118285856129d4565b90506000600160003373ffffffffffffffffffffffffffffffffffffffff1673ffffffffffffffffffffffffffffffffffffffff16815260200190815260200160002060050185815481106111da576111d961344c565b5b90600052602060002090600402016003015490506000600160003373ffffffffffffffffffffffffffffffffffffffff1673ffffffffffffffffffffffffffffffffffffffff16815260200190815260200160002060050186815481106112445761124361344c565b5b9060005260206000209060040201600201549050600060018361126791906136ca565b8484846112749190613670565b61127e91906136ca565b6112889190613798565b905080600160003373ffffffffffffffffffffffffffffffffffffffff1673ffffffffffffffffffffffffffffffffffffffff16815260200190815260200160002060050188815481106112df576112de61344c565b5b90600052602060002090600402016002018190555087600160003373ffffffffffffffffffffffffffffffffffffffff1673ffffffffffffffffffffffffffffffffffffffff16815260200190815260200160002060050188815481106113495761134861344c565b5b906000526020600020906004020160010181905550600160003373ffffffffffffffffffffffffffffffffffffffff1673ffffffffffffffffffffffffffffffffffffffff16815260200190815260200160002060050187815481106113b2576113b161344c565b5b906000526020600020906004020160030160008154809291906113d490613720565b9190505550600160003373ffffffffffffffffffffffffffffffffffffffff1673ffffffffffffffffffffffffffffffffffffffff168152602001908152602001600020600401600081548092919061142c90613720565b9190505550600287815481106114455761144461344c565b5b90600052602060002090600d0201600501600081548092919061146790613720565b9190505550867ffc94567f8570ffc605741a9414d18afce2f7a39ec1e0e0f6cb3339862d0e4921600289815481106114a2576114a161344c565b5b90600052602060002090600d0201600101600160003373ffffffffffffffffffffffffffffffffffffffff1673ffffffffffffffffffffffffffffffffffffffff1681526020019081526020016000206001018b60405161150593929190613835565b60405180910390a25050505050505050565b60008054906101000a900473ffffffffffffffffffffffffffffffffffffffff1673ffffffffffffffffffffffffffffffffffffffff163373ffffffffffffffffffffffffffffffffffffffff16146115a5576040517f08c379a000000000000000000000000000000000000000000000000000000000815260040161159c9061342c565b60405180910390fd5b6005849080600181540180825580915050600190039060005260206000200160009091909190915090805190602001906115e0929190612bda565b5060068390806001815401808255809150506001900390600052602060002001600090919091909150908051906020019061161c929190612bda565b50600782908060018154018082558091505060019003906000526020600020016000909190919091509080519060200190611658929190612bda565b50600881908060018154018082558091505060019003906000526020600020016000909190919091505550505050565b6008818154811061169857600080fd5b906000526020600020016000915090505481565b600681815481106116bc57600080fd5b9060005260206000200160009150905080546116d7906134aa565b80601f0160208091040260200160405190810160405280929190818152602001828054611703906134aa565b80156117505780601f1061172557610100808354040283529160200191611750565b820191906000526020600020905b81548152906001019060200180831161173357829003601f168201915b505050505081565b60606000600381111561176e5761176d6131e2565b5b600283815481106117825761178161344c565b5b90600052602060002090600d0201600a0160009054906101000a900460ff1660038111156117b3576117b26131e2565b5b14156117f6576040518060400160405280600981526020017f4e6f7420537461727400000000000000000000000000000000000000000000008152509050611967565b6001600381111561180a576118096131e2565b5b6002838154811061181e5761181d61344c565b5b90600052602060002090600d0201600a0160009054906101000a900460ff16600381111561184f5761184e6131e2565b5b1415611892576040518060400160405280600781526020017f53746172746564000000000000000000000000000000000000000000000000008152509050611967565b600260038111156118a6576118a56131e2565b5b600283815481106118ba576118b961344c565b5b90600052602060002090600d0201600a0160009054906101000a900460ff1660038111156118eb576118ea6131e2565b5b141561192e576040518060400160405280600681526020017f456e64696e6700000000000000000000000000000000000000000000000000008152509050611967565b6040518060400160405280600481526020017f446f6e650000000000000000000000000000000000000000000000000000000081525090505b919050565b6000600280549050905090565b60006002828154811061198f5761198e61344c565b5b90600052602060002090600d0201600b015414156119fa576000600282815481106119bd576119bc61344c565b5b90600052602060002090600d0201600a0160006101000a81548160ff021916908360038111156119f0576119ef6131e2565b5b0217905550611b87565b60028181548110611a0e57611a0d61344c565b5b90600052602060002090600d0201600b015442118015611a82575060028181548110611a3d57611a3c61344c565b5b90600052602060002090600d0201600c015460028281548110611a6357611a6261344c565b5b90600052602060002090600d0201600b0154611a7f91906136ca565b42105b15611ada57600160028281548110611a9d57611a9c61344c565b5b90600052602060002090600d0201600a0160006101000a81548160ff02191690836003811115611ad057611acf6131e2565b5b0217905550611b86565b60028181548110611aee57611aed61344c565b5b90600052602060002090600d0201600c015460028281548110611b1457611b1361344c565b5b90600052602060002090600d0201600b0154611b3091906136ca565b421115611b85576002808281548110611b4c57611b4b61344c565b5b90600052602060002090600d0201600a0160006101000a81548160ff02191690836003811115611b7f57611b7e6131e2565b5b02179055505b5b5b50565b60028181548110611b9a57600080fd5b90600052602060002090600d0201600091509050806000015490806001018054611bc3906134aa565b80601f0160208091040260200160405190810160405280929190818152602001828054611bef906134aa565b8015611c3c5780601f10611c1157610100808354040283529160200191611c3c565b820191906000526020600020905b815481529060010190602001808311611c1f57829003601f168201915b505050505090806002018054611c51906134aa565b80601f0160208091040260200160405190810160405280929190818152602001828054611c7d906134aa565b8015611cca5780601f10611c9f57610100808354040283529160200191611cca565b820191906000526020600020905b815481529060010190602001808311611cad57829003601f168201915b505050505090806003015490806004018054611ce5906134aa565b80601f0160208091040260200160405190810160405280929190818152602001828054611d11906134aa565b8015611d5e5780601f10611d3357610100808354040283529160200191611d5e565b820191906000526020600020905b815481529060010190602001808311611d4157829003601f168201915b50505050509080600501549080600801549080600a0160009054906101000a900460ff169080600b01549080600c015490508a565b6000808054906101000a900473ffffffffffffffffffffffffffffffffffffffff1673ffffffffffffffffffffffffffffffffffffffff168573ffffffffffffffffffffffffffffffffffffffff161415611e23576040517f08c379a0000000000000000000000000000000000000000000000000000000008152600401611e1a906138c6565b60405180910390fd5b600a6004805490501115611e6c576040517f08c379a0000000000000000000000000000000000000000000000000000000008152600401611e6390613958565b60405180910390fd5b60005b600480549050811015611f0a5760048181548110611e9057611e8f61344c565b5b9060005260206000200160009054906101000a900473ffffffffffffffffffffffffffffffffffffffff1673ffffffffffffffffffffffffffffffffffffffff168673ffffffffffffffffffffffffffffffffffffffff161415611ef75760019150611f0a565b8080611f0290613720565b915050611e6f565b5080612226576004859080600181540180825580915050600190039060005260206000200160009091909190916101000a81548173ffffffffffffffffffffffffffffffffffffffff021916908373ffffffffffffffffffffffffffffffffffffffff16021790555084600160008773ffffffffffffffffffffffffffffffffffffffff1673ffffffffffffffffffffffffffffffffffffffff16815260200190815260200160002060000160006101000a81548173ffffffffffffffffffffffffffffffffffffffff021916908373ffffffffffffffffffffffffffffffffffffffff16021790555083600160008773ffffffffffffffffffffffffffffffffffffffff1673ffffffffffffffffffffffffffffffffffffffff168152602001908152602001600020600101908051906020019061204a929190612bda565b5082600160008773ffffffffffffffffffffffffffffffffffffffff1673ffffffffffffffffffffffffffffffffffffffff16815260200190815260200160002060020190805190602001906120a1929190612bda565b5081600160008773ffffffffffffffffffffffffffffffffffffffff1673ffffffffffffffffffffffffffffffffffffffff16815260200190815260200160002060030190805190602001906120f8929190612bda565b506000600160008773ffffffffffffffffffffffffffffffffffffffff1673ffffffffffffffffffffffffffffffffffffffff1681526020019081526020016000206004018190555060005b6003548110156122205760006040518060800160405280838152602001600081526020016000815260200160008152509050600160008873ffffffffffffffffffffffffffffffffffffffff1673ffffffffffffffffffffffffffffffffffffffff16815260200190815260200160002060050181908060018154018082558091505060019003906000526020600020906004020160009091909190915060008201518160000155602082015181600101556040820151816002015560608201518160030155505050808061221890613720565b915050612144565b50612261565b6040517f08c379a0000000000000000000000000000000000000000000000000000000008152600401612258906139c4565b60405180910390fd5b5050505050565b60005b60068054905081101561280d57600080600090505b60028054905081101561240a576123ea600282815481106122a4576122a361344c565b5b90600052602060002090600d020160020180546122c0906134aa565b80601f01602080910402602001604051908101604052809291908181526020018280546122ec906134aa565b80156123395780601f1061230e57610100808354040283529160200191612339565b820191906000526020600020905b81548152906001019060200180831161231c57829003601f168201915b5050505050600685815481106123525761235161344c565b5b906000526020600020018054612367906134aa565b80601f0160208091040260200160405190810160405280929190818152602001828054612393906134aa565b80156123e05780601f106123b5576101008083540402835291602001916123e0565b820191906000526020600020905b8154815290600101906020018083116123c357829003601f168201915b5050505050612af6565b915081156123f75761240a565b808061240290613720565b915050612280565b50806127f9576060806002604051806101a001604052808681526020016005878154811061243b5761243a61344c565b5b906000526020600020018054612450906134aa565b80601f016020809104026020016040519081016040528092919081815260200182805461247c906134aa565b80156124c95780601f1061249e576101008083540402835291602001916124c9565b820191906000526020600020905b8154815290600101906020018083116124ac57829003601f168201915b50505050508152602001600687815481106124e7576124e661344c565b5b9060005260206000200180546124fc906134aa565b80601f0160208091040260200160405190810160405280929190818152602001828054612528906134aa565b80156125755780601f1061254a57610100808354040283529160200191612575565b820191906000526020600020905b81548152906001019060200180831161255857829003601f168201915b50505050508152602001600887815481106125935761259261344c565b5b90600052602060002001548152602001600787815481106125b7576125b661344c565b5b9060005260206000200180546125cc906134aa565b80601f01602080910402602001604051908101604052809291908181526020018280546125f8906134aa565b80156126455780601f1061261a57610100808354040283529160200191612645565b820191906000526020600020905b81548152906001019060200180831161262857829003601f168201915b50505050508152602001600081526020018481526020018481526020016000815260200183815260200160006003811115612683576126826131e2565b5b815260200160008152602001606481525090806001815401808255809150506001900390600052602060002090600d02016000909190919091506000820151816000015560208201518160010190805190602001906126e3929190612bda565b506040820151816002019080519060200190612700929190612bda565b50606082015181600301556080820151816004019080519060200190612727929190612bda565b5060a0820151816005015560c082015181600601908051906020019061274e929190612c60565b5060e082015181600701908051906020019061276b929190612c60565b506101008201518160080155610120820151816009019080519060200190612794929190612cad565b5061014082015181600a0160006101000a81548160ff021916908360038111156127c1576127c06131e2565b5b021790555061016082015181600b015561018082015181600c01555050600360008154809291906127f190613720565b919050555050505b50808061280590613720565b91505061226b565b50565b60008054906101000a900473ffffffffffffffffffffffffffffffffffffffff1673ffffffffffffffffffffffffffffffffffffffff163373ffffffffffffffffffffffffffffffffffffffff161461289e576040517f08c379a00000000000000000000000000000000000000000000000000000000081526004016128959061342c565b60405180910390fd5b60028082815481106128b3576128b261344c565b5b90600052602060002090600d0201600a0160006101000a81548160ff021916908360038111156128e6576128e56131e2565b5b0217905550807f59aa868b6aec147bb867da96fc0722ac554fcb1658ec8ac50a51d08a192f0472600283815481106129215761292061344c565b5b90600052602060002090600d0201600101600284815481106129465761294561344c565b5b90600052602060002090600d020160030154604051612966929190613571565b60405180910390a250565b6004818154811061298157600080fd5b906000526020600020016000915054906101000a900473ffffffffffffffffffffffffffffffffffffffff1681565b60008054906101000a900473ffffffffffffffffffffffffffffffffffffffff1681565b6000806000905083600284815481106129f0576129ef61344c565b5b90600052602060002090600d0201600301541115612a7c5760028381548110612a1c57612a1b61344c565b5b90600052602060002090600d02016003015460648560028681548110612a4557612a4461344c565b5b90600052602060002090600d020160030154612a61919061363c565b612a6b9190613670565b612a759190613798565b9050612aec565b60028381548110612a9057612a8f61344c565b5b90600052602060002090600d020160030154606460028581548110612ab857612ab761344c565b5b90600052602060002090600d02016003015486612ad5919061363c565b612adf9190613670565b612ae99190613798565b90505b8091505092915050565b600080839050600083905060008251905081518114612b1b5760009350505050612bd4565b60005b81811015612bcb57828181518110612b3957612b3861344c565b5b602001015160f81c60f81b7effffffffffffffffffffffffffffffffffffffffffffffffffffffffffffff1916848281518110612b7957612b7861344c565b5b602001015160f81c60f81b7effffffffffffffffffffffffffffffffffffffffffffffffffffffffffffff191614612bb8576000945050505050612bd4565b8080612bc390613720565b915050612b1e565b50600193505050505b92915050565b828054612be6906134aa565b90600052602060002090601f016020900481019282612c085760008555612c4f565b82601f10612c2157805160ff1916838001178555612c4f565b82800160010185558215612c4f579182015b82811115612c4e578251825591602001919060010190612c33565b5b509050612c5c9190612d37565b5090565b828054828255906000526020600020908101928215612c9c579160200282015b82811115612c9b578251825591602001919060010190612c80565b5b509050612ca99190612d37565b5090565b828054828255906000526020600020908101928215612d26579160200282015b82811115612d255782518260006101000a81548173ffffffffffffffffffffffffffffffffffffffff021916908373ffffffffffffffffffffffffffffffffffffffff16021790555091602001919060010190612ccd565b5b509050612d339190612d37565b5090565b5b80821115612d50576000816000905550600101612d38565b5090565b6000604051905090565b600080fd5b600080fd5b6000819050919050565b612d7b81612d68565b8114612d8657600080fd5b50565b600081359050612d9881612d72565b92915050565b600060208284031215612db457612db3612d5e565b5b6000612dc284828501612d89565b91505092915050565b612dd481612d68565b82525050565b6000602082019050612def6000830184612dcb565b92915050565b60008060408385031215612e0c57612e0b612d5e565b5b6000612e1a85828601612d89565b9250506020612e2b85828601612d89565b9150509250929050565b600081519050919050565b600082825260208201905092915050565b60005b83811015612e6f578082015181840152602081019050612e54565b83811115612e7e576000848401525b50505050565b6000601f19601f8301169050919050565b6000612ea082612e35565b612eaa8185612e40565b9350612eba818560208601612e51565b612ec381612e84565b840191505092915050565b60006020820190508181036000830152612ee88184612e95565b905092915050565b600073ffffffffffffffffffffffffffffffffffffffff82169050919050565b6000612f1b82612ef0565b9050919050565b612f2b81612f10565b8114612f3657600080fd5b50565b600081359050612f4881612f22565b92915050565b600060208284031215612f6457612f63612d5e565b5b6000612f7284828501612f39565b91505092915050565b612f8481612f10565b82525050565b600060a082019050612f9f6000830188612f7b565b8181036020830152612fb18187612e95565b90508181036040830152612fc58186612e95565b90508181036060830152612fd98185612e95565b9050612fe86080830184612dcb565b9695505050505050565b600080fd5b600080fd5b7f4e487b7100000000000000000000000000000000000000000000000000000000600052604160045260246000fd5b61303482612e84565b810181811067ffffffffffffffff8211171561305357613052612ffc565b5b80604052505050565b6000613066612d54565b9050613072828261302b565b919050565b600067ffffffffffffffff82111561309257613091612ffc565b5b61309b82612e84565b9050602081019050919050565b82818337600083830152505050565b60006130ca6130c584613077565b61305c565b9050828152602081018484840111156130e6576130e5612ff7565b5b6130f18482856130a8565b509392505050565b600082601f83011261310e5761310d612ff2565b5b813561311e8482602086016130b7565b91505092915050565b6000806000806080858703121561314157613140612d5e565b5b600085013567ffffffffffffffff81111561315f5761315e612d63565b5b61316b878288016130f9565b945050602085013567ffffffffffffffff81111561318c5761318b612d63565b5b613198878288016130f9565b935050604085013567ffffffffffffffff8111156131b9576131b8612d63565b5b6131c5878288016130f9565b92505060606131d687828801612d89565b91505092959194509250565b7f4e487b7100000000000000000000000000000000000000000000000000000000600052602160045260246000fd5b60048110613222576132216131e2565b5b50565b600081905061323382613211565b919050565b600061324382613225565b9050919050565b61325381613238565b82525050565b60006101408201905061326f600083018d612dcb565b8181036020830152613281818c612e95565b90508181036040830152613295818b612e95565b90506132a4606083018a612dcb565b81810360808301526132b68189612e95565b90506132c560a0830188612dcb565b6132d260c0830187612dcb565b6132df60e083018661324a565b6132ed610100830185612dcb565b6132fb610120830184612dcb565b9b9a5050505050505050505050565b6000806000806080858703121561332457613323612d5e565b5b600061333287828801612f39565b945050602085013567ffffffffffffffff81111561335357613352612d63565b5b61335f878288016130f9565b935050604085013567ffffffffffffffff8111156133805761337f612d63565b5b61338c878288016130f9565b925050606085013567ffffffffffffffff8111156133ad576133ac612d63565b5b6133b9878288016130f9565b91505092959194509250565b60006020820190506133da6000830184612f7b565b92915050565b7f4f6e6c792061646d696e2063616e20736f6c7665000000000000000000000000600082015250565b6000613416601483612e40565b9150613421826133e0565b602082019050919050565b6000602082019050818103600083015261344581613409565b9050919050565b7f4e487b7100000000000000000000000000000000000000000000000000000000600052603260045260246000fd5b7f4e487b7100000000000000000000000000000000000000000000000000000000600052602260045260246000fd5b600060028204905060018216806134c257607f821691505b602082108114156134d6576134d561347b565b5b50919050565b60008190508160005260206000209050919050565b600081546134fe816134aa565b6135088186612e40565b94506001821660008114613523576001811461353557613568565b60ff1983168652602086019350613568565b61353e856134dc565b60005b8381101561356057815481890152600182019150602081019050613541565b808801955050505b50505092915050565b6000604082019050818103600083015261358b81856134f1565b905061359a6020830184612dcb565b9392505050565b7f57726f6e6720737461747573206f66207365737374696f6e0000000000000000600082015250565b60006135d7601883612e40565b91506135e2826135a1565b602082019050919050565b60006020820190508181036000830152613606816135ca565b9050919050565b7f4e487b7100000000000000000000000000000000000000000000000000000000600052601160045260246000fd5b600061364782612d68565b915061365283612d68565b9250828210156136655761366461360d565b5b828203905092915050565b600061367b82612d68565b915061368683612d68565b9250817fffffffffffffffffffffffffffffffffffffffffffffffffffffffffffffffff04831182151516156136bf576136be61360d565b5b828202905092915050565b60006136d582612d68565b91506136e083612d68565b9250827fffffffffffffffffffffffffffffffffffffffffffffffffffffffffffffffff038211156137155761371461360d565b5b828201905092915050565b600061372b82612d68565b91507fffffffffffffffffffffffffffffffffffffffffffffffffffffffffffffffff82141561375e5761375d61360d565b5b600182019050919050565b7f4e487b7100000000000000000000000000000000000000000000000000000000600052601260045260246000fd5b60006137a382612d68565b91506137ae83612d68565b9250826137be576137bd613769565b5b828204905092915050565b7f4e6f74206f6e6c792061646d696e000000000000000000000000000000000000600082015250565b60006137ff600e83612e40565b915061380a826137c9565b602082019050919050565b6000602082019050818103600083015261382e816137f2565b9050919050565b6000606082019050818103600083015261384f81866134f1565b9050818103602083015261386381856134f1565b90506138726040830184612dcb565b949350505050565b7f4163636f756e74206f662061646d696e2063616e277420726567697374657200600082015250565b60006138b0601f83612e40565b91506138bb8261387a565b602082019050919050565b600060208201905081810360008301526138df816138a3565b9050919050565b7f546865206e756d626572206f66207061727469636970616e7473206973206c6560008201527f7373207468616e2074656e2e0000000000000000000000000000000000000000602082015250565b6000613942602c83612e40565b915061394d826138e6565b604082019050919050565b6000602082019050818103600083015261397181613935565b9050919050565b7f546869732061646472657373205265616c6c7920657869737465640000000000600082015250565b60006139ae601b83612e40565b91506139b982613978565b602082019050919050565b600060208201905081810360008301526139dd816139a1565b905091905056fea2646970667358221220b47b1d28b17d069d80ce5434877566f654de002557931d9f45fe9db51e85122f64736f6c634300080a0033516d4e7156597448346d584736394c6e4159453478793168676666315a6b594274765663434479413452506936694c757875727920686967682d636c617373202d20556e6971756520616e64206174747261637469766520636f6c6f72732e3c62722f3e54616b652070726f66657373696f6e616c2070686f746f73202d20536574206f6620332063616d65726173207468617420737570706f7274205a6f6f6d20617320666172206173203330582e3c62722f3e54616b65206e6f74657320717569636b6c7920616e642061636375726174656c79207769746820746865206e65772067656e65726174696f6e20532d50656e2e3c62722f3e556c74696d6174652067616d696e67202d20506f77657266756c20376e6d204578796e6f73203939302c206f75747374616e64696e672070726f63657373696e6720706572666f726d616e63652e3c62722f3e53616d73756e67204e6f746520323020556c7472612035472070686f6e65202d204c75787572792c206f75747374616e64696e6720706572666f726d616e63652e3c62722f3e4d6f6e6f6c697468696320616c756d696e756d206672616d652064657369676e2c206c75787572696f75732074656d706572656420676c617373206261636b2e",
  "immutableReferences": {},
  "source": "pragma solidity >=0.4.0 <0.9.0;\r\nimport \"./Main.sol\";\r\ncontract Session is Main{\r\n    struct Items{\r\n        uint IdItem;\r\n        string nameItem;\r\n        string imageHash;\r\n        uint firstPrice;\r\n        string itemDescription;\r\n        uint countPaticipantJoinSesstion;\r\n        uint[] listPriceOfPaticipant;\r\n        uint[] listPriceDeviation;\r\n        uint valueChangePricing;\r\n        address[] checkAccount;\r\n        StatusSesstion statusSesstion;\r\n        uint timeSesstionEachOtherproduct;\r\n        uint timeFinishSesstionEachOtherproduct;\r\n    }\r\n    \r\n    mapping(address => Paticipant) public paticipants;\r\n    Items[] public itemsList;\r\n    uint public index = 0;\r\n    address[] public totalAccounts;\r\n    string[] public listNameOfItems  = [\"Samsung Galaxy Note20\"];\r\n    string[] public listHashImage = [\"QmNqVYtH4mXG69LnAYE4xy1hgff1ZkYBtvVcCDyA4RPi6i\"];\r\n    string[] public listInformationOfImage = [\"Luxury high-class - Unique and attractive colors.<br/>Take professional photos - Set of 3 cameras that support Zoom as far as 30X.<br/>Take notes quickly and accurately with the new generation S-Pen.<br/>Ultimate gaming - Powerful 7nm Exynos 990, outstanding processing performance.<br/>Samsung Note 20 Ultra 5G phone - Luxury, outstanding performance.<br/>Monolithic aluminum frame design, luxurious tempered glass back.\"];\r\n    uint[] public listPrice = [930];\r\n    \r\n    modifier checkStatus(StatusSesstion _statusSesstion, uint _IdItem){\r\n        require(itemsList[_IdItem].statusSesstion == _statusSesstion, \"Wrong status of sesstion\");\r\n        _;\r\n    }\r\n\r\n    event LogStartSession(uint indexed _IdItems, string _nameItem, uint _firstPrice);\r\n    event LogStopSession(uint indexed _IdItems, string _nameItem, uint _firstPrice);\r\n    event LogChainPriceOfSession(uint indexed _IdItems, string _nameItem, string _fullName, uint _valueChangePricing);\r\n\r\n    function createNewItem(string memory _nameItem, string memory _imageHash, string memory _itemDescription, uint _firstPrice) public onlyAdmin {\r\n        listNameOfItems.push(_nameItem);\r\n        listHashImage.push(_imageHash);\r\n        listInformationOfImage.push(_itemDescription);\r\n        listPrice.push(_firstPrice);\r\n    }\r\n\r\n    function addData() public{\r\n        \r\n        for(uint i = 0 ; i < listHashImage.length ; i++){\r\n            bool statusAdd;\r\n            for(uint j = 0 ; j < itemsList.length ; j++){\r\n               statusAdd = stringsEquals(itemsList[j].imageHash, listHashImage[i]);\r\n               if(statusAdd){\r\n                   break;\r\n               }\r\n            }\r\n            if(!statusAdd){\r\n                uint[] memory emptyArray;\r\n                address[] memory amptyAddressArray;\r\n                itemsList.push(Items(i, listNameOfItems[i], listHashImage[i], listPrice[i], listInformationOfImage[i],  0, emptyArray, emptyArray, 0, amptyAddressArray, StatusSesstion.START, 0, 100));\r\n                index++;\r\n            }  \r\n        }\r\n    }\r\n\r\n    function convertStateToString(uint _IdItem) public view returns(string memory){\r\n        if(itemsList[_IdItem].statusSesstion == StatusSesstion.START){\r\n            return \"Not Start\";\r\n        }else{\r\n            if(itemsList[_IdItem].statusSesstion == StatusSesstion.PRICING){\r\n                return \"Started\";\r\n            }else{\r\n               if(itemsList[_IdItem].statusSesstion == StatusSesstion.ENDING){\r\n                  return \"Ending\";\r\n               }else{\r\n                    return \"Done\";\r\n               }\r\n            }\r\n        }\r\n    }\r\n\r\n    function stringsEquals(string memory s1, string memory s2) private pure returns (bool) {\r\n        bytes memory b1 = bytes(s1);\r\n        bytes memory b2 = bytes(s2);\r\n        uint256 l1 = b1.length;\r\n        if (l1 != b2.length) return false;\r\n        for (uint256 i=0; i<l1; i++) {\r\n            if (b1[i] != b2[i]) return false;\r\n        }\r\n        return true;\r\n    }\r\n\r\n    function getLengthItems() public view returns(uint) {\r\n        return itemsList.length;\r\n    }\r\n\r\n    function stopSesstion(uint _IdItem) public onlyAdmin {\r\n        itemsList[_IdItem].statusSesstion = StatusSesstion.ENDING;\r\n        emit LogStopSession(_IdItem,  itemsList[_IdItem].nameItem,  itemsList[_IdItem].firstPrice);\r\n    }\r\n    \r\n    function startSesstion(uint _IdItem) public onlyAdmin {\r\n        itemsList[_IdItem].statusSesstion = StatusSesstion.PRICING;\r\n        itemsList[_IdItem].timeSesstionEachOtherproduct = block.timestamp;\r\n        emit LogStartSession(_IdItem,  itemsList[_IdItem].nameItem,  itemsList[_IdItem].firstPrice);\r\n    }\r\n\r\n    \r\n    function setFinalPriceOfItem(uint _IdItem, uint _price) public onlyAdmin {\r\n         itemsList[_IdItem].firstPrice = _price;\r\n         itemsList[_IdItem].statusSesstion = StatusSesstion.DONE;\r\n    }\r\n\r\n    function registerAccount(address _address, string memory _fullName, string memory _email, string memory _passwordAccount) public{\r\n        bool checkStatusAddress = false;\r\n        if(_address == admin){\r\n            revert(\"Account of admin can't register\");\r\n        }\r\n        if(totalAccounts.length > 10){\r\n            revert(\"The number of participants is less than ten.\");\r\n        }else{\r\n            for(uint i = 0; i < totalAccounts.length; i++){\r\n                if(_address == totalAccounts[i]){\r\n                    checkStatusAddress = true;\r\n                    break;\r\n                }\r\n            }\r\n            if(!checkStatusAddress){\r\n                totalAccounts.push(_address); \r\n                paticipants[_address].addressAccount = _address;\r\n                paticipants[_address].fullName = _fullName;\r\n                paticipants[_address].email = _email;\r\n                paticipants[_address].passwordAccount = _passwordAccount;\r\n                paticipants[_address].countPricedSesstion = 0;\r\n                for(uint i = 0 ; i < index ; i++){\r\n                    DataChange memory dataChange = DataChange({IdItem: i, priceDeviation: 0, valueChangePricingOtherPaticipant: 0 , numberChangePricingOtherPaticipant: 0});\r\n                    paticipants[_address].listDataChange.push(dataChange);\r\n                }\r\n            }else{\r\n                revert(\"This address Really existed\");\r\n            }\r\n        }   \r\n    }\r\n    \r\n    function getProposedPrice(uint _IdItem) public{\r\n        if(itemsList[_IdItem].statusSesstion != StatusSesstion.ENDING){\r\n            revert(\"Wrong status of sesstion\");\r\n        }\r\n        uint totalPriceOfPaticipantAbove;\r\n        uint numberPaticipantJoneSestion = itemsList[_IdItem].checkAccount.length;\r\n        for(uint i = 0 ; i < numberPaticipantJoneSestion ; i++){\r\n              totalPriceOfPaticipantAbove += (paticipants[itemsList[_IdItem].checkAccount[i]].listDataChange[_IdItem].priceDeviation) * (100 - (paticipants[itemsList[_IdItem].checkAccount[i]].listDataChange[_IdItem].valueChangePricingOtherPaticipant));        \r\n        }\r\n        uint totalPriceOfPaticipantUnderLeft = 100 * numberPaticipantJoneSestion;\r\n        uint totalPriceOfPaticipantUnderRight;\r\n        for(uint i = 0 ; i < numberPaticipantJoneSestion ; i++){\r\n              totalPriceOfPaticipantUnderRight += paticipants[ itemsList[_IdItem].checkAccount[i]].listDataChange[_IdItem].valueChangePricingOtherPaticipant;\r\n        }\r\n        uint result = totalPriceOfPaticipantAbove / (totalPriceOfPaticipantUnderLeft - totalPriceOfPaticipantUnderRight);\r\n        itemsList[_IdItem].valueChangePricing = result;\r\n    }\r\n\r\n    function accumulatedDeviation(uint _newPriceOfParticipan, uint _IdItem) public notOnlyAdmin checkStatus(StatusSesstion.PRICING, _IdItem){\r\n        if(itemsList[_IdItem].checkAccount.length == 0){\r\n            itemsList[_IdItem].checkAccount.push(msg.sender);\r\n        }else{\r\n            for(uint i = 0 ; i < itemsList[_IdItem].checkAccount.length; i++){\r\n                if(itemsList[_IdItem].checkAccount[i] == msg.sender){\r\n                    status = true;\r\n                    break;\r\n                }\r\n            }\r\n            if(status == false){\r\n                itemsList[_IdItem].checkAccount.push(msg.sender);\r\n            }else{\r\n                status = false;\r\n            }\r\n        }\r\n        uint calNewPriceOfParticipant = calculatingDeviation(_newPriceOfParticipan, _IdItem);\r\n        uint numberPaticipant = paticipants[msg.sender].listDataChange[_IdItem].numberChangePricingOtherPaticipant;\r\n        uint currentPriceDeviation = paticipants[msg.sender].listDataChange[_IdItem].valueChangePricingOtherPaticipant;\r\n        uint value = (currentPriceDeviation * numberPaticipant + calNewPriceOfParticipant) / (numberPaticipant + 1);\r\n        paticipants[msg.sender].listDataChange[_IdItem].valueChangePricingOtherPaticipant = value;\r\n        paticipants[msg.sender].listDataChange[_IdItem].priceDeviation = _newPriceOfParticipan;\r\n        paticipants[msg.sender].listDataChange[_IdItem].numberChangePricingOtherPaticipant++;\r\n        paticipants[msg.sender].countPricedSesstion++;\r\n        itemsList[_IdItem].countPaticipantJoinSesstion++;\r\n        emit LogChainPriceOfSession(_IdItem, itemsList[_IdItem].nameItem,  paticipants[msg.sender].fullName, _newPriceOfParticipan);\r\n    }\r\n\r\n    function calculatingDeviation(uint _priceOfParticipan, uint _IdItem) internal view returns (uint){\r\n        uint newPriceDeviation = 0;\r\n        if(itemsList[_IdItem].firstPrice > _priceOfParticipan){\r\n            newPriceDeviation = (itemsList[_IdItem].firstPrice  - _priceOfParticipan) * 100 / itemsList[_IdItem].firstPrice;\r\n        }else{\r\n            newPriceDeviation = (_priceOfParticipan - itemsList[_IdItem].firstPrice) * 100 / itemsList[_IdItem].firstPrice;\r\n        }\r\n        return uint(newPriceDeviation);\r\n    }\r\n\r\n    function timeOutOfSesstion(uint _IdItem) public{\r\n        if(itemsList[_IdItem].timeSesstionEachOtherproduct == 0){\r\n             itemsList[_IdItem].statusSesstion = StatusSesstion.START;\r\n        }else{\r\n            if(block.timestamp > itemsList[_IdItem].timeSesstionEachOtherproduct && block.timestamp < itemsList[_IdItem].timeSesstionEachOtherproduct +itemsList[_IdItem].timeFinishSesstionEachOtherproduct){\r\n                itemsList[_IdItem].statusSesstion = StatusSesstion.PRICING;\r\n            }else{\r\n                if(block.timestamp > itemsList[_IdItem].timeSesstionEachOtherproduct + itemsList[_IdItem].timeFinishSesstionEachOtherproduct){\r\n                    itemsList[_IdItem].statusSesstion = StatusSesstion.ENDING;\r\n                }\r\n            }\r\n        }\r\n        \r\n    }\r\n}",
  "sourcePath": "C:\\Users\\Admin\\Desktop\\FunixPriceChanging\\contracts\\Session.sol",
  "compiler": {
    "name": "solc",
    "version": "0.8.10+commit.fc410830.Emscripten.clang"
  },
  "schemaVersion": "3.4.3",
  "updatedAt": "2021-12-25T02:13:33.788Z",
  "networkType": "ethereum",
  "devdoc": {
    "kind": "dev",
    "methods": {},
    "version": 1
  },
  "userdoc": {
    "kind": "user",
    "methods": {},
    "version": 1
  }
}