{
  "contractName": "Session",
  "abi": [
    {
      "inputs": [],
      "name": "admin",
      "outputs": [
        {
          "internalType": "address",
          "name": "",
          "type": "address"
        }
      ],
      "stateMutability": "view",
      "type": "function",
      "constant": true
    },
    {
      "inputs": [],
      "name": "index",
      "outputs": [
        {
          "internalType": "uint256",
          "name": "",
          "type": "uint256"
        }
      ],
      "stateMutability": "view",
      "type": "function",
      "constant": true
    },
    {
      "inputs": [
        {
          "internalType": "uint256",
          "name": "",
          "type": "uint256"
        }
      ],
      "name": "itemsList",
      "outputs": [
        {
          "internalType": "uint256",
          "name": "IdItem",
          "type": "uint256"
        },
        {
          "internalType": "string",
          "name": "nameItem",
          "type": "string"
        },
        {
          "internalType": "string",
          "name": "imageHash",
          "type": "string"
        },
        {
          "internalType": "uint256",
          "name": "firstPrice",
          "type": "uint256"
        },
        {
          "internalType": "string",
          "name": "itemDescription",
          "type": "string"
        },
        {
          "internalType": "uint256",
          "name": "countPaticipantJoinSesstion",
          "type": "uint256"
        },
        {
          "internalType": "uint256",
          "name": "valueChangePricing",
          "type": "uint256"
        },
        {
          "internalType": "enum Main.StatusSesstion",
          "name": "statusSesstion",
          "type": "uint8"
        },
        {
          "internalType": "uint256",
          "name": "timeSesstionEachOtherproduct",
          "type": "uint256"
        },
        {
          "internalType": "uint256",
          "name": "timeFinishSesstionEachOtherproduct",
          "type": "uint256"
        }
      ],
      "stateMutability": "view",
      "type": "function",
      "constant": true
    },
    {
      "inputs": [
        {
          "internalType": "uint256",
          "name": "",
          "type": "uint256"
        }
      ],
      "name": "listHashImage",
      "outputs": [
        {
          "internalType": "string",
          "name": "",
          "type": "string"
        }
      ],
      "stateMutability": "view",
      "type": "function",
      "constant": true
    },
    {
      "inputs": [
        {
          "internalType": "uint256",
          "name": "",
          "type": "uint256"
        }
      ],
      "name": "listInformationOfImage",
      "outputs": [
        {
          "internalType": "string",
          "name": "",
          "type": "string"
        }
      ],
      "stateMutability": "view",
      "type": "function",
      "constant": true
    },
    {
      "inputs": [
        {
          "internalType": "uint256",
          "name": "",
          "type": "uint256"
        }
      ],
      "name": "listNameOfItems",
      "outputs": [
        {
          "internalType": "string",
          "name": "",
          "type": "string"
        }
      ],
      "stateMutability": "view",
      "type": "function",
      "constant": true
    },
    {
      "inputs": [
        {
          "internalType": "uint256",
          "name": "",
          "type": "uint256"
        }
      ],
      "name": "listPrice",
      "outputs": [
        {
          "internalType": "uint256",
          "name": "",
          "type": "uint256"
        }
      ],
      "stateMutability": "view",
      "type": "function",
      "constant": true
    },
    {
      "inputs": [
        {
          "internalType": "uint256",
          "name": "",
          "type": "uint256"
        }
      ],
      "name": "totalAccounts",
      "outputs": [
        {
          "internalType": "address",
          "name": "",
          "type": "address"
        }
      ],
      "stateMutability": "view",
      "type": "function",
      "constant": true
    },
    {
      "inputs": [],
      "name": "addData",
      "outputs": [],
      "stateMutability": "nonpayable",
      "type": "function"
    },
    {
      "inputs": [
        {
          "internalType": "uint256",
          "name": "_IdItem",
          "type": "uint256"
        }
      ],
      "name": "convertStateToString",
      "outputs": [
        {
          "internalType": "string",
          "name": "",
          "type": "string"
        }
      ],
      "stateMutability": "view",
      "type": "function",
      "constant": true
    },
    {
      "inputs": [],
      "name": "getLengthItems",
      "outputs": [
        {
          "internalType": "uint256",
          "name": "",
          "type": "uint256"
        }
      ],
      "stateMutability": "view",
      "type": "function",
      "constant": true
    },
    {
      "inputs": [
        {
          "internalType": "uint256",
          "name": "_IdItem",
          "type": "uint256"
        }
      ],
      "name": "startSesstion",
      "outputs": [],
      "stateMutability": "nonpayable",
      "type": "function"
    },
    {
      "inputs": [
        {
          "internalType": "uint256",
          "name": "_IdItem",
          "type": "uint256"
        }
      ],
      "name": "stopSesstion",
      "outputs": [],
      "stateMutability": "nonpayable",
      "type": "function"
    },
    {
      "inputs": [
        {
          "internalType": "address",
          "name": "_address",
          "type": "address"
        },
        {
          "internalType": "string",
          "name": "_fullName",
          "type": "string"
        },
        {
          "internalType": "string",
          "name": "_email",
          "type": "string"
        }
      ],
      "name": "register",
      "outputs": [],
      "stateMutability": "nonpayable",
      "type": "function"
    },
    {
      "inputs": [
        {
          "internalType": "uint256",
          "name": "_IdItem",
          "type": "uint256"
        }
      ],
      "name": "getProposedPrice",
      "outputs": [],
      "stateMutability": "nonpayable",
      "type": "function"
    },
    {
      "inputs": [
        {
          "internalType": "uint256",
          "name": "_newPriceOfParticipan",
          "type": "uint256"
        },
        {
          "internalType": "uint256",
          "name": "_IdItem",
          "type": "uint256"
        }
      ],
      "name": "accumulatedDeviation",
      "outputs": [],
      "stateMutability": "nonpayable",
      "type": "function"
    },
    {
      "inputs": [
        {
          "internalType": "uint256",
          "name": "_IdItem",
          "type": "uint256"
        }
      ],
      "name": "getDataItems",
      "outputs": [
        {
          "internalType": "uint256",
          "name": "",
          "type": "uint256"
        }
      ],
      "stateMutability": "view",
      "type": "function",
      "constant": true
    },
    {
      "inputs": [
        {
          "internalType": "uint256",
          "name": "_IdItem",
          "type": "uint256"
        }
      ],
      "name": "getStatusSesstion",
      "outputs": [
        {
          "internalType": "enum Main.StatusSesstion",
          "name": "",
          "type": "uint8"
        }
      ],
      "stateMutability": "view",
      "type": "function",
      "constant": true
    },
    {
      "inputs": [
        {
          "internalType": "uint256",
          "name": "_IdItem",
          "type": "uint256"
        },
        {
          "internalType": "uint256",
          "name": "_price",
          "type": "uint256"
        }
      ],
      "name": "setPriceOfItem",
      "outputs": [],
      "stateMutability": "nonpayable",
      "type": "function"
    }
  ],
  "bytecode": "0x608060405260008060146101000a81548160ff021916908315150217905550600060075560006009553480156200003557600080fd5b50336000806101000a81548173ffffffffffffffffffffffffffffffffffffffff021916908373ffffffffffffffffffffffffffffffffffffffff160217905550600180600181540180825580915050600190039060005260206000200160006040518060400160405280601681526020017f53616d73756e672047616c617879204e6f74653230200000000000000000000081525090919091509080519060200190620000e592919062000820565b50600180600181540180825580915050600190039060005260206000200160006040518060400160405280600e81526020017f53616d73756e67205a466c697033000000000000000000000000000000000000815250909190915090805190602001906200015592919062000820565b50600180600181540180825580915050600190039060005260206000200160006040518060400160405280600e81526020017f4173757320526f672050686f6e6500000000000000000000000000000000000081525090919091509080519060200190620001c592919062000820565b50600180600181540180825580915050600190039060005260206000200160006040518060400160405280600d81526020017f47616c617879205a466f6c643300000000000000000000000000000000000000815250909190915090805190602001906200023592919062000820565b50600180600181540180825580915050600190039060005260206000200160006040518060400160405280601181526020017f4970686f6e652031322050726f204d617800000000000000000000000000000081525090919091509080519060200190620002a592919062000820565b50600180600181540180825580915050600190039060005260206000200160006040518060400160405280601181526020017f4970686f6e652031332050726f204d6178000000000000000000000000000000815250909190915090805190602001906200031592919062000820565b50600280600181540180825580915050600190039060005260206000200160006040518060600160405280602e8152602001620043aa602e9139909190915090805190602001906200036992919062000820565b50600280600181540180825580915050600190039060005260206000200160006040518060600160405280602e815260200162003f2b602e913990919091509080519060200190620003bd92919062000820565b50600280600181540180825580915050600190039060005260206000200160006040518060600160405280602e81526020016200470a602e9139909190915090805190602001906200041192919062000820565b50600280600181540180825580915050600190039060005260206000200160006040518060600160405280602e815260200162004738602e9139909190915090805190602001906200046592919062000820565b50600280600181540180825580915050600190039060005260206000200160006040518060600160405280602e8152602001620043d8602e913990919091509080519060200190620004b992919062000820565b50600280600181540180825580915050600190039060005260206000200160006040518060600160405280602e815260200162003f59602e9139909190915090805190602001906200050d92919062000820565b5060038060018154018082558091505060019003906000526020600020016000604051806101e001604052806101a68152602001620045646101a69139909190915090805190602001906200056492919062000820565b506003806001815401808255809150506001900390600052602060002001600060405180610240016040528061020c815260200162003b7461020c913990919091509080519060200190620005bb92919062000820565b5060038060018154018082558091505060019003906000526020600020016000604051806101e001604052806101ab815260200162003d806101ab9139909190915090805190602001906200061292919062000820565b50600380600181540180825580915050600190039060005260206000200160006040518061022001604052806101ef815260200162003f876101ef9139909190915090805190602001906200066992919062000820565b506003806001815401808255809150506001900390600052602060002001600060405180610180016040528061015e81526020016200440661015e913990919091509080519060200190620006c092919062000820565b50600380600181540180825580915050600190039060005260206000200160006040518061026001604052806102348152602001620041766102349139909190915090805190602001906200071792919062000820565b5060046103a2908060018154018082558091505060019003906000526020600020016000909190919091505560046106cc908060018154018082558091505060019003906000526020600020016000909190919091505560046103169080600181540180825580915050600190039060005260206000200160009091909190915055600461050a908060018154018082558091505060019003906000526020600020016000909190919091505560046103da908060018154018082558091505060019003906000526020600020016000909190919091505560046102ec908060018154018082558091505060019003906000526020600020016000909190919091505562000935565b8280546200082e90620008ff565b90600052602060002090601f0160209004810192826200085257600085556200089e565b82601f106200086d57805160ff19168380011785556200089e565b828001600101855582156200089e579182015b828111156200089d57825182559160200191906001019062000880565b5b509050620008ad9190620008b1565b5090565b5b80821115620008cc576000816000905550600101620008b2565b5090565b7f4e487b7100000000000000000000000000000000000000000000000000000000600052602260045260246000fd5b600060028204905060018216806200091857607f821691505b602082108114156200092f576200092e620008d0565b5b50919050565b61322f80620009456000396000f3fe608060405234801561001057600080fd5b50600436106101215760003560e01c80638d59cc02116100ad578063e3ce9ba711610071578063e3ce9ba714610347578063e5b49a6b14610351578063e8c06c5414610381578063f53dbb2e1461039d578063f851a440146103cd57610121565b80638d59cc02146102745780638df2873e146102905780639005bf74146102c057806398f68510146102f0578063c2bd9d951461030e57610121565b806340a1ca29116100f457806340a1ca29146101c05780635ef00232146101dc57806387d81f7c146101f8578063894837ab14610228578063896af4a91461025857610121565b80631043bd70146101265780632986c0e514610142578063358c371f146101605780633fe9112114610190575b600080fd5b610140600480360381019061013b9190612822565b6103eb565b005b61014a6104f4565b604051610157919061285e565b60405180910390f35b61017a60048036038101906101759190612822565b6104fa565b6040516101879190612912565b60405180910390f35b6101aa60048036038101906101a59190612822565b6105a6565b6040516101b79190612912565b60405180910390f35b6101da60048036038101906101d59190612822565b610652565b005b6101f660048036038101906101f19190612934565b610ad5565b005b610212600480360381019061020d9190612822565b611122565b60405161021f919061285e565b60405180910390f35b610242600480360381019061023d9190612822565b611146565b60405161024f91906129eb565b60405180910390f35b610272600480360381019061026d9190612934565b611182565b005b61028e60048036038101906102899190612b99565b61124d565b005b6102aa60048036038101906102a59190612822565b6117b9565b6040516102b79190612912565b60405180910390f35b6102da60048036038101906102d59190612822565b611865565b6040516102e79190612912565b60405180910390f35b6102f86119dd565b604051610305919061285e565b60405180910390f35b61032860048036038101906103239190612822565b6119ea565b60405161033e9a99989796959493929190612c24565b60405180910390f35b61034f611bf3565b005b61036b60048036038101906103669190612822565b61219b565b604051610378919061285e565b60405180910390f35b61039b60048036038101906103969190612822565b6121ca565b005b6103b760048036038101906103b29190612822565b6122a9565b6040516103c49190612ce4565b60405180910390f35b6103d56122e8565b6040516103e29190612ce4565b60405180910390f35b60008054906101000a900473ffffffffffffffffffffffffffffffffffffffff1673ffffffffffffffffffffffffffffffffffffffff163373ffffffffffffffffffffffffffffffffffffffff1614610479576040517f08c379a000000000000000000000000000000000000000000000000000000000815260040161047090612d4b565b60405180910390fd5b60016006828154811061048f5761048e612d6b565b5b90600052602060002090600d0201600a0160006101000a81548160ff021916908360028111156104c2576104c1612974565b5b021790555042600682815481106104dc576104db612d6b565b5b90600052602060002090600d0201600b018190555050565b60075481565b6003818154811061050a57600080fd5b90600052602060002001600091509050805461052590612dc9565b80601f016020809104026020016040519081016040528092919081815260200182805461055190612dc9565b801561059e5780601f106105735761010080835404028352916020019161059e565b820191906000526020600020905b81548152906001019060200180831161058157829003601f168201915b505050505081565b600181815481106105b657600080fd5b9060005260206000200160009150905080546105d190612dc9565b80601f01602080910402602001604051908101604052809291908181526020018280546105fd90612dc9565b801561064a5780601f1061061f5761010080835404028352916020019161064a565b820191906000526020600020905b81548152906001019060200180831161062d57829003601f168201915b505050505081565b60008054906101000a900473ffffffffffffffffffffffffffffffffffffffff1673ffffffffffffffffffffffffffffffffffffffff163373ffffffffffffffffffffffffffffffffffffffff16146106e0576040517f08c379a00000000000000000000000000000000000000000000000000000000081526004016106d790612d4b565b60405180910390fd5b6106e98161230c565b6002808111156106fc576106fb612974565b5b600682815481106107105761070f612d6b565b5b90600052602060002090600d0201600a0160009054906101000a900460ff16600281111561074157610740612974565b5b14610781576040517f08c379a000000000000000000000000000000000000000000000000000000000815260040161077890612e47565b60405180910390fd5b6000806006838154811061079857610797612d6b565b5b90600052602060002090600d020160090180549050905060005b8181101561097e5760056000600686815481106107d2576107d1612d6b565b5b90600052602060002090600d020160090183815481106107f5576107f4612d6b565b5b9060005260206000200160009054906101000a900473ffffffffffffffffffffffffffffffffffffffff1673ffffffffffffffffffffffffffffffffffffffff1673ffffffffffffffffffffffffffffffffffffffff168152602001908152602001600020600501848154811061086f5761086e612d6b565b5b906000526020600020906004020160020154606461088d9190612e96565b60056000600687815481106108a5576108a4612d6b565b5b90600052602060002090600d020160090184815481106108c8576108c7612d6b565b5b9060005260206000200160009054906101000a900473ffffffffffffffffffffffffffffffffffffffff1673ffffffffffffffffffffffffffffffffffffffff1673ffffffffffffffffffffffffffffffffffffffff168152602001908152602001600020600501858154811061094257610941612d6b565b5b90600052602060002090600402016001015461095e9190612eca565b836109699190612f24565b9250808061097690612f7a565b9150506107b2565b50600081606461098e9190612eca565b9050600080600090505b83811015610a875760056000600688815481106109b8576109b7612d6b565b5b90600052602060002090600d020160090183815481106109db576109da612d6b565b5b9060005260206000200160009054906101000a900473ffffffffffffffffffffffffffffffffffffffff1673ffffffffffffffffffffffffffffffffffffffff1673ffffffffffffffffffffffffffffffffffffffff1681526020019081526020016000206005018681548110610a5557610a54612d6b565b5b90600052602060002090600402016002015482610a729190612f24565b91508080610a7f90612f7a565b915050610998565b5060008183610a969190612e96565b85610aa19190612ff2565b90508060068781548110610ab857610ab7612d6b565b5b90600052602060002090600d020160080181905550505050505050565b60008054906101000a900473ffffffffffffffffffffffffffffffffffffffff1673ffffffffffffffffffffffffffffffffffffffff163373ffffffffffffffffffffffffffffffffffffffff161415610b64576040517f08c379a0000000000000000000000000000000000000000000000000000000008152600401610b5b9061306f565b60405180910390fd5b600181816002811115610b7a57610b79612974565b5b60068281548110610b8e57610b8d612d6b565b5b90600052602060002090600d0201600a0160009054906101000a900460ff166002811115610bbf57610bbe612974565b5b14610bff576040517f08c379a0000000000000000000000000000000000000000000000000000000008152600401610bf690612e47565b60405180910390fd5b600060068481548110610c1557610c14612d6b565b5b90600052602060002090600d0201600901805490501415610cbb5760068381548110610c4457610c43612d6b565b5b90600052602060002090600d0201600901339080600181540180825580915050600190039060005260206000200160009091909190916101000a81548173ffffffffffffffffffffffffffffffffffffffff021916908373ffffffffffffffffffffffffffffffffffffffff160217905550610e7a565b60005b60068481548110610cd257610cd1612d6b565b5b90600052602060002090600d020160090180549050811015610db6573373ffffffffffffffffffffffffffffffffffffffff1660068581548110610d1957610d18612d6b565b5b90600052602060002090600d02016009018281548110610d3c57610d3b612d6b565b5b9060005260206000200160009054906101000a900473ffffffffffffffffffffffffffffffffffffffff1673ffffffffffffffffffffffffffffffffffffffff161415610da3576001600060146101000a81548160ff021916908315150217905550610db6565b8080610dae90612f7a565b915050610cbe565b5060001515600060149054906101000a900460ff1615151415610e5e5760068381548110610de757610de6612d6b565b5b90600052602060002090600d0201600901339080600181540180825580915050600190039060005260206000200160009091909190916101000a81548173ffffffffffffffffffffffffffffffffffffffff021916908373ffffffffffffffffffffffffffffffffffffffff160217905550610e79565b60008060146101000a81548160ff0219169083151502179055505b5b6000610e868585612458565b90506000600560003373ffffffffffffffffffffffffffffffffffffffff1673ffffffffffffffffffffffffffffffffffffffff1681526020019081526020016000206005018581548110610ede57610edd612d6b565b5b90600052602060002090600402016003015490506000600560003373ffffffffffffffffffffffffffffffffffffffff1673ffffffffffffffffffffffffffffffffffffffff1681526020019081526020016000206005018681548110610f4857610f47612d6b565b5b90600052602060002090600402016002015490506000600183610f6b9190612f24565b848484610f789190612eca565b610f829190612f24565b610f8c9190612ff2565b905080600560003373ffffffffffffffffffffffffffffffffffffffff1673ffffffffffffffffffffffffffffffffffffffff1681526020019081526020016000206005018881548110610fe357610fe2612d6b565b5b90600052602060002090600402016002018190555087600560003373ffffffffffffffffffffffffffffffffffffffff1673ffffffffffffffffffffffffffffffffffffffff168152602001908152602001600020600501888154811061104d5761104c612d6b565b5b906000526020600020906004020160010181905550600560003373ffffffffffffffffffffffffffffffffffffffff1673ffffffffffffffffffffffffffffffffffffffff16815260200190815260200160002060050187815481106110b6576110b5612d6b565b5b906000526020600020906004020160030160008154809291906110d890612f7a565b9190505550600687815481106110f1576110f0612d6b565b5b90600052602060002090600d0201600501600081548092919061111390612f7a565b91905055505050505050505050565b6004818154811061113257600080fd5b906000526020600020016000915090505481565b60006006828154811061115c5761115b612d6b565b5b90600052602060002090600d0201600a0160009054906101000a900460ff169050919050565b60028281600281111561119857611197612974565b5b600682815481106111ac576111ab612d6b565b5b90600052602060002090600d0201600a0160009054906101000a900460ff1660028111156111dd576111dc612974565b5b1461121d576040517f08c379a000000000000000000000000000000000000000000000000000000000815260040161121490612e47565b60405180910390fd5b826006858154811061123257611231612d6b565b5b90600052602060002090600d02016008018190555050505050565b60008054906101000a900473ffffffffffffffffffffffffffffffffffffffff1673ffffffffffffffffffffffffffffffffffffffff163373ffffffffffffffffffffffffffffffffffffffff16146112db576040517f08c379a00000000000000000000000000000000000000000000000000000000081526004016112d290612d4b565b60405180910390fd5b6000808054906101000a900473ffffffffffffffffffffffffffffffffffffffff1673ffffffffffffffffffffffffffffffffffffffff168473ffffffffffffffffffffffffffffffffffffffff16141561136b576040517f08c379a0000000000000000000000000000000000000000000000000000000008152600401611362906130db565b60405180910390fd5b600a60088054905011156113b4576040517f08c379a00000000000000000000000000000000000000000000000000000000081526004016113ab9061316d565b60405180910390fd5b60005b60088054905081101561145257600881815481106113d8576113d7612d6b565b5b9060005260206000200160009054906101000a900473ffffffffffffffffffffffffffffffffffffffff1673ffffffffffffffffffffffffffffffffffffffff168573ffffffffffffffffffffffffffffffffffffffff16141561143f5760019150611452565b808061144a90612f7a565b9150506113b7565b5080611778576008849080600181540180825580915050600190039060005260206000200160009091909190916101000a81548173ffffffffffffffffffffffffffffffffffffffff021916908373ffffffffffffffffffffffffffffffffffffffff160217905550600954600560008673ffffffffffffffffffffffffffffffffffffffff1673ffffffffffffffffffffffffffffffffffffffff1681526020019081526020016000206000018190555083600560008673ffffffffffffffffffffffffffffffffffffffff1673ffffffffffffffffffffffffffffffffffffffff16815260200190815260200160002060010160006101000a81548173ffffffffffffffffffffffffffffffffffffffff021916908373ffffffffffffffffffffffffffffffffffffffff16021790555082600560008673ffffffffffffffffffffffffffffffffffffffff1673ffffffffffffffffffffffffffffffffffffffff16815260200190815260200160002060020190805190602001906115db92919061265e565b5081600560008673ffffffffffffffffffffffffffffffffffffffff1673ffffffffffffffffffffffffffffffffffffffff168152602001908152602001600020600301908051906020019061163292919061265e565b506000600560008673ffffffffffffffffffffffffffffffffffffffff1673ffffffffffffffffffffffffffffffffffffffff1681526020019081526020016000206004018190555060005b60075481101561175a5760006040518060800160405280838152602001600081526020016000815260200160008152509050600560008773ffffffffffffffffffffffffffffffffffffffff1673ffffffffffffffffffffffffffffffffffffffff16815260200190815260200160002060050181908060018154018082558091505060019003906000526020600020906004020160009091909190915060008201518160000155602082015181600101556040820151816002015560608201518160030155505050808061175290612f7a565b91505061167e565b506009600081548092919061176e90612f7a565b91905055506117b3565b6040517f08c379a00000000000000000000000000000000000000000000000000000000081526004016117aa906131d9565b60405180910390fd5b50505050565b600281815481106117c957600080fd5b9060005260206000200160009150905080546117e490612dc9565b80601f016020809104026020016040519081016040528092919081815260200182805461181090612dc9565b801561185d5780601f106118325761010080835404028352916020019161185d565b820191906000526020600020905b81548152906001019060200180831161184057829003601f168201915b505050505081565b60606000600281111561187b5761187a612974565b5b6006838154811061188f5761188e612d6b565b5b90600052602060002090600d0201600a0160009054906101000a900460ff1660028111156118c0576118bf612974565b5b1415611903576040518060400160405280600981526020017f4e6f74205374617274000000000000000000000000000000000000000000000081525090506119d8565b6001600281111561191757611916612974565b5b6006838154811061192b5761192a612d6b565b5b90600052602060002090600d0201600a0160009054906101000a900460ff16600281111561195c5761195b612974565b5b141561199f576040518060400160405280600781526020017f537461727465640000000000000000000000000000000000000000000000000081525090506119d8565b6040518060400160405280600681526020017f46696e697368000000000000000000000000000000000000000000000000000081525090505b919050565b6000600680549050905090565b600681815481106119fa57600080fd5b90600052602060002090600d0201600091509050806000015490806001018054611a2390612dc9565b80601f0160208091040260200160405190810160405280929190818152602001828054611a4f90612dc9565b8015611a9c5780601f10611a7157610100808354040283529160200191611a9c565b820191906000526020600020905b815481529060010190602001808311611a7f57829003601f168201915b505050505090806002018054611ab190612dc9565b80601f0160208091040260200160405190810160405280929190818152602001828054611add90612dc9565b8015611b2a5780601f10611aff57610100808354040283529160200191611b2a565b820191906000526020600020905b815481529060010190602001808311611b0d57829003601f168201915b505050505090806003015490806004018054611b4590612dc9565b80601f0160208091040260200160405190810160405280929190818152602001828054611b7190612dc9565b8015611bbe5780601f10611b9357610100808354040283529160200191611bbe565b820191906000526020600020905b815481529060010190602001808311611ba157829003601f168201915b50505050509080600501549080600801549080600a0160009054906101000a900460ff169080600b01549080600c015490508a565b60005b60028054905081101561219857600080600090505b600680549050811015611d9557611d7560068281548110611c2f57611c2e612d6b565b5b90600052602060002090600d02016002018054611c4b90612dc9565b80601f0160208091040260200160405190810160405280929190818152602001828054611c7790612dc9565b8015611cc45780601f10611c9957610100808354040283529160200191611cc4565b820191906000526020600020905b815481529060010190602001808311611ca757829003601f168201915b505050505060028581548110611cdd57611cdc612d6b565b5b906000526020600020018054611cf290612dc9565b80601f0160208091040260200160405190810160405280929190818152602001828054611d1e90612dc9565b8015611d6b5780601f10611d4057610100808354040283529160200191611d6b565b820191906000526020600020905b815481529060010190602001808311611d4e57829003601f168201915b505050505061257a565b91508115611d8257611d95565b8080611d8d90612f7a565b915050611c0b565b5080612184576060806006604051806101a0016040528086815260200160018781548110611dc657611dc5612d6b565b5b906000526020600020018054611ddb90612dc9565b80601f0160208091040260200160405190810160405280929190818152602001828054611e0790612dc9565b8015611e545780601f10611e2957610100808354040283529160200191611e54565b820191906000526020600020905b815481529060010190602001808311611e3757829003601f168201915b5050505050815260200160028781548110611e7257611e71612d6b565b5b906000526020600020018054611e8790612dc9565b80601f0160208091040260200160405190810160405280929190818152602001828054611eb390612dc9565b8015611f005780601f10611ed557610100808354040283529160200191611f00565b820191906000526020600020905b815481529060010190602001808311611ee357829003601f168201915b5050505050815260200160048781548110611f1e57611f1d612d6b565b5b9060005260206000200154815260200160038781548110611f4257611f41612d6b565b5b906000526020600020018054611f5790612dc9565b80601f0160208091040260200160405190810160405280929190818152602001828054611f8390612dc9565b8015611fd05780601f10611fa557610100808354040283529160200191611fd0565b820191906000526020600020905b815481529060010190602001808311611fb357829003601f168201915b5050505050815260200160008152602001848152602001848152602001600081526020018381526020016000600281111561200e5761200d612974565b5b815260200160008152602001606481525090806001815401808255809150506001900390600052602060002090600d020160009091909190915060008201518160000155602082015181600101908051906020019061206e92919061265e565b50604082015181600201908051906020019061208b92919061265e565b506060820151816003015560808201518160040190805190602001906120b292919061265e565b5060a0820151816005015560c08201518160060190805190602001906120d99291906126e4565b5060e08201518160070190805190602001906120f69291906126e4565b50610100820151816008015561012082015181600901908051906020019061211f929190612731565b5061014082015181600a0160006101000a81548160ff0219169083600281111561214c5761214b612974565b5b021790555061016082015181600b015561018082015181600c015550506007600081548092919061217c90612f7a565b919050555050505b50808061219090612f7a565b915050611bf6565b50565b6000600682815481106121b1576121b0612d6b565b5b90600052602060002090600d0201600801549050919050565b60008054906101000a900473ffffffffffffffffffffffffffffffffffffffff1673ffffffffffffffffffffffffffffffffffffffff163373ffffffffffffffffffffffffffffffffffffffff1614612258576040517f08c379a000000000000000000000000000000000000000000000000000000000815260040161224f90612d4b565b60405180910390fd5b60026006828154811061226e5761226d612d6b565b5b90600052602060002090600d0201600a0160006101000a81548160ff021916908360028111156122a1576122a0612974565b5b021790555050565b600881815481106122b957600080fd5b906000526020600020016000915054906101000a900473ffffffffffffffffffffffffffffffffffffffff1681565b60008054906101000a900473ffffffffffffffffffffffffffffffffffffffff1681565b60018181600281111561232257612321612974565b5b6006828154811061233657612335612d6b565b5b90600052602060002090600d0201600a0160009054906101000a900460ff16600281111561236757612366612974565b5b146123a7576040517f08c379a000000000000000000000000000000000000000000000000000000000815260040161239e90612e47565b60405180910390fd5b600683815481106123bb576123ba612d6b565b5b90600052602060002090600d0201600c0154600684815481106123e1576123e0612d6b565b5b90600052602060002090600d0201600b01546123fd9190612f24565b4211156124535760026006848154811061241a57612419612d6b565b5b90600052602060002090600d0201600a0160006101000a81548160ff0219169083600281111561244d5761244c612974565b5b02179055505b505050565b60008060009050836006848154811061247457612473612d6b565b5b90600052602060002090600d020160030154111561250057600683815481106124a05761249f612d6b565b5b90600052602060002090600d020160030154606485600686815481106124c9576124c8612d6b565b5b90600052602060002090600d0201600301546124e59190612e96565b6124ef9190612eca565b6124f99190612ff2565b9050612570565b6006838154811061251457612513612d6b565b5b90600052602060002090600d02016003015460646006858154811061253c5761253b612d6b565b5b90600052602060002090600d020160030154866125599190612e96565b6125639190612eca565b61256d9190612ff2565b90505b8091505092915050565b60008083905060008390506000825190508151811461259f5760009350505050612658565b60005b8181101561264f578281815181106125bd576125bc612d6b565b5b602001015160f81c60f81b7effffffffffffffffffffffffffffffffffffffffffffffffffffffffffffff19168482815181106125fd576125fc612d6b565b5b602001015160f81c60f81b7effffffffffffffffffffffffffffffffffffffffffffffffffffffffffffff19161461263c576000945050505050612658565b808061264790612f7a565b9150506125a2565b50600193505050505b92915050565b82805461266a90612dc9565b90600052602060002090601f01602090048101928261268c57600085556126d3565b82601f106126a557805160ff19168380011785556126d3565b828001600101855582156126d3579182015b828111156126d25782518255916020019190600101906126b7565b5b5090506126e091906127bb565b5090565b828054828255906000526020600020908101928215612720579160200282015b8281111561271f578251825591602001919060010190612704565b5b50905061272d91906127bb565b5090565b8280548282559060005260206000209081019282156127aa579160200282015b828111156127a95782518260006101000a81548173ffffffffffffffffffffffffffffffffffffffff021916908373ffffffffffffffffffffffffffffffffffffffff16021790555091602001919060010190612751565b5b5090506127b791906127bb565b5090565b5b808211156127d45760008160009055506001016127bc565b5090565b6000604051905090565b600080fd5b600080fd5b6000819050919050565b6127ff816127ec565b811461280a57600080fd5b50565b60008135905061281c816127f6565b92915050565b600060208284031215612838576128376127e2565b5b60006128468482850161280d565b91505092915050565b612858816127ec565b82525050565b6000602082019050612873600083018461284f565b92915050565b600081519050919050565b600082825260208201905092915050565b60005b838110156128b3578082015181840152602081019050612898565b838111156128c2576000848401525b50505050565b6000601f19601f8301169050919050565b60006128e482612879565b6128ee8185612884565b93506128fe818560208601612895565b612907816128c8565b840191505092915050565b6000602082019050818103600083015261292c81846128d9565b905092915050565b6000806040838503121561294b5761294a6127e2565b5b60006129598582860161280d565b925050602061296a8582860161280d565b9150509250929050565b7f4e487b7100000000000000000000000000000000000000000000000000000000600052602160045260246000fd5b600381106129b4576129b3612974565b5b50565b60008190506129c5826129a3565b919050565b60006129d5826129b7565b9050919050565b6129e5816129ca565b82525050565b6000602082019050612a0060008301846129dc565b92915050565b600073ffffffffffffffffffffffffffffffffffffffff82169050919050565b6000612a3182612a06565b9050919050565b612a4181612a26565b8114612a4c57600080fd5b50565b600081359050612a5e81612a38565b92915050565b600080fd5b600080fd5b7f4e487b7100000000000000000000000000000000000000000000000000000000600052604160045260246000fd5b612aa6826128c8565b810181811067ffffffffffffffff82111715612ac557612ac4612a6e565b5b80604052505050565b6000612ad86127d8565b9050612ae48282612a9d565b919050565b600067ffffffffffffffff821115612b0457612b03612a6e565b5b612b0d826128c8565b9050602081019050919050565b82818337600083830152505050565b6000612b3c612b3784612ae9565b612ace565b905082815260208101848484011115612b5857612b57612a69565b5b612b63848285612b1a565b509392505050565b600082601f830112612b8057612b7f612a64565b5b8135612b90848260208601612b29565b91505092915050565b600080600060608486031215612bb257612bb16127e2565b5b6000612bc086828701612a4f565b935050602084013567ffffffffffffffff811115612be157612be06127e7565b5b612bed86828701612b6b565b925050604084013567ffffffffffffffff811115612c0e57612c0d6127e7565b5b612c1a86828701612b6b565b9150509250925092565b600061014082019050612c3a600083018d61284f565b8181036020830152612c4c818c6128d9565b90508181036040830152612c60818b6128d9565b9050612c6f606083018a61284f565b8181036080830152612c8181896128d9565b9050612c9060a083018861284f565b612c9d60c083018761284f565b612caa60e08301866129dc565b612cb861010083018561284f565b612cc661012083018461284f565b9b9a5050505050505050505050565b612cde81612a26565b82525050565b6000602082019050612cf96000830184612cd5565b92915050565b7f4f6e6c792061646d696e2063616e20736f6c7665000000000000000000000000600082015250565b6000612d35601483612884565b9150612d4082612cff565b602082019050919050565b60006020820190508181036000830152612d6481612d28565b9050919050565b7f4e487b7100000000000000000000000000000000000000000000000000000000600052603260045260246000fd5b7f4e487b7100000000000000000000000000000000000000000000000000000000600052602260045260246000fd5b60006002820490506001821680612de157607f821691505b60208210811415612df557612df4612d9a565b5b50919050565b7f57726f6e6720737461747573206f66207365737374696f6e0000000000000000600082015250565b6000612e31601883612884565b9150612e3c82612dfb565b602082019050919050565b60006020820190508181036000830152612e6081612e24565b9050919050565b7f4e487b7100000000000000000000000000000000000000000000000000000000600052601160045260246000fd5b6000612ea1826127ec565b9150612eac836127ec565b925082821015612ebf57612ebe612e67565b5b828203905092915050565b6000612ed5826127ec565b9150612ee0836127ec565b9250817fffffffffffffffffffffffffffffffffffffffffffffffffffffffffffffffff0483118215151615612f1957612f18612e67565b5b828202905092915050565b6000612f2f826127ec565b9150612f3a836127ec565b9250827fffffffffffffffffffffffffffffffffffffffffffffffffffffffffffffffff03821115612f6f57612f6e612e67565b5b828201905092915050565b6000612f85826127ec565b91507fffffffffffffffffffffffffffffffffffffffffffffffffffffffffffffffff821415612fb857612fb7612e67565b5b600182019050919050565b7f4e487b7100000000000000000000000000000000000000000000000000000000600052601260045260246000fd5b6000612ffd826127ec565b9150613008836127ec565b92508261301857613017612fc3565b5b828204905092915050565b7f4e6f74206f6e6c792061646d696e000000000000000000000000000000000000600082015250565b6000613059600e83612884565b915061306482613023565b602082019050919050565b600060208201905081810360008301526130888161304c565b9050919050565b7f4163636f756e74206f662061646d696e2063616e277420726567697374657200600082015250565b60006130c5601f83612884565b91506130d08261308f565b602082019050919050565b600060208201905081810360008301526130f4816130b8565b9050919050565b7f546865206e756d626572206f66207061727469636970616e7473206973206c6560008201527f7373207468616e2074656e2e0000000000000000000000000000000000000000602082015250565b6000613157602c83612884565b9150613162826130fb565b604082019050919050565b600060208201905081810360008301526131868161314a565b9050919050565b7f546869732061646472657373205265616c6c7920657869737465640000000000600082015250565b60006131c3601b83612884565b91506131ce8261318d565b602082019050919050565b600060208201905081810360008301526131f2816131b6565b905091905056fea26469706673582212207e5b3c54e8aa0d4ed11a29143a6c14f79bdc9fb4a2e343135f2605bd4b3ac73964736f6c634300080a0033556e6971756520666f6c64696e672073637265656e2c207365616d6c65737320646973706c6179202d2044796e616d696320414d4f4c45442032582c20313230487a207265667265736820726174652c2048445220737570706f72742c20446f6c627920566973696f6e2e203c2f62723e556e6971756520666f6c64696e672073637265656e2c207365616d6c65737320646973706c6179202d2044796e616d696320414d4f4c45442032582c20313230487a207265667265736820726174652c2048445220737570706f72742c20446f6c627920566973696f6e2e3c2f62723e537570657220696d70726573736976652063616d6572612073797374656d202d20536574206f6620332031324d502063616d657261206c656e7365732c2073686172702073656c6669652063616d6572612e3c2f62723e496d707265737369766520706572666f726d616e63652c206d617374657220746865207370656564202d20536e6170647261676f6e2038383820636f6d62696e65642077697468203847422052414d2c20354720737570706f72742e3c2f62723e53616d73756e672047616c617879205a20466c69702033202835472920556e6971756520666f6c64696e672073637265656e2070686f6e652e3c62723e43686172616374657269737469632064657369676e2c2070696f6e656572696e6720666c657869626c652073637265656e3c2f62723e427265616b20616c6c20746865206c696d697473206f6620706572666f726d616e6365202d20686967682d656e6420536e6170647261676f6e203836352b2c20354720636f6e6e65637469766974792c20313247422052414d2e3c62722f3e5374616e646172642067616d696e672073637265656e202d20414d4f4c45442070616e656c2c20686967682072656672657368207261746520313434487a2c2048445231302b2e3c62722f3e506c61792067616d657320776974686f757420696e74657272757074696f6e202d20363030306d416820626174746572792c20637573746f6d2062617474657279206d6f64653c2f62723e47616d6572206665617475726573202d20416972547269676765722035206d756c74692d746f7563682c207175616c697479206475616c20737065616b6572732e203c2f62723e526576696577204173757320524f472050686f6e65203528313647422f323536474229202d20556e726976616c656420706572666f726d616e63652e3c2f62723e2e426f6c642064657369676e2c20736861727020362e37382d696e6368204648442b2073637265656e3c62723e516d643633454c6b5a6737467a4b424d33516336377750766e4a3251386b675269596d39634267465057526d4d6b516d637272466637386531656d6953674365335539514543345173374a714254344c4a7479764d35336335386d4a496d7072657373697665206475616c2073637265656e202d20372e39206d61696e2073637265656e20616e64207375622073637265656e3a20362e32332c20313230487a20736d6f6f7468206d6f74696f6e203c62722f3e537570657220696d70726573736976652063616d6572612073797374656d202d20536574206f6620332031324d502063616d657261206c656e7365732c2073656c6669652063616d6572612068696464656e20756e646572207468652073637265656e3c2f62723e496d707265737369766520706572666f726d616e63652c206d617374657220746865207370656564202d20536e6170647261676f6e2038383820636f6d62696e6564207769746820313247422052414d2c20354720737570706f72742e3c2f62723e53757065722070686f746f677261706879202d204e69676874204d6f6465202c204465657020467573696f6e20616c676f726974686d2c20536d6172742048445220332c204c694461722063616d6572612e3c62723e44757261626c652e206f75747374616e64696e67202d204950363820776174657270726f6f662c206475737470726f6f662c20436572616d696320536869656c64206261636b3c2f62723e204d617373697665206d656d6f727920666f7220756e6c696d697465642073746f726167652073706163652e56696272616e7420646973706c617920737061636520362e3120537570657220526574696e612058445220646973706c617920776974682068696768206272696768746e65737320616e642073686172706e65737354686520756c74696d6174652063696e656d6174696320657870657269656e6365203c62722f3e2031324d50206475616c2063616d657261732077697468206f70746963616c20696d6167652073746162696c697a6174696f6e3c2f62723e4f75747374616e64696e6720706572666f726d616e6365202d20506f77657266756c204170706c65204131352042696f6e696320636869702c20737570706f727420666f7220686967682d7370656564203547206e6574776f726b732e3c2f62723e566976696420646973706c6179207370616365202d20362e3720537570657220526574696e61205844522073637265656e20776974682068696768206272696768746e65737320616e642073686172706e6573732e3c2f62723e457870657269656e636520556c74696d6174652063696e656d6174696320657870657269656e6365202d20436c7573746572206f662033206475616c2031324d502063616d657261732c20737570706f7274696e67206f70746963616c20696d6167652073746162696c697a6174696f6e2e3c2f62723e506f776572206f7074696d697a6174696f6e202d20323020572066617374206368617267696e672c2035302520626174746572792066756c6c20696e2061626f7574203330206d696e75746573516d4e7156597448346d584736394c6e4159453478793168676666315a6b59427476566343447941345250693669516d5865593537516658446e79744c3750554141796e727454566675424845596158577858346a464641794c7964506f77657266756c2c2073757065722d6661737420776974682041313420636869702c203647422052414d2c20686967682d7370656564203547206e6574776f726b203c62722f3e4272696c6c69616e742c2073686172702c2068696768206272696768746e657373202d205072656d69756d204f4c454420646973706c6179203c62722f3e537570657220526574696e6120584452207769746820484452313020737570706f72742c20446f6c627920566973696f6e3c2f62723e4f75747374616e64696e67206475726162696c697479202d204950363820776174657220616e64206475737420726573697374616e63652c20436572616d696320536869656c64206261636b2e3c2f62723e6950686f6e652031322050726f204d61783a20526169736520746865206c6576656c206f66207573652e3c2f62723e20362e3720696e636820537570657220526574696e61205844522073637265656e4c75787572792c20686967682d636c617373202d20556e6971756520616e64206174747261637469766520636f6c6f72732e3c62722f3e54616b652070726f66657373696f6e616c2070686f746f73202d20536574206f6620332063616d65726173207468617420737570706f7274205a6f6f6d20617320666172206173203330582e3c62722f3e54616b65206e6f74657320717569636b6c7920616e642061636375726174656c79207769746820746865206e65772067656e65726174696f6e20532d50656e2e3c62722f3e556c74696d6174652067616d696e67202d20506f77657266756c20376e6d204578796e6f73203939302c206f75747374616e64696e672070726f63657373696e6720706572666f726d616e63652e3c62722f3e53616d73756e67204e6f746520323020556c7472612035472070686f6e65202d204c75787572792c206f75747374616e64696e6720706572666f726d616e63652e3c62722f3e4d6f6e6f6c697468696320616c756d696e756d206672616d652064657369676e2c206c75787572696f75732074656d706572656420676c617373206261636b2e516d54703638734438654158535046616f5a707153366276627848467047384141454c58314a3754663843657269516d61476a6e7043337358656b516f6e385636326e5a467a356f4b7542316770794a614d754a744343344e376638",
  "immutableReferences": {},
  "source": "pragma solidity >=0.4.0 <0.9.0;\r\nimport \"./Main.sol\";\r\ncontract Session is Main{\r\n    struct Items{\r\n        uint IdItem;\r\n        string nameItem;\r\n        string imageHash;\r\n        uint firstPrice;\r\n        string itemDescription;\r\n        uint countPaticipantJoinSesstion;\r\n        uint[] listPriceOfPaticipant;\r\n        uint[] listPriceDeviation;\r\n        uint valueChangePricing;\r\n        address[] checkAccount;\r\n        StatusSesstion statusSesstion;\r\n        uint timeSesstionEachOtherproduct;\r\n        uint timeFinishSesstionEachOtherproduct;\r\n    }\r\n    \r\n    mapping(address => Paticipant) private paticipants;\r\n    Items[] public itemsList;\r\n    uint public index = 0;\r\n    address[] public totalAccounts;\r\n    uint indexPaticipant = 0;\r\n    \r\n    modifier checkStatus(StatusSesstion _statusSesstion, uint _IdItem){\r\n        require(itemsList[_IdItem].statusSesstion == _statusSesstion, \"Wrong status of sesstion\");\r\n        _;\r\n    }\r\n\r\n    function addData() public{\r\n        for(uint i = 0 ; i < listHashImage.length ; i++){\r\n            bool statusAdd;\r\n            for(uint j = 0 ; j < itemsList.length ; j++){\r\n               statusAdd = stringsEquals(itemsList[j].imageHash, listHashImage[i]);\r\n               if(statusAdd){\r\n                   break;\r\n               }\r\n            }\r\n            if(!statusAdd){\r\n                uint[] memory emptyArray;\r\n                address[] memory amptyAddressArray;\r\n                itemsList.push(Items(i, listNameOfItems[i], listHashImage[i], listPrice[i], listInformationOfImage[i],  0, emptyArray, emptyArray, 0, amptyAddressArray, StatusSesstion.START, 0, 100));\r\n                index++;\r\n            }  \r\n        }\r\n    }\r\n\r\n    function convertStateToString(uint _IdItem) public view returns(string memory){\r\n        if(itemsList[_IdItem].statusSesstion == StatusSesstion.START){\r\n            return \"Not Start\";\r\n        }else{\r\n            if(itemsList[_IdItem].statusSesstion == StatusSesstion.PRICING){\r\n                return \"Started\";\r\n            }else{\r\n                return \"Finish\";\r\n            }\r\n        }\r\n    }\r\n\r\n    function stringsEquals(string memory s1, string memory s2) private pure returns (bool) {\r\n        bytes memory b1 = bytes(s1);\r\n        bytes memory b2 = bytes(s2);\r\n        uint256 l1 = b1.length;\r\n        if (l1 != b2.length) return false;\r\n        for (uint256 i=0; i<l1; i++) {\r\n            if (b1[i] != b2[i]) return false;\r\n        }\r\n        return true;\r\n    }\r\n\r\n    function getLengthItems() public view returns(uint) {\r\n        return itemsList.length;\r\n    }\r\n    \r\n    function startSesstion(uint _IdItem) public onlyAdmin {\r\n        itemsList[_IdItem].statusSesstion = StatusSesstion.PRICING;\r\n        itemsList[_IdItem].timeSesstionEachOtherproduct = block.timestamp;\r\n    }\r\n\r\n    function stopSesstion(uint _IdItem) public onlyAdmin{\r\n        itemsList[_IdItem].statusSesstion = StatusSesstion.DONE;\r\n    }\r\n\r\n    function register(address _address, string memory _fullName, string memory _email) public onlyAdmin(){\r\n        bool checkStatusAddress = false;\r\n        if(_address == admin){\r\n            revert(\"Account of admin can't register\");\r\n        }\r\n        if(totalAccounts.length > 10){\r\n            revert(\"The number of participants is less than ten.\");\r\n        }else{\r\n            for(uint i = 0; i < totalAccounts.length; i++){\r\n                if(_address == totalAccounts[i]){\r\n                    checkStatusAddress = true;\r\n                    break;\r\n                }\r\n            }\r\n            if(!checkStatusAddress){\r\n                totalAccounts.push(_address);\r\n                paticipants[_address].IDPaticipant = indexPaticipant;  \r\n                paticipants[_address].addressAccount = _address;\r\n                paticipants[_address].fullName = _fullName;\r\n                paticipants[_address].email = _email;\r\n                paticipants[_address].countPricedSesstion = 0;\r\n                for(uint i = 0 ; i < index ; i++){\r\n                    DataChange memory dataChange = DataChange({IdItem: i, priceDeviation: 0, valueChangePricingOtherPaticipant: 0 , numberChangePricingOtherPaticipant: 0});\r\n                    paticipants[_address].listDataChange.push(dataChange);\r\n                }\r\n                indexPaticipant++;\r\n            }else{\r\n                revert(\"This address Really existed\");\r\n            }\r\n        }   \r\n    }\r\n    \r\n    function getProposedPrice(uint _IdItem) public onlyAdmin {\r\n        timeOutOfSesstion(_IdItem);\r\n        if(itemsList[_IdItem].statusSesstion != StatusSesstion.DONE){\r\n            revert(\"Wrong status of sesstion\");\r\n        }\r\n        uint totalPriceOfPaticipantAbove;\r\n        uint numberPaticipantJoneSestion = itemsList[_IdItem].checkAccount.length;\r\n        for(uint i = 0 ; i < numberPaticipantJoneSestion ; i++){\r\n              totalPriceOfPaticipantAbove += (paticipants[itemsList[_IdItem].checkAccount[i]].listDataChange[_IdItem].priceDeviation) * (100 - (paticipants[itemsList[_IdItem].checkAccount[i]].listDataChange[_IdItem].valueChangePricingOtherPaticipant));        \r\n        }\r\n        uint totalPriceOfPaticipantUnderLeft = 100 * numberPaticipantJoneSestion;\r\n        uint totalPriceOfPaticipantUnderRight;\r\n        for(uint i = 0 ; i < numberPaticipantJoneSestion ; i++){\r\n              totalPriceOfPaticipantUnderRight += paticipants[ itemsList[_IdItem].checkAccount[i]].listDataChange[_IdItem].valueChangePricingOtherPaticipant;\r\n        }\r\n        uint result = totalPriceOfPaticipantAbove / (totalPriceOfPaticipantUnderLeft - totalPriceOfPaticipantUnderRight);\r\n        itemsList[_IdItem].valueChangePricing = result;\r\n        //emit LogFinishPriceItems(_IdItem,  itemsList[_IdItem].nameItem, itemsList[_IdItem].firstPrice, itemsList[_IdItem].itemDescription, itemsList[_IdItem].statusSesstion, itemsList[_IdItem].valueChangePricing);\r\n    }\r\n\r\n    function accumulatedDeviation(uint _newPriceOfParticipan, uint _IdItem) public notOnlyAdmin checkStatus(StatusSesstion.PRICING, _IdItem){\r\n        if(itemsList[_IdItem].checkAccount.length == 0){\r\n            itemsList[_IdItem].checkAccount.push(msg.sender);\r\n        }else{\r\n            for(uint i = 0 ; i < itemsList[_IdItem].checkAccount.length; i++){\r\n                if(itemsList[_IdItem].checkAccount[i] == msg.sender){\r\n                    status = true;\r\n                    break;\r\n                }\r\n            }\r\n            if(status == false){\r\n                itemsList[_IdItem].checkAccount.push(msg.sender);\r\n            }else{\r\n                status = false;\r\n            }\r\n        }\r\n        uint calNewPriceOfParticipant = calculatingDeviation(_newPriceOfParticipan, _IdItem);\r\n        uint numberPaticipant = paticipants[msg.sender].listDataChange[_IdItem].numberChangePricingOtherPaticipant;\r\n        uint currentPriceDeviation = paticipants[msg.sender].listDataChange[_IdItem].valueChangePricingOtherPaticipant;\r\n        uint value = (currentPriceDeviation * numberPaticipant + calNewPriceOfParticipant) / (numberPaticipant + 1);\r\n        paticipants[msg.sender].listDataChange[_IdItem].valueChangePricingOtherPaticipant = value;\r\n        paticipants[msg.sender].listDataChange[_IdItem].priceDeviation = _newPriceOfParticipan;\r\n        paticipants[msg.sender].listDataChange[_IdItem].numberChangePricingOtherPaticipant++;\r\n        itemsList[_IdItem].countPaticipantJoinSesstion++;\r\n    }\r\n\r\n    function calculatingDeviation(uint _priceOfParticipan, uint _IdItem) internal view returns (uint){\r\n        uint newPriceDeviation = 0;\r\n        if(itemsList[_IdItem].firstPrice > _priceOfParticipan){\r\n            newPriceDeviation = (itemsList[_IdItem].firstPrice  - _priceOfParticipan) * 100 / itemsList[_IdItem].firstPrice;\r\n        }else{\r\n            newPriceDeviation = (_priceOfParticipan - itemsList[_IdItem].firstPrice) * 100 / itemsList[_IdItem].firstPrice;\r\n        }\r\n        return uint(newPriceDeviation);\r\n    }\r\n\r\n    function timeOutOfSesstion(uint _IdItem) internal checkStatus(StatusSesstion.PRICING, _IdItem){\r\n        if(block.timestamp > itemsList[_IdItem].timeSesstionEachOtherproduct + itemsList[_IdItem].timeFinishSesstionEachOtherproduct){\r\n             itemsList[_IdItem].statusSesstion = StatusSesstion.DONE;\r\n        }\r\n    }\r\n\r\n    function getDataItems(uint _IdItem) public view returns(uint) {\r\n       return itemsList[_IdItem].valueChangePricing;\r\n    }\r\n\r\n    function getStatusSesstion(uint _IdItem) public view returns(StatusSesstion){\r\n        return itemsList[_IdItem].statusSesstion;\r\n    }\r\n\r\n    function setPriceOfItem(uint _IdItem, uint _price) public checkStatus(StatusSesstion.DONE, _IdItem){\r\n         itemsList[_IdItem].valueChangePricing = _price;\r\n    }\r\n}",
  "sourcePath": "C:\\Users\\Admin\\Desktop\\FunixPriceChanging\\contracts\\Session.sol",
  "compiler": {
    "name": "solc",
    "version": "0.8.10+commit.fc410830.Emscripten.clang"
  },
  "schemaVersion": "3.4.3",
  "updatedAt": "2021-12-19T08:49:20.021Z",
  "networkType": "ethereum",
  "devdoc": {
    "kind": "dev",
    "methods": {},
    "version": 1
  },
  "userdoc": {
    "kind": "user",
    "methods": {},
    "version": 1
  }
}