{
  "contractName": "Session",
  "abi": [
    {
      "inputs": [],
      "stateMutability": "nonpayable",
      "type": "constructor"
    },
    {
      "anonymous": false,
      "inputs": [
        {
          "indexed": true,
          "internalType": "uint256",
          "name": "_IdItems",
          "type": "uint256"
        },
        {
          "indexed": false,
          "internalType": "string",
          "name": "_nameItem",
          "type": "string"
        },
        {
          "indexed": false,
          "internalType": "string",
          "name": "_fullName",
          "type": "string"
        },
        {
          "indexed": false,
          "internalType": "uint256",
          "name": "_valueChangePricing",
          "type": "uint256"
        }
      ],
      "name": "LogChainPriceOfSession",
      "type": "event"
    },
    {
      "anonymous": false,
      "inputs": [
        {
          "indexed": true,
          "internalType": "uint256",
          "name": "_IdItems",
          "type": "uint256"
        },
        {
          "indexed": false,
          "internalType": "string",
          "name": "_nameItem",
          "type": "string"
        },
        {
          "indexed": false,
          "internalType": "uint256",
          "name": "_firstPrice",
          "type": "uint256"
        }
      ],
      "name": "LogStartSession",
      "type": "event"
    },
    {
      "anonymous": false,
      "inputs": [
        {
          "indexed": true,
          "internalType": "uint256",
          "name": "_IdItems",
          "type": "uint256"
        },
        {
          "indexed": false,
          "internalType": "string",
          "name": "_nameItem",
          "type": "string"
        },
        {
          "indexed": false,
          "internalType": "uint256",
          "name": "_firstPrice",
          "type": "uint256"
        }
      ],
      "name": "LogStopSession",
      "type": "event"
    },
    {
      "inputs": [],
      "name": "admin",
      "outputs": [
        {
          "internalType": "address",
          "name": "",
          "type": "address"
        }
      ],
      "stateMutability": "view",
      "type": "function",
      "constant": true
    },
    {
      "inputs": [
        {
          "internalType": "uint256",
          "name": "",
          "type": "uint256"
        }
      ],
      "name": "emptyArray1",
      "outputs": [
        {
          "internalType": "uint256",
          "name": "",
          "type": "uint256"
        }
      ],
      "stateMutability": "view",
      "type": "function",
      "constant": true
    },
    {
      "inputs": [
        {
          "internalType": "uint256",
          "name": "",
          "type": "uint256"
        }
      ],
      "name": "emptyArray2",
      "outputs": [
        {
          "internalType": "uint256",
          "name": "",
          "type": "uint256"
        }
      ],
      "stateMutability": "view",
      "type": "function",
      "constant": true
    },
    {
      "inputs": [],
      "name": "index",
      "outputs": [
        {
          "internalType": "uint256",
          "name": "",
          "type": "uint256"
        }
      ],
      "stateMutability": "view",
      "type": "function",
      "constant": true
    },
    {
      "inputs": [
        {
          "internalType": "uint256",
          "name": "",
          "type": "uint256"
        }
      ],
      "name": "itemsList",
      "outputs": [
        {
          "internalType": "uint256",
          "name": "IdItem",
          "type": "uint256"
        },
        {
          "internalType": "string",
          "name": "nameItem",
          "type": "string"
        },
        {
          "internalType": "string",
          "name": "imageHash",
          "type": "string"
        },
        {
          "internalType": "uint256",
          "name": "firstPrice",
          "type": "uint256"
        },
        {
          "internalType": "string",
          "name": "itemDescription",
          "type": "string"
        },
        {
          "internalType": "uint256",
          "name": "countPaticipantJoinSesstion",
          "type": "uint256"
        },
        {
          "internalType": "uint256",
          "name": "valueChangePricing",
          "type": "uint256"
        },
        {
          "internalType": "enum Main.StatusSesstion",
          "name": "statusSesstion",
          "type": "uint8"
        },
        {
          "internalType": "uint256",
          "name": "timeSesstionEachOtherproduct",
          "type": "uint256"
        },
        {
          "internalType": "uint256",
          "name": "timeFinishSesstionEachOtherproduct",
          "type": "uint256"
        }
      ],
      "stateMutability": "view",
      "type": "function",
      "constant": true
    },
    {
      "inputs": [
        {
          "internalType": "uint256",
          "name": "",
          "type": "uint256"
        }
      ],
      "name": "listHashImage",
      "outputs": [
        {
          "internalType": "string",
          "name": "",
          "type": "string"
        }
      ],
      "stateMutability": "view",
      "type": "function",
      "constant": true
    },
    {
      "inputs": [
        {
          "internalType": "uint256",
          "name": "",
          "type": "uint256"
        }
      ],
      "name": "listInformationOfImage",
      "outputs": [
        {
          "internalType": "string",
          "name": "",
          "type": "string"
        }
      ],
      "stateMutability": "view",
      "type": "function",
      "constant": true
    },
    {
      "inputs": [
        {
          "internalType": "uint256",
          "name": "",
          "type": "uint256"
        }
      ],
      "name": "listNameOfItems",
      "outputs": [
        {
          "internalType": "string",
          "name": "",
          "type": "string"
        }
      ],
      "stateMutability": "view",
      "type": "function",
      "constant": true
    },
    {
      "inputs": [
        {
          "internalType": "uint256",
          "name": "",
          "type": "uint256"
        }
      ],
      "name": "listPrice",
      "outputs": [
        {
          "internalType": "uint256",
          "name": "",
          "type": "uint256"
        }
      ],
      "stateMutability": "view",
      "type": "function",
      "constant": true
    },
    {
      "inputs": [
        {
          "internalType": "address",
          "name": "",
          "type": "address"
        }
      ],
      "name": "paticipants",
      "outputs": [
        {
          "internalType": "address",
          "name": "addressAccount",
          "type": "address"
        },
        {
          "internalType": "string",
          "name": "fullName",
          "type": "string"
        },
        {
          "internalType": "string",
          "name": "email",
          "type": "string"
        },
        {
          "internalType": "string",
          "name": "passwordAccount",
          "type": "string"
        },
        {
          "internalType": "uint256",
          "name": "countPricedSesstion",
          "type": "uint256"
        }
      ],
      "stateMutability": "view",
      "type": "function",
      "constant": true
    },
    {
      "inputs": [
        {
          "internalType": "uint256",
          "name": "",
          "type": "uint256"
        }
      ],
      "name": "totalAccounts",
      "outputs": [
        {
          "internalType": "address",
          "name": "",
          "type": "address"
        }
      ],
      "stateMutability": "view",
      "type": "function",
      "constant": true
    },
    {
      "inputs": [
        {
          "internalType": "string",
          "name": "_nameItem",
          "type": "string"
        },
        {
          "internalType": "string",
          "name": "_imageHash",
          "type": "string"
        },
        {
          "internalType": "string",
          "name": "_itemDescription",
          "type": "string"
        },
        {
          "internalType": "uint256",
          "name": "_firstPrice",
          "type": "uint256"
        }
      ],
      "name": "createNewItem",
      "outputs": [],
      "stateMutability": "nonpayable",
      "type": "function"
    },
    {
      "inputs": [],
      "name": "addData",
      "outputs": [],
      "stateMutability": "nonpayable",
      "type": "function"
    },
    {
      "inputs": [
        {
          "internalType": "uint256",
          "name": "_IdItem",
          "type": "uint256"
        }
      ],
      "name": "convertStateToString",
      "outputs": [
        {
          "internalType": "string",
          "name": "",
          "type": "string"
        }
      ],
      "stateMutability": "view",
      "type": "function",
      "constant": true
    },
    {
      "inputs": [],
      "name": "getLengthItems",
      "outputs": [
        {
          "internalType": "uint256",
          "name": "",
          "type": "uint256"
        }
      ],
      "stateMutability": "view",
      "type": "function",
      "constant": true
    },
    {
      "inputs": [
        {
          "internalType": "uint256",
          "name": "_IdItem",
          "type": "uint256"
        }
      ],
      "name": "stopSesstion",
      "outputs": [],
      "stateMutability": "nonpayable",
      "type": "function"
    },
    {
      "inputs": [
        {
          "internalType": "uint256",
          "name": "_IdItem",
          "type": "uint256"
        }
      ],
      "name": "startSesstion",
      "outputs": [],
      "stateMutability": "nonpayable",
      "type": "function"
    },
    {
      "inputs": [
        {
          "internalType": "uint256",
          "name": "_IdItem",
          "type": "uint256"
        },
        {
          "internalType": "uint256",
          "name": "_price",
          "type": "uint256"
        }
      ],
      "name": "setFinalPriceOfItem",
      "outputs": [],
      "stateMutability": "nonpayable",
      "type": "function"
    },
    {
      "inputs": [
        {
          "internalType": "uint256",
          "name": "_IdItem",
          "type": "uint256"
        },
        {
          "internalType": "address",
          "name": "_address",
          "type": "address"
        }
      ],
      "name": "showDataPrice",
      "outputs": [
        {
          "internalType": "uint256[]",
          "name": "",
          "type": "uint256[]"
        }
      ],
      "stateMutability": "view",
      "type": "function",
      "constant": true
    },
    {
      "inputs": [
        {
          "internalType": "uint256",
          "name": "_IdItem",
          "type": "uint256"
        },
        {
          "internalType": "address",
          "name": "_address",
          "type": "address"
        }
      ],
      "name": "showDataDeviation",
      "outputs": [
        {
          "internalType": "uint256[]",
          "name": "",
          "type": "uint256[]"
        }
      ],
      "stateMutability": "view",
      "type": "function",
      "constant": true
    },
    {
      "inputs": [
        {
          "internalType": "uint256",
          "name": "_IdItem",
          "type": "uint256"
        }
      ],
      "name": "getAddressChangedPriceOfItems",
      "outputs": [
        {
          "internalType": "address[]",
          "name": "",
          "type": "address[]"
        }
      ],
      "stateMutability": "view",
      "type": "function",
      "constant": true
    },
    {
      "inputs": [],
      "name": "getAddressUserRegister",
      "outputs": [
        {
          "internalType": "address[]",
          "name": "",
          "type": "address[]"
        }
      ],
      "stateMutability": "view",
      "type": "function",
      "constant": true
    },
    {
      "inputs": [
        {
          "internalType": "address",
          "name": "_address",
          "type": "address"
        },
        {
          "internalType": "string",
          "name": "_fullName",
          "type": "string"
        },
        {
          "internalType": "string",
          "name": "_email",
          "type": "string"
        },
        {
          "internalType": "string",
          "name": "_passwordAccount",
          "type": "string"
        }
      ],
      "name": "registerAccount",
      "outputs": [],
      "stateMutability": "nonpayable",
      "type": "function"
    },
    {
      "inputs": [
        {
          "internalType": "uint256",
          "name": "_IdItem",
          "type": "uint256"
        }
      ],
      "name": "getProposedPrice",
      "outputs": [],
      "stateMutability": "nonpayable",
      "type": "function"
    },
    {
      "inputs": [
        {
          "internalType": "uint256",
          "name": "_newPriceOfParticipan",
          "type": "uint256"
        },
        {
          "internalType": "uint256",
          "name": "_IdItem",
          "type": "uint256"
        }
      ],
      "name": "accumulatedDeviation",
      "outputs": [],
      "stateMutability": "nonpayable",
      "type": "function"
    },
    {
      "inputs": [
        {
          "internalType": "uint256",
          "name": "_IdItem",
          "type": "uint256"
        }
      ],
      "name": "timeOutOfSesstion",
      "outputs": [],
      "stateMutability": "nonpayable",
      "type": "function"
    }
  ],
  "bytecode": "0x608060405260008060146101000a81548160ff021916908315150217905550600060035560405180602001604052806040518060400160405280601581526020017f53616d73756e672047616c617879204e6f746532300000000000000000000000815250815250600590600162000079929190620008c7565b5060405180602001604052806040518060600160405280602e815260200162005141602e91398152506006906001620000b4929190620008c7565b506040518060200160405280604051806101e001604052806101a581526020016200516f6101a591398152506007906001620000f2929190620008c7565b5060405180602001604052806103a261ffff1681525060089060016200011a9291906200092e565b506040518060200160405280600060ff1681525060099060016200014092919062000986565b506040518060200160405280600060ff16815250600a9060016200016692919062000986565b503480156200017457600080fd5b50336000806101000a81548173ffffffffffffffffffffffffffffffffffffffff021916908373ffffffffffffffffffffffffffffffffffffffff160217905550620001c5620001cb60201b60201c565b62000d26565b60005b600680549050811015620007d257600080600090505b60028054905081101562000392576200036d600282815481106200020d576200020c62000bdc565b5b90600052602060002090600d020160020180546200022b9062000c3a565b80601f0160208091040260200160405190810160405280929190818152602001828054620002599062000c3a565b8015620002aa5780601f106200027e57610100808354040283529160200191620002aa565b820191906000526020600020905b8154815290600101906020018083116200028c57829003601f168201915b505050505060068581548110620002c657620002c562000bdc565b5b906000526020600020018054620002dd9062000c3a565b80601f01602080910402602001604051908101604052809291908181526020018280546200030b9062000c3a565b80156200035c5780601f1062000330576101008083540402835291602001916200035c565b820191906000526020600020905b8154815290600101906020018083116200033e57829003601f168201915b5050505050620007d560201b60201c565b915081156200037c5762000392565b8080620003899062000ca9565b915050620001e4565b5080620007bb576060806002604051806101a0016040528086815260200160058781548110620003c757620003c662000bdc565b5b906000526020600020018054620003de9062000c3a565b80601f01602080910402602001604051908101604052809291908181526020018280546200040c9062000c3a565b80156200045d5780601f1062000431576101008083540402835291602001916200045d565b820191906000526020600020905b8154815290600101906020018083116200043f57829003601f168201915b50505050508152602001600687815481106200047e576200047d62000bdc565b5b906000526020600020018054620004959062000c3a565b80601f0160208091040260200160405190810160405280929190818152602001828054620004c39062000c3a565b8015620005145780601f10620004e85761010080835404028352916020019162000514565b820191906000526020600020905b815481529060010190602001808311620004f657829003601f168201915b505050505081526020016008878154811062000535576200053462000bdc565b5b90600052602060002001548152602001600787815481106200055c576200055b62000bdc565b5b906000526020600020018054620005739062000c3a565b80601f0160208091040260200160405190810160405280929190818152602001828054620005a19062000c3a565b8015620005f25780601f10620005c657610100808354040283529160200191620005f2565b820191906000526020600020905b815481529060010190602001808311620005d457829003601f168201915b5050505050815260200160008152602001848152602001848152602001600081526020018381526020016000600381111562000633576200063262000cf7565b5b81526020016000815260200161025881525090806001815401808255809150506001900390600052602060002090600d020160009091909190915060008201518160000155602082015181600101908051906020019062000696929190620009dd565b506040820151816002019080519060200190620006b5929190620009dd565b50606082015181600301556080820151816004019080519060200190620006de929190620009dd565b5060a0820151816005015560c08201518160060190805190602001906200070792919062000a6e565b5060e08201518160070190805190602001906200072692919062000a6e565b5061010082015181600801556101208201518160090190805190602001906200075192919062000ac0565b5061014082015181600a0160006101000a81548160ff0219169083600381111562000781576200078062000cf7565b5b021790555061016082015181600b015561018082015181600c0155505060036000815480929190620007b39062000ca9565b919050555050505b508080620007c99062000ca9565b915050620001ce565b50565b600080839050600083905060008251905081518114620007fc5760009350505050620008c1565b60005b81811015620008b8578281815181106200081e576200081d62000bdc565b5b602001015160f81c60f81b7effffffffffffffffffffffffffffffffffffffffffffffffffffffffffffff191684828151811062000861576200086062000bdc565b5b602001015160f81c60f81b7effffffffffffffffffffffffffffffffffffffffffffffffffffffffffffff191614620008a2576000945050505050620008c1565b8080620008af9062000ca9565b915050620007ff565b50600193505050505b92915050565b8280548282559060005260206000209081019282156200091b579160200282015b828111156200091a57825182908051906020019062000909929190620009dd565b5091602001919060010190620008e8565b5b5090506200092a919062000b4f565b5090565b82805482825590600052602060002090810192821562000973579160200282015b8281111562000972578251829061ffff169055916020019190600101906200094f565b5b50905062000982919062000b77565b5090565b828054828255906000526020600020908101928215620009ca579160200282015b82811115620009c9578251829060ff16905591602001919060010190620009a7565b5b509050620009d9919062000b77565b5090565b828054620009eb9062000c3a565b90600052602060002090601f01602090048101928262000a0f576000855562000a5b565b82601f1062000a2a57805160ff191683800117855562000a5b565b8280016001018555821562000a5b579182015b8281111562000a5a57825182559160200191906001019062000a3d565b5b50905062000a6a919062000b77565b5090565b82805482825590600052602060002090810192821562000aad579160200282015b8281111562000aac57825182559160200191906001019062000a8f565b5b50905062000abc919062000b77565b5090565b82805482825590600052602060002090810192821562000b3c579160200282015b8281111562000b3b5782518260006101000a81548173ffffffffffffffffffffffffffffffffffffffff021916908373ffffffffffffffffffffffffffffffffffffffff1602179055509160200191906001019062000ae1565b5b50905062000b4b919062000b77565b5090565b5b8082111562000b73576000818162000b69919062000b96565b5060010162000b50565b5090565b5b8082111562000b9257600081600090555060010162000b78565b5090565b50805462000ba49062000c3a565b6000825580601f1062000bb8575062000bd9565b601f01602090049060005260206000209081019062000bd8919062000b77565b5b50565b7f4e487b7100000000000000000000000000000000000000000000000000000000600052603260045260246000fd5b7f4e487b7100000000000000000000000000000000000000000000000000000000600052602260045260246000fd5b6000600282049050600182168062000c5357607f821691505b6020821081141562000c6a5762000c6962000c0b565b5b50919050565b7f4e487b7100000000000000000000000000000000000000000000000000000000600052601160045260246000fd5b6000819050919050565b600062000cb68262000c9f565b91507fffffffffffffffffffffffffffffffffffffffffffffffffffffffffffffffff82141562000cec5762000ceb62000c70565b5b600182019050919050565b7f4e487b7100000000000000000000000000000000000000000000000000000000600052602160045260246000fd5b61440b8062000d366000396000f3fe608060405234801561001057600080fd5b506004361061018e5760003560e01c806387d81f7c116100de578063c990777711610097578063e8c06c5411610071578063e8c06c54146104d8578063f11c37c5146104f4578063f53dbb2e14610524578063f851a440146105545761018e565b8063c990777714610482578063d19757db146104b2578063e3ce9ba7146104ce5761018e565b806387d81f7c1461037f5780638df2873e146103af5780639005bf74146103df57806398f685101461040f578063b09da1541461042d578063c2bd9d95146104495761018e565b806340a1ca291161014b5780635ef00232116101255780635ef00232146102e75780636b5750c31461030357806379daaa601461033357806385d34fb71461034f5761018e565b806340a1ca29146102795780634ae19b1a146102955780635657198a146102c95761018e565b80631043bd701461019357806322017e35146101af5780632986c0e5146101df5780632d1c7f5e146101fd578063358c371f146102195780633fe9112114610249575b600080fd5b6101ad60048036038101906101a8919061358f565b610572565b005b6101c960048036038101906101c4919061358f565b6106fe565b6040516101d691906135cb565b60405180910390f35b6101e7610722565b6040516101f491906135cb565b60405180910390f35b610217600480360381019061021291906135e6565b610728565b005b610233600480360381019061022e919061358f565b610832565b60405161024091906136bf565b60405180910390f35b610263600480360381019061025e919061358f565b6108de565b60405161027091906136bf565b60405180910390f35b610293600480360381019061028e919061358f565b61098a565b005b6102af60048036038101906102aa919061373f565b610f63565b6040516102c095949392919061377b565b60405180910390f35b6102d1611151565b6040516102de91906138a1565b60405180910390f35b61030160048036038101906102fc91906135e6565b6111df565b005b61031d600480360381019061031891906138c3565b6119f0565b60405161032a91906139c1565b60405180910390f35b61034d60048036038101906103489190613b18565b611aae565b005b6103696004803603810190610364919061358f565b611c1f565b60405161037691906138a1565b60405180910390f35b6103996004803603810190610394919061358f565b611cd2565b6040516103a691906135cb565b60405180910390f35b6103c960048036038101906103c4919061358f565b611cf6565b6040516103d691906136bf565b60405180910390f35b6103f960048036038101906103f4919061358f565b611da2565b60405161040691906136bf565b60405180910390f35b610417611fb6565b60405161042491906135cb565b60405180910390f35b6104476004803603810190610442919061358f565b611fc3565b005b610463600480360381019061045e919061358f565b6121d4565b6040516104799a99989796959493929190613c4a565b60405180910390f35b61049c600480360381019061049791906138c3565b6123dd565b6040516104a991906139c1565b60405180910390f35b6104cc60048036038101906104c79190613cfb565b61249b565b005b6104d6612a34565b005b6104f260048036038101906104ed919061358f565b612fdd565b005b61050e6004803603810190610509919061358f565b61313e565b60405161051b91906135cb565b60405180910390f35b61053e6004803603810190610539919061358f565b613162565b60405161054b9190613db6565b60405180910390f35b61055c6131a1565b6040516105699190613db6565b60405180910390f35b60008054906101000a900473ffffffffffffffffffffffffffffffffffffffff1673ffffffffffffffffffffffffffffffffffffffff163373ffffffffffffffffffffffffffffffffffffffff1614610600576040517f08c379a00000000000000000000000000000000000000000000000000000000081526004016105f790613e1d565b60405180910390fd5b60016002828154811061061657610615613e3d565b5b90600052602060002090600d0201600a0160006101000a81548160ff0219169083600381111561064957610648613bd3565b5b0217905550426002828154811061066357610662613e3d565b5b90600052602060002090600d0201600b0181905550807faa3f0b5a9d087149295bb224b9c28e39af6cb01e0e04999b4c44626f6f144985600283815481106106ae576106ad613e3d565b5b90600052602060002090600d0201600101600284815481106106d3576106d2613e3d565b5b90600052602060002090600d0201600301546040516106f3929190613f62565b60405180910390a250565b600a818154811061070e57600080fd5b906000526020600020016000915090505481565b60035481565b60008054906101000a900473ffffffffffffffffffffffffffffffffffffffff1673ffffffffffffffffffffffffffffffffffffffff163373ffffffffffffffffffffffffffffffffffffffff16146107b6576040517f08c379a00000000000000000000000000000000000000000000000000000000081526004016107ad90613e1d565b60405180910390fd5b80600283815481106107cb576107ca613e3d565b5b90600052602060002090600d0201600301819055506003600283815481106107f6576107f5613e3d565b5b90600052602060002090600d0201600a0160006101000a81548160ff0219169083600381111561082957610828613bd3565b5b02179055505050565b6007818154811061084257600080fd5b90600052602060002001600091509050805461085d90613e9b565b80601f016020809104026020016040519081016040528092919081815260200182805461088990613e9b565b80156108d65780601f106108ab576101008083540402835291602001916108d6565b820191906000526020600020905b8154815290600101906020018083116108b957829003601f168201915b505050505081565b600581815481106108ee57600080fd5b90600052602060002001600091509050805461090990613e9b565b80601f016020809104026020016040519081016040528092919081815260200182805461093590613e9b565b80156109825780601f1061095757610100808354040283529160200191610982565b820191906000526020600020905b81548152906001019060200180831161096557829003601f168201915b505050505081565b6002600381111561099e5761099d613bd3565b5b600282815481106109b2576109b1613e3d565b5b90600052602060002090600d0201600a0160009054906101000a900460ff1660038111156109e3576109e2613bd3565b5b14610a23576040517f08c379a0000000000000000000000000000000000000000000000000000000008152600401610a1a90613fde565b60405180910390fd5b60008060028381548110610a3a57610a39613e3d565b5b90600052602060002090600d020160090180549050905060005b81811015610d245760006001600060028781548110610a7657610a75613e3d565b5b90600052602060002090600d02016009018481548110610a9957610a98613e3d565b5b9060005260206000200160009054906101000a900473ffffffffffffffffffffffffffffffffffffffff1673ffffffffffffffffffffffffffffffffffffffff1673ffffffffffffffffffffffffffffffffffffffff1681526020019081526020016000206005018581548110610b1357610b12613e3d565b5b90600052602060002090600402016003015490506001600060028781548110610b3f57610b3e613e3d565b5b90600052602060002090600d02016009018481548110610b6257610b61613e3d565b5b9060005260206000200160009054906101000a900473ffffffffffffffffffffffffffffffffffffffff1673ffffffffffffffffffffffffffffffffffffffff1673ffffffffffffffffffffffffffffffffffffffff1681526020019081526020016000206005018581548110610bdc57610bdb613e3d565b5b90600052602060002090600402016002018181548110610bff57610bfe613e3d565b5b90600052602060002001546064610c16919061402d565b6001600060028881548110610c2e57610c2d613e3d565b5b90600052602060002090600d02016009018581548110610c5157610c50613e3d565b5b9060005260206000200160009054906101000a900473ffffffffffffffffffffffffffffffffffffffff1673ffffffffffffffffffffffffffffffffffffffff1673ffffffffffffffffffffffffffffffffffffffff1681526020019081526020016000206005018681548110610ccb57610cca613e3d565b5b90600052602060002090600402016001018281548110610cee57610ced613e3d565b5b9060005260206000200154610d039190614061565b84610d0e91906140bb565b9350508080610d1c90614111565b915050610a54565b506000816064610d349190614061565b9050600080600090505b83811015610f155760006001600060028981548110610d6057610d5f613e3d565b5b90600052602060002090600d02016009018481548110610d8357610d82613e3d565b5b9060005260206000200160009054906101000a900473ffffffffffffffffffffffffffffffffffffffff1673ffffffffffffffffffffffffffffffffffffffff1673ffffffffffffffffffffffffffffffffffffffff1681526020019081526020016000206005018781548110610dfd57610dfc613e3d565b5b90600052602060002090600402016003015490506001600060028981548110610e2957610e28613e3d565b5b90600052602060002090600d02016009018481548110610e4c57610e4b613e3d565b5b9060005260206000200160009054906101000a900473ffffffffffffffffffffffffffffffffffffffff1673ffffffffffffffffffffffffffffffffffffffff1673ffffffffffffffffffffffffffffffffffffffff1681526020019081526020016000206005018781548110610ec657610ec5613e3d565b5b90600052602060002090600402016002018181548110610ee957610ee8613e3d565b5b906000526020600020015483610eff91906140bb565b9250508080610f0d90614111565b915050610d3e565b5060008183610f24919061402d565b85610f2f9190614189565b90508060028781548110610f4657610f45613e3d565b5b90600052602060002090600d020160080181905550505050505050565b60016020528060005260406000206000915090508060000160009054906101000a900473ffffffffffffffffffffffffffffffffffffffff1690806001018054610fac90613e9b565b80601f0160208091040260200160405190810160405280929190818152602001828054610fd890613e9b565b80156110255780601f10610ffa57610100808354040283529160200191611025565b820191906000526020600020905b81548152906001019060200180831161100857829003601f168201915b50505050509080600201805461103a90613e9b565b80601f016020809104026020016040519081016040528092919081815260200182805461106690613e9b565b80156110b35780601f10611088576101008083540402835291602001916110b3565b820191906000526020600020905b81548152906001019060200180831161109657829003601f168201915b5050505050908060030180546110c890613e9b565b80601f01602080910402602001604051908101604052809291908181526020018280546110f490613e9b565b80156111415780601f1061111657610100808354040283529160200191611141565b820191906000526020600020905b81548152906001019060200180831161112457829003601f168201915b5050505050908060040154905085565b606060048054806020026020016040519081016040528092919081815260200182805480156111d557602002820191906000526020600020905b8160009054906101000a900473ffffffffffffffffffffffffffffffffffffffff1673ffffffffffffffffffffffffffffffffffffffff168152602001906001019080831161118b575b5050505050905090565b60008054906101000a900473ffffffffffffffffffffffffffffffffffffffff1673ffffffffffffffffffffffffffffffffffffffff163373ffffffffffffffffffffffffffffffffffffffff16141561126e576040517f08c379a000000000000000000000000000000000000000000000000000000000815260040161126590614206565b60405180910390fd5b60018181600381111561128457611283613bd3565b5b6002828154811061129857611297613e3d565b5b90600052602060002090600d0201600a0160009054906101000a900460ff1660038111156112c9576112c8613bd3565b5b14611309576040517f08c379a000000000000000000000000000000000000000000000000000000000815260040161130090613fde565b60405180910390fd5b60006002848154811061131f5761131e613e3d565b5b90600052602060002090600d02016009018054905014156113c5576002838154811061134e5761134d613e3d565b5b90600052602060002090600d0201600901339080600181540180825580915050600190039060005260206000200160009091909190916101000a81548173ffffffffffffffffffffffffffffffffffffffff021916908373ffffffffffffffffffffffffffffffffffffffff160217905550611584565b60005b600284815481106113dc576113db613e3d565b5b90600052602060002090600d0201600901805490508110156114c0573373ffffffffffffffffffffffffffffffffffffffff166002858154811061142357611422613e3d565b5b90600052602060002090600d0201600901828154811061144657611445613e3d565b5b9060005260206000200160009054906101000a900473ffffffffffffffffffffffffffffffffffffffff1673ffffffffffffffffffffffffffffffffffffffff1614156114ad576001600060146101000a81548160ff0219169083151502179055506114c0565b80806114b890614111565b9150506113c8565b5060001515600060149054906101000a900460ff161515141561156857600283815481106114f1576114f0613e3d565b5b90600052602060002090600d0201600901339080600181540180825580915050600190039060005260206000200160009091909190916101000a81548173ffffffffffffffffffffffffffffffffffffffff021916908373ffffffffffffffffffffffffffffffffffffffff160217905550611583565b60008060146101000a81548160ff0219169083151502179055505b5b600061159085856131c5565b90506000600160003373ffffffffffffffffffffffffffffffffffffffff1673ffffffffffffffffffffffffffffffffffffffff16815260200190815260200160002060050185815481106115e8576115e7613e3d565b5b90600052602060002090600402016003015490506000600160003373ffffffffffffffffffffffffffffffffffffffff1673ffffffffffffffffffffffffffffffffffffffff168152602001908152602001600020600501868154811061165257611651613e3d565b5b90600052602060002090600402016003015490506000600160003373ffffffffffffffffffffffffffffffffffffffff1673ffffffffffffffffffffffffffffffffffffffff16815260200190815260200160002060050187815481106116bc576116bb613e3d565b5b906000526020600020906004020160020183815481106116df576116de613e3d565b5b9060005260206000200154905060006001836116fb91906140bb565b8584846117089190614061565b61171291906140bb565b61171c9190614189565b9050600160003373ffffffffffffffffffffffffffffffffffffffff1673ffffffffffffffffffffffffffffffffffffffff168152602001908152602001600020600501888154811061177257611771613e3d565b5b9060005260206000209060040201600201819080600181540180825580915050600190039060005260206000200160009091909190915055600160003373ffffffffffffffffffffffffffffffffffffffff1673ffffffffffffffffffffffffffffffffffffffff16815260200190815260200160002060050188815481106117fe576117fd613e3d565b5b9060005260206000209060040201600101899080600181540180825580915050600190039060005260206000200160009091909190915055600160003373ffffffffffffffffffffffffffffffffffffffff1673ffffffffffffffffffffffffffffffffffffffff168152602001908152602001600020600501888154811061188a57611889613e3d565b5b906000526020600020906004020160030160008154809291906118ac90614111565b9190505550600160003373ffffffffffffffffffffffffffffffffffffffff1673ffffffffffffffffffffffffffffffffffffffff168152602001908152602001600020600401600081548092919061190490614111565b91905055506002888154811061191d5761191c613e3d565b5b90600052602060002090600d0201600501600081548092919061193f90614111565b9190505550877ffc94567f8570ffc605741a9414d18afce2f7a39ec1e0e0f6cb3339862d0e492160028a8154811061197a57611979613e3d565b5b90600052602060002090600d0201600101600160003373ffffffffffffffffffffffffffffffffffffffff1673ffffffffffffffffffffffffffffffffffffffff1681526020019081526020016000206001018c6040516119dd93929190614226565b60405180910390a2505050505050505050565b6060600160008373ffffffffffffffffffffffffffffffffffffffff1673ffffffffffffffffffffffffffffffffffffffff1681526020019081526020016000206005018381548110611a4657611a45613e3d565b5b9060005260206000209060040201600201805480602002602001604051908101604052809291908181526020018280548015611aa157602002820191906000526020600020905b815481526020019060010190808311611a8d575b5050505050905092915050565b60008054906101000a900473ffffffffffffffffffffffffffffffffffffffff1673ffffffffffffffffffffffffffffffffffffffff163373ffffffffffffffffffffffffffffffffffffffff1614611b3c576040517f08c379a0000000000000000000000000000000000000000000000000000000008152600401611b3390613e1d565b60405180910390fd5b600584908060018154018082558091505060019003906000526020600020016000909190919091509080519060200190611b779291906133cb565b50600683908060018154018082558091505060019003906000526020600020016000909190919091509080519060200190611bb39291906133cb565b50600782908060018154018082558091505060019003906000526020600020016000909190919091509080519060200190611bef9291906133cb565b50600881908060018154018082558091505060019003906000526020600020016000909190919091505550505050565b606060028281548110611c3557611c34613e3d565b5b90600052602060002090600d0201600901805480602002602001604051908101604052809291908181526020018280548015611cc657602002820191906000526020600020905b8160009054906101000a900473ffffffffffffffffffffffffffffffffffffffff1673ffffffffffffffffffffffffffffffffffffffff1681526020019060010190808311611c7c575b50505050509050919050565b60088181548110611ce257600080fd5b906000526020600020016000915090505481565b60068181548110611d0657600080fd5b906000526020600020016000915090508054611d2190613e9b565b80601f0160208091040260200160405190810160405280929190818152602001828054611d4d90613e9b565b8015611d9a5780601f10611d6f57610100808354040283529160200191611d9a565b820191906000526020600020905b815481529060010190602001808311611d7d57829003601f168201915b505050505081565b606060006003811115611db857611db7613bd3565b5b60028381548110611dcc57611dcb613e3d565b5b90600052602060002090600d0201600a0160009054906101000a900460ff166003811115611dfd57611dfc613bd3565b5b1415611e40576040518060400160405280600981526020017f4e6f7420537461727400000000000000000000000000000000000000000000008152509050611fb1565b60016003811115611e5457611e53613bd3565b5b60028381548110611e6857611e67613e3d565b5b90600052602060002090600d0201600a0160009054906101000a900460ff166003811115611e9957611e98613bd3565b5b1415611edc576040518060400160405280600781526020017f53746172746564000000000000000000000000000000000000000000000000008152509050611fb1565b60026003811115611ef057611eef613bd3565b5b60028381548110611f0457611f03613e3d565b5b90600052602060002090600d0201600a0160009054906101000a900460ff166003811115611f3557611f34613bd3565b5b1415611f78576040518060400160405280600681526020017f456e64696e6700000000000000000000000000000000000000000000000000008152509050611fb1565b6040518060400160405280600481526020017f446f6e650000000000000000000000000000000000000000000000000000000081525090505b919050565b6000600280549050905090565b600060028281548110611fd957611fd8613e3d565b5b90600052602060002090600d0201600b015414156120445760006002828154811061200757612006613e3d565b5b90600052602060002090600d0201600a0160006101000a81548160ff0219169083600381111561203a57612039613bd3565b5b02179055506121d1565b6002818154811061205857612057613e3d565b5b90600052602060002090600d0201600b0154421180156120cc57506002818154811061208757612086613e3d565b5b90600052602060002090600d0201600c0154600282815481106120ad576120ac613e3d565b5b90600052602060002090600d0201600b01546120c991906140bb565b42105b15612124576001600282815481106120e7576120e6613e3d565b5b90600052602060002090600d0201600a0160006101000a81548160ff0219169083600381111561211a57612119613bd3565b5b02179055506121d0565b6002818154811061213857612137613e3d565b5b90600052602060002090600d0201600c01546002828154811061215e5761215d613e3d565b5b90600052602060002090600d0201600b015461217a91906140bb565b4211156121cf57600280828154811061219657612195613e3d565b5b90600052602060002090600d0201600a0160006101000a81548160ff021916908360038111156121c9576121c8613bd3565b5b02179055505b5b5b50565b600281815481106121e457600080fd5b90600052602060002090600d020160009150905080600001549080600101805461220d90613e9b565b80601f016020809104026020016040519081016040528092919081815260200182805461223990613e9b565b80156122865780601f1061225b57610100808354040283529160200191612286565b820191906000526020600020905b81548152906001019060200180831161226957829003601f168201915b50505050509080600201805461229b90613e9b565b80601f01602080910402602001604051908101604052809291908181526020018280546122c790613e9b565b80156123145780601f106122e957610100808354040283529160200191612314565b820191906000526020600020905b8154815290600101906020018083116122f757829003601f168201915b50505050509080600301549080600401805461232f90613e9b565b80601f016020809104026020016040519081016040528092919081815260200182805461235b90613e9b565b80156123a85780601f1061237d576101008083540402835291602001916123a8565b820191906000526020600020905b81548152906001019060200180831161238b57829003601f168201915b50505050509080600501549080600801549080600a0160009054906101000a900460ff169080600b01549080600c015490508a565b6060600160008373ffffffffffffffffffffffffffffffffffffffff1673ffffffffffffffffffffffffffffffffffffffff168152602001908152602001600020600501838154811061243357612432613e3d565b5b906000526020600020906004020160010180548060200260200160405190810160405280929190818152602001828054801561248e57602002820191906000526020600020905b81548152602001906001019080831161247a575b5050505050905092915050565b6000808054906101000a900473ffffffffffffffffffffffffffffffffffffffff1673ffffffffffffffffffffffffffffffffffffffff168573ffffffffffffffffffffffffffffffffffffffff16141561252b576040517f08c379a0000000000000000000000000000000000000000000000000000000008152600401612522906142b7565b60405180910390fd5b600a6004805490501115612574576040517f08c379a000000000000000000000000000000000000000000000000000000000815260040161256b90614349565b60405180910390fd5b60005b600480549050811015612612576004818154811061259857612597613e3d565b5b9060005260206000200160009054906101000a900473ffffffffffffffffffffffffffffffffffffffff1673ffffffffffffffffffffffffffffffffffffffff168673ffffffffffffffffffffffffffffffffffffffff1614156125ff5760019150612612565b808061260a90614111565b915050612577565b50806129f2576004859080600181540180825580915050600190039060005260206000200160009091909190916101000a81548173ffffffffffffffffffffffffffffffffffffffff021916908373ffffffffffffffffffffffffffffffffffffffff16021790555084600160008773ffffffffffffffffffffffffffffffffffffffff1673ffffffffffffffffffffffffffffffffffffffff16815260200190815260200160002060000160006101000a81548173ffffffffffffffffffffffffffffffffffffffff021916908373ffffffffffffffffffffffffffffffffffffffff16021790555083600160008773ffffffffffffffffffffffffffffffffffffffff1673ffffffffffffffffffffffffffffffffffffffff16815260200190815260200160002060010190805190602001906127529291906133cb565b5082600160008773ffffffffffffffffffffffffffffffffffffffff1673ffffffffffffffffffffffffffffffffffffffff16815260200190815260200160002060020190805190602001906127a99291906133cb565b5081600160008773ffffffffffffffffffffffffffffffffffffffff1673ffffffffffffffffffffffffffffffffffffffff16815260200190815260200160002060030190805190602001906128009291906133cb565b506000600160008773ffffffffffffffffffffffffffffffffffffffff1673ffffffffffffffffffffffffffffffffffffffff1681526020019081526020016000206004018190555060005b6003548110156129ec576000604051806080016040528083815260200160098054806020026020016040519081016040528092919081815260200182805480156128b557602002820191906000526020600020905b8154815260200190600101908083116128a1575b50505050508152602001600a80548060200260200160405190810160405280929190818152602001828054801561290b57602002820191906000526020600020905b8154815260200190600101908083116128f7575b5050505050815260200160008152509050600160008873ffffffffffffffffffffffffffffffffffffffff1673ffffffffffffffffffffffffffffffffffffffff1681526020019081526020016000206005018190806001815401808255809150506001900390600052602060002090600402016000909190919091506000820151816000015560208201518160010190805190602001906129ae929190613451565b5060408201518160020190805190602001906129cb929190613451565b506060820151816003015550505080806129e490614111565b91505061284c565b50612a2d565b6040517f08c379a0000000000000000000000000000000000000000000000000000000008152600401612a24906143b5565b60405180910390fd5b5050505050565b60005b600680549050811015612fda57600080600090505b600280549050811015612bd657612bb660028281548110612a7057612a6f613e3d565b5b90600052602060002090600d02016002018054612a8c90613e9b565b80601f0160208091040260200160405190810160405280929190818152602001828054612ab890613e9b565b8015612b055780601f10612ada57610100808354040283529160200191612b05565b820191906000526020600020905b815481529060010190602001808311612ae857829003601f168201915b505050505060068581548110612b1e57612b1d613e3d565b5b906000526020600020018054612b3390613e9b565b80601f0160208091040260200160405190810160405280929190818152602001828054612b5f90613e9b565b8015612bac5780601f10612b8157610100808354040283529160200191612bac565b820191906000526020600020905b815481529060010190602001808311612b8f57829003601f168201915b50505050506132e7565b91508115612bc357612bd6565b8080612bce90614111565b915050612a4c565b5080612fc6576060806002604051806101a0016040528086815260200160058781548110612c0757612c06613e3d565b5b906000526020600020018054612c1c90613e9b565b80601f0160208091040260200160405190810160405280929190818152602001828054612c4890613e9b565b8015612c955780601f10612c6a57610100808354040283529160200191612c95565b820191906000526020600020905b815481529060010190602001808311612c7857829003601f168201915b5050505050815260200160068781548110612cb357612cb2613e3d565b5b906000526020600020018054612cc890613e9b565b80601f0160208091040260200160405190810160405280929190818152602001828054612cf490613e9b565b8015612d415780601f10612d1657610100808354040283529160200191612d41565b820191906000526020600020905b815481529060010190602001808311612d2457829003601f168201915b5050505050815260200160088781548110612d5f57612d5e613e3d565b5b9060005260206000200154815260200160078781548110612d8357612d82613e3d565b5b906000526020600020018054612d9890613e9b565b80601f0160208091040260200160405190810160405280929190818152602001828054612dc490613e9b565b8015612e115780601f10612de657610100808354040283529160200191612e11565b820191906000526020600020905b815481529060010190602001808311612df457829003601f168201915b50505050508152602001600081526020018481526020018481526020016000815260200183815260200160006003811115612e4f57612e4e613bd3565b5b81526020016000815260200161025881525090806001815401808255809150506001900390600052602060002090600d0201600090919091909150600082015181600001556020820151816001019080519060200190612eb09291906133cb565b506040820151816002019080519060200190612ecd9291906133cb565b50606082015181600301556080820151816004019080519060200190612ef49291906133cb565b5060a0820151816005015560c0820151816006019080519060200190612f1b929190613451565b5060e0820151816007019080519060200190612f38929190613451565b506101008201518160080155610120820151816009019080519060200190612f6192919061349e565b5061014082015181600a0160006101000a81548160ff02191690836003811115612f8e57612f8d613bd3565b5b021790555061016082015181600b015561018082015181600c0155505060036000815480929190612fbe90614111565b919050555050505b508080612fd290614111565b915050612a37565b50565b60008054906101000a900473ffffffffffffffffffffffffffffffffffffffff1673ffffffffffffffffffffffffffffffffffffffff163373ffffffffffffffffffffffffffffffffffffffff161461306b576040517f08c379a000000000000000000000000000000000000000000000000000000000815260040161306290613e1d565b60405180910390fd5b60028082815481106130805761307f613e3d565b5b90600052602060002090600d0201600a0160006101000a81548160ff021916908360038111156130b3576130b2613bd3565b5b0217905550807f59aa868b6aec147bb867da96fc0722ac554fcb1658ec8ac50a51d08a192f0472600283815481106130ee576130ed613e3d565b5b90600052602060002090600d02016001016002848154811061311357613112613e3d565b5b90600052602060002090600d020160030154604051613133929190613f62565b60405180910390a250565b6009818154811061314e57600080fd5b906000526020600020016000915090505481565b6004818154811061317257600080fd5b906000526020600020016000915054906101000a900473ffffffffffffffffffffffffffffffffffffffff1681565b60008054906101000a900473ffffffffffffffffffffffffffffffffffffffff1681565b6000806000905083600284815481106131e1576131e0613e3d565b5b90600052602060002090600d020160030154111561326d576002838154811061320d5761320c613e3d565b5b90600052602060002090600d0201600301546064856002868154811061323657613235613e3d565b5b90600052602060002090600d020160030154613252919061402d565b61325c9190614061565b6132669190614189565b90506132dd565b6002838154811061328157613280613e3d565b5b90600052602060002090600d0201600301546064600285815481106132a9576132a8613e3d565b5b90600052602060002090600d020160030154866132c6919061402d565b6132d09190614061565b6132da9190614189565b90505b8091505092915050565b60008083905060008390506000825190508151811461330c57600093505050506133c5565b60005b818110156133bc5782818151811061332a57613329613e3d565b5b602001015160f81c60f81b7effffffffffffffffffffffffffffffffffffffffffffffffffffffffffffff191684828151811061336a57613369613e3d565b5b602001015160f81c60f81b7effffffffffffffffffffffffffffffffffffffffffffffffffffffffffffff1916146133a95760009450505050506133c5565b80806133b490614111565b91505061330f565b50600193505050505b92915050565b8280546133d790613e9b565b90600052602060002090601f0160209004810192826133f95760008555613440565b82601f1061341257805160ff1916838001178555613440565b82800160010185558215613440579182015b8281111561343f578251825591602001919060010190613424565b5b50905061344d9190613528565b5090565b82805482825590600052602060002090810192821561348d579160200282015b8281111561348c578251825591602001919060010190613471565b5b50905061349a9190613528565b5090565b828054828255906000526020600020908101928215613517579160200282015b828111156135165782518260006101000a81548173ffffffffffffffffffffffffffffffffffffffff021916908373ffffffffffffffffffffffffffffffffffffffff160217905550916020019190600101906134be565b5b5090506135249190613528565b5090565b5b80821115613541576000816000905550600101613529565b5090565b6000604051905090565b600080fd5b600080fd5b6000819050919050565b61356c81613559565b811461357757600080fd5b50565b60008135905061358981613563565b92915050565b6000602082840312156135a5576135a461354f565b5b60006135b38482850161357a565b91505092915050565b6135c581613559565b82525050565b60006020820190506135e060008301846135bc565b92915050565b600080604083850312156135fd576135fc61354f565b5b600061360b8582860161357a565b925050602061361c8582860161357a565b9150509250929050565b600081519050919050565b600082825260208201905092915050565b60005b83811015613660578082015181840152602081019050613645565b8381111561366f576000848401525b50505050565b6000601f19601f8301169050919050565b600061369182613626565b61369b8185613631565b93506136ab818560208601613642565b6136b481613675565b840191505092915050565b600060208201905081810360008301526136d98184613686565b905092915050565b600073ffffffffffffffffffffffffffffffffffffffff82169050919050565b600061370c826136e1565b9050919050565b61371c81613701565b811461372757600080fd5b50565b60008135905061373981613713565b92915050565b6000602082840312156137555761375461354f565b5b60006137638482850161372a565b91505092915050565b61377581613701565b82525050565b600060a082019050613790600083018861376c565b81810360208301526137a28187613686565b905081810360408301526137b68186613686565b905081810360608301526137ca8185613686565b90506137d960808301846135bc565b9695505050505050565b600081519050919050565b600082825260208201905092915050565b6000819050602082019050919050565b61381881613701565b82525050565b600061382a838361380f565b60208301905092915050565b6000602082019050919050565b600061384e826137e3565b61385881856137ee565b9350613863836137ff565b8060005b8381101561389457815161387b888261381e565b975061388683613836565b925050600181019050613867565b5085935050505092915050565b600060208201905081810360008301526138bb8184613843565b905092915050565b600080604083850312156138da576138d961354f565b5b60006138e88582860161357a565b92505060206138f98582860161372a565b9150509250929050565b600081519050919050565b600082825260208201905092915050565b6000819050602082019050919050565b61393881613559565b82525050565b600061394a838361392f565b60208301905092915050565b6000602082019050919050565b600061396e82613903565b613978818561390e565b93506139838361391f565b8060005b838110156139b457815161399b888261393e565b97506139a683613956565b925050600181019050613987565b5085935050505092915050565b600060208201905081810360008301526139db8184613963565b905092915050565b600080fd5b600080fd5b7f4e487b7100000000000000000000000000000000000000000000000000000000600052604160045260246000fd5b613a2582613675565b810181811067ffffffffffffffff82111715613a4457613a436139ed565b5b80604052505050565b6000613a57613545565b9050613a638282613a1c565b919050565b600067ffffffffffffffff821115613a8357613a826139ed565b5b613a8c82613675565b9050602081019050919050565b82818337600083830152505050565b6000613abb613ab684613a68565b613a4d565b905082815260208101848484011115613ad757613ad66139e8565b5b613ae2848285613a99565b509392505050565b600082601f830112613aff57613afe6139e3565b5b8135613b0f848260208601613aa8565b91505092915050565b60008060008060808587031215613b3257613b3161354f565b5b600085013567ffffffffffffffff811115613b5057613b4f613554565b5b613b5c87828801613aea565b945050602085013567ffffffffffffffff811115613b7d57613b7c613554565b5b613b8987828801613aea565b935050604085013567ffffffffffffffff811115613baa57613ba9613554565b5b613bb687828801613aea565b9250506060613bc78782880161357a565b91505092959194509250565b7f4e487b7100000000000000000000000000000000000000000000000000000000600052602160045260246000fd5b60048110613c1357613c12613bd3565b5b50565b6000819050613c2482613c02565b919050565b6000613c3482613c16565b9050919050565b613c4481613c29565b82525050565b600061014082019050613c60600083018d6135bc565b8181036020830152613c72818c613686565b90508181036040830152613c86818b613686565b9050613c95606083018a6135bc565b8181036080830152613ca78189613686565b9050613cb660a08301886135bc565b613cc360c08301876135bc565b613cd060e0830186613c3b565b613cde6101008301856135bc565b613cec6101208301846135bc565b9b9a5050505050505050505050565b60008060008060808587031215613d1557613d1461354f565b5b6000613d238782880161372a565b945050602085013567ffffffffffffffff811115613d4457613d43613554565b5b613d5087828801613aea565b935050604085013567ffffffffffffffff811115613d7157613d70613554565b5b613d7d87828801613aea565b925050606085013567ffffffffffffffff811115613d9e57613d9d613554565b5b613daa87828801613aea565b91505092959194509250565b6000602082019050613dcb600083018461376c565b92915050565b7f4f6e6c792061646d696e2063616e20736f6c7665000000000000000000000000600082015250565b6000613e07601483613631565b9150613e1282613dd1565b602082019050919050565b60006020820190508181036000830152613e3681613dfa565b9050919050565b7f4e487b7100000000000000000000000000000000000000000000000000000000600052603260045260246000fd5b7f4e487b7100000000000000000000000000000000000000000000000000000000600052602260045260246000fd5b60006002820490506001821680613eb357607f821691505b60208210811415613ec757613ec6613e6c565b5b50919050565b60008190508160005260206000209050919050565b60008154613eef81613e9b565b613ef98186613631565b94506001821660008114613f145760018114613f2657613f59565b60ff1983168652602086019350613f59565b613f2f85613ecd565b60005b83811015613f5157815481890152600182019150602081019050613f32565b808801955050505b50505092915050565b60006040820190508181036000830152613f7c8185613ee2565b9050613f8b60208301846135bc565b9392505050565b7f57726f6e6720737461747573206f66207365737374696f6e0000000000000000600082015250565b6000613fc8601883613631565b9150613fd382613f92565b602082019050919050565b60006020820190508181036000830152613ff781613fbb565b9050919050565b7f4e487b7100000000000000000000000000000000000000000000000000000000600052601160045260246000fd5b600061403882613559565b915061404383613559565b92508282101561405657614055613ffe565b5b828203905092915050565b600061406c82613559565b915061407783613559565b9250817fffffffffffffffffffffffffffffffffffffffffffffffffffffffffffffffff04831182151516156140b0576140af613ffe565b5b828202905092915050565b60006140c682613559565b91506140d183613559565b9250827fffffffffffffffffffffffffffffffffffffffffffffffffffffffffffffffff0382111561410657614105613ffe565b5b828201905092915050565b600061411c82613559565b91507fffffffffffffffffffffffffffffffffffffffffffffffffffffffffffffffff82141561414f5761414e613ffe565b5b600182019050919050565b7f4e487b7100000000000000000000000000000000000000000000000000000000600052601260045260246000fd5b600061419482613559565b915061419f83613559565b9250826141af576141ae61415a565b5b828204905092915050565b7f4e6f74206f6e6c792061646d696e000000000000000000000000000000000000600082015250565b60006141f0600e83613631565b91506141fb826141ba565b602082019050919050565b6000602082019050818103600083015261421f816141e3565b9050919050565b600060608201905081810360008301526142408186613ee2565b905081810360208301526142548185613ee2565b905061426360408301846135bc565b949350505050565b7f4163636f756e74206f662061646d696e2063616e277420726567697374657200600082015250565b60006142a1601f83613631565b91506142ac8261426b565b602082019050919050565b600060208201905081810360008301526142d081614294565b9050919050565b7f546865206e756d626572206f66207061727469636970616e7473206973206c6560008201527f7373207468616e2074656e2e0000000000000000000000000000000000000000602082015250565b6000614333602c83613631565b915061433e826142d7565b604082019050919050565b6000602082019050818103600083015261436281614326565b9050919050565b7f546869732061646472657373205265616c6c7920657869737465640000000000600082015250565b600061439f601b83613631565b91506143aa82614369565b602082019050919050565b600060208201905081810360008301526143ce81614392565b905091905056fea2646970667358221220bd280e0108c0d1d82dfbe35f505158e88fb71c9012c32633a41b8f3a8b31cb3b64736f6c634300080a0033516d4e7156597448346d584736394c6e4159453478793168676666315a6b594274765663434479413452506936694c757875727920686967682d636c617373202d20556e6971756520616e64206174747261637469766520636f6c6f72732e3c62722f3e54616b652070726f66657373696f6e616c2070686f746f73202d20536574206f6620332063616d65726173207468617420737570706f7274205a6f6f6d20617320666172206173203330582e3c62722f3e54616b65206e6f74657320717569636b6c7920616e642061636375726174656c79207769746820746865206e65772067656e65726174696f6e20532d50656e2e3c62722f3e556c74696d6174652067616d696e67202d20506f77657266756c20376e6d204578796e6f73203939302c206f75747374616e64696e672070726f63657373696e6720706572666f726d616e63652e3c62722f3e53616d73756e67204e6f746520323020556c7472612035472070686f6e65202d204c75787572792c206f75747374616e64696e6720706572666f726d616e63652e3c62722f3e4d6f6e6f6c697468696320616c756d696e756d206672616d652064657369676e2c206c75787572696f75732074656d706572656420676c617373206261636b2e",
  "immutableReferences": {},
  "source": "pragma solidity >=0.4.0 <0.9.0;\r\nimport \"./Main.sol\";\r\ncontract Session is Main{\r\n    struct Items{\r\n        uint IdItem;\r\n        string nameItem;\r\n        string imageHash;\r\n        uint firstPrice;\r\n        string itemDescription;\r\n        uint countPaticipantJoinSesstion;\r\n        uint[] listPriceOfPaticipant;\r\n        uint[] listPriceDeviation;\r\n        uint valueChangePricing;\r\n        address[] checkAccount;\r\n        StatusSesstion statusSesstion;\r\n        uint timeSesstionEachOtherproduct;\r\n        uint timeFinishSesstionEachOtherproduct;\r\n    }\r\n    \r\n    mapping(address => Paticipant) public paticipants;\r\n    Items[] public itemsList;\r\n    uint public index = 0;\r\n    address[] public totalAccounts;\r\n    string[] public listNameOfItems = [\"Samsung Galaxy Note20\"];\r\n    string[] public listHashImage = [\"QmNqVYtH4mXG69LnAYE4xy1hgff1ZkYBtvVcCDyA4RPi6i\"];\r\n    string[] public listInformationOfImage = [\"Luxury high-class - Unique and attractive colors.<br/>Take professional photos - Set of 3 cameras that support Zoom as far as 30X.<br/>Take notes quickly and accurately with the new generation S-Pen.<br/>Ultimate gaming - Powerful 7nm Exynos 990, outstanding processing performance.<br/>Samsung Note 20 Ultra 5G phone - Luxury, outstanding performance.<br/>Monolithic aluminum frame design, luxurious tempered glass back.\"];\r\n    uint[] public listPrice = [930];\r\n    uint[] public emptyArray1 = [0];\r\n    uint[] public emptyArray2 = [0];\r\n    \r\n    modifier checkStatus(StatusSesstion _statusSesstion, uint _IdItem){\r\n        require(itemsList[_IdItem].statusSesstion == _statusSesstion, \"Wrong status of sesstion\");\r\n        _;\r\n    }\r\n\r\n    event LogStartSession(uint indexed _IdItems, string _nameItem, uint _firstPrice);\r\n    event LogStopSession(uint indexed _IdItems, string _nameItem, uint _firstPrice);\r\n    event LogChainPriceOfSession(uint indexed _IdItems, string _nameItem, string _fullName, uint _valueChangePricing);\r\n\r\n    constructor(){\r\n        addData();\r\n    }\r\n\r\n    function createNewItem(string memory _nameItem, string memory _imageHash, string memory _itemDescription, uint _firstPrice) public onlyAdmin {\r\n        listNameOfItems.push(_nameItem);\r\n        listHashImage.push(_imageHash);\r\n        listInformationOfImage.push(_itemDescription);\r\n        listPrice.push(_firstPrice);\r\n    }\r\n\r\n    function addData() public{\r\n        \r\n        for(uint i = 0 ; i < listHashImage.length ; i++){\r\n            bool statusAdd;\r\n            for(uint j = 0 ; j < itemsList.length ; j++){\r\n               statusAdd = stringsEquals(itemsList[j].imageHash, listHashImage[i]);\r\n               if(statusAdd){\r\n                   break;\r\n               }\r\n            }\r\n            if(!statusAdd){\r\n                uint[] memory emptyArray;\r\n                address[] memory amptyAddressArray;\r\n                itemsList.push(Items(i, listNameOfItems[i], listHashImage[i], listPrice[i], listInformationOfImage[i],  0, emptyArray, emptyArray, 0, amptyAddressArray, StatusSesstion.START, 0, 600));\r\n                index++;\r\n            }  \r\n        }\r\n    }\r\n\r\n    function convertStateToString(uint _IdItem) public view returns(string memory){\r\n        if(itemsList[_IdItem].statusSesstion == StatusSesstion.START){\r\n            return \"Not Start\";\r\n        }else{\r\n            if(itemsList[_IdItem].statusSesstion == StatusSesstion.PRICING){\r\n                return \"Started\";\r\n            }else{\r\n               if(itemsList[_IdItem].statusSesstion == StatusSesstion.ENDING){\r\n                  return \"Ending\";\r\n               }else{\r\n                    return \"Done\";\r\n               }\r\n            }\r\n        }\r\n    }\r\n\r\n    function stringsEquals(string memory s1, string memory s2) private pure returns (bool) {\r\n        bytes memory b1 = bytes(s1);\r\n        bytes memory b2 = bytes(s2);\r\n        uint256 l1 = b1.length;\r\n        if (l1 != b2.length) return false;\r\n        for (uint256 i=0; i<l1; i++) {\r\n            if (b1[i] != b2[i]) return false;\r\n        }\r\n        return true;\r\n    }\r\n\r\n    function getLengthItems() public view returns(uint) {\r\n        return itemsList.length;\r\n    }\r\n\r\n    function stopSesstion(uint _IdItem) public onlyAdmin {\r\n        itemsList[_IdItem].statusSesstion = StatusSesstion.ENDING;\r\n        emit LogStopSession(_IdItem,  itemsList[_IdItem].nameItem,  itemsList[_IdItem].firstPrice);\r\n    }\r\n    \r\n    function startSesstion(uint _IdItem) public onlyAdmin {\r\n        itemsList[_IdItem].statusSesstion = StatusSesstion.PRICING;\r\n        itemsList[_IdItem].timeSesstionEachOtherproduct = block.timestamp;\r\n        emit LogStartSession(_IdItem,  itemsList[_IdItem].nameItem,  itemsList[_IdItem].firstPrice);\r\n    }\r\n\r\n    function setFinalPriceOfItem(uint _IdItem, uint _price) public onlyAdmin {\r\n         itemsList[_IdItem].firstPrice = _price;\r\n         itemsList[_IdItem].statusSesstion = StatusSesstion.DONE;\r\n    }\r\n\r\n    function showDataPrice(uint _IdItem, address _address) public view returns(uint[] memory){\r\n        return paticipants[_address].listDataChange[_IdItem].priceDeviation;\r\n    }\r\n\r\n    function showDataDeviation(uint _IdItem, address _address) public view returns(uint[] memory){\r\n        return paticipants[_address].listDataChange[_IdItem].valueChangePricingOtherPaticipant;\r\n    }\r\n\r\n    function getAddressChangedPriceOfItems(uint _IdItem) public view returns(address[] memory){\r\n         return itemsList[_IdItem].checkAccount;\r\n    }\r\n\r\n    function getAddressUserRegister() public view returns(address[] memory){\r\n        return totalAccounts;\r\n    }\r\n\r\n    function registerAccount(address _address, string memory _fullName, string memory _email, string memory _passwordAccount) public{\r\n        bool checkStatusAddress = false;\r\n        if(_address == admin){\r\n            revert(\"Account of admin can't register\");\r\n        }\r\n        if(totalAccounts.length > 10){\r\n            revert(\"The number of participants is less than ten.\");\r\n        }else{\r\n            for(uint i = 0; i < totalAccounts.length; i++){\r\n                if(_address == totalAccounts[i]){\r\n                    checkStatusAddress = true;\r\n                    break;\r\n                }\r\n            }\r\n            if(!checkStatusAddress){\r\n                totalAccounts.push(_address); \r\n                paticipants[_address].addressAccount = _address;\r\n                paticipants[_address].fullName = _fullName;\r\n                paticipants[_address].email = _email;\r\n                paticipants[_address].passwordAccount = _passwordAccount;\r\n                paticipants[_address].countPricedSesstion = 0;\r\n                \r\n                for(uint i = 0 ; i < index ; i++){\r\n                    DataChange memory dataChange = DataChange({IdItem: i, priceDeviation: emptyArray1, valueChangePricingOtherPaticipant: emptyArray2 , numberChangePricingOtherPaticipant: 0});\r\n                    paticipants[_address].listDataChange.push(dataChange);\r\n                }\r\n            }else{\r\n                revert(\"This address Really existed\");\r\n            }\r\n        }   \r\n    }  \r\n    function getProposedPrice(uint _IdItem) public{\r\n        if(itemsList[_IdItem].statusSesstion != StatusSesstion.ENDING){\r\n            revert(\"Wrong status of sesstion\");\r\n        }\r\n        uint totalPriceOfPaticipantAbove;\r\n        uint numberPaticipantJoneSestion = itemsList[_IdItem].checkAccount.length;\r\n        for(uint i = 0 ; i < numberPaticipantJoneSestion ; i++){\r\n              uint lengthPriceDeviation = paticipants[itemsList[_IdItem].checkAccount[i]].listDataChange[_IdItem].numberChangePricingOtherPaticipant;\r\n              totalPriceOfPaticipantAbove += (paticipants[itemsList[_IdItem].checkAccount[i]].listDataChange[_IdItem].priceDeviation[lengthPriceDeviation]) * (100 - (paticipants[itemsList[_IdItem].checkAccount[i]].listDataChange[_IdItem].valueChangePricingOtherPaticipant[lengthPriceDeviation]));        \r\n        }\r\n        uint totalPriceOfPaticipantUnderLeft = 100 * numberPaticipantJoneSestion;\r\n        uint totalPriceOfPaticipantUnderRight;\r\n        for(uint i = 0 ; i < numberPaticipantJoneSestion ; i++){\r\n              uint lengthPriceDeviation = paticipants[itemsList[_IdItem].checkAccount[i]].listDataChange[_IdItem].numberChangePricingOtherPaticipant;\r\n              totalPriceOfPaticipantUnderRight += paticipants[ itemsList[_IdItem].checkAccount[i]].listDataChange[_IdItem].valueChangePricingOtherPaticipant[lengthPriceDeviation];\r\n        }\r\n        uint result = totalPriceOfPaticipantAbove / (totalPriceOfPaticipantUnderLeft - totalPriceOfPaticipantUnderRight);\r\n        itemsList[_IdItem].valueChangePricing = result;\r\n    }\r\n\r\n    function accumulatedDeviation(uint _newPriceOfParticipan, uint _IdItem) public notOnlyAdmin checkStatus(StatusSesstion.PRICING, _IdItem){\r\n        if(itemsList[_IdItem].checkAccount.length == 0){\r\n            itemsList[_IdItem].checkAccount.push(msg.sender);\r\n        }else{\r\n            for(uint i = 0 ; i < itemsList[_IdItem].checkAccount.length; i++){\r\n                if(itemsList[_IdItem].checkAccount[i] == msg.sender){\r\n                    status = true;\r\n                    break;\r\n                }\r\n            }\r\n            if(status == false){\r\n                itemsList[_IdItem].checkAccount.push(msg.sender);\r\n            }else{\r\n                status = false;\r\n            }\r\n        }\r\n        uint calNewPriceOfParticipant = calculatingDeviation(_newPriceOfParticipan, _IdItem);\r\n        uint lengthPriceDeviation = paticipants[msg.sender].listDataChange[_IdItem].numberChangePricingOtherPaticipant;\r\n        uint numberPaticipant = paticipants[msg.sender].listDataChange[_IdItem].numberChangePricingOtherPaticipant;\r\n        uint currentPriceDeviation = paticipants[msg.sender].listDataChange[_IdItem].valueChangePricingOtherPaticipant[lengthPriceDeviation];\r\n        uint value = (currentPriceDeviation * numberPaticipant + calNewPriceOfParticipant) / (numberPaticipant + 1);\r\n        paticipants[msg.sender].listDataChange[_IdItem].valueChangePricingOtherPaticipant.push(value);\r\n        paticipants[msg.sender].listDataChange[_IdItem].priceDeviation.push(_newPriceOfParticipan);\r\n        paticipants[msg.sender].listDataChange[_IdItem].numberChangePricingOtherPaticipant++;\r\n        paticipants[msg.sender].countPricedSesstion++;\r\n        itemsList[_IdItem].countPaticipantJoinSesstion++;\r\n        emit LogChainPriceOfSession(_IdItem, itemsList[_IdItem].nameItem,  paticipants[msg.sender].fullName, _newPriceOfParticipan);\r\n    }\r\n\r\n    function calculatingDeviation(uint _priceOfParticipan, uint _IdItem) internal view returns (uint){\r\n        uint newPriceDeviation = 0;\r\n        if(itemsList[_IdItem].firstPrice > _priceOfParticipan){\r\n            newPriceDeviation = (itemsList[_IdItem].firstPrice  - _priceOfParticipan) * 100 / itemsList[_IdItem].firstPrice;\r\n        }else{\r\n            newPriceDeviation = (_priceOfParticipan - itemsList[_IdItem].firstPrice) * 100 / itemsList[_IdItem].firstPrice;\r\n        }\r\n        return uint(newPriceDeviation);\r\n    }\r\n\r\n    function timeOutOfSesstion(uint _IdItem) public{\r\n        if(itemsList[_IdItem].timeSesstionEachOtherproduct == 0){\r\n             itemsList[_IdItem].statusSesstion = StatusSesstion.START;\r\n        }else{\r\n            if(block.timestamp > itemsList[_IdItem].timeSesstionEachOtherproduct && block.timestamp < itemsList[_IdItem].timeSesstionEachOtherproduct +itemsList[_IdItem].timeFinishSesstionEachOtherproduct){\r\n                itemsList[_IdItem].statusSesstion = StatusSesstion.PRICING;\r\n            }else{\r\n                if(block.timestamp > itemsList[_IdItem].timeSesstionEachOtherproduct + itemsList[_IdItem].timeFinishSesstionEachOtherproduct){\r\n                    itemsList[_IdItem].statusSesstion = StatusSesstion.ENDING;\r\n                }\r\n            }\r\n        }\r\n        \r\n    }\r\n}",
  "sourcePath": "C:\\Users\\Admin\\Desktop\\FunixPriceChanging\\contracts\\Session.sol",
  "compiler": {
    "name": "solc",
    "version": "0.8.10+commit.fc410830.Emscripten.clang"
  },
  "schemaVersion": "3.4.3",
  "updatedAt": "2021-12-29T05:15:21.021Z",
  "networkType": "ethereum",
  "devdoc": {
    "kind": "dev",
    "methods": {},
    "version": 1
  },
  "userdoc": {
    "kind": "user",
    "methods": {},
    "version": 1
  }
}