{
  "contractName": "Session",
  "abi": [
    {
      "inputs": [],
      "name": "admin",
      "outputs": [
        {
          "internalType": "address",
          "name": "",
          "type": "address"
        }
      ],
      "stateMutability": "view",
      "type": "function"
    },
    {
      "inputs": [
        {
          "internalType": "uint256",
          "name": "",
          "type": "uint256"
        }
      ],
      "name": "itemsList",
      "outputs": [
        {
          "internalType": "uint256",
          "name": "IdItem",
          "type": "uint256"
        },
        {
          "internalType": "string",
          "name": "nameItem",
          "type": "string"
        },
        {
          "internalType": "uint256",
          "name": "firstPrice",
          "type": "uint256"
        },
        {
          "internalType": "uint256",
          "name": "countPaticipantJoinSesstion",
          "type": "uint256"
        },
        {
          "internalType": "uint256",
          "name": "valueChangePricing",
          "type": "uint256"
        },
        {
          "internalType": "enum Main.StatusSesstion",
          "name": "statusSesstion",
          "type": "uint8"
        },
        {
          "internalType": "uint256",
          "name": "timeSesstionEachOtherproduct",
          "type": "uint256"
        },
        {
          "internalType": "uint256",
          "name": "timeFinishSesstionEachOtherproduct",
          "type": "uint256"
        }
      ],
      "stateMutability": "view",
      "type": "function"
    },
    {
      "inputs": [
        {
          "internalType": "uint256",
          "name": "",
          "type": "uint256"
        }
      ],
      "name": "totalAccounts",
      "outputs": [
        {
          "internalType": "address",
          "name": "",
          "type": "address"
        }
      ],
      "stateMutability": "view",
      "type": "function"
    },
    {
      "inputs": [
        {
          "internalType": "string",
          "name": "_nameItem",
          "type": "string"
        },
        {
          "internalType": "uint256",
          "name": "_firstPrice",
          "type": "uint256"
        },
        {
          "internalType": "uint256",
          "name": "_timeFinishSesstionEachOtherproduct",
          "type": "uint256"
        }
      ],
      "name": "addItems",
      "outputs": [],
      "stateMutability": "nonpayable",
      "type": "function"
    },
    {
      "inputs": [
        {
          "internalType": "uint256",
          "name": "_IdItem",
          "type": "uint256"
        }
      ],
      "name": "startSesstion",
      "outputs": [],
      "stateMutability": "nonpayable",
      "type": "function"
    },
    {
      "inputs": [
        {
          "internalType": "uint256",
          "name": "_IdItem",
          "type": "uint256"
        }
      ],
      "name": "stopSesstion",
      "outputs": [],
      "stateMutability": "nonpayable",
      "type": "function"
    },
    {
      "inputs": [
        {
          "internalType": "address",
          "name": "_address",
          "type": "address"
        }
      ],
      "name": "register",
      "outputs": [],
      "stateMutability": "nonpayable",
      "type": "function"
    },
    {
      "inputs": [
        {
          "internalType": "uint256",
          "name": "_IdItem",
          "type": "uint256"
        }
      ],
      "name": "getProposedPrice",
      "outputs": [],
      "stateMutability": "nonpayable",
      "type": "function"
    },
    {
      "inputs": [
        {
          "internalType": "uint256",
          "name": "_newPriceOfParticipan",
          "type": "uint256"
        },
        {
          "internalType": "uint256",
          "name": "_IdItem",
          "type": "uint256"
        }
      ],
      "name": "accumulatedDeviation",
      "outputs": [],
      "stateMutability": "nonpayable",
      "type": "function"
    },
    {
      "inputs": [
        {
          "internalType": "uint256",
          "name": "_IdItem",
          "type": "uint256"
        }
      ],
      "name": "getDataItems",
      "outputs": [
        {
          "internalType": "uint256",
          "name": "",
          "type": "uint256"
        }
      ],
      "stateMutability": "view",
      "type": "function"
    },
    {
      "inputs": [
        {
          "internalType": "uint256",
          "name": "_IdItem",
          "type": "uint256"
        }
      ],
      "name": "getStatusSesstion",
      "outputs": [
        {
          "internalType": "enum Main.StatusSesstion",
          "name": "",
          "type": "uint8"
        }
      ],
      "stateMutability": "view",
      "type": "function"
    },
    {
      "inputs": [
        {
          "internalType": "uint256",
          "name": "_IdItem",
          "type": "uint256"
        },
        {
          "internalType": "uint256",
          "name": "_price",
          "type": "uint256"
        }
      ],
      "name": "setPriceOfItem",
      "outputs": [],
      "stateMutability": "nonpayable",
      "type": "function"
    }
  ],
  "bytecode": "0x608060405260008060146101000a81548160ff0219169083151502179055506000600355600060055534801561003457600080fd5b50336000806101000a81548173ffffffffffffffffffffffffffffffffffffffff021916908373ffffffffffffffffffffffffffffffffffffffff1602179055506125ff806100846000396000f3fe608060405234801561001057600080fd5b50600436106100b45760003560e01c8063896af4a911610071578063896af4a914610175578063c2bd9d9514610191578063e5b49a6b146101c8578063e8c06c54146101f8578063f53dbb2e14610214578063f851a44014610244576100b4565b80631043bd70146100b957806331332cbe146100d557806340a1ca29146100f15780634420e4861461010d5780635ef0023214610129578063894837ab14610145575b600080fd5b6100d360048036038101906100ce9190611c2f565b610262565b005b6100ef60048036038101906100ea9190611da2565b61036b565b005b61010b60048036038101906101069190611c2f565b61058f565b005b61012760048036038101906101229190611e6f565b610a12565b005b610143600480360381019061013e9190611e9c565b610e4d565b005b61015f600480360381019061015a9190611c2f565b61149a565b60405161016c9190611f53565b60405180910390f35b61018f600480360381019061018a9190611e9c565b6114d6565b005b6101ab60048036038101906101a69190611c2f565b6115a1565b6040516101bf989796959493929190612005565b60405180910390f35b6101e260048036038101906101dd9190611c2f565b61168e565b6040516101ef919061208a565b60405180910390f35b610212600480360381019061020d9190611c2f565b6116bd565b005b61022e60048036038101906102299190611c2f565b61179b565b60405161023b91906120b4565b60405180910390f35b61024c6117da565b60405161025991906120b4565b60405180910390f35b60008054906101000a900473ffffffffffffffffffffffffffffffffffffffff1673ffffffffffffffffffffffffffffffffffffffff163373ffffffffffffffffffffffffffffffffffffffff16146102f0576040517f08c379a00000000000000000000000000000000000000000000000000000000081526004016102e79061211b565b60405180910390fd5b6001600282815481106103065761030561213b565b5b90600052602060002090600b020160080160006101000a81548160ff0219169083600281111561033957610338611edc565b5b021790555042600282815481106103535761035261213b565b5b90600052602060002090600b02016009018190555050565b60008054906101000a900473ffffffffffffffffffffffffffffffffffffffff1673ffffffffffffffffffffffffffffffffffffffff163373ffffffffffffffffffffffffffffffffffffffff16146103f9576040517f08c379a00000000000000000000000000000000000000000000000000000000081526004016103f09061211b565b60405180910390fd5b6060806002604051806101600160405280600354815260200187815260200186815260200160008152602001848152602001848152602001600081526020018381526020016000600281111561045257610451611edc565b5b8152602001600081526020018581525090806001815401808255809150506001900390600052602060002090600b02016000909190919091506000820151816000015560208201518160010190805190602001906104b1929190611a6b565b50604082015181600201556060820151816003015560808201518160040190805190602001906104e2929190611af1565b5060a08201518160050190805190602001906104ff929190611af1565b5060c0820151816006015560e0820151816007019080519060200190610526929190611b3e565b506101008201518160080160006101000a81548160ff0219169083600281111561055357610552611edc565b5b0217905550610120820151816009015561014082015181600a015550506003600081548092919061058390612199565b91905055505050505050565b60008054906101000a900473ffffffffffffffffffffffffffffffffffffffff1673ffffffffffffffffffffffffffffffffffffffff163373ffffffffffffffffffffffffffffffffffffffff161461061d576040517f08c379a00000000000000000000000000000000000000000000000000000000081526004016106149061211b565b60405180910390fd5b610626816117fe565b60028081111561063957610638611edc565b5b6002828154811061064d5761064c61213b565b5b90600052602060002090600b020160080160009054906101000a900460ff16600281111561067e5761067d611edc565b5b146106be576040517f08c379a00000000000000000000000000000000000000000000000000000000081526004016106b59061222e565b60405180910390fd5b600080600283815481106106d5576106d461213b565b5b90600052602060002090600b020160070180549050905060005b818110156108bb57600160006002868154811061070f5761070e61213b565b5b90600052602060002090600b020160070183815481106107325761073161213b565b5b9060005260206000200160009054906101000a900473ffffffffffffffffffffffffffffffffffffffff1673ffffffffffffffffffffffffffffffffffffffff1673ffffffffffffffffffffffffffffffffffffffff16815260200190815260200160002060020184815481106107ac576107ab61213b565b5b90600052602060002090600402016002015460646107ca919061224e565b60016000600287815481106107e2576107e161213b565b5b90600052602060002090600b020160070184815481106108055761080461213b565b5b9060005260206000200160009054906101000a900473ffffffffffffffffffffffffffffffffffffffff1673ffffffffffffffffffffffffffffffffffffffff1673ffffffffffffffffffffffffffffffffffffffff168152602001908152602001600020600201858154811061087f5761087e61213b565b5b90600052602060002090600402016001015461089b9190612282565b836108a691906122dc565b925080806108b390612199565b9150506106ef565b5060008160646108cb9190612282565b9050600080600090505b838110156109c45760016000600288815481106108f5576108f461213b565b5b90600052602060002090600b020160070183815481106109185761091761213b565b5b9060005260206000200160009054906101000a900473ffffffffffffffffffffffffffffffffffffffff1673ffffffffffffffffffffffffffffffffffffffff1673ffffffffffffffffffffffffffffffffffffffff16815260200190815260200160002060020186815481106109925761099161213b565b5b906000526020600020906004020160020154826109af91906122dc565b915080806109bc90612199565b9150506108d5565b50600081836109d3919061224e565b856109de9190612361565b905080600287815481106109f5576109f461213b565b5b90600052602060002090600b020160060181905550505050505050565b60008054906101000a900473ffffffffffffffffffffffffffffffffffffffff1673ffffffffffffffffffffffffffffffffffffffff163373ffffffffffffffffffffffffffffffffffffffff1614610aa0576040517f08c379a0000000000000000000000000000000000000000000000000000000008152600401610a979061211b565b60405180910390fd5b6000808054906101000a900473ffffffffffffffffffffffffffffffffffffffff1673ffffffffffffffffffffffffffffffffffffffff168273ffffffffffffffffffffffffffffffffffffffff161415610b30576040517f08c379a0000000000000000000000000000000000000000000000000000000008152600401610b27906123de565b60405180910390fd5b600a6004805490501115610b79576040517f08c379a0000000000000000000000000000000000000000000000000000000008152600401610b7090612470565b60405180910390fd5b60005b600480549050811015610c175760048181548110610b9d57610b9c61213b565b5b9060005260206000200160009054906101000a900473ffffffffffffffffffffffffffffffffffffffff1673ffffffffffffffffffffffffffffffffffffffff168373ffffffffffffffffffffffffffffffffffffffff161415610c045760019150610c17565b8080610c0f90612199565b915050610b7c565b5080610e0e576004829080600181540180825580915050600190039060005260206000200160009091909190916101000a81548173ffffffffffffffffffffffffffffffffffffffff021916908373ffffffffffffffffffffffffffffffffffffffff160217905550600554600160008473ffffffffffffffffffffffffffffffffffffffff1673ffffffffffffffffffffffffffffffffffffffff168152602001908152602001600020600001819055506000600160008473ffffffffffffffffffffffffffffffffffffffff1673ffffffffffffffffffffffffffffffffffffffff1681526020019081526020016000206001018190555060005b600354811015610df05760006040518060800160405280838152602001600081526020016000815260200160008152509050600160008573ffffffffffffffffffffffffffffffffffffffff1673ffffffffffffffffffffffffffffffffffffffff168152602001908152602001600020600201819080600181540180825580915050600190039060005260206000209060040201600090919091909150600082015181600001556020820151816001015560408201518160020155606082015181600301555050508080610de890612199565b915050610d14565b5060056000815480929190610e0490612199565b9190505550610e49565b6040517f08c379a0000000000000000000000000000000000000000000000000000000008152600401610e40906124dc565b60405180910390fd5b5050565b60008054906101000a900473ffffffffffffffffffffffffffffffffffffffff1673ffffffffffffffffffffffffffffffffffffffff163373ffffffffffffffffffffffffffffffffffffffff161415610edc576040517f08c379a0000000000000000000000000000000000000000000000000000000008152600401610ed390612548565b60405180910390fd5b600181816002811115610ef257610ef1611edc565b5b60028281548110610f0657610f0561213b565b5b90600052602060002090600b020160080160009054906101000a900460ff166002811115610f3757610f36611edc565b5b14610f77576040517f08c379a0000000000000000000000000000000000000000000000000000000008152600401610f6e9061222e565b60405180910390fd5b600060028481548110610f8d57610f8c61213b565b5b90600052602060002090600b02016007018054905014156110335760028381548110610fbc57610fbb61213b565b5b90600052602060002090600b0201600701339080600181540180825580915050600190039060005260206000200160009091909190916101000a81548173ffffffffffffffffffffffffffffffffffffffff021916908373ffffffffffffffffffffffffffffffffffffffff1602179055506111f2565b60005b6002848154811061104a5761104961213b565b5b90600052602060002090600b02016007018054905081101561112e573373ffffffffffffffffffffffffffffffffffffffff16600285815481106110915761109061213b565b5b90600052602060002090600b020160070182815481106110b4576110b361213b565b5b9060005260206000200160009054906101000a900473ffffffffffffffffffffffffffffffffffffffff1673ffffffffffffffffffffffffffffffffffffffff16141561111b576001600060146101000a81548160ff02191690831515021790555061112e565b808061112690612199565b915050611036565b5060001515600060149054906101000a900460ff16151514156111d6576002838154811061115f5761115e61213b565b5b90600052602060002090600b0201600701339080600181540180825580915050600190039060005260206000200160009091909190916101000a81548173ffffffffffffffffffffffffffffffffffffffff021916908373ffffffffffffffffffffffffffffffffffffffff1602179055506111f1565b60008060146101000a81548160ff0219169083151502179055505b5b60006111fe8585611949565b90506000600160003373ffffffffffffffffffffffffffffffffffffffff1673ffffffffffffffffffffffffffffffffffffffff16815260200190815260200160002060020185815481106112565761125561213b565b5b90600052602060002090600402016003015490506000600160003373ffffffffffffffffffffffffffffffffffffffff1673ffffffffffffffffffffffffffffffffffffffff16815260200190815260200160002060020186815481106112c0576112bf61213b565b5b906000526020600020906004020160020154905060006001836112e391906122dc565b8484846112f09190612282565b6112fa91906122dc565b6113049190612361565b905080600160003373ffffffffffffffffffffffffffffffffffffffff1673ffffffffffffffffffffffffffffffffffffffff168152602001908152602001600020600201888154811061135b5761135a61213b565b5b90600052602060002090600402016002018190555087600160003373ffffffffffffffffffffffffffffffffffffffff1673ffffffffffffffffffffffffffffffffffffffff16815260200190815260200160002060020188815481106113c5576113c461213b565b5b906000526020600020906004020160010181905550600160003373ffffffffffffffffffffffffffffffffffffffff1673ffffffffffffffffffffffffffffffffffffffff168152602001908152602001600020600201878154811061142e5761142d61213b565b5b9060005260206000209060040201600301600081548092919061145090612199565b9190505550600287815481106114695761146861213b565b5b90600052602060002090600b0201600301600081548092919061148b90612199565b91905055505050505050505050565b6000600282815481106114b0576114af61213b565b5b90600052602060002090600b020160080160009054906101000a900460ff169050919050565b6002828160028111156114ec576114eb611edc565b5b60028281548110611500576114ff61213b565b5b90600052602060002090600b020160080160009054906101000a900460ff16600281111561153157611530611edc565b5b14611571576040517f08c379a00000000000000000000000000000000000000000000000000000000081526004016115689061222e565b60405180910390fd5b82600285815481106115865761158561213b565b5b90600052602060002090600b02016006018190555050505050565b600281815481106115b157600080fd5b90600052602060002090600b02016000915090508060000154908060010180546115da90612597565b80601f016020809104026020016040519081016040528092919081815260200182805461160690612597565b80156116535780601f1061162857610100808354040283529160200191611653565b820191906000526020600020905b81548152906001019060200180831161163657829003601f168201915b5050505050908060020154908060030154908060060154908060080160009054906101000a900460ff169080600901549080600a0154905088565b6000600282815481106116a4576116a361213b565b5b90600052602060002090600b0201600601549050919050565b60008054906101000a900473ffffffffffffffffffffffffffffffffffffffff1673ffffffffffffffffffffffffffffffffffffffff163373ffffffffffffffffffffffffffffffffffffffff161461174b576040517f08c379a00000000000000000000000000000000000000000000000000000000081526004016117429061211b565b60405180910390fd5b60028082815481106117605761175f61213b565b5b90600052602060002090600b020160080160006101000a81548160ff0219169083600281111561179357611792611edc565b5b021790555050565b600481815481106117ab57600080fd5b906000526020600020016000915054906101000a900473ffffffffffffffffffffffffffffffffffffffff1681565b60008054906101000a900473ffffffffffffffffffffffffffffffffffffffff1681565b60018181600281111561181457611813611edc565b5b600282815481106118285761182761213b565b5b90600052602060002090600b020160080160009054906101000a900460ff16600281111561185957611858611edc565b5b14611899576040517f08c379a00000000000000000000000000000000000000000000000000000000081526004016118909061222e565b60405180910390fd5b600283815481106118ad576118ac61213b565b5b90600052602060002090600b0201600a0154600284815481106118d3576118d261213b565b5b90600052602060002090600b0201600901546118ef91906122dc565b42111561194457600280848154811061190b5761190a61213b565b5b90600052602060002090600b020160080160006101000a81548160ff0219169083600281111561193e5761193d611edc565b5b02179055505b505050565b6000806000905083600284815481106119655761196461213b565b5b90600052602060002090600b02016002015411156119f157600283815481106119915761199061213b565b5b90600052602060002090600b020160020154606485600286815481106119ba576119b961213b565b5b90600052602060002090600b0201600201546119d6919061224e565b6119e09190612282565b6119ea9190612361565b9050611a61565b60028381548110611a0557611a0461213b565b5b90600052602060002090600b020160020154606460028581548110611a2d57611a2c61213b565b5b90600052602060002090600b02016002015486611a4a919061224e565b611a549190612282565b611a5e9190612361565b90505b8091505092915050565b828054611a7790612597565b90600052602060002090601f016020900481019282611a995760008555611ae0565b82601f10611ab257805160ff1916838001178555611ae0565b82800160010185558215611ae0579182015b82811115611adf578251825591602001919060010190611ac4565b5b509050611aed9190611bc8565b5090565b828054828255906000526020600020908101928215611b2d579160200282015b82811115611b2c578251825591602001919060010190611b11565b5b509050611b3a9190611bc8565b5090565b828054828255906000526020600020908101928215611bb7579160200282015b82811115611bb65782518260006101000a81548173ffffffffffffffffffffffffffffffffffffffff021916908373ffffffffffffffffffffffffffffffffffffffff16021790555091602001919060010190611b5e565b5b509050611bc49190611bc8565b5090565b5b80821115611be1576000816000905550600101611bc9565b5090565b6000604051905090565b600080fd5b600080fd5b6000819050919050565b611c0c81611bf9565b8114611c1757600080fd5b50565b600081359050611c2981611c03565b92915050565b600060208284031215611c4557611c44611bef565b5b6000611c5384828501611c1a565b91505092915050565b600080fd5b600080fd5b6000601f19601f8301169050919050565b7f4e487b7100000000000000000000000000000000000000000000000000000000600052604160045260246000fd5b611caf82611c66565b810181811067ffffffffffffffff82111715611cce57611ccd611c77565b5b80604052505050565b6000611ce1611be5565b9050611ced8282611ca6565b919050565b600067ffffffffffffffff821115611d0d57611d0c611c77565b5b611d1682611c66565b9050602081019050919050565b82818337600083830152505050565b6000611d45611d4084611cf2565b611cd7565b905082815260208101848484011115611d6157611d60611c61565b5b611d6c848285611d23565b509392505050565b600082601f830112611d8957611d88611c5c565b5b8135611d99848260208601611d32565b91505092915050565b600080600060608486031215611dbb57611dba611bef565b5b600084013567ffffffffffffffff811115611dd957611dd8611bf4565b5b611de586828701611d74565b9350506020611df686828701611c1a565b9250506040611e0786828701611c1a565b9150509250925092565b600073ffffffffffffffffffffffffffffffffffffffff82169050919050565b6000611e3c82611e11565b9050919050565b611e4c81611e31565b8114611e5757600080fd5b50565b600081359050611e6981611e43565b92915050565b600060208284031215611e8557611e84611bef565b5b6000611e9384828501611e5a565b91505092915050565b60008060408385031215611eb357611eb2611bef565b5b6000611ec185828601611c1a565b9250506020611ed285828601611c1a565b9150509250929050565b7f4e487b7100000000000000000000000000000000000000000000000000000000600052602160045260246000fd5b60038110611f1c57611f1b611edc565b5b50565b6000819050611f2d82611f0b565b919050565b6000611f3d82611f1f565b9050919050565b611f4d81611f32565b82525050565b6000602082019050611f686000830184611f44565b92915050565b611f7781611bf9565b82525050565b600081519050919050565b600082825260208201905092915050565b60005b83811015611fb7578082015181840152602081019050611f9c565b83811115611fc6576000848401525b50505050565b6000611fd782611f7d565b611fe18185611f88565b9350611ff1818560208601611f99565b611ffa81611c66565b840191505092915050565b60006101008201905061201b600083018b611f6e565b818103602083015261202d818a611fcc565b905061203c6040830189611f6e565b6120496060830188611f6e565b6120566080830187611f6e565b61206360a0830186611f44565b61207060c0830185611f6e565b61207d60e0830184611f6e565b9998505050505050505050565b600060208201905061209f6000830184611f6e565b92915050565b6120ae81611e31565b82525050565b60006020820190506120c960008301846120a5565b92915050565b7f4f6e6c792061646d696e2063616e20736f6c7665000000000000000000000000600082015250565b6000612105601483611f88565b9150612110826120cf565b602082019050919050565b60006020820190508181036000830152612134816120f8565b9050919050565b7f4e487b7100000000000000000000000000000000000000000000000000000000600052603260045260246000fd5b7f4e487b7100000000000000000000000000000000000000000000000000000000600052601160045260246000fd5b60006121a482611bf9565b91507fffffffffffffffffffffffffffffffffffffffffffffffffffffffffffffffff8214156121d7576121d661216a565b5b600182019050919050565b7f57726f6e6720737461747573206f66207365737374696f6e0000000000000000600082015250565b6000612218601883611f88565b9150612223826121e2565b602082019050919050565b600060208201905081810360008301526122478161220b565b9050919050565b600061225982611bf9565b915061226483611bf9565b9250828210156122775761227661216a565b5b828203905092915050565b600061228d82611bf9565b915061229883611bf9565b9250817fffffffffffffffffffffffffffffffffffffffffffffffffffffffffffffffff04831182151516156122d1576122d061216a565b5b828202905092915050565b60006122e782611bf9565b91506122f283611bf9565b9250827fffffffffffffffffffffffffffffffffffffffffffffffffffffffffffffffff038211156123275761232661216a565b5b828201905092915050565b7f4e487b7100000000000000000000000000000000000000000000000000000000600052601260045260246000fd5b600061236c82611bf9565b915061237783611bf9565b92508261238757612386612332565b5b828204905092915050565b7f4163636f756e74206f662061646d696e2063616e277420726567697374657200600082015250565b60006123c8601f83611f88565b91506123d382612392565b602082019050919050565b600060208201905081810360008301526123f7816123bb565b9050919050565b7f546865206e756d626572206f66207061727469636970616e7473206973206c6560008201527f7373207468616e2074656e2e0000000000000000000000000000000000000000602082015250565b600061245a602c83611f88565b9150612465826123fe565b604082019050919050565b600060208201905081810360008301526124898161244d565b9050919050565b7f546869732061646472657373205265616c6c7920657869737465640000000000600082015250565b60006124c6601b83611f88565b91506124d182612490565b602082019050919050565b600060208201905081810360008301526124f5816124b9565b9050919050565b7f4e6f74206f6e6c792061646d696e000000000000000000000000000000000000600082015250565b6000612532600e83611f88565b915061253d826124fc565b602082019050919050565b6000602082019050818103600083015261256181612525565b9050919050565b7f4e487b7100000000000000000000000000000000000000000000000000000000600052602260045260246000fd5b600060028204905060018216806125af57607f821691505b602082108114156125c3576125c2612568565b5b5091905056fea2646970667358221220194cf702743d160b1186aea1aec2b3c192c75a274f6ab8056d4df217480b846a64736f6c634300080a0033",
  "immutableReferences": {},
  "source": "pragma solidity >=0.4.0 <0.9.0;\r\nimport \"./Main.sol\";\r\ncontract Session is Main{\r\n    struct Items{\r\n        uint IdItem;\r\n        string nameItem;\r\n        uint firstPrice;\r\n        uint countPaticipantJoinSesstion;\r\n        uint[] listPriceOfPaticipant;\r\n        uint[] listPriceDeviation;\r\n        uint valueChangePricing;\r\n        address[] checkAccount;\r\n        StatusSesstion statusSesstion;\r\n        uint timeSesstionEachOtherproduct;\r\n        uint timeFinishSesstionEachOtherproduct;\r\n    }\r\n    \r\n    mapping(address => Paticipant) private paticipants;\r\n    Items[] public itemsList;\r\n    uint index = 0;\r\n    address[] public totalAccounts;\r\n    uint indexPaticipant = 0;\r\n    \r\n    modifier checkStatus(StatusSesstion _statusSesstion, uint _IdItem){\r\n        require(itemsList[_IdItem].statusSesstion == _statusSesstion, \"Wrong status of sesstion\");\r\n        _;\r\n    }\r\n    \r\n    function addItems(string memory _nameItem, uint _firstPrice, uint _timeFinishSesstionEachOtherproduct) public onlyAdmin{\r\n        uint[] memory emptyArray;\r\n        address[] memory amptyAddressArray;\r\n        itemsList.push(Items(index, _nameItem, _firstPrice, 0, emptyArray, emptyArray, 0, amptyAddressArray, StatusSesstion.START, 0, _timeFinishSesstionEachOtherproduct));\r\n        index++;\r\n    }\r\n\r\n    function startSesstion(uint _IdItem) public onlyAdmin {\r\n        itemsList[_IdItem].statusSesstion = StatusSesstion.PRICING;\r\n        itemsList[_IdItem].timeSesstionEachOtherproduct = block.timestamp;\r\n    }\r\n\r\n    function stopSesstion(uint _IdItem) public onlyAdmin{\r\n        itemsList[_IdItem].statusSesstion = StatusSesstion.DONE;\r\n    }\r\n\r\n    function register(address _address) public onlyAdmin(){\r\n        bool checkStatusAddress = false;\r\n        if(_address == admin){\r\n            revert(\"Account of admin can't register\");\r\n        }\r\n        if(totalAccounts.length > 10){\r\n            revert(\"The number of participants is less than ten.\");\r\n        }else{\r\n            for(uint i = 0; i < totalAccounts.length; i++){\r\n                if(_address == totalAccounts[i]){\r\n                    checkStatusAddress = true;\r\n                    break;\r\n                }\r\n            }\r\n            if(!checkStatusAddress){\r\n                totalAccounts.push(_address);\r\n                paticipants[_address].IDPaticipant = indexPaticipant;  \r\n                paticipants[_address].countPricedSesstion = 0;\r\n                for(uint i = 0 ; i < index ; i++){\r\n                    DataChange memory dataChange = DataChange({IdItem: i, priceDeviation: 0, valueChangePricingOtherPaticipant: 0 , numberChangePricingOtherPaticipant: 0});\r\n                    paticipants[_address].listDataChange.push(dataChange);\r\n                }\r\n                indexPaticipant++;\r\n            }else{\r\n                revert(\"This address Really existed\");\r\n            }\r\n        }   \r\n    }\r\n    \r\n    function getProposedPrice(uint _IdItem) public onlyAdmin {\r\n        timeOutOfSesstion(_IdItem);\r\n        if(itemsList[_IdItem].statusSesstion != StatusSesstion.DONE){\r\n            revert(\"Wrong status of sesstion\");\r\n        }\r\n        uint totalPriceOfPaticipantAbove;\r\n        uint numberPaticipantJoneSestion = itemsList[_IdItem].checkAccount.length;\r\n        for(uint i = 0 ; i < numberPaticipantJoneSestion ; i++){\r\n              totalPriceOfPaticipantAbove += (paticipants[itemsList[_IdItem].checkAccount[i]].listDataChange[_IdItem].priceDeviation) * (100 - (paticipants[itemsList[_IdItem].checkAccount[i]].listDataChange[_IdItem].valueChangePricingOtherPaticipant));        \r\n        }\r\n        uint totalPriceOfPaticipantUnderLeft = 100 * numberPaticipantJoneSestion;\r\n        uint totalPriceOfPaticipantUnderRight;\r\n        for(uint i = 0 ; i < numberPaticipantJoneSestion ; i++){\r\n              totalPriceOfPaticipantUnderRight += paticipants[ itemsList[_IdItem].checkAccount[i]].listDataChange[_IdItem].valueChangePricingOtherPaticipant;\r\n        }\r\n        uint result = totalPriceOfPaticipantAbove / (totalPriceOfPaticipantUnderLeft - totalPriceOfPaticipantUnderRight);\r\n        itemsList[_IdItem].valueChangePricing = result;\r\n    }\r\n\r\n    function accumulatedDeviation(uint _newPriceOfParticipan, uint _IdItem) public notOnlyAdmin checkStatus(StatusSesstion.PRICING, _IdItem){\r\n        if(itemsList[_IdItem].checkAccount.length == 0){\r\n            itemsList[_IdItem].checkAccount.push(msg.sender);\r\n        }else{\r\n            for(uint i = 0 ; i < itemsList[_IdItem].checkAccount.length; i++){\r\n                if(itemsList[_IdItem].checkAccount[i] == msg.sender){\r\n                    status = true;\r\n                    break;\r\n                }\r\n            }\r\n            if(status == false){\r\n                itemsList[_IdItem].checkAccount.push(msg.sender);\r\n            }else{\r\n                status = false;\r\n            }\r\n        }\r\n        uint calNewPriceOfParticipant = calculatingDeviation(_newPriceOfParticipan, _IdItem);\r\n        uint numberPaticipant = paticipants[msg.sender].listDataChange[_IdItem].numberChangePricingOtherPaticipant;\r\n        uint currentPriceDeviation = paticipants[msg.sender].listDataChange[_IdItem].valueChangePricingOtherPaticipant;\r\n        uint value = (currentPriceDeviation * numberPaticipant + calNewPriceOfParticipant) / (numberPaticipant + 1);\r\n        paticipants[msg.sender].listDataChange[_IdItem].valueChangePricingOtherPaticipant = value;\r\n        paticipants[msg.sender].listDataChange[_IdItem].priceDeviation = _newPriceOfParticipan;\r\n        paticipants[msg.sender].listDataChange[_IdItem].numberChangePricingOtherPaticipant++;\r\n        itemsList[_IdItem].countPaticipantJoinSesstion++;\r\n    }\r\n\r\n    function calculatingDeviation(uint _priceOfParticipan, uint _IdItem) internal view returns (uint){\r\n        uint newPriceDeviation = 0;\r\n        if(itemsList[_IdItem].firstPrice > _priceOfParticipan){\r\n            newPriceDeviation = (itemsList[_IdItem].firstPrice  - _priceOfParticipan) * 100 / itemsList[_IdItem].firstPrice;\r\n        }else{\r\n            newPriceDeviation = (_priceOfParticipan - itemsList[_IdItem].firstPrice) * 100 / itemsList[_IdItem].firstPrice;\r\n        }\r\n        return uint(newPriceDeviation);\r\n    }\r\n\r\n    function timeOutOfSesstion(uint _IdItem) internal checkStatus(StatusSesstion.PRICING, _IdItem){\r\n        if(block.timestamp > itemsList[_IdItem].timeSesstionEachOtherproduct + itemsList[_IdItem].timeFinishSesstionEachOtherproduct){\r\n             itemsList[_IdItem].statusSesstion = StatusSesstion.DONE;\r\n        }\r\n    }\r\n\r\n    function getDataItems(uint _IdItem) public view returns(uint) {\r\n       return itemsList[_IdItem].valueChangePricing;\r\n    }\r\n    function getStatusSesstion(uint _IdItem) public view returns(StatusSesstion){\r\n        return itemsList[_IdItem].statusSesstion;\r\n    }\r\n    function setPriceOfItem(uint _IdItem, uint _price) public checkStatus(StatusSesstion.DONE, _IdItem){\r\n         itemsList[_IdItem].valueChangePricing = _price;\r\n    }\r\n}",
  "sourcePath": "C:\\Users\\Admin\\Desktop\\FunixPriceChanging\\contracts\\Session.sol",
  "compiler": {
    "name": "solc",
    "version": "0.8.10+commit.fc410830.Emscripten.clang"
  },
  "schemaVersion": "3.4.3",
  "updatedAt": "2021-12-17T01:00:11.293Z",
  "devdoc": {
    "kind": "dev",
    "methods": {},
    "version": 1
  },
  "userdoc": {
    "kind": "user",
    "methods": {},
    "version": 1
  }
}