{
  "contractName": "Session",
  "abi": [
    {
      "inputs": [],
      "stateMutability": "nonpayable",
      "type": "constructor"
    },
    {
      "anonymous": false,
      "inputs": [
        {
          "indexed": true,
          "internalType": "address",
          "name": "tokenOwner",
          "type": "address"
        },
        {
          "indexed": true,
          "internalType": "address",
          "name": "spender",
          "type": "address"
        },
        {
          "indexed": false,
          "internalType": "uint256",
          "name": "tokens",
          "type": "uint256"
        }
      ],
      "name": "Approval",
      "type": "event"
    },
    {
      "anonymous": false,
      "inputs": [
        {
          "indexed": true,
          "internalType": "uint256",
          "name": "_IdItems",
          "type": "uint256"
        },
        {
          "indexed": false,
          "internalType": "string",
          "name": "_nameItem",
          "type": "string"
        },
        {
          "indexed": false,
          "internalType": "string",
          "name": "_fullName",
          "type": "string"
        },
        {
          "indexed": false,
          "internalType": "uint256",
          "name": "_valueChangePricing",
          "type": "uint256"
        }
      ],
      "name": "LogChainPriceOfSession",
      "type": "event"
    },
    {
      "anonymous": false,
      "inputs": [
        {
          "indexed": true,
          "internalType": "uint256",
          "name": "_IdItems",
          "type": "uint256"
        },
        {
          "indexed": false,
          "internalType": "string",
          "name": "_nameItem",
          "type": "string"
        },
        {
          "indexed": false,
          "internalType": "uint256",
          "name": "_firstPrice",
          "type": "uint256"
        }
      ],
      "name": "LogStartSession",
      "type": "event"
    },
    {
      "anonymous": false,
      "inputs": [
        {
          "indexed": true,
          "internalType": "uint256",
          "name": "_IdItems",
          "type": "uint256"
        },
        {
          "indexed": false,
          "internalType": "string",
          "name": "_nameItem",
          "type": "string"
        },
        {
          "indexed": false,
          "internalType": "uint256",
          "name": "_firstPrice",
          "type": "uint256"
        }
      ],
      "name": "LogStopSession",
      "type": "event"
    },
    {
      "anonymous": false,
      "inputs": [
        {
          "indexed": true,
          "internalType": "address",
          "name": "from",
          "type": "address"
        },
        {
          "indexed": true,
          "internalType": "address",
          "name": "to",
          "type": "address"
        },
        {
          "indexed": false,
          "internalType": "uint256",
          "name": "tokens",
          "type": "uint256"
        }
      ],
      "name": "Transfer",
      "type": "event"
    },
    {
      "inputs": [],
      "name": "_totalSupply",
      "outputs": [
        {
          "internalType": "uint256",
          "name": "",
          "type": "uint256"
        }
      ],
      "stateMutability": "view",
      "type": "function",
      "constant": true
    },
    {
      "inputs": [],
      "name": "admin",
      "outputs": [
        {
          "internalType": "address",
          "name": "",
          "type": "address"
        }
      ],
      "stateMutability": "view",
      "type": "function",
      "constant": true
    },
    {
      "inputs": [
        {
          "internalType": "address",
          "name": "tokenOwner",
          "type": "address"
        },
        {
          "internalType": "address",
          "name": "spender",
          "type": "address"
        }
      ],
      "name": "allowance",
      "outputs": [
        {
          "internalType": "uint256",
          "name": "remaining",
          "type": "uint256"
        }
      ],
      "stateMutability": "view",
      "type": "function",
      "constant": true
    },
    {
      "inputs": [
        {
          "internalType": "address",
          "name": "spender",
          "type": "address"
        },
        {
          "internalType": "uint256",
          "name": "tokens",
          "type": "uint256"
        }
      ],
      "name": "approve",
      "outputs": [
        {
          "internalType": "bool",
          "name": "success",
          "type": "bool"
        }
      ],
      "stateMutability": "nonpayable",
      "type": "function"
    },
    {
      "inputs": [
        {
          "internalType": "address",
          "name": "spender",
          "type": "address"
        },
        {
          "internalType": "uint256",
          "name": "tokens",
          "type": "uint256"
        },
        {
          "internalType": "bytes",
          "name": "data",
          "type": "bytes"
        }
      ],
      "name": "approveAndCall",
      "outputs": [
        {
          "internalType": "bool",
          "name": "success",
          "type": "bool"
        }
      ],
      "stateMutability": "nonpayable",
      "type": "function"
    },
    {
      "inputs": [
        {
          "internalType": "address",
          "name": "tokenOwner",
          "type": "address"
        }
      ],
      "name": "balanceOf",
      "outputs": [
        {
          "internalType": "uint256",
          "name": "balance",
          "type": "uint256"
        }
      ],
      "stateMutability": "view",
      "type": "function",
      "constant": true
    },
    {
      "inputs": [],
      "name": "decimals",
      "outputs": [
        {
          "internalType": "uint8",
          "name": "",
          "type": "uint8"
        }
      ],
      "stateMutability": "view",
      "type": "function",
      "constant": true
    },
    {
      "inputs": [
        {
          "internalType": "uint256",
          "name": "",
          "type": "uint256"
        }
      ],
      "name": "emptyArray1",
      "outputs": [
        {
          "internalType": "uint256",
          "name": "",
          "type": "uint256"
        }
      ],
      "stateMutability": "view",
      "type": "function",
      "constant": true
    },
    {
      "inputs": [
        {
          "internalType": "uint256",
          "name": "",
          "type": "uint256"
        }
      ],
      "name": "emptyArray2",
      "outputs": [
        {
          "internalType": "uint256",
          "name": "",
          "type": "uint256"
        }
      ],
      "stateMutability": "view",
      "type": "function",
      "constant": true
    },
    {
      "inputs": [],
      "name": "index",
      "outputs": [
        {
          "internalType": "uint256",
          "name": "",
          "type": "uint256"
        }
      ],
      "stateMutability": "view",
      "type": "function",
      "constant": true
    },
    {
      "inputs": [
        {
          "internalType": "uint256",
          "name": "",
          "type": "uint256"
        }
      ],
      "name": "itemsList",
      "outputs": [
        {
          "internalType": "uint256",
          "name": "IdItem",
          "type": "uint256"
        },
        {
          "internalType": "string",
          "name": "nameItem",
          "type": "string"
        },
        {
          "internalType": "string",
          "name": "imageHash",
          "type": "string"
        },
        {
          "internalType": "uint256",
          "name": "firstPrice",
          "type": "uint256"
        },
        {
          "internalType": "string",
          "name": "itemDescription",
          "type": "string"
        },
        {
          "internalType": "uint256",
          "name": "countPaticipantJoinSesstion",
          "type": "uint256"
        },
        {
          "internalType": "uint256",
          "name": "valueChangePricing",
          "type": "uint256"
        },
        {
          "internalType": "enum Main.StatusSesstion",
          "name": "statusSesstion",
          "type": "uint8"
        },
        {
          "internalType": "uint256",
          "name": "timeSesstionEachOtherproduct",
          "type": "uint256"
        },
        {
          "internalType": "uint256",
          "name": "timeFinishSesstionEachOtherproduct",
          "type": "uint256"
        }
      ],
      "stateMutability": "view",
      "type": "function",
      "constant": true
    },
    {
      "inputs": [
        {
          "internalType": "uint256",
          "name": "",
          "type": "uint256"
        }
      ],
      "name": "listHashImage",
      "outputs": [
        {
          "internalType": "string",
          "name": "",
          "type": "string"
        }
      ],
      "stateMutability": "view",
      "type": "function",
      "constant": true
    },
    {
      "inputs": [
        {
          "internalType": "uint256",
          "name": "",
          "type": "uint256"
        }
      ],
      "name": "listInformationOfImage",
      "outputs": [
        {
          "internalType": "string",
          "name": "",
          "type": "string"
        }
      ],
      "stateMutability": "view",
      "type": "function",
      "constant": true
    },
    {
      "inputs": [
        {
          "internalType": "uint256",
          "name": "",
          "type": "uint256"
        }
      ],
      "name": "listNameOfItems",
      "outputs": [
        {
          "internalType": "string",
          "name": "",
          "type": "string"
        }
      ],
      "stateMutability": "view",
      "type": "function",
      "constant": true
    },
    {
      "inputs": [
        {
          "internalType": "uint256",
          "name": "",
          "type": "uint256"
        }
      ],
      "name": "listPrice",
      "outputs": [
        {
          "internalType": "uint256",
          "name": "",
          "type": "uint256"
        }
      ],
      "stateMutability": "view",
      "type": "function",
      "constant": true
    },
    {
      "inputs": [],
      "name": "name",
      "outputs": [
        {
          "internalType": "string",
          "name": "",
          "type": "string"
        }
      ],
      "stateMutability": "view",
      "type": "function",
      "constant": true
    },
    {
      "inputs": [
        {
          "internalType": "address",
          "name": "",
          "type": "address"
        }
      ],
      "name": "paticipants",
      "outputs": [
        {
          "internalType": "address",
          "name": "addressAccount",
          "type": "address"
        },
        {
          "internalType": "string",
          "name": "fullName",
          "type": "string"
        },
        {
          "internalType": "string",
          "name": "email",
          "type": "string"
        },
        {
          "internalType": "string",
          "name": "passwordAccount",
          "type": "string"
        },
        {
          "internalType": "uint256",
          "name": "countPricedSesstion",
          "type": "uint256"
        }
      ],
      "stateMutability": "view",
      "type": "function",
      "constant": true
    },
    {
      "inputs": [
        {
          "internalType": "uint256",
          "name": "a",
          "type": "uint256"
        },
        {
          "internalType": "uint256",
          "name": "b",
          "type": "uint256"
        }
      ],
      "name": "safeAdd",
      "outputs": [
        {
          "internalType": "uint256",
          "name": "c",
          "type": "uint256"
        }
      ],
      "stateMutability": "pure",
      "type": "function",
      "constant": true
    },
    {
      "inputs": [
        {
          "internalType": "uint256",
          "name": "a",
          "type": "uint256"
        },
        {
          "internalType": "uint256",
          "name": "b",
          "type": "uint256"
        }
      ],
      "name": "safeDiv",
      "outputs": [
        {
          "internalType": "uint256",
          "name": "c",
          "type": "uint256"
        }
      ],
      "stateMutability": "pure",
      "type": "function",
      "constant": true
    },
    {
      "inputs": [
        {
          "internalType": "uint256",
          "name": "a",
          "type": "uint256"
        },
        {
          "internalType": "uint256",
          "name": "b",
          "type": "uint256"
        }
      ],
      "name": "safeMul",
      "outputs": [
        {
          "internalType": "uint256",
          "name": "c",
          "type": "uint256"
        }
      ],
      "stateMutability": "pure",
      "type": "function",
      "constant": true
    },
    {
      "inputs": [
        {
          "internalType": "uint256",
          "name": "a",
          "type": "uint256"
        },
        {
          "internalType": "uint256",
          "name": "b",
          "type": "uint256"
        }
      ],
      "name": "safeSub",
      "outputs": [
        {
          "internalType": "uint256",
          "name": "c",
          "type": "uint256"
        }
      ],
      "stateMutability": "pure",
      "type": "function",
      "constant": true
    },
    {
      "inputs": [],
      "name": "symbol",
      "outputs": [
        {
          "internalType": "string",
          "name": "",
          "type": "string"
        }
      ],
      "stateMutability": "view",
      "type": "function",
      "constant": true
    },
    {
      "inputs": [
        {
          "internalType": "uint256",
          "name": "",
          "type": "uint256"
        }
      ],
      "name": "totalAccounts",
      "outputs": [
        {
          "internalType": "address",
          "name": "",
          "type": "address"
        }
      ],
      "stateMutability": "view",
      "type": "function",
      "constant": true
    },
    {
      "inputs": [],
      "name": "totalSupply",
      "outputs": [
        {
          "internalType": "uint256",
          "name": "",
          "type": "uint256"
        }
      ],
      "stateMutability": "view",
      "type": "function",
      "constant": true
    },
    {
      "inputs": [
        {
          "internalType": "address",
          "name": "to",
          "type": "address"
        },
        {
          "internalType": "uint256",
          "name": "tokens",
          "type": "uint256"
        }
      ],
      "name": "transfer",
      "outputs": [
        {
          "internalType": "bool",
          "name": "success",
          "type": "bool"
        }
      ],
      "stateMutability": "nonpayable",
      "type": "function"
    },
    {
      "inputs": [
        {
          "internalType": "address",
          "name": "from",
          "type": "address"
        },
        {
          "internalType": "address",
          "name": "to",
          "type": "address"
        },
        {
          "internalType": "uint256",
          "name": "tokens",
          "type": "uint256"
        }
      ],
      "name": "transferFrom",
      "outputs": [
        {
          "internalType": "bool",
          "name": "success",
          "type": "bool"
        }
      ],
      "stateMutability": "nonpayable",
      "type": "function"
    },
    {
      "stateMutability": "payable",
      "type": "receive",
      "payable": true
    },
    {
      "inputs": [
        {
          "internalType": "string",
          "name": "_nameItem",
          "type": "string"
        },
        {
          "internalType": "string",
          "name": "_imageHash",
          "type": "string"
        },
        {
          "internalType": "string",
          "name": "_itemDescription",
          "type": "string"
        },
        {
          "internalType": "uint256",
          "name": "_firstPrice",
          "type": "uint256"
        }
      ],
      "name": "createNewItem",
      "outputs": [],
      "stateMutability": "nonpayable",
      "type": "function"
    },
    {
      "inputs": [],
      "name": "addData",
      "outputs": [],
      "stateMutability": "nonpayable",
      "type": "function"
    },
    {
      "inputs": [
        {
          "internalType": "uint256",
          "name": "_IdItem",
          "type": "uint256"
        }
      ],
      "name": "convertStateToString",
      "outputs": [
        {
          "internalType": "string",
          "name": "",
          "type": "string"
        }
      ],
      "stateMutability": "view",
      "type": "function",
      "constant": true
    },
    {
      "inputs": [],
      "name": "getLengthItems",
      "outputs": [
        {
          "internalType": "uint256",
          "name": "",
          "type": "uint256"
        }
      ],
      "stateMutability": "view",
      "type": "function",
      "constant": true
    },
    {
      "inputs": [
        {
          "internalType": "uint256",
          "name": "_IdItem",
          "type": "uint256"
        }
      ],
      "name": "stopSesstion",
      "outputs": [],
      "stateMutability": "nonpayable",
      "type": "function"
    },
    {
      "inputs": [
        {
          "internalType": "uint256",
          "name": "_IdItem",
          "type": "uint256"
        }
      ],
      "name": "startSesstion",
      "outputs": [],
      "stateMutability": "nonpayable",
      "type": "function"
    },
    {
      "inputs": [
        {
          "internalType": "uint256",
          "name": "_IdItem",
          "type": "uint256"
        },
        {
          "internalType": "uint256",
          "name": "_price",
          "type": "uint256"
        }
      ],
      "name": "setFinalPriceOfItem",
      "outputs": [],
      "stateMutability": "nonpayable",
      "type": "function"
    },
    {
      "inputs": [
        {
          "internalType": "uint256",
          "name": "_IdItem",
          "type": "uint256"
        },
        {
          "internalType": "address",
          "name": "_address",
          "type": "address"
        }
      ],
      "name": "showDataPrice",
      "outputs": [
        {
          "internalType": "uint256[]",
          "name": "",
          "type": "uint256[]"
        }
      ],
      "stateMutability": "view",
      "type": "function",
      "constant": true
    },
    {
      "inputs": [
        {
          "internalType": "uint256",
          "name": "_IdItem",
          "type": "uint256"
        },
        {
          "internalType": "address",
          "name": "_address",
          "type": "address"
        }
      ],
      "name": "showDataDeviation",
      "outputs": [
        {
          "internalType": "uint256[]",
          "name": "",
          "type": "uint256[]"
        }
      ],
      "stateMutability": "view",
      "type": "function",
      "constant": true
    },
    {
      "inputs": [
        {
          "internalType": "uint256",
          "name": "_IdItem",
          "type": "uint256"
        }
      ],
      "name": "getAddressChangedPriceOfItems",
      "outputs": [
        {
          "internalType": "address[]",
          "name": "",
          "type": "address[]"
        }
      ],
      "stateMutability": "view",
      "type": "function",
      "constant": true
    },
    {
      "inputs": [],
      "name": "getAddressUserRegister",
      "outputs": [
        {
          "internalType": "address[]",
          "name": "",
          "type": "address[]"
        }
      ],
      "stateMutability": "view",
      "type": "function",
      "constant": true
    },
    {
      "inputs": [
        {
          "internalType": "address",
          "name": "_address",
          "type": "address"
        },
        {
          "internalType": "string",
          "name": "_fullName",
          "type": "string"
        },
        {
          "internalType": "string",
          "name": "_email",
          "type": "string"
        },
        {
          "internalType": "string",
          "name": "_passwordAccount",
          "type": "string"
        }
      ],
      "name": "registerAccount",
      "outputs": [],
      "stateMutability": "nonpayable",
      "type": "function"
    },
    {
      "inputs": [
        {
          "internalType": "uint256",
          "name": "_IdItem",
          "type": "uint256"
        }
      ],
      "name": "getProposedPrice",
      "outputs": [],
      "stateMutability": "nonpayable",
      "type": "function"
    },
    {
      "inputs": [
        {
          "internalType": "uint256",
          "name": "_newPriceOfParticipan",
          "type": "uint256"
        },
        {
          "internalType": "uint256",
          "name": "_IdItem",
          "type": "uint256"
        }
      ],
      "name": "accumulatedDeviation",
      "outputs": [],
      "stateMutability": "nonpayable",
      "type": "function"
    },
    {
      "inputs": [
        {
          "internalType": "uint256",
          "name": "_IdItem",
          "type": "uint256"
        }
      ],
      "name": "timeOutOfSesstion",
      "outputs": [],
      "stateMutability": "nonpayable",
      "type": "function"
    }
  ],
  "bytecode": "0x608060405260008060146101000a81548160ff021916908315150217905550600060095560405180602001604052806040518060400160405280601581526020017f53616d73756e672047616c617879204e6f746532300000000000000000000000815250815250600b9060016200007992919062000a13565b5060405180602001604052806040518060600160405280602e81526020016200686c602e9139815250600c906001620000b492919062000a13565b506040518060200160405280604051806101e001604052806101a581526020016200689a6101a59139815250600d906001620000f292919062000a13565b5060405180602001604052806103a261ffff16815250600e9060016200011a92919062000a7a565b506040518060200160405280600060ff16815250600f9060016200014092919062000ad2565b506040518060200160405280600060ff1681525060109060016200016692919062000ad2565b503480156200017457600080fd5b50336000806101000a81548173ffffffffffffffffffffffffffffffffffffffff021916908373ffffffffffffffffffffffffffffffffffffffff1602179055506040518060400160405280600581526020017f544f4b454e000000000000000000000000000000000000000000000000000000815250600190805190602001906200020292919062000b29565b506040518060400160405280600881526020017f457468657265756d000000000000000000000000000000000000000000000000815250600290805190602001906200025092919062000b29565b506000600360006101000a81548160ff021916908360ff16021790555060c86004819055506004546005600073d4cfcb5db84c93d8dd7303b82f31f11a4cbfe80373ffffffffffffffffffffffffffffffffffffffff1673ffffffffffffffffffffffffffffffffffffffff1681526020019081526020016000208190555073d4cfcb5db84c93d8dd7303b82f31f11a4cbfe80373ffffffffffffffffffffffffffffffffffffffff16600073ffffffffffffffffffffffffffffffffffffffff167fddf252ad1be2c89b69c2b068fc378daa952ba7f163c4a11628f55a4df523b3ef60045460405162000345919062000cf1565b60405180910390a36200035d6200036360201b60201c565b62000e4e565b60005b600c805490508110156200091e57600080600090505b6008805490508110156200052a576200050560088281548110620003a557620003a462000d0e565b5b90600052602060002090600b02016002018054620003c39062000d6c565b80601f0160208091040260200160405190810160405280929190818152602001828054620003f19062000d6c565b8015620004425780601f10620004165761010080835404028352916020019162000442565b820191906000526020600020905b8154815290600101906020018083116200042457829003601f168201915b5050505050600c85815481106200045e576200045d62000d0e565b5b906000526020600020018054620004759062000d6c565b80601f0160208091040260200160405190810160405280929190818152602001828054620004a39062000d6c565b8015620004f45780601f10620004c857610100808354040283529160200191620004f4565b820191906000526020600020905b815481529060010190602001808311620004d657829003601f168201915b50505050506200092160201b60201c565b9150811562000514576200052a565b8080620005219062000dd1565b9150506200037c565b508062000907576060806008604051806101600160405280868152602001600b87815481106200055f576200055e62000d0e565b5b906000526020600020018054620005769062000d6c565b80601f0160208091040260200160405190810160405280929190818152602001828054620005a49062000d6c565b8015620005f55780601f10620005c957610100808354040283529160200191620005f5565b820191906000526020600020905b815481529060010190602001808311620005d757829003601f168201915b50505050508152602001600c878154811062000616576200061562000d0e565b5b9060005260206000200180546200062d9062000d6c565b80601f01602080910402602001604051908101604052809291908181526020018280546200065b9062000d6c565b8015620006ac5780601f106200068057610100808354040283529160200191620006ac565b820191906000526020600020905b8154815290600101906020018083116200068e57829003601f168201915b50505050508152602001600e8781548110620006cd57620006cc62000d0e565b5b90600052602060002001548152602001600d8781548110620006f457620006f362000d0e565b5b9060005260206000200180546200070b9062000d6c565b80601f0160208091040260200160405190810160405280929190818152602001828054620007399062000d6c565b80156200078a5780601f106200075e576101008083540402835291602001916200078a565b820191906000526020600020905b8154815290600101906020018083116200076c57829003601f168201915b50505050508152602001600081526020016000815260200183815260200160006003811115620007bf57620007be62000e1f565b5b81526020016000815260200161025881525090806001815401808255809150506001900390600052602060002090600b02016000909190919091506000820151816000015560208201518160010190805190602001906200082292919062000b29565b5060408201518160020190805190602001906200084192919062000b29565b506060820151816003015560808201518160040190805190602001906200086a92919062000b29565b5060a0820151816005015560c0820151816006015560e08201518160070190805190602001906200089d92919062000bba565b506101008201518160080160006101000a81548160ff02191690836003811115620008cd57620008cc62000e1f565b5b0217905550610120820151816009015561014082015181600a0155505060096000815480929190620008ff9062000dd1565b919050555050505b508080620009159062000dd1565b91505062000366565b50565b60008083905060008390506000825190508151811462000948576000935050505062000a0d565b60005b8181101562000a04578281815181106200096a576200096962000d0e565b5b602001015160f81c60f81b7effffffffffffffffffffffffffffffffffffffffffffffffffffffffffffff1916848281518110620009ad57620009ac62000d0e565b5b602001015160f81c60f81b7effffffffffffffffffffffffffffffffffffffffffffffffffffffffffffff191614620009ee57600094505050505062000a0d565b8080620009fb9062000dd1565b9150506200094b565b50600193505050505b92915050565b82805482825590600052602060002090810192821562000a67579160200282015b8281111562000a6657825182908051906020019062000a5592919062000b29565b509160200191906001019062000a34565b5b50905062000a76919062000c49565b5090565b82805482825590600052602060002090810192821562000abf579160200282015b8281111562000abe578251829061ffff1690559160200191906001019062000a9b565b5b50905062000ace919062000c71565b5090565b82805482825590600052602060002090810192821562000b16579160200282015b8281111562000b15578251829060ff1690559160200191906001019062000af3565b5b50905062000b25919062000c71565b5090565b82805462000b379062000d6c565b90600052602060002090601f01602090048101928262000b5b576000855562000ba7565b82601f1062000b7657805160ff191683800117855562000ba7565b8280016001018555821562000ba7579182015b8281111562000ba657825182559160200191906001019062000b89565b5b50905062000bb6919062000c71565b5090565b82805482825590600052602060002090810192821562000c36579160200282015b8281111562000c355782518260006101000a81548173ffffffffffffffffffffffffffffffffffffffff021916908373ffffffffffffffffffffffffffffffffffffffff1602179055509160200191906001019062000bdb565b5b50905062000c45919062000c71565b5090565b5b8082111562000c6d576000818162000c63919062000c90565b5060010162000c4a565b5090565b5b8082111562000c8c57600081600090555060010162000c72565b5090565b50805462000c9e9062000d6c565b6000825580601f1062000cb2575062000cd3565b601f01602090049060005260206000209081019062000cd2919062000c71565b5b50565b6000819050919050565b62000ceb8162000cd6565b82525050565b600060208201905062000d08600083018462000ce0565b92915050565b7f4e487b7100000000000000000000000000000000000000000000000000000000600052603260045260246000fd5b7f4e487b7100000000000000000000000000000000000000000000000000000000600052602260045260246000fd5b6000600282049050600182168062000d8557607f821691505b6020821081141562000d9c5762000d9b62000d3d565b5b50919050565b7f4e487b7100000000000000000000000000000000000000000000000000000000600052601160045260246000fd5b600062000dde8262000cd6565b91507fffffffffffffffffffffffffffffffffffffffffffffffffffffffffffffffff82141562000e145762000e1362000da2565b5b600182019050919050565b7f4e487b7100000000000000000000000000000000000000000000000000000000600052602160045260246000fd5b615a0e8062000e5e6000396000f3fe60806040526004361061024a5760003560e01c806387d81f7c11610139578063c9907777116100b6578063e3ce9ba71161007a578063e3ce9ba7146109a1578063e6cb9013146109b8578063e8c06c54146109f5578063f11c37c514610a1e578063f53dbb2e14610a5b578063f851a44014610a9857610254565b8063c990777714610884578063cae9ca51146108c1578063d05c78da146108fe578063d19757db1461093b578063dd62ed3e1461096457610254565b8063a293d1e8116100fd578063a293d1e81461075e578063a9059cbb1461079b578063b09da154146107d8578063b5931f7c14610801578063c2bd9d951461083e57610254565b806387d81f7c146106515780638df2873e1461068e5780639005bf74146106cb57806395d89b411461070857806398f685101461073357610254565b80633eaaf86b116101c75780635ef002321161018b5780635ef00232146105485780636b5750c31461057157806370a08231146105ae57806379daaa60146105eb57806385d34fb71461061457610254565b80633eaaf86b1461044b5780633fe911211461047657806340a1ca29146104b35780634ae19b1a146104dc5780635657198a1461051d57610254565b806323b872dd1161020e57806323b872dd146103525780632986c0e51461038f5780632d1c7f5e146103ba578063313ce567146103e3578063358c371f1461040e57610254565b806306fdde0314610259578063095ea7b3146102845780631043bd70146102c157806318160ddd146102ea57806322017e351461031557610254565b3661025457600080fd5b600080fd5b34801561026557600080fd5b5061026e610ac3565b60405161027b9190614740565b60405180910390f35b34801561029057600080fd5b506102ab60048036038101906102a6919061480a565b610b51565b6040516102b89190614865565b60405180910390f35b3480156102cd57600080fd5b506102e860048036038101906102e39190614880565b610c43565b005b3480156102f657600080fd5b506102ff610dcf565b60405161030c91906148bc565b60405180910390f35b34801561032157600080fd5b5061033c60048036038101906103379190614880565b610e23565b60405161034991906148bc565b60405180910390f35b34801561035e57600080fd5b50610379600480360381019061037491906148d7565b610e47565b6040516103869190614865565b60405180910390f35b34801561039b57600080fd5b506103a46110d7565b6040516103b191906148bc565b60405180910390f35b3480156103c657600080fd5b506103e160048036038101906103dc919061492a565b6110dd565b005b3480156103ef57600080fd5b506103f86111e7565b6040516104059190614986565b60405180910390f35b34801561041a57600080fd5b5061043560048036038101906104309190614880565b6111fa565b6040516104429190614740565b60405180910390f35b34801561045757600080fd5b506104606112a6565b60405161046d91906148bc565b60405180910390f35b34801561048257600080fd5b5061049d60048036038101906104989190614880565b6112ac565b6040516104aa9190614740565b60405180910390f35b3480156104bf57600080fd5b506104da60048036038101906104d59190614880565b611358565b005b3480156104e857600080fd5b5061050360048036038101906104fe91906149a1565b611923565b6040516105149594939291906149dd565b60405180910390f35b34801561052957600080fd5b50610532611b11565b60405161053f9190614b03565b60405180910390f35b34801561055457600080fd5b5061056f600480360381019061056a919061492a565b611c2d565b005b34801561057d57600080fd5b5061059860048036038101906105939190614b25565b6125c9565b6040516105a59190614c23565b60405180910390f35b3480156105ba57600080fd5b506105d560048036038101906105d091906149a1565b612687565b6040516105e291906148bc565b60405180910390f35b3480156105f757600080fd5b50610612600480360381019061060d9190614d7a565b6126d0565b005b34801561062057600080fd5b5061063b60048036038101906106369190614880565b612841565b6040516106489190614b03565b60405180910390f35b34801561065d57600080fd5b5061067860048036038101906106739190614880565b6128f4565b60405161068591906148bc565b60405180910390f35b34801561069a57600080fd5b506106b560048036038101906106b09190614880565b612918565b6040516106c29190614740565b60405180910390f35b3480156106d757600080fd5b506106f260048036038101906106ed9190614880565b6129c4565b6040516106ff9190614740565b60405180910390f35b34801561071457600080fd5b5061071d612bd8565b60405161072a9190614740565b60405180910390f35b34801561073f57600080fd5b50610748612c66565b60405161075591906148bc565b60405180910390f35b34801561076a57600080fd5b506107856004803603810190610780919061492a565b612c73565b60405161079291906148bc565b60405180910390f35b3480156107a757600080fd5b506107c260048036038101906107bd919061480a565b612ccc565b6040516107cf9190614865565b60405180910390f35b3480156107e457600080fd5b506107ff60048036038101906107fa9190614880565b612e6e565b005b34801561080d57600080fd5b506108286004803603810190610823919061492a565b613080565b60405161083591906148bc565b60405180910390f35b34801561084a57600080fd5b5061086560048036038101906108609190614880565b6130d8565b60405161087b9a99989796959493929190614eac565b60405180910390f35b34801561089057600080fd5b506108ab60048036038101906108a69190614b25565b6132e1565b6040516108b89190614c23565b60405180910390f35b3480156108cd57600080fd5b506108e860048036038101906108e39190614ffe565b61339f565b6040516108f59190614865565b60405180910390f35b34801561090a57600080fd5b506109256004803603810190610920919061492a565b613503565b60405161093291906148bc565b60405180910390f35b34801561094757600080fd5b50610962600480360381019061095d919061506d565b613571565b005b34801561097057600080fd5b5061098b60048036038101906109869190615128565b613b09565b60405161099891906148bc565b60405180910390f35b3480156109ad57600080fd5b506109b6613b90565b005b3480156109c457600080fd5b506109df60048036038101906109da919061492a565b6140f1565b6040516109ec91906148bc565b60405180910390f35b348015610a0157600080fd5b50610a1c6004803603810190610a179190614880565b61414a565b005b348015610a2a57600080fd5b50610a456004803603810190610a409190614880565b6142ac565b604051610a5291906148bc565b60405180910390f35b348015610a6757600080fd5b50610a826004803603810190610a7d9190614880565b6142d0565b604051610a8f9190615168565b60405180910390f35b348015610aa457600080fd5b50610aad61430f565b604051610aba9190615168565b60405180910390f35b60028054610ad0906151b2565b80601f0160208091040260200160405190810160405280929190818152602001828054610afc906151b2565b8015610b495780601f10610b1e57610100808354040283529160200191610b49565b820191906000526020600020905b815481529060010190602001808311610b2c57829003601f168201915b505050505081565b600081600660003373ffffffffffffffffffffffffffffffffffffffff1673ffffffffffffffffffffffffffffffffffffffff16815260200190815260200160002060008573ffffffffffffffffffffffffffffffffffffffff1673ffffffffffffffffffffffffffffffffffffffff168152602001908152602001600020819055508273ffffffffffffffffffffffffffffffffffffffff163373ffffffffffffffffffffffffffffffffffffffff167f8c5be1e5ebec7d5bd14f71427d1e84f3dd0314c0f7b2291e5b200ac8c7c3b92584604051610c3191906148bc565b60405180910390a36001905092915050565b60008054906101000a900473ffffffffffffffffffffffffffffffffffffffff1673ffffffffffffffffffffffffffffffffffffffff163373ffffffffffffffffffffffffffffffffffffffff1614610cd1576040517f08c379a0000000000000000000000000000000000000000000000000000000008152600401610cc890615230565b60405180910390fd5b600160088281548110610ce757610ce6615250565b5b90600052602060002090600b020160080160006101000a81548160ff02191690836003811115610d1a57610d19614e35565b5b02179055504260088281548110610d3457610d33615250565b5b90600052602060002090600b020160090181905550807faa3f0b5a9d087149295bb224b9c28e39af6cb01e0e04999b4c44626f6f14498560088381548110610d7f57610d7e615250565b5b90600052602060002090600b020160010160088481548110610da457610da3615250565b5b90600052602060002090600b020160030154604051610dc4929190615314565b60405180910390a250565b6000600560008073ffffffffffffffffffffffffffffffffffffffff1673ffffffffffffffffffffffffffffffffffffffff16815260200190815260200160002054600454610e1e9190615373565b905090565b60108181548110610e3357600080fd5b906000526020600020016000915090505481565b6000610e92600560008673ffffffffffffffffffffffffffffffffffffffff1673ffffffffffffffffffffffffffffffffffffffff1681526020019081526020016000205483612c73565b600560008673ffffffffffffffffffffffffffffffffffffffff1673ffffffffffffffffffffffffffffffffffffffff16815260200190815260200160002081905550610f5b600660008673ffffffffffffffffffffffffffffffffffffffff1673ffffffffffffffffffffffffffffffffffffffff16815260200190815260200160002060003373ffffffffffffffffffffffffffffffffffffffff1673ffffffffffffffffffffffffffffffffffffffff1681526020019081526020016000205483612c73565b600660008673ffffffffffffffffffffffffffffffffffffffff1673ffffffffffffffffffffffffffffffffffffffff16815260200190815260200160002060003373ffffffffffffffffffffffffffffffffffffffff1673ffffffffffffffffffffffffffffffffffffffff16815260200190815260200160002081905550611024600560008573ffffffffffffffffffffffffffffffffffffffff1673ffffffffffffffffffffffffffffffffffffffff16815260200190815260200160002054836140f1565b600560008573ffffffffffffffffffffffffffffffffffffffff1673ffffffffffffffffffffffffffffffffffffffff168152602001908152602001600020819055508273ffffffffffffffffffffffffffffffffffffffff168473ffffffffffffffffffffffffffffffffffffffff167fddf252ad1be2c89b69c2b068fc378daa952ba7f163c4a11628f55a4df523b3ef846040516110c491906148bc565b60405180910390a3600190509392505050565b60095481565b60008054906101000a900473ffffffffffffffffffffffffffffffffffffffff1673ffffffffffffffffffffffffffffffffffffffff163373ffffffffffffffffffffffffffffffffffffffff161461116b576040517f08c379a000000000000000000000000000000000000000000000000000000000815260040161116290615230565b60405180910390fd5b80600883815481106111805761117f615250565b5b90600052602060002090600b0201600301819055506003600883815481106111ab576111aa615250565b5b90600052602060002090600b020160080160006101000a81548160ff021916908360038111156111de576111dd614e35565b5b02179055505050565b600360009054906101000a900460ff1681565b600d818154811061120a57600080fd5b906000526020600020016000915090508054611225906151b2565b80601f0160208091040260200160405190810160405280929190818152602001828054611251906151b2565b801561129e5780601f106112735761010080835404028352916020019161129e565b820191906000526020600020905b81548152906001019060200180831161128157829003601f168201915b505050505081565b60045481565b600b81815481106112bc57600080fd5b9060005260206000200160009150905080546112d7906151b2565b80601f0160208091040260200160405190810160405280929190818152602001828054611303906151b2565b80156113505780601f1061132557610100808354040283529160200191611350565b820191906000526020600020905b81548152906001019060200180831161133357829003601f168201915b505050505081565b6002600381111561136c5761136b614e35565b5b600882815481106113805761137f615250565b5b90600052602060002090600b020160080160009054906101000a900460ff1660038111156113b1576113b0614e35565b5b146113f1576040517f08c379a00000000000000000000000000000000000000000000000000000000081526004016113e8906153f3565b60405180910390fd5b6000806008838154811061140857611407615250565b5b90600052602060002090600b020160070180549050905060005b818110156116ec576000600760006008878154811061144457611443615250565b5b90600052602060002090600b0201600701848154811061146757611466615250565b5b9060005260206000200160009054906101000a900473ffffffffffffffffffffffffffffffffffffffff1673ffffffffffffffffffffffffffffffffffffffff1673ffffffffffffffffffffffffffffffffffffffff16815260200190815260200160002060050185815481106114e1576114e0615250565b5b90600052602060002090600402016003015490506116d6846116d16007600060088a8154811061151457611513615250565b5b90600052602060002090600b0201600701878154811061153757611536615250565b5b9060005260206000200160009054906101000a900473ffffffffffffffffffffffffffffffffffffffff1673ffffffffffffffffffffffffffffffffffffffff1673ffffffffffffffffffffffffffffffffffffffff16815260200190815260200160002060050188815481106115b1576115b0615250565b5b906000526020600020906004020160010184815481106115d4576115d3615250565b5b90600052602060002001546116cc60646007600060088d815481106115fc576115fb615250565b5b90600052602060002090600b02016007018a8154811061161f5761161e615250565b5b9060005260206000200160009054906101000a900473ffffffffffffffffffffffffffffffffffffffff1673ffffffffffffffffffffffffffffffffffffffff1673ffffffffffffffffffffffffffffffffffffffff1681526020019081526020016000206005018b8154811061169957611698615250565b5b906000526020600020906004020160020187815481106116bc576116bb615250565b5b9060005260206000200154612c73565b613503565b6140f1565b93505080806116e490615413565b915050611422565b5060006116fa606483613503565b9050600080600090505b838110156118d9576000600760006008898154811061172657611725615250565b5b90600052602060002090600b0201600701848154811061174957611748615250565b5b9060005260206000200160009054906101000a900473ffffffffffffffffffffffffffffffffffffffff1673ffffffffffffffffffffffffffffffffffffffff1673ffffffffffffffffffffffffffffffffffffffff16815260200190815260200160002060050187815481106117c3576117c2615250565b5b90600052602060002090600402016003015490506118c3836007600060088b815481106117f3576117f2615250565b5b90600052602060002090600b0201600701868154811061181657611815615250565b5b9060005260206000200160009054906101000a900473ffffffffffffffffffffffffffffffffffffffff1673ffffffffffffffffffffffffffffffffffffffff1673ffffffffffffffffffffffffffffffffffffffff16815260200190815260200160002060050189815481106118905761188f615250565b5b906000526020600020906004020160020183815481106118b3576118b2615250565b5b90600052602060002001546140f1565b92505080806118d190615413565b915050611704565b5060006118ef856118ea8585612c73565b613080565b9050806008878154811061190657611905615250565b5b90600052602060002090600b020160060181905550505050505050565b60076020528060005260406000206000915090508060000160009054906101000a900473ffffffffffffffffffffffffffffffffffffffff169080600101805461196c906151b2565b80601f0160208091040260200160405190810160405280929190818152602001828054611998906151b2565b80156119e55780601f106119ba576101008083540402835291602001916119e5565b820191906000526020600020905b8154815290600101906020018083116119c857829003601f168201915b5050505050908060020180546119fa906151b2565b80601f0160208091040260200160405190810160405280929190818152602001828054611a26906151b2565b8015611a735780601f10611a4857610100808354040283529160200191611a73565b820191906000526020600020905b815481529060010190602001808311611a5657829003601f168201915b505050505090806003018054611a88906151b2565b80601f0160208091040260200160405190810160405280929190818152602001828054611ab4906151b2565b8015611b015780601f10611ad657610100808354040283529160200191611b01565b820191906000526020600020905b815481529060010190602001808311611ae457829003601f168201915b5050505050908060040154905085565b606060008054906101000a900473ffffffffffffffffffffffffffffffffffffffff1673ffffffffffffffffffffffffffffffffffffffff163373ffffffffffffffffffffffffffffffffffffffff1614611ba1576040517f08c379a0000000000000000000000000000000000000000000000000000000008152600401611b9890615230565b60405180910390fd5b600a805480602002602001604051908101604052809291908181526020018280548015611c2357602002820191906000526020600020905b8160009054906101000a900473ffffffffffffffffffffffffffffffffffffffff1673ffffffffffffffffffffffffffffffffffffffff1681526020019060010190808311611bd9575b5050505050905090565b60008054906101000a900473ffffffffffffffffffffffffffffffffffffffff1673ffffffffffffffffffffffffffffffffffffffff163373ffffffffffffffffffffffffffffffffffffffff161415611cbc576040517f08c379a0000000000000000000000000000000000000000000000000000000008152600401611cb3906154a8565b60405180910390fd5b600181816003811115611cd257611cd1614e35565b5b60088281548110611ce657611ce5615250565b5b90600052602060002090600b020160080160009054906101000a900460ff166003811115611d1757611d16614e35565b5b14611d57576040517f08c379a0000000000000000000000000000000000000000000000000000000008152600401611d4e906153f3565b60405180910390fd5b600060088481548110611d6d57611d6c615250565b5b90600052602060002090600b0201600701805490501415611e8157611df5600760003373ffffffffffffffffffffffffffffffffffffffff1673ffffffffffffffffffffffffffffffffffffffff16815260200190815260200160002060000160009054906101000a900473ffffffffffffffffffffffffffffffffffffffff16600a612ccc565b5060088381548110611e0a57611e09615250565b5b90600052602060002090600b0201600701339080600181540180825580915050600190039060005260206000200160009091909190916101000a81548173ffffffffffffffffffffffffffffffffffffffff021916908373ffffffffffffffffffffffffffffffffffffffff1602179055506120ae565b60005b60088481548110611e9857611e97615250565b5b90600052602060002090600b020160070180549050811015611f7c573373ffffffffffffffffffffffffffffffffffffffff1660088581548110611edf57611ede615250565b5b90600052602060002090600b02016007018281548110611f0257611f01615250565b5b9060005260206000200160009054906101000a900473ffffffffffffffffffffffffffffffffffffffff1673ffffffffffffffffffffffffffffffffffffffff161415611f69576001600060146101000a81548160ff021916908315150217905550611f7c565b8080611f7490615413565b915050611e84565b5060001515600060149054906101000a900460ff16151514156120925760088381548110611fad57611fac615250565b5b90600052602060002090600b0201600701339080600181540180825580915050600190039060005260206000200160009091909190916101000a81548173ffffffffffffffffffffffffffffffffffffffff021916908373ffffffffffffffffffffffffffffffffffffffff16021790555061208c600760003373ffffffffffffffffffffffffffffffffffffffff1673ffffffffffffffffffffffffffffffffffffffff16815260200190815260200160002060000160009054906101000a900473ffffffffffffffffffffffffffffffffffffffff16600a612ccc565b506120ad565b60008060146101000a81548160ff0219169083151502179055505b5b60006120ba8585614333565b90506000600760003373ffffffffffffffffffffffffffffffffffffffff1673ffffffffffffffffffffffffffffffffffffffff168152602001908152602001600020600501858154811061211257612111615250565b5b90600052602060002090600402016003015490506000600760003373ffffffffffffffffffffffffffffffffffffffff1673ffffffffffffffffffffffffffffffffffffffff168152602001908152602001600020600501868154811061217c5761217b615250565b5b90600052602060002090600402016003015490506000600760003373ffffffffffffffffffffffffffffffffffffffff1673ffffffffffffffffffffffffffffffffffffffff16815260200190815260200160002060050187815481106121e6576121e5615250565b5b9060005260206000209060040201600201838154811061220957612208615250565b5b90600052602060002001549050600061223e61222e6122288486613503565b876140f1565b6122398560016140f1565b613080565b9050600760003373ffffffffffffffffffffffffffffffffffffffff1673ffffffffffffffffffffffffffffffffffffffff168152602001908152602001600020600501888154811061229457612293615250565b5b9060005260206000209060040201600201819080600181540180825580915050600190039060005260206000200160009091909190915055600760003373ffffffffffffffffffffffffffffffffffffffff1673ffffffffffffffffffffffffffffffffffffffff16815260200190815260200160002060050188815481106123205761231f615250565b5b90600052602060002090600402016001018990806001815401808255809150506001900390600052602060002001600090919091909150556123c8600760003373ffffffffffffffffffffffffffffffffffffffff1673ffffffffffffffffffffffffffffffffffffffff16815260200190815260200160002060050189815481106123af576123ae615250565b5b90600052602060002090600402016003015460016140f1565b600760003373ffffffffffffffffffffffffffffffffffffffff1673ffffffffffffffffffffffffffffffffffffffff168152602001908152602001600020600501898154811061241c5761241b615250565b5b90600052602060002090600402016003018190555061247e600760003373ffffffffffffffffffffffffffffffffffffffff1673ffffffffffffffffffffffffffffffffffffffff1681526020019081526020016000206004015460016140f1565b600760003373ffffffffffffffffffffffffffffffffffffffff1673ffffffffffffffffffffffffffffffffffffffff168152602001908152602001600020600401819055506124f4600889815481106124db576124da615250565b5b90600052602060002090600b02016005015460016140f1565b6008898154811061250857612507615250565b5b90600052602060002090600b020160050181905550877ffc94567f8570ffc605741a9414d18afce2f7a39ec1e0e0f6cb3339862d0e492160088a8154811061255357612552615250565b5b90600052602060002090600b0201600101600760003373ffffffffffffffffffffffffffffffffffffffff1673ffffffffffffffffffffffffffffffffffffffff1681526020019081526020016000206001018c6040516125b6939291906154c8565b60405180910390a2505050505050505050565b6060600760008373ffffffffffffffffffffffffffffffffffffffff1673ffffffffffffffffffffffffffffffffffffffff168152602001908152602001600020600501838154811061261f5761261e615250565b5b906000526020600020906004020160020180548060200260200160405190810160405280929190818152602001828054801561267a57602002820191906000526020600020905b815481526020019060010190808311612666575b5050505050905092915050565b6000600560008373ffffffffffffffffffffffffffffffffffffffff1673ffffffffffffffffffffffffffffffffffffffff168152602001908152602001600020549050919050565b60008054906101000a900473ffffffffffffffffffffffffffffffffffffffff1673ffffffffffffffffffffffffffffffffffffffff163373ffffffffffffffffffffffffffffffffffffffff161461275e576040517f08c379a000000000000000000000000000000000000000000000000000000000815260040161275590615230565b60405180910390fd5b600b8490806001815401808255809150506001900390600052602060002001600090919091909150908051906020019061279992919061452d565b50600c839080600181540180825580915050600190039060005260206000200160009091909190915090805190602001906127d592919061452d565b50600d8290806001815401808255809150506001900390600052602060002001600090919091909150908051906020019061281192919061452d565b50600e81908060018154018082558091505060019003906000526020600020016000909190919091505550505050565b60606008828154811061285757612856615250565b5b90600052602060002090600b02016007018054806020026020016040519081016040528092919081815260200182805480156128e857602002820191906000526020600020905b8160009054906101000a900473ffffffffffffffffffffffffffffffffffffffff1673ffffffffffffffffffffffffffffffffffffffff168152602001906001019080831161289e575b50505050509050919050565b600e818154811061290457600080fd5b906000526020600020016000915090505481565b600c818154811061292857600080fd5b906000526020600020016000915090508054612943906151b2565b80601f016020809104026020016040519081016040528092919081815260200182805461296f906151b2565b80156129bc5780601f10612991576101008083540402835291602001916129bc565b820191906000526020600020905b81548152906001019060200180831161299f57829003601f168201915b505050505081565b6060600060038111156129da576129d9614e35565b5b600883815481106129ee576129ed615250565b5b90600052602060002090600b020160080160009054906101000a900460ff166003811115612a1f57612a1e614e35565b5b1415612a62576040518060400160405280600981526020017f4e6f7420537461727400000000000000000000000000000000000000000000008152509050612bd3565b60016003811115612a7657612a75614e35565b5b60088381548110612a8a57612a89615250565b5b90600052602060002090600b020160080160009054906101000a900460ff166003811115612abb57612aba614e35565b5b1415612afe576040518060400160405280600781526020017f53746172746564000000000000000000000000000000000000000000000000008152509050612bd3565b60026003811115612b1257612b11614e35565b5b60088381548110612b2657612b25615250565b5b90600052602060002090600b020160080160009054906101000a900460ff166003811115612b5757612b56614e35565b5b1415612b9a576040518060400160405280600681526020017f456e64696e6700000000000000000000000000000000000000000000000000008152509050612bd3565b6040518060400160405280600481526020017f446f6e650000000000000000000000000000000000000000000000000000000081525090505b919050565b60018054612be5906151b2565b80601f0160208091040260200160405190810160405280929190818152602001828054612c11906151b2565b8015612c5e5780601f10612c3357610100808354040283529160200191612c5e565b820191906000526020600020905b815481529060010190602001808311612c4157829003601f168201915b505050505081565b6000600880549050905090565b600082821115612cb8576040517f08c379a0000000000000000000000000000000000000000000000000000000008152600401612caf90615559565b60405180910390fd5b8183612cc49190615373565b905092915050565b60008073d4cfcb5db84c93d8dd7303b82f31f11a4cbfe8039050612d2f600560008373ffffffffffffffffffffffffffffffffffffffff1673ffffffffffffffffffffffffffffffffffffffff1681526020019081526020016000205484612c73565b600560008373ffffffffffffffffffffffffffffffffffffffff1673ffffffffffffffffffffffffffffffffffffffff16815260200190815260200160002081905550612dbb600560008673ffffffffffffffffffffffffffffffffffffffff1673ffffffffffffffffffffffffffffffffffffffff16815260200190815260200160002054846140f1565b600560008673ffffffffffffffffffffffffffffffffffffffff1673ffffffffffffffffffffffffffffffffffffffff168152602001908152602001600020819055508373ffffffffffffffffffffffffffffffffffffffff168173ffffffffffffffffffffffffffffffffffffffff167fddf252ad1be2c89b69c2b068fc378daa952ba7f163c4a11628f55a4df523b3ef85604051612e5b91906148bc565b60405180910390a3600191505092915050565b600060088281548110612e8457612e83615250565b5b90600052602060002090600b0201600901541415612eef57600060088281548110612eb257612eb1615250565b5b90600052602060002090600b020160080160006101000a81548160ff02191690836003811115612ee557612ee4614e35565b5b021790555061307d565b60088181548110612f0357612f02615250565b5b90600052602060002090600b02016009015442118015612f77575060088181548110612f3257612f31615250565b5b90600052602060002090600b0201600a015460088281548110612f5857612f57615250565b5b90600052602060002090600b020160090154612f749190615579565b42105b15612fcf57600160088281548110612f9257612f91615250565b5b90600052602060002090600b020160080160006101000a81548160ff02191690836003811115612fc557612fc4614e35565b5b021790555061307c565b60088181548110612fe357612fe2615250565b5b90600052602060002090600b0201600a01546008828154811061300957613008615250565b5b90600052602060002090600b0201600901546130259190615579565b42111561307b5760026008828154811061304257613041615250565b5b90600052602060002090600b020160080160006101000a81548160ff0219169083600381111561307557613074614e35565b5b02179055505b5b5b50565b60008082116130c4576040517f08c379a00000000000000000000000000000000000000000000000000000000081526004016130bb9061561b565b60405180910390fd5b81836130d0919061566a565b905092915050565b600881815481106130e857600080fd5b90600052602060002090600b0201600091509050806000015490806001018054613111906151b2565b80601f016020809104026020016040519081016040528092919081815260200182805461313d906151b2565b801561318a5780601f1061315f5761010080835404028352916020019161318a565b820191906000526020600020905b81548152906001019060200180831161316d57829003601f168201915b50505050509080600201805461319f906151b2565b80601f01602080910402602001604051908101604052809291908181526020018280546131cb906151b2565b80156132185780601f106131ed57610100808354040283529160200191613218565b820191906000526020600020905b8154815290600101906020018083116131fb57829003601f168201915b505050505090806003015490806004018054613233906151b2565b80601f016020809104026020016040519081016040528092919081815260200182805461325f906151b2565b80156132ac5780601f10613281576101008083540402835291602001916132ac565b820191906000526020600020905b81548152906001019060200180831161328f57829003601f168201915b5050505050908060050154908060060154908060080160009054906101000a900460ff169080600901549080600a015490508a565b6060600760008373ffffffffffffffffffffffffffffffffffffffff1673ffffffffffffffffffffffffffffffffffffffff168152602001908152602001600020600501838154811061333757613336615250565b5b906000526020600020906004020160010180548060200260200160405190810160405280929190818152602001828054801561339257602002820191906000526020600020905b81548152602001906001019080831161337e575b5050505050905092915050565b600082600660003373ffffffffffffffffffffffffffffffffffffffff1673ffffffffffffffffffffffffffffffffffffffff16815260200190815260200160002060008673ffffffffffffffffffffffffffffffffffffffff1673ffffffffffffffffffffffffffffffffffffffff168152602001908152602001600020819055508373ffffffffffffffffffffffffffffffffffffffff163373ffffffffffffffffffffffffffffffffffffffff167f8c5be1e5ebec7d5bd14f71427d1e84f3dd0314c0f7b2291e5b200ac8c7c3b9258560405161347f91906148bc565b60405180910390a38373ffffffffffffffffffffffffffffffffffffffff16638f4ffcb1338587866040518563ffffffff1660e01b81526004016134c694939291906156f0565b600060405180830381600087803b1580156134e057600080fd5b505af11580156134f4573d6000803e3d6000fd5b50505050600190509392505050565b60008183613511919061573c565b9050600083148061352c575081838261352a919061566a565b145b61356b576040517f08c379a0000000000000000000000000000000000000000000000000000000008152600401613562906157e2565b60405180910390fd5b92915050565b6000808054906101000a900473ffffffffffffffffffffffffffffffffffffffff1673ffffffffffffffffffffffffffffffffffffffff168573ffffffffffffffffffffffffffffffffffffffff161415613601576040517f08c379a00000000000000000000000000000000000000000000000000000000081526004016135f89061584e565b60405180910390fd5b600a80805490501115613649576040517f08c379a0000000000000000000000000000000000000000000000000000000008152600401613640906158e0565b60405180910390fd5b60005b600a805490508110156136e757600a818154811061366d5761366c615250565b5b9060005260206000200160009054906101000a900473ffffffffffffffffffffffffffffffffffffffff1673ffffffffffffffffffffffffffffffffffffffff168673ffffffffffffffffffffffffffffffffffffffff1614156136d457600191506136e7565b80806136df90615413565b91505061364c565b5080613ac757600a859080600181540180825580915050600190039060005260206000200160009091909190916101000a81548173ffffffffffffffffffffffffffffffffffffffff021916908373ffffffffffffffffffffffffffffffffffffffff16021790555084600760008773ffffffffffffffffffffffffffffffffffffffff1673ffffffffffffffffffffffffffffffffffffffff16815260200190815260200160002060000160006101000a81548173ffffffffffffffffffffffffffffffffffffffff021916908373ffffffffffffffffffffffffffffffffffffffff16021790555083600760008773ffffffffffffffffffffffffffffffffffffffff1673ffffffffffffffffffffffffffffffffffffffff168152602001908152602001600020600101908051906020019061382792919061452d565b5082600760008773ffffffffffffffffffffffffffffffffffffffff1673ffffffffffffffffffffffffffffffffffffffff168152602001908152602001600020600201908051906020019061387e92919061452d565b5081600760008773ffffffffffffffffffffffffffffffffffffffff1673ffffffffffffffffffffffffffffffffffffffff16815260200190815260200160002060030190805190602001906138d592919061452d565b506000600760008773ffffffffffffffffffffffffffffffffffffffff1673ffffffffffffffffffffffffffffffffffffffff1681526020019081526020016000206004018190555060005b600954811015613ac15760006040518060800160405280838152602001600f80548060200260200160405190810160405280929190818152602001828054801561398a57602002820191906000526020600020905b815481526020019060010190808311613976575b5050505050815260200160108054806020026020016040519081016040528092919081815260200182805480156139e057602002820191906000526020600020905b8154815260200190600101908083116139cc575b5050505050815260200160008152509050600760008873ffffffffffffffffffffffffffffffffffffffff1673ffffffffffffffffffffffffffffffffffffffff168152602001908152602001600020600501819080600181540180825580915050600190039060005260206000209060040201600090919091909150600082015181600001556020820151816001019080519060200190613a839291906145b3565b506040820151816002019080519060200190613aa09291906145b3565b50606082015181600301555050508080613ab990615413565b915050613921565b50613b02565b6040517f08c379a0000000000000000000000000000000000000000000000000000000008152600401613af99061594c565b60405180910390fd5b5050505050565b6000600660008473ffffffffffffffffffffffffffffffffffffffff1673ffffffffffffffffffffffffffffffffffffffff16815260200190815260200160002060008373ffffffffffffffffffffffffffffffffffffffff1673ffffffffffffffffffffffffffffffffffffffff16815260200190815260200160002054905092915050565b60005b600c805490508110156140ee57600080600090505b600880549050811015613d3257613d1260088281548110613bcc57613bcb615250565b5b90600052602060002090600b02016002018054613be8906151b2565b80601f0160208091040260200160405190810160405280929190818152602001828054613c14906151b2565b8015613c615780601f10613c3657610100808354040283529160200191613c61565b820191906000526020600020905b815481529060010190602001808311613c4457829003601f168201915b5050505050600c8581548110613c7a57613c79615250565b5b906000526020600020018054613c8f906151b2565b80601f0160208091040260200160405190810160405280929190818152602001828054613cbb906151b2565b8015613d085780601f10613cdd57610100808354040283529160200191613d08565b820191906000526020600020905b815481529060010190602001808311613ceb57829003601f168201915b5050505050614449565b91508115613d1f57613d32565b8080613d2a90615413565b915050613ba8565b50806140da576060806008604051806101600160405280868152602001600b8781548110613d6357613d62615250565b5b906000526020600020018054613d78906151b2565b80601f0160208091040260200160405190810160405280929190818152602001828054613da4906151b2565b8015613df15780601f10613dc657610100808354040283529160200191613df1565b820191906000526020600020905b815481529060010190602001808311613dd457829003601f168201915b50505050508152602001600c8781548110613e0f57613e0e615250565b5b906000526020600020018054613e24906151b2565b80601f0160208091040260200160405190810160405280929190818152602001828054613e50906151b2565b8015613e9d5780601f10613e7257610100808354040283529160200191613e9d565b820191906000526020600020905b815481529060010190602001808311613e8057829003601f168201915b50505050508152602001600e8781548110613ebb57613eba615250565b5b90600052602060002001548152602001600d8781548110613edf57613ede615250565b5b906000526020600020018054613ef4906151b2565b80601f0160208091040260200160405190810160405280929190818152602001828054613f20906151b2565b8015613f6d5780601f10613f4257610100808354040283529160200191613f6d565b820191906000526020600020905b815481529060010190602001808311613f5057829003601f168201915b50505050508152602001600081526020016000815260200183815260200160006003811115613f9f57613f9e614e35565b5b81526020016000815260200161025881525090806001815401808255809150506001900390600052602060002090600b020160009091909190915060008201518160000155602082015181600101908051906020019061400092919061452d565b50604082015181600201908051906020019061401d92919061452d565b5060608201518160030155608082015181600401908051906020019061404492919061452d565b5060a0820151816005015560c0820151816006015560e0820151816007019080519060200190614075929190614600565b506101008201518160080160006101000a81548160ff021916908360038111156140a2576140a1614e35565b5b0217905550610120820151816009015561014082015181600a01555050600960008154809291906140d290615413565b919050555050505b5080806140e690615413565b915050613b93565b50565b600081836140ff9190615579565b905082811015614144576040517f08c379a000000000000000000000000000000000000000000000000000000000815260040161413b906159b8565b60405180910390fd5b92915050565b60008054906101000a900473ffffffffffffffffffffffffffffffffffffffff1673ffffffffffffffffffffffffffffffffffffffff163373ffffffffffffffffffffffffffffffffffffffff16146141d8576040517f08c379a00000000000000000000000000000000000000000000000000000000081526004016141cf90615230565b60405180910390fd5b6002600882815481106141ee576141ed615250565b5b90600052602060002090600b020160080160006101000a81548160ff0219169083600381111561422157614220614e35565b5b0217905550807f59aa868b6aec147bb867da96fc0722ac554fcb1658ec8ac50a51d08a192f04726008838154811061425c5761425b615250565b5b90600052602060002090600b02016001016008848154811061428157614280615250565b5b90600052602060002090600b0201600301546040516142a1929190615314565b60405180910390a250565b600f81815481106142bc57600080fd5b906000526020600020016000915090505481565b600a81815481106142e057600080fd5b906000526020600020016000915054906101000a900473ffffffffffffffffffffffffffffffffffffffff1681565b60008054906101000a900473ffffffffffffffffffffffffffffffffffffffff1681565b60008060009050836008848154811061434f5761434e615250565b5b90600052602060002090600b02016003015411156143d5576143ce6143a361439c6008868154811061438457614383615250565b5b90600052602060002090600b02016003015487612c73565b6064613503565b600885815481106143b7576143b6615250565b5b90600052602060002090600b020160030154613080565b905061443f565b61443c61441161440a86600887815481106143f3576143f2615250565b5b90600052602060002090600b020160030154612c73565b6064613503565b6008858154811061442557614424615250565b5b90600052602060002090600b020160030154613080565b90505b8091505092915050565b60008083905060008390506000825190508151811461446e5760009350505050614527565b60005b8181101561451e5782818151811061448c5761448b615250565b5b602001015160f81c60f81b7effffffffffffffffffffffffffffffffffffffffffffffffffffffffffffff19168482815181106144cc576144cb615250565b5b602001015160f81c60f81b7effffffffffffffffffffffffffffffffffffffffffffffffffffffffffffff19161461450b576000945050505050614527565b808061451690615413565b915050614471565b50600193505050505b92915050565b828054614539906151b2565b90600052602060002090601f01602090048101928261455b57600085556145a2565b82601f1061457457805160ff19168380011785556145a2565b828001600101855582156145a2579182015b828111156145a1578251825591602001919060010190614586565b5b5090506145af919061468a565b5090565b8280548282559060005260206000209081019282156145ef579160200282015b828111156145ee5782518255916020019190600101906145d3565b5b5090506145fc919061468a565b5090565b828054828255906000526020600020908101928215614679579160200282015b828111156146785782518260006101000a81548173ffffffffffffffffffffffffffffffffffffffff021916908373ffffffffffffffffffffffffffffffffffffffff16021790555091602001919060010190614620565b5b509050614686919061468a565b5090565b5b808211156146a357600081600090555060010161468b565b5090565b600081519050919050565b600082825260208201905092915050565b60005b838110156146e15780820151818401526020810190506146c6565b838111156146f0576000848401525b50505050565b6000601f19601f8301169050919050565b6000614712826146a7565b61471c81856146b2565b935061472c8185602086016146c3565b614735816146f6565b840191505092915050565b6000602082019050818103600083015261475a8184614707565b905092915050565b6000604051905090565b600080fd5b600080fd5b600073ffffffffffffffffffffffffffffffffffffffff82169050919050565b60006147a182614776565b9050919050565b6147b181614796565b81146147bc57600080fd5b50565b6000813590506147ce816147a8565b92915050565b6000819050919050565b6147e7816147d4565b81146147f257600080fd5b50565b600081359050614804816147de565b92915050565b600080604083850312156148215761482061476c565b5b600061482f858286016147bf565b9250506020614840858286016147f5565b9150509250929050565b60008115159050919050565b61485f8161484a565b82525050565b600060208201905061487a6000830184614856565b92915050565b6000602082840312156148965761489561476c565b5b60006148a4848285016147f5565b91505092915050565b6148b6816147d4565b82525050565b60006020820190506148d160008301846148ad565b92915050565b6000806000606084860312156148f0576148ef61476c565b5b60006148fe868287016147bf565b935050602061490f868287016147bf565b9250506040614920868287016147f5565b9150509250925092565b600080604083850312156149415761494061476c565b5b600061494f858286016147f5565b9250506020614960858286016147f5565b9150509250929050565b600060ff82169050919050565b6149808161496a565b82525050565b600060208201905061499b6000830184614977565b92915050565b6000602082840312156149b7576149b661476c565b5b60006149c5848285016147bf565b91505092915050565b6149d781614796565b82525050565b600060a0820190506149f260008301886149ce565b8181036020830152614a048187614707565b90508181036040830152614a188186614707565b90508181036060830152614a2c8185614707565b9050614a3b60808301846148ad565b9695505050505050565b600081519050919050565b600082825260208201905092915050565b6000819050602082019050919050565b614a7a81614796565b82525050565b6000614a8c8383614a71565b60208301905092915050565b6000602082019050919050565b6000614ab082614a45565b614aba8185614a50565b9350614ac583614a61565b8060005b83811015614af6578151614add8882614a80565b9750614ae883614a98565b925050600181019050614ac9565b5085935050505092915050565b60006020820190508181036000830152614b1d8184614aa5565b905092915050565b60008060408385031215614b3c57614b3b61476c565b5b6000614b4a858286016147f5565b9250506020614b5b858286016147bf565b9150509250929050565b600081519050919050565b600082825260208201905092915050565b6000819050602082019050919050565b614b9a816147d4565b82525050565b6000614bac8383614b91565b60208301905092915050565b6000602082019050919050565b6000614bd082614b65565b614bda8185614b70565b9350614be583614b81565b8060005b83811015614c16578151614bfd8882614ba0565b9750614c0883614bb8565b925050600181019050614be9565b5085935050505092915050565b60006020820190508181036000830152614c3d8184614bc5565b905092915050565b600080fd5b600080fd5b7f4e487b7100000000000000000000000000000000000000000000000000000000600052604160045260246000fd5b614c87826146f6565b810181811067ffffffffffffffff82111715614ca657614ca5614c4f565b5b80604052505050565b6000614cb9614762565b9050614cc58282614c7e565b919050565b600067ffffffffffffffff821115614ce557614ce4614c4f565b5b614cee826146f6565b9050602081019050919050565b82818337600083830152505050565b6000614d1d614d1884614cca565b614caf565b905082815260208101848484011115614d3957614d38614c4a565b5b614d44848285614cfb565b509392505050565b600082601f830112614d6157614d60614c45565b5b8135614d71848260208601614d0a565b91505092915050565b60008060008060808587031215614d9457614d9361476c565b5b600085013567ffffffffffffffff811115614db257614db1614771565b5b614dbe87828801614d4c565b945050602085013567ffffffffffffffff811115614ddf57614dde614771565b5b614deb87828801614d4c565b935050604085013567ffffffffffffffff811115614e0c57614e0b614771565b5b614e1887828801614d4c565b9250506060614e29878288016147f5565b91505092959194509250565b7f4e487b7100000000000000000000000000000000000000000000000000000000600052602160045260246000fd5b60048110614e7557614e74614e35565b5b50565b6000819050614e8682614e64565b919050565b6000614e9682614e78565b9050919050565b614ea681614e8b565b82525050565b600061014082019050614ec2600083018d6148ad565b8181036020830152614ed4818c614707565b90508181036040830152614ee8818b614707565b9050614ef7606083018a6148ad565b8181036080830152614f098189614707565b9050614f1860a08301886148ad565b614f2560c08301876148ad565b614f3260e0830186614e9d565b614f406101008301856148ad565b614f4e6101208301846148ad565b9b9a5050505050505050505050565b600067ffffffffffffffff821115614f7857614f77614c4f565b5b614f81826146f6565b9050602081019050919050565b6000614fa1614f9c84614f5d565b614caf565b905082815260208101848484011115614fbd57614fbc614c4a565b5b614fc8848285614cfb565b509392505050565b600082601f830112614fe557614fe4614c45565b5b8135614ff5848260208601614f8e565b91505092915050565b6000806000606084860312156150175761501661476c565b5b6000615025868287016147bf565b9350506020615036868287016147f5565b925050604084013567ffffffffffffffff81111561505757615056614771565b5b61506386828701614fd0565b9150509250925092565b600080600080608085870312156150875761508661476c565b5b6000615095878288016147bf565b945050602085013567ffffffffffffffff8111156150b6576150b5614771565b5b6150c287828801614d4c565b935050604085013567ffffffffffffffff8111156150e3576150e2614771565b5b6150ef87828801614d4c565b925050606085013567ffffffffffffffff8111156151105761510f614771565b5b61511c87828801614d4c565b91505092959194509250565b6000806040838503121561513f5761513e61476c565b5b600061514d858286016147bf565b925050602061515e858286016147bf565b9150509250929050565b600060208201905061517d60008301846149ce565b92915050565b7f4e487b7100000000000000000000000000000000000000000000000000000000600052602260045260246000fd5b600060028204905060018216806151ca57607f821691505b602082108114156151de576151dd615183565b5b50919050565b7f4f6e6c792061646d696e2063616e20736f6c7665000000000000000000000000600082015250565b600061521a6014836146b2565b9150615225826151e4565b602082019050919050565b600060208201905081810360008301526152498161520d565b9050919050565b7f4e487b7100000000000000000000000000000000000000000000000000000000600052603260045260246000fd5b60008190508160005260206000209050919050565b600081546152a1816151b2565b6152ab81866146b2565b945060018216600081146152c657600181146152d85761530b565b60ff198316865260208601935061530b565b6152e18561527f565b60005b83811015615303578154818901526001820191506020810190506152e4565b808801955050505b50505092915050565b6000604082019050818103600083015261532e8185615294565b905061533d60208301846148ad565b9392505050565b7f4e487b7100000000000000000000000000000000000000000000000000000000600052601160045260246000fd5b600061537e826147d4565b9150615389836147d4565b92508282101561539c5761539b615344565b5b828203905092915050565b7f57726f6e6720737461747573206f66207365737374696f6e0000000000000000600082015250565b60006153dd6018836146b2565b91506153e8826153a7565b602082019050919050565b6000602082019050818103600083015261540c816153d0565b9050919050565b600061541e826147d4565b91507fffffffffffffffffffffffffffffffffffffffffffffffffffffffffffffffff82141561545157615450615344565b5b600182019050919050565b7f4e6f74206f6e6c792061646d696e000000000000000000000000000000000000600082015250565b6000615492600e836146b2565b915061549d8261545c565b602082019050919050565b600060208201905081810360008301526154c181615485565b9050919050565b600060608201905081810360008301526154e28186615294565b905081810360208301526154f68185615294565b905061550560408301846148ad565b949350505050565b7f7361666553756200000000000000000000000000000000000000000000000000600082015250565b60006155436007836146b2565b915061554e8261550d565b602082019050919050565b6000602082019050818103600083015261557281615536565b9050919050565b6000615584826147d4565b915061558f836147d4565b9250827fffffffffffffffffffffffffffffffffffffffffffffffffffffffffffffffff038211156155c4576155c3615344565b5b828201905092915050565b7f7361666544697600000000000000000000000000000000000000000000000000600082015250565b60006156056007836146b2565b9150615610826155cf565b602082019050919050565b60006020820190508181036000830152615634816155f8565b9050919050565b7f4e487b7100000000000000000000000000000000000000000000000000000000600052601260045260246000fd5b6000615675826147d4565b9150615680836147d4565b9250826156905761568f61563b565b5b828204905092915050565b600081519050919050565b600082825260208201905092915050565b60006156c28261569b565b6156cc81856156a6565b93506156dc8185602086016146c3565b6156e5816146f6565b840191505092915050565b600060808201905061570560008301876149ce565b61571260208301866148ad565b61571f60408301856149ce565b818103606083015261573181846156b7565b905095945050505050565b6000615747826147d4565b9150615752836147d4565b9250817fffffffffffffffffffffffffffffffffffffffffffffffffffffffffffffffff048311821515161561578b5761578a615344565b5b828202905092915050565b7f736166654d756c00000000000000000000000000000000000000000000000000600082015250565b60006157cc6007836146b2565b91506157d782615796565b602082019050919050565b600060208201905081810360008301526157fb816157bf565b9050919050565b7f4163636f756e74206f662061646d696e2063616e277420726567697374657200600082015250565b6000615838601f836146b2565b915061584382615802565b602082019050919050565b600060208201905081810360008301526158678161582b565b9050919050565b7f546865206e756d626572206f66207061727469636970616e7473206973206c6560008201527f7373207468616e2074656e2e0000000000000000000000000000000000000000602082015250565b60006158ca602c836146b2565b91506158d58261586e565b604082019050919050565b600060208201905081810360008301526158f9816158bd565b9050919050565b7f546869732061646472657373205265616c6c7920657869737465640000000000600082015250565b6000615936601b836146b2565b915061594182615900565b602082019050919050565b6000602082019050818103600083015261596581615929565b9050919050565b7f7361666541646400000000000000000000000000000000000000000000000000600082015250565b60006159a26007836146b2565b91506159ad8261596c565b602082019050919050565b600060208201905081810360008301526159d181615995565b905091905056fea2646970667358221220eeef198c3942300f9e67dbd606c578f17c93418ba7f851cb7113462947855a1864736f6c634300080a0033516d4e7156597448346d584736394c6e4159453478793168676666315a6b594274765663434479413452506936694c757875727920686967682d636c617373202d20556e6971756520616e64206174747261637469766520636f6c6f72732e3c62722f3e54616b652070726f66657373696f6e616c2070686f746f73202d20536574206f6620332063616d65726173207468617420737570706f7274205a6f6f6d20617320666172206173203330582e3c62722f3e54616b65206e6f74657320717569636b6c7920616e642061636375726174656c79207769746820746865206e65772067656e65726174696f6e20532d50656e2e3c62722f3e556c74696d6174652067616d696e67202d20506f77657266756c20376e6d204578796e6f73203939302c206f75747374616e64696e672070726f63657373696e6720706572666f726d616e63652e3c62722f3e53616d73756e67204e6f746520323020556c7472612035472070686f6e65202d204c75787572792c206f75747374616e64696e6720706572666f726d616e63652e3c62722f3e4d6f6e6f6c697468696320616c756d696e756d206672616d652064657369676e2c206c75787572696f75732074656d706572656420676c617373206261636b2e",
  "immutableReferences": {},
  "source": "pragma solidity >=0.4.0 <0.9.0;\r\nimport \"./Main.sol\";\r\nimport \"./TokenERC20.sol\";\r\ncontract Session is Main, TokenERC20{\r\n    //Set Data for items object\r\n    struct Items{\r\n        uint IdItem;\r\n        string nameItem;\r\n        string imageHash;\r\n        uint firstPrice;\r\n        string itemDescription;\r\n        uint countPaticipantJoinSesstion;\r\n        uint valueChangePricing;\r\n        address[] checkAccount;\r\n        StatusSesstion statusSesstion;\r\n        uint timeSesstionEachOtherproduct;\r\n        uint timeFinishSesstionEachOtherproduct;\r\n    }\r\n    //Reference paticipants throw address\r\n    mapping(address => Paticipant) public paticipants;\r\n    //List items\r\n    Items[] public itemsList;\r\n    //Count number items\r\n    uint public index = 0;\r\n    //List address of paticipants\r\n    address[] public totalAccounts;\r\n    //List name of items\r\n    string[] public listNameOfItems = [\"Samsung Galaxy Note20\"];\r\n    //List hashImage of items\r\n    string[] public listHashImage = [\"QmNqVYtH4mXG69LnAYE4xy1hgff1ZkYBtvVcCDyA4RPi6i\"];\r\n    //List information of image of items\r\n    string[] public listInformationOfImage = [\"Luxury high-class - Unique and attractive colors.<br/>Take professional photos - Set of 3 cameras that support Zoom as far as 30X.<br/>Take notes quickly and accurately with the new generation S-Pen.<br/>Ultimate gaming - Powerful 7nm Exynos 990, outstanding processing performance.<br/>Samsung Note 20 Ultra 5G phone - Luxury, outstanding performance.<br/>Monolithic aluminum frame design, luxurious tempered glass back.\"];\r\n    //List price of item\r\n    uint[] public listPrice = [930];\r\n    //Empty array\r\n    uint[] public emptyArray1 = [0];\r\n    uint[] public emptyArray2 = [0];\r\n    \r\n    //Modifiler check status of session\r\n    modifier checkStatus(StatusSesstion _statusSesstion, uint _IdItem){\r\n        require(itemsList[_IdItem].statusSesstion == _statusSesstion, \"Wrong status of sesstion\");\r\n        _;\r\n    }\r\n    //Event start session\r\n    event LogStartSession(uint indexed _IdItems, string _nameItem, uint _firstPrice);\r\n    //Event stop session\r\n    event LogStopSession(uint indexed _IdItems, string _nameItem, uint _firstPrice);\r\n    //Event changePriceSession\r\n    event LogChainPriceOfSession(uint indexed _IdItems, string _nameItem, string _fullName, uint _valueChangePricing);\r\n\r\n    constructor(){\r\n        addData();\r\n    }\r\n    //Add element of items to array\r\n    function createNewItem(string memory _nameItem, string memory _imageHash, string memory _itemDescription, uint _firstPrice) public onlyAdmin {\r\n        listNameOfItems.push(_nameItem);\r\n        listHashImage.push(_imageHash);\r\n        listInformationOfImage.push(_itemDescription);\r\n        listPrice.push(_firstPrice);\r\n    }\r\n    //Add item to itemsList\r\n    function addData() public{\r\n        \r\n        for(uint i = 0 ; i < listHashImage.length ; i++){\r\n            bool statusAdd;\r\n            for(uint j = 0 ; j < itemsList.length ; j++){\r\n               statusAdd = stringsEquals(itemsList[j].imageHash, listHashImage[i]);\r\n               if(statusAdd){\r\n                   break;\r\n               }\r\n            }\r\n            if(!statusAdd){\r\n                uint[] memory emptyArray;\r\n                address[] memory amptyAddressArray;\r\n                itemsList.push(Items(i, listNameOfItems[i], listHashImage[i], listPrice[i], listInformationOfImage[i],  0, 0, amptyAddressArray, StatusSesstion.START, 0, 600));\r\n                index++;\r\n            }  \r\n        }\r\n    }\r\n    //Convert status session to string\r\n    function convertStateToString(uint _IdItem) public view returns(string memory){\r\n        if(itemsList[_IdItem].statusSesstion == StatusSesstion.START){\r\n            return \"Not Start\";\r\n        }else{\r\n            if(itemsList[_IdItem].statusSesstion == StatusSesstion.PRICING){\r\n                return \"Started\";\r\n            }else{\r\n               if(itemsList[_IdItem].statusSesstion == StatusSesstion.ENDING){\r\n                  return \"Ending\";\r\n               }else{\r\n                    return \"Done\";\r\n               }\r\n            }\r\n        }\r\n    }\r\n    //Check same data\r\n    function stringsEquals(string memory s1, string memory s2) private pure returns (bool) {\r\n        bytes memory b1 = bytes(s1);\r\n        bytes memory b2 = bytes(s2);\r\n        uint256 l1 = b1.length;\r\n        if (l1 != b2.length) return false;\r\n        for (uint256 i=0; i<l1; i++) {\r\n            if (b1[i] != b2[i]) return false;\r\n        }\r\n        return true;\r\n    }\r\n    //get length of items\r\n    function getLengthItems() public view returns(uint) {\r\n        return itemsList.length;\r\n    }\r\n    //stop session\r\n    function stopSesstion(uint _IdItem) public onlyAdmin {\r\n        itemsList[_IdItem].statusSesstion = StatusSesstion.ENDING;\r\n        emit LogStopSession(_IdItem,  itemsList[_IdItem].nameItem,  itemsList[_IdItem].firstPrice);\r\n    }\r\n    //statr session\r\n    function startSesstion(uint _IdItem) public onlyAdmin {\r\n        itemsList[_IdItem].statusSesstion = StatusSesstion.PRICING;\r\n        itemsList[_IdItem].timeSesstionEachOtherproduct = block.timestamp;\r\n        emit LogStartSession(_IdItem,  itemsList[_IdItem].nameItem,  itemsList[_IdItem].firstPrice);\r\n    }\r\n    // set final price for items\r\n    function setFinalPriceOfItem(uint _IdItem, uint _price) public onlyAdmin {\r\n         itemsList[_IdItem].firstPrice = _price;\r\n         itemsList[_IdItem].statusSesstion = StatusSesstion.DONE;\r\n    }\r\n    //Show the price proposal each item\r\n    function showDataPrice(uint _IdItem, address _address) public view returns(uint[] memory){\r\n        return paticipants[_address].listDataChange[_IdItem].priceDeviation;\r\n    }\r\n    //Show the accumulated Deviation\r\n    function showDataDeviation(uint _IdItem, address _address) public view returns(uint[] memory){\r\n        return paticipants[_address].listDataChange[_IdItem].valueChangePricingOtherPaticipant;\r\n    }\r\n    //Show all address join pricing product\r\n    function getAddressChangedPriceOfItems(uint _IdItem) public view returns(address[] memory){\r\n         return itemsList[_IdItem].checkAccount;\r\n    }\r\n    //Show all address to register account\r\n    function getAddressUserRegister() public onlyAdmin view returns(address[] memory){\r\n        return totalAccounts;\r\n    }\r\n    //Register new account\r\n    function registerAccount(address _address, string memory _fullName, string memory _email, string memory _passwordAccount) public{\r\n    //Check account exist    \r\n        bool checkStatusAddress = false;\r\n        if(_address == admin){\r\n            revert(\"Account of admin can't register\");\r\n        }\r\n    //Check total account less then ten account    \r\n        if(totalAccounts.length > 10){\r\n            revert(\"The number of participants is less than ten.\");\r\n        }else{\r\n            for(uint i = 0; i < totalAccounts.length; i++){\r\n                if(_address == totalAccounts[i]){\r\n                    checkStatusAddress = true;\r\n                    break;\r\n                }\r\n            }\r\n            if(!checkStatusAddress){\r\n     //Set data for paticipant           \r\n                totalAccounts.push(_address); \r\n                paticipants[_address].addressAccount = _address;\r\n                paticipants[_address].fullName = _fullName;\r\n                paticipants[_address].email = _email;\r\n                paticipants[_address].passwordAccount = _passwordAccount;\r\n                paticipants[_address].countPricedSesstion = 0;\r\n     //Set data items for paticipant           \r\n                for(uint i = 0 ; i < index ; i++){\r\n                    DataChange memory dataChange = DataChange({IdItem: i, priceDeviation: emptyArray1, valueChangePricingOtherPaticipant: emptyArray2 , numberChangePricingOtherPaticipant: 0});\r\n                    paticipants[_address].listDataChange.push(dataChange);\r\n                }\r\n            }else{\r\n                revert(\"This address Really existed\");\r\n            }\r\n        }   \r\n    }  \r\n    //get price proposol each other item/product\r\n    function getProposedPrice(uint _IdItem) public{\r\n    //Stautus of session is ENDING   \r\n        if(itemsList[_IdItem].statusSesstion != StatusSesstion.ENDING){\r\n            revert(\"Wrong status of sesstion\");\r\n        }\r\n        uint totalPriceOfPaticipantAbove;\r\n    //Get number items\r\n        uint numberPaticipantJoneSestion = itemsList[_IdItem].checkAccount.length;\r\n        for(uint i = 0 ; i < numberPaticipantJoneSestion ; i++){\r\n              uint lengthPriceDeviation = paticipants[itemsList[_IdItem].checkAccount[i]].listDataChange[_IdItem].numberChangePricingOtherPaticipant;\r\n              totalPriceOfPaticipantAbove = safeAdd(totalPriceOfPaticipantAbove, safeMul(paticipants[itemsList[_IdItem].checkAccount[i]].listDataChange[_IdItem].priceDeviation[lengthPriceDeviation],  safeSub(100, (paticipants[itemsList[_IdItem].checkAccount[i]].listDataChange[_IdItem].valueChangePricingOtherPaticipant[lengthPriceDeviation]))));  \r\n        }    \r\n        uint totalPriceOfPaticipantUnderLeft = safeMul(100, numberPaticipantJoneSestion);    \r\n        uint totalPriceOfPaticipantUnderRight;\r\n        for(uint i = 0 ; i < numberPaticipantJoneSestion ; i++){\r\n              uint lengthPriceDeviation = paticipants[itemsList[_IdItem].checkAccount[i]].listDataChange[_IdItem].numberChangePricingOtherPaticipant;\r\n              totalPriceOfPaticipantUnderRight = safeAdd(totalPriceOfPaticipantUnderRight, paticipants[ itemsList[_IdItem].checkAccount[i]].listDataChange[_IdItem].valueChangePricingOtherPaticipant[lengthPriceDeviation]);\r\n        }\r\n        uint result = safeDiv(totalPriceOfPaticipantAbove, safeSub(totalPriceOfPaticipantUnderLeft, totalPriceOfPaticipantUnderRight));\r\n    //Set price proposal for items\r\n        itemsList[_IdItem].valueChangePricing = result;\r\n    }\r\n    //Calculate accumulated deviation each participants\r\n    function accumulatedDeviation(uint _newPriceOfParticipan, uint _IdItem) public notOnlyAdmin checkStatus(StatusSesstion.PRICING, _IdItem){\r\n        if(itemsList[_IdItem].checkAccount.length == 0){\r\n            transfer(paticipants[msg.sender].addressAccount, 10);\r\n            itemsList[_IdItem].checkAccount.push(msg.sender);\r\n        }else{\r\n            for(uint i = 0 ; i < itemsList[_IdItem].checkAccount.length; i++){\r\n                if(itemsList[_IdItem].checkAccount[i] == msg.sender){\r\n                    status = true;\r\n                    break;\r\n                }\r\n            }\r\n            if(status == false){\r\n                itemsList[_IdItem].checkAccount.push(msg.sender);\r\n                transfer(paticipants[msg.sender].addressAccount, 10);\r\n            }else{\r\n                status = false;\r\n            }\r\n        }\r\n        uint calNewPriceOfParticipant = calculatingDeviation(_newPriceOfParticipan, _IdItem);\r\n        uint lengthPriceDeviation = paticipants[msg.sender].listDataChange[_IdItem].numberChangePricingOtherPaticipant;\r\n        uint numberPaticipant = paticipants[msg.sender].listDataChange[_IdItem].numberChangePricingOtherPaticipant;\r\n        uint currentPriceDeviation = paticipants[msg.sender].listDataChange[_IdItem].valueChangePricingOtherPaticipant[lengthPriceDeviation];\r\n        uint value = safeDiv(safeAdd(safeMul(currentPriceDeviation, numberPaticipant), calNewPriceOfParticipant), safeAdd(numberPaticipant, 1));\r\n        paticipants[msg.sender].listDataChange[_IdItem].valueChangePricingOtherPaticipant.push(value);\r\n        paticipants[msg.sender].listDataChange[_IdItem].priceDeviation.push(_newPriceOfParticipan);\r\n        paticipants[msg.sender].listDataChange[_IdItem].numberChangePricingOtherPaticipant = safeAdd(paticipants[msg.sender].listDataChange[_IdItem].numberChangePricingOtherPaticipant, 1);\r\n        paticipants[msg.sender].countPricedSesstion = safeAdd(paticipants[msg.sender].countPricedSesstion, 1);\r\n        itemsList[_IdItem].countPaticipantJoinSesstion = safeAdd(itemsList[_IdItem].countPaticipantJoinSesstion, 1);\r\n        emit LogChainPriceOfSession(_IdItem, itemsList[_IdItem].nameItem,  paticipants[msg.sender].fullName, _newPriceOfParticipan);\r\n    }\r\n    //Calculate Deviation \r\n    function calculatingDeviation(uint _priceOfParticipan, uint _IdItem) internal view returns (uint){\r\n        uint newPriceDeviation = 0;\r\n        if(itemsList[_IdItem].firstPrice > _priceOfParticipan){\r\n            newPriceDeviation = safeDiv(safeMul(safeSub(itemsList[_IdItem].firstPrice, _priceOfParticipan), 100), itemsList[_IdItem].firstPrice);\r\n        }else{\r\n            newPriceDeviation = safeDiv(safeMul(safeSub(_priceOfParticipan, itemsList[_IdItem].firstPrice), 100), itemsList[_IdItem].firstPrice);\r\n        }\r\n        return uint(newPriceDeviation);\r\n    }\r\n    //Set status for session\r\n    function timeOutOfSesstion(uint _IdItem) public{\r\n        if(itemsList[_IdItem].timeSesstionEachOtherproduct == 0){\r\n             itemsList[_IdItem].statusSesstion = StatusSesstion.START;\r\n        }else{\r\n            if(block.timestamp > itemsList[_IdItem].timeSesstionEachOtherproduct && block.timestamp < itemsList[_IdItem].timeSesstionEachOtherproduct +itemsList[_IdItem].timeFinishSesstionEachOtherproduct){\r\n                itemsList[_IdItem].statusSesstion = StatusSesstion.PRICING;\r\n            }else{\r\n                if(block.timestamp > itemsList[_IdItem].timeSesstionEachOtherproduct + itemsList[_IdItem].timeFinishSesstionEachOtherproduct){\r\n                    itemsList[_IdItem].statusSesstion = StatusSesstion.ENDING;\r\n                }\r\n            }\r\n        }\r\n        \r\n    }\r\n}",
  "sourcePath": "C:\\Users\\Admin\\OneDrive\\My tnh\\FunixPriceChanging\\contracts\\Session.sol",
  "compiler": {
    "name": "solc",
    "version": "0.8.10+commit.fc410830.Emscripten.clang"
  },
  "schemaVersion": "3.4.3",
  "updatedAt": "2022-01-18T02:58:46.706Z",
  "networkType": "ethereum",
  "devdoc": {
    "kind": "dev",
    "methods": {},
    "version": 1
  },
  "userdoc": {
    "kind": "user",
    "methods": {},
    "version": 1
  }
}