{
  "contractName": "Session",
  "abi": [
    {
      "inputs": [],
      "name": "admin",
      "outputs": [
        {
          "internalType": "address",
          "name": "",
          "type": "address"
        }
      ],
      "stateMutability": "view",
      "type": "function",
      "constant": true
    },
    {
      "inputs": [],
      "name": "index",
      "outputs": [
        {
          "internalType": "uint256",
          "name": "",
          "type": "uint256"
        }
      ],
      "stateMutability": "view",
      "type": "function",
      "constant": true
    },
    {
      "inputs": [
        {
          "internalType": "uint256",
          "name": "",
          "type": "uint256"
        }
      ],
      "name": "itemsList",
      "outputs": [
        {
          "internalType": "uint256",
          "name": "IdItem",
          "type": "uint256"
        },
        {
          "internalType": "string",
          "name": "nameItem",
          "type": "string"
        },
        {
          "internalType": "string",
          "name": "imageHash",
          "type": "string"
        },
        {
          "internalType": "uint256",
          "name": "firstPrice",
          "type": "uint256"
        },
        {
          "internalType": "string",
          "name": "itemDescription",
          "type": "string"
        },
        {
          "internalType": "uint256",
          "name": "countPaticipantJoinSesstion",
          "type": "uint256"
        },
        {
          "internalType": "uint256",
          "name": "valueChangePricing",
          "type": "uint256"
        },
        {
          "internalType": "enum Main.StatusSesstion",
          "name": "statusSesstion",
          "type": "uint8"
        },
        {
          "internalType": "uint256",
          "name": "timeSesstionEachOtherproduct",
          "type": "uint256"
        },
        {
          "internalType": "uint256",
          "name": "timeFinishSesstionEachOtherproduct",
          "type": "uint256"
        }
      ],
      "stateMutability": "view",
      "type": "function",
      "constant": true
    },
    {
      "inputs": [
        {
          "internalType": "uint256",
          "name": "",
          "type": "uint256"
        }
      ],
      "name": "listHashImage",
      "outputs": [
        {
          "internalType": "string",
          "name": "",
          "type": "string"
        }
      ],
      "stateMutability": "view",
      "type": "function",
      "constant": true
    },
    {
      "inputs": [
        {
          "internalType": "uint256",
          "name": "",
          "type": "uint256"
        }
      ],
      "name": "listInformationOfImage",
      "outputs": [
        {
          "internalType": "string",
          "name": "",
          "type": "string"
        }
      ],
      "stateMutability": "view",
      "type": "function",
      "constant": true
    },
    {
      "inputs": [
        {
          "internalType": "uint256",
          "name": "",
          "type": "uint256"
        }
      ],
      "name": "listNameOfItems",
      "outputs": [
        {
          "internalType": "string",
          "name": "",
          "type": "string"
        }
      ],
      "stateMutability": "view",
      "type": "function",
      "constant": true
    },
    {
      "inputs": [
        {
          "internalType": "uint256",
          "name": "",
          "type": "uint256"
        }
      ],
      "name": "listPrice",
      "outputs": [
        {
          "internalType": "uint256",
          "name": "",
          "type": "uint256"
        }
      ],
      "stateMutability": "view",
      "type": "function",
      "constant": true
    },
    {
      "inputs": [
        {
          "internalType": "address",
          "name": "",
          "type": "address"
        }
      ],
      "name": "paticipants",
      "outputs": [
        {
          "internalType": "uint256",
          "name": "IDPaticipant",
          "type": "uint256"
        },
        {
          "internalType": "address",
          "name": "addressAccount",
          "type": "address"
        },
        {
          "internalType": "string",
          "name": "fullName",
          "type": "string"
        },
        {
          "internalType": "string",
          "name": "email",
          "type": "string"
        },
        {
          "internalType": "string",
          "name": "passwordAccount",
          "type": "string"
        },
        {
          "internalType": "uint256",
          "name": "countPricedSesstion",
          "type": "uint256"
        }
      ],
      "stateMutability": "view",
      "type": "function",
      "constant": true
    },
    {
      "inputs": [
        {
          "internalType": "uint256",
          "name": "",
          "type": "uint256"
        }
      ],
      "name": "totalAccounts",
      "outputs": [
        {
          "internalType": "address",
          "name": "",
          "type": "address"
        }
      ],
      "stateMutability": "view",
      "type": "function",
      "constant": true
    },
    {
      "inputs": [],
      "name": "addData",
      "outputs": [],
      "stateMutability": "nonpayable",
      "type": "function"
    },
    {
      "inputs": [
        {
          "internalType": "uint256",
          "name": "_IdItem",
          "type": "uint256"
        }
      ],
      "name": "convertStateToString",
      "outputs": [
        {
          "internalType": "string",
          "name": "",
          "type": "string"
        }
      ],
      "stateMutability": "view",
      "type": "function",
      "constant": true
    },
    {
      "inputs": [],
      "name": "getLengthItems",
      "outputs": [
        {
          "internalType": "uint256",
          "name": "",
          "type": "uint256"
        }
      ],
      "stateMutability": "view",
      "type": "function",
      "constant": true
    },
    {
      "inputs": [
        {
          "internalType": "uint256",
          "name": "_IdItem",
          "type": "uint256"
        }
      ],
      "name": "startSesstion",
      "outputs": [],
      "stateMutability": "nonpayable",
      "type": "function"
    },
    {
      "inputs": [
        {
          "internalType": "uint256",
          "name": "_IdItem",
          "type": "uint256"
        }
      ],
      "name": "stopSesstion",
      "outputs": [],
      "stateMutability": "nonpayable",
      "type": "function"
    },
    {
      "inputs": [
        {
          "internalType": "address",
          "name": "_address",
          "type": "address"
        },
        {
          "internalType": "string",
          "name": "_fullName",
          "type": "string"
        },
        {
          "internalType": "string",
          "name": "_email",
          "type": "string"
        },
        {
          "internalType": "string",
          "name": "_passwordAccount",
          "type": "string"
        }
      ],
      "name": "registerAccount",
      "outputs": [],
      "stateMutability": "nonpayable",
      "type": "function"
    },
    {
      "inputs": [
        {
          "internalType": "uint256",
          "name": "_IdItem",
          "type": "uint256"
        }
      ],
      "name": "getProposedPrice",
      "outputs": [],
      "stateMutability": "nonpayable",
      "type": "function"
    },
    {
      "inputs": [
        {
          "internalType": "uint256",
          "name": "_newPriceOfParticipan",
          "type": "uint256"
        },
        {
          "internalType": "uint256",
          "name": "_IdItem",
          "type": "uint256"
        }
      ],
      "name": "accumulatedDeviation",
      "outputs": [],
      "stateMutability": "nonpayable",
      "type": "function"
    },
    {
      "inputs": [
        {
          "internalType": "uint256",
          "name": "_IdItem",
          "type": "uint256"
        }
      ],
      "name": "getDataItems",
      "outputs": [
        {
          "internalType": "uint256",
          "name": "",
          "type": "uint256"
        }
      ],
      "stateMutability": "view",
      "type": "function",
      "constant": true
    },
    {
      "inputs": [
        {
          "internalType": "uint256",
          "name": "_IdItem",
          "type": "uint256"
        }
      ],
      "name": "getStatusSesstion",
      "outputs": [
        {
          "internalType": "enum Main.StatusSesstion",
          "name": "",
          "type": "uint8"
        }
      ],
      "stateMutability": "view",
      "type": "function",
      "constant": true
    },
    {
      "inputs": [
        {
          "internalType": "uint256",
          "name": "_IdItem",
          "type": "uint256"
        },
        {
          "internalType": "uint256",
          "name": "_price",
          "type": "uint256"
        }
      ],
      "name": "setPriceOfItem",
      "outputs": [],
      "stateMutability": "nonpayable",
      "type": "function"
    }
  ],
  "bytecode": "0x608060405260008060146101000a81548160ff021916908315150217905550600060035560006005556040518060c001604052806040518060400160405280601581526020017f53616d73756e672047616c617879204e6f74653230000000000000000000000081525081526020016040518060400160405280600e81526020017f53616d73756e67205a466c69703300000000000000000000000000000000000081525081526020016040518060400160405280600e81526020017f4173757320526f672050686f6e6500000000000000000000000000000000000081525081526020016040518060400160405280600d81526020017f47616c617879205a466f6c64330000000000000000000000000000000000000081525081526020016040518060400160405280601181526020017f4970686f6e652031322050726f204d617800000000000000000000000000000081525081526020016040518060400160405280601181526020017f4970686f6e652031332050726f204d61780000000000000000000000000000008152508152506006906006620001a59291906200041c565b506040518060c001604052806040518060600160405280602e815260200162003feb602e913981526020016040518060600160405280602e815260200162003b6c602e913981526020016040518060600160405280602e8152602001620046f9602e913981526020016040518060600160405280602e815260200162004727602e913981526020016040518060600160405280602e815260200162004220602e913981526020016040518060600160405280602e815260200162003b9a602e913981525060079060066200027b9291906200041c565b506040518060c00160405280604051806101e001604052806101a68152602001620045536101a69139815260200160405180610240016040528061020781526020016200401961020791398152602001604051806101e001604052806101a781526020016200424e6101a7913981526020016040518061022001604052806101ef815260200162003bc86101ef9139815260200160405180610180016040528061015e8152602001620043f561015e91398152602001604051806102600160405280610234815260200162003db761023491398152506008906006620003639291906200041c565b506040518060c001604052806103a261ffff1681526020016106cc61ffff16815260200161031661ffff16815260200161050a61ffff1681526020016103da61ffff1681526020016102ec61ffff168152506009906006620003c792919062000483565b50348015620003d557600080fd5b50336000806101000a81548173ffffffffffffffffffffffffffffffffffffffff021916908373ffffffffffffffffffffffffffffffffffffffff1602179055506200065e565b82805482825590600052602060002090810192821562000470579160200282015b828111156200046f5782518290805190602001906200045e929190620004db565b50916020019190600101906200043d565b5b5090506200047f91906200056c565b5090565b828054828255906000526020600020908101928215620004c8579160200282015b82811115620004c7578251829061ffff16905591602001919060010190620004a4565b5b509050620004d7919062000594565b5090565b828054620004e99062000628565b90600052602060002090601f0160209004810192826200050d576000855562000559565b82601f106200052857805160ff191683800117855562000559565b8280016001018555821562000559579182015b82811115620005585782518255916020019190600101906200053b565b5b50905062000568919062000594565b5090565b5b80821115620005905760008181620005869190620005b3565b506001016200056d565b5090565b5b80821115620005af57600081600090555060010162000595565b5090565b508054620005c19062000628565b6000825580601f10620005d55750620005f6565b601f016020900490600052602060002090810190620005f5919062000594565b5b50565b7f4e487b7100000000000000000000000000000000000000000000000000000000600052602260045260246000fd5b600060028204905060018216806200064157607f821691505b60208210811415620006585762000657620005f9565b5b50919050565b6134fe806200066e6000396000f3fe608060405234801561001057600080fd5b506004361061012c5760003560e01c80638df2873e116100ad578063e3ce9ba711610071578063e3ce9ba714610387578063e5b49a6b14610391578063e8c06c54146103c1578063f53dbb2e146103dd578063f851a4401461040d5761012c565b80638df2873e146102b45780639005bf74146102e457806398f6851014610314578063c2bd9d9514610332578063d19757db1461036b5761012c565b80634ae19b1a116100f45780634ae19b1a146101e75780635ef002321461021c57806387d81f7c14610238578063894837ab14610268578063896af4a9146102985761012c565b80631043bd70146101315780632986c0e51461014d578063358c371f1461016b5780633fe911211461019b57806340a1ca29146101cb575b600080fd5b61014b60048036038101906101469190612a1e565b61042b565b005b610155610534565b6040516101629190612a5a565b60405180910390f35b61018560048036038101906101809190612a1e565b61053a565b6040516101929190612b0e565b60405180910390f35b6101b560048036038101906101b09190612a1e565b6105e6565b6040516101c29190612b0e565b60405180910390f35b6101e560048036038101906101e09190612a1e565b610692565b005b61020160048036038101906101fc9190612b8e565b610b15565b60405161021396959493929190612bca565b60405180910390f35b61023660048036038101906102319190612c40565b610d09565b005b610252600480360381019061024d9190612a1e565b611356565b60405161025f9190612a5a565b60405180910390f35b610282600480360381019061027d9190612a1e565b61137a565b60405161028f9190612cf7565b60405180910390f35b6102b260048036038101906102ad9190612c40565b6113b6565b005b6102ce60048036038101906102c99190612a1e565b611481565b6040516102db9190612b0e565b60405180910390f35b6102fe60048036038101906102f99190612a1e565b61152d565b60405161030b9190612b0e565b60405180910390f35b61031c6116a5565b6040516103299190612a5a565b60405180910390f35b61034c60048036038101906103479190612a1e565b6116b2565b6040516103629a99989796959493929190612d12565b60405180910390f35b61038560048036038101906103809190612ef8565b6118bb565b005b61038f611df1565b005b6103ab60048036038101906103a69190612a1e565b612399565b6040516103b89190612a5a565b60405180910390f35b6103db60048036038101906103d69190612a1e565b6123c8565b005b6103f760048036038101906103f29190612a1e565b6124a6565b6040516104049190612fb3565b60405180910390f35b6104156124e5565b6040516104229190612fb3565b60405180910390f35b60008054906101000a900473ffffffffffffffffffffffffffffffffffffffff1673ffffffffffffffffffffffffffffffffffffffff163373ffffffffffffffffffffffffffffffffffffffff16146104b9576040517f08c379a00000000000000000000000000000000000000000000000000000000081526004016104b09061301a565b60405180910390fd5b6001600282815481106104cf576104ce61303a565b5b90600052602060002090600d0201600a0160006101000a81548160ff0219169083600281111561050257610501612c80565b5b0217905550426002828154811061051c5761051b61303a565b5b90600052602060002090600d0201600b018190555050565b60035481565b6008818154811061054a57600080fd5b90600052602060002001600091509050805461056590613098565b80601f016020809104026020016040519081016040528092919081815260200182805461059190613098565b80156105de5780601f106105b3576101008083540402835291602001916105de565b820191906000526020600020905b8154815290600101906020018083116105c157829003601f168201915b505050505081565b600681815481106105f657600080fd5b90600052602060002001600091509050805461061190613098565b80601f016020809104026020016040519081016040528092919081815260200182805461063d90613098565b801561068a5780601f1061065f5761010080835404028352916020019161068a565b820191906000526020600020905b81548152906001019060200180831161066d57829003601f168201915b505050505081565b60008054906101000a900473ffffffffffffffffffffffffffffffffffffffff1673ffffffffffffffffffffffffffffffffffffffff163373ffffffffffffffffffffffffffffffffffffffff1614610720576040517f08c379a00000000000000000000000000000000000000000000000000000000081526004016107179061301a565b60405180910390fd5b61072981612509565b60028081111561073c5761073b612c80565b5b600282815481106107505761074f61303a565b5b90600052602060002090600d0201600a0160009054906101000a900460ff16600281111561078157610780612c80565b5b146107c1576040517f08c379a00000000000000000000000000000000000000000000000000000000081526004016107b890613116565b60405180910390fd5b600080600283815481106107d8576107d761303a565b5b90600052602060002090600d020160090180549050905060005b818110156109be5760016000600286815481106108125761081161303a565b5b90600052602060002090600d020160090183815481106108355761083461303a565b5b9060005260206000200160009054906101000a900473ffffffffffffffffffffffffffffffffffffffff1673ffffffffffffffffffffffffffffffffffffffff1673ffffffffffffffffffffffffffffffffffffffff16815260200190815260200160002060060184815481106108af576108ae61303a565b5b90600052602060002090600402016002015460646108cd9190613165565b60016000600287815481106108e5576108e461303a565b5b90600052602060002090600d020160090184815481106109085761090761303a565b5b9060005260206000200160009054906101000a900473ffffffffffffffffffffffffffffffffffffffff1673ffffffffffffffffffffffffffffffffffffffff1673ffffffffffffffffffffffffffffffffffffffff16815260200190815260200160002060060185815481106109825761098161303a565b5b90600052602060002090600402016001015461099e9190613199565b836109a991906131f3565b925080806109b690613249565b9150506107f2565b5060008160646109ce9190613199565b9050600080600090505b83811015610ac75760016000600288815481106109f8576109f761303a565b5b90600052602060002090600d02016009018381548110610a1b57610a1a61303a565b5b9060005260206000200160009054906101000a900473ffffffffffffffffffffffffffffffffffffffff1673ffffffffffffffffffffffffffffffffffffffff1673ffffffffffffffffffffffffffffffffffffffff1681526020019081526020016000206006018681548110610a9557610a9461303a565b5b90600052602060002090600402016002015482610ab291906131f3565b91508080610abf90613249565b9150506109d8565b5060008183610ad69190613165565b85610ae191906132c1565b90508060028781548110610af857610af761303a565b5b90600052602060002090600d020160080181905550505050505050565b60016020528060005260406000206000915090508060000154908060010160009054906101000a900473ffffffffffffffffffffffffffffffffffffffff1690806002018054610b6490613098565b80601f0160208091040260200160405190810160405280929190818152602001828054610b9090613098565b8015610bdd5780601f10610bb257610100808354040283529160200191610bdd565b820191906000526020600020905b815481529060010190602001808311610bc057829003601f168201915b505050505090806003018054610bf290613098565b80601f0160208091040260200160405190810160405280929190818152602001828054610c1e90613098565b8015610c6b5780601f10610c4057610100808354040283529160200191610c6b565b820191906000526020600020905b815481529060010190602001808311610c4e57829003601f168201915b505050505090806004018054610c8090613098565b80601f0160208091040260200160405190810160405280929190818152602001828054610cac90613098565b8015610cf95780601f10610cce57610100808354040283529160200191610cf9565b820191906000526020600020905b815481529060010190602001808311610cdc57829003601f168201915b5050505050908060050154905086565b60008054906101000a900473ffffffffffffffffffffffffffffffffffffffff1673ffffffffffffffffffffffffffffffffffffffff163373ffffffffffffffffffffffffffffffffffffffff161415610d98576040517f08c379a0000000000000000000000000000000000000000000000000000000008152600401610d8f9061333e565b60405180910390fd5b600181816002811115610dae57610dad612c80565b5b60028281548110610dc257610dc161303a565b5b90600052602060002090600d0201600a0160009054906101000a900460ff166002811115610df357610df2612c80565b5b14610e33576040517f08c379a0000000000000000000000000000000000000000000000000000000008152600401610e2a90613116565b60405180910390fd5b600060028481548110610e4957610e4861303a565b5b90600052602060002090600d0201600901805490501415610eef5760028381548110610e7857610e7761303a565b5b90600052602060002090600d0201600901339080600181540180825580915050600190039060005260206000200160009091909190916101000a81548173ffffffffffffffffffffffffffffffffffffffff021916908373ffffffffffffffffffffffffffffffffffffffff1602179055506110ae565b60005b60028481548110610f0657610f0561303a565b5b90600052602060002090600d020160090180549050811015610fea573373ffffffffffffffffffffffffffffffffffffffff1660028581548110610f4d57610f4c61303a565b5b90600052602060002090600d02016009018281548110610f7057610f6f61303a565b5b9060005260206000200160009054906101000a900473ffffffffffffffffffffffffffffffffffffffff1673ffffffffffffffffffffffffffffffffffffffff161415610fd7576001600060146101000a81548160ff021916908315150217905550610fea565b8080610fe290613249565b915050610ef2565b5060001515600060149054906101000a900460ff1615151415611092576002838154811061101b5761101a61303a565b5b90600052602060002090600d0201600901339080600181540180825580915050600190039060005260206000200160009091909190916101000a81548173ffffffffffffffffffffffffffffffffffffffff021916908373ffffffffffffffffffffffffffffffffffffffff1602179055506110ad565b60008060146101000a81548160ff0219169083151502179055505b5b60006110ba8585612654565b90506000600160003373ffffffffffffffffffffffffffffffffffffffff1673ffffffffffffffffffffffffffffffffffffffff16815260200190815260200160002060060185815481106111125761111161303a565b5b90600052602060002090600402016003015490506000600160003373ffffffffffffffffffffffffffffffffffffffff1673ffffffffffffffffffffffffffffffffffffffff168152602001908152602001600020600601868154811061117c5761117b61303a565b5b9060005260206000209060040201600201549050600060018361119f91906131f3565b8484846111ac9190613199565b6111b691906131f3565b6111c091906132c1565b905080600160003373ffffffffffffffffffffffffffffffffffffffff1673ffffffffffffffffffffffffffffffffffffffff16815260200190815260200160002060060188815481106112175761121661303a565b5b90600052602060002090600402016002018190555087600160003373ffffffffffffffffffffffffffffffffffffffff1673ffffffffffffffffffffffffffffffffffffffff16815260200190815260200160002060060188815481106112815761128061303a565b5b906000526020600020906004020160010181905550600160003373ffffffffffffffffffffffffffffffffffffffff1673ffffffffffffffffffffffffffffffffffffffff16815260200190815260200160002060060187815481106112ea576112e961303a565b5b9060005260206000209060040201600301600081548092919061130c90613249565b9190505550600287815481106113255761132461303a565b5b90600052602060002090600d0201600501600081548092919061134790613249565b91905055505050505050505050565b6009818154811061136657600080fd5b906000526020600020016000915090505481565b6000600282815481106113905761138f61303a565b5b90600052602060002090600d0201600a0160009054906101000a900460ff169050919050565b6002828160028111156113cc576113cb612c80565b5b600282815481106113e0576113df61303a565b5b90600052602060002090600d0201600a0160009054906101000a900460ff16600281111561141157611410612c80565b5b14611451576040517f08c379a000000000000000000000000000000000000000000000000000000000815260040161144890613116565b60405180910390fd5b82600285815481106114665761146561303a565b5b90600052602060002090600d02016008018190555050505050565b6007818154811061149157600080fd5b9060005260206000200160009150905080546114ac90613098565b80601f01602080910402602001604051908101604052809291908181526020018280546114d890613098565b80156115255780601f106114fa57610100808354040283529160200191611525565b820191906000526020600020905b81548152906001019060200180831161150857829003601f168201915b505050505081565b60606000600281111561154357611542612c80565b5b600283815481106115575761155661303a565b5b90600052602060002090600d0201600a0160009054906101000a900460ff16600281111561158857611587612c80565b5b14156115cb576040518060400160405280600981526020017f4e6f74205374617274000000000000000000000000000000000000000000000081525090506116a0565b600160028111156115df576115de612c80565b5b600283815481106115f3576115f261303a565b5b90600052602060002090600d0201600a0160009054906101000a900460ff16600281111561162457611623612c80565b5b1415611667576040518060400160405280600781526020017f537461727465640000000000000000000000000000000000000000000000000081525090506116a0565b6040518060400160405280600681526020017f46696e697368000000000000000000000000000000000000000000000000000081525090505b919050565b6000600280549050905090565b600281815481106116c257600080fd5b90600052602060002090600d02016000915090508060000154908060010180546116eb90613098565b80601f016020809104026020016040519081016040528092919081815260200182805461171790613098565b80156117645780601f1061173957610100808354040283529160200191611764565b820191906000526020600020905b81548152906001019060200180831161174757829003601f168201915b50505050509080600201805461177990613098565b80601f01602080910402602001604051908101604052809291908181526020018280546117a590613098565b80156117f25780601f106117c7576101008083540402835291602001916117f2565b820191906000526020600020905b8154815290600101906020018083116117d557829003601f168201915b50505050509080600301549080600401805461180d90613098565b80601f016020809104026020016040519081016040528092919081815260200182805461183990613098565b80156118865780601f1061185b57610100808354040283529160200191611886565b820191906000526020600020905b81548152906001019060200180831161186957829003601f168201915b50505050509080600501549080600801549080600a0160009054906101000a900460ff169080600b01549080600c015490508a565b6000808054906101000a900473ffffffffffffffffffffffffffffffffffffffff1673ffffffffffffffffffffffffffffffffffffffff168573ffffffffffffffffffffffffffffffffffffffff16141561194b576040517f08c379a0000000000000000000000000000000000000000000000000000000008152600401611942906133aa565b60405180910390fd5b600a6004805490501115611994576040517f08c379a000000000000000000000000000000000000000000000000000000000815260040161198b9061343c565b60405180910390fd5b60005b600480549050811015611a3257600481815481106119b8576119b761303a565b5b9060005260206000200160009054906101000a900473ffffffffffffffffffffffffffffffffffffffff1673ffffffffffffffffffffffffffffffffffffffff168673ffffffffffffffffffffffffffffffffffffffff161415611a1f5760019150611a32565b8080611a2a90613249565b915050611997565b5080611daf576004859080600181540180825580915050600190039060005260206000200160009091909190916101000a81548173ffffffffffffffffffffffffffffffffffffffff021916908373ffffffffffffffffffffffffffffffffffffffff160217905550600554600160008773ffffffffffffffffffffffffffffffffffffffff1673ffffffffffffffffffffffffffffffffffffffff1681526020019081526020016000206000018190555084600160008773ffffffffffffffffffffffffffffffffffffffff1673ffffffffffffffffffffffffffffffffffffffff16815260200190815260200160002060010160006101000a81548173ffffffffffffffffffffffffffffffffffffffff021916908373ffffffffffffffffffffffffffffffffffffffff16021790555083600160008773ffffffffffffffffffffffffffffffffffffffff1673ffffffffffffffffffffffffffffffffffffffff1681526020019081526020016000206002019080519060200190611bbb92919061285a565b5082600160008773ffffffffffffffffffffffffffffffffffffffff1673ffffffffffffffffffffffffffffffffffffffff1681526020019081526020016000206003019080519060200190611c1292919061285a565b5081600160008773ffffffffffffffffffffffffffffffffffffffff1673ffffffffffffffffffffffffffffffffffffffff1681526020019081526020016000206004019080519060200190611c6992919061285a565b506000600160008773ffffffffffffffffffffffffffffffffffffffff1673ffffffffffffffffffffffffffffffffffffffff1681526020019081526020016000206005018190555060005b600354811015611d915760006040518060800160405280838152602001600081526020016000815260200160008152509050600160008873ffffffffffffffffffffffffffffffffffffffff1673ffffffffffffffffffffffffffffffffffffffff168152602001908152602001600020600601819080600181540180825580915050600190039060005260206000209060040201600090919091909150600082015181600001556020820151816001015560408201518160020155606082015181600301555050508080611d8990613249565b915050611cb5565b5060056000815480929190611da590613249565b9190505550611dea565b6040517f08c379a0000000000000000000000000000000000000000000000000000000008152600401611de1906134a8565b60405180910390fd5b5050505050565b60005b60078054905081101561239657600080600090505b600280549050811015611f9357611f7360028281548110611e2d57611e2c61303a565b5b90600052602060002090600d02016002018054611e4990613098565b80601f0160208091040260200160405190810160405280929190818152602001828054611e7590613098565b8015611ec25780601f10611e9757610100808354040283529160200191611ec2565b820191906000526020600020905b815481529060010190602001808311611ea557829003601f168201915b505050505060078581548110611edb57611eda61303a565b5b906000526020600020018054611ef090613098565b80601f0160208091040260200160405190810160405280929190818152602001828054611f1c90613098565b8015611f695780601f10611f3e57610100808354040283529160200191611f69565b820191906000526020600020905b815481529060010190602001808311611f4c57829003601f168201915b5050505050612776565b91508115611f8057611f93565b8080611f8b90613249565b915050611e09565b5080612382576060806002604051806101a0016040528086815260200160068781548110611fc457611fc361303a565b5b906000526020600020018054611fd990613098565b80601f016020809104026020016040519081016040528092919081815260200182805461200590613098565b80156120525780601f1061202757610100808354040283529160200191612052565b820191906000526020600020905b81548152906001019060200180831161203557829003601f168201915b50505050508152602001600787815481106120705761206f61303a565b5b90600052602060002001805461208590613098565b80601f01602080910402602001604051908101604052809291908181526020018280546120b190613098565b80156120fe5780601f106120d3576101008083540402835291602001916120fe565b820191906000526020600020905b8154815290600101906020018083116120e157829003601f168201915b505050505081526020016009878154811061211c5761211b61303a565b5b90600052602060002001548152602001600887815481106121405761213f61303a565b5b90600052602060002001805461215590613098565b80601f016020809104026020016040519081016040528092919081815260200182805461218190613098565b80156121ce5780601f106121a3576101008083540402835291602001916121ce565b820191906000526020600020905b8154815290600101906020018083116121b157829003601f168201915b5050505050815260200160008152602001848152602001848152602001600081526020018381526020016000600281111561220c5761220b612c80565b5b815260200160008152602001606481525090806001815401808255809150506001900390600052602060002090600d020160009091909190915060008201518160000155602082015181600101908051906020019061226c92919061285a565b50604082015181600201908051906020019061228992919061285a565b506060820151816003015560808201518160040190805190602001906122b092919061285a565b5060a0820151816005015560c08201518160060190805190602001906122d79291906128e0565b5060e08201518160070190805190602001906122f49291906128e0565b50610100820151816008015561012082015181600901908051906020019061231d92919061292d565b5061014082015181600a0160006101000a81548160ff0219169083600281111561234a57612349612c80565b5b021790555061016082015181600b015561018082015181600c015550506003600081548092919061237a90613249565b919050555050505b50808061238e90613249565b915050611df4565b50565b6000600282815481106123af576123ae61303a565b5b90600052602060002090600d0201600801549050919050565b60008054906101000a900473ffffffffffffffffffffffffffffffffffffffff1673ffffffffffffffffffffffffffffffffffffffff163373ffffffffffffffffffffffffffffffffffffffff1614612456576040517f08c379a000000000000000000000000000000000000000000000000000000000815260040161244d9061301a565b60405180910390fd5b600280828154811061246b5761246a61303a565b5b90600052602060002090600d0201600a0160006101000a81548160ff0219169083600281111561249e5761249d612c80565b5b021790555050565b600481815481106124b657600080fd5b906000526020600020016000915054906101000a900473ffffffffffffffffffffffffffffffffffffffff1681565b60008054906101000a900473ffffffffffffffffffffffffffffffffffffffff1681565b60018181600281111561251f5761251e612c80565b5b600282815481106125335761253261303a565b5b90600052602060002090600d0201600a0160009054906101000a900460ff16600281111561256457612563612c80565b5b146125a4576040517f08c379a000000000000000000000000000000000000000000000000000000000815260040161259b90613116565b60405180910390fd5b600283815481106125b8576125b761303a565b5b90600052602060002090600d0201600c0154600284815481106125de576125dd61303a565b5b90600052602060002090600d0201600b01546125fa91906131f3565b42111561264f5760028084815481106126165761261561303a565b5b90600052602060002090600d0201600a0160006101000a81548160ff0219169083600281111561264957612648612c80565b5b02179055505b505050565b6000806000905083600284815481106126705761266f61303a565b5b90600052602060002090600d02016003015411156126fc576002838154811061269c5761269b61303a565b5b90600052602060002090600d020160030154606485600286815481106126c5576126c461303a565b5b90600052602060002090600d0201600301546126e19190613165565b6126eb9190613199565b6126f591906132c1565b905061276c565b600283815481106127105761270f61303a565b5b90600052602060002090600d0201600301546064600285815481106127385761273761303a565b5b90600052602060002090600d020160030154866127559190613165565b61275f9190613199565b61276991906132c1565b90505b8091505092915050565b60008083905060008390506000825190508151811461279b5760009350505050612854565b60005b8181101561284b578281815181106127b9576127b861303a565b5b602001015160f81c60f81b7effffffffffffffffffffffffffffffffffffffffffffffffffffffffffffff19168482815181106127f9576127f861303a565b5b602001015160f81c60f81b7effffffffffffffffffffffffffffffffffffffffffffffffffffffffffffff191614612838576000945050505050612854565b808061284390613249565b91505061279e565b50600193505050505b92915050565b82805461286690613098565b90600052602060002090601f01602090048101928261288857600085556128cf565b82601f106128a157805160ff19168380011785556128cf565b828001600101855582156128cf579182015b828111156128ce5782518255916020019190600101906128b3565b5b5090506128dc91906129b7565b5090565b82805482825590600052602060002090810192821561291c579160200282015b8281111561291b578251825591602001919060010190612900565b5b50905061292991906129b7565b5090565b8280548282559060005260206000209081019282156129a6579160200282015b828111156129a55782518260006101000a81548173ffffffffffffffffffffffffffffffffffffffff021916908373ffffffffffffffffffffffffffffffffffffffff1602179055509160200191906001019061294d565b5b5090506129b391906129b7565b5090565b5b808211156129d05760008160009055506001016129b8565b5090565b6000604051905090565b600080fd5b600080fd5b6000819050919050565b6129fb816129e8565b8114612a0657600080fd5b50565b600081359050612a18816129f2565b92915050565b600060208284031215612a3457612a336129de565b5b6000612a4284828501612a09565b91505092915050565b612a54816129e8565b82525050565b6000602082019050612a6f6000830184612a4b565b92915050565b600081519050919050565b600082825260208201905092915050565b60005b83811015612aaf578082015181840152602081019050612a94565b83811115612abe576000848401525b50505050565b6000601f19601f8301169050919050565b6000612ae082612a75565b612aea8185612a80565b9350612afa818560208601612a91565b612b0381612ac4565b840191505092915050565b60006020820190508181036000830152612b288184612ad5565b905092915050565b600073ffffffffffffffffffffffffffffffffffffffff82169050919050565b6000612b5b82612b30565b9050919050565b612b6b81612b50565b8114612b7657600080fd5b50565b600081359050612b8881612b62565b92915050565b600060208284031215612ba457612ba36129de565b5b6000612bb284828501612b79565b91505092915050565b612bc481612b50565b82525050565b600060c082019050612bdf6000830189612a4b565b612bec6020830188612bbb565b8181036040830152612bfe8187612ad5565b90508181036060830152612c128186612ad5565b90508181036080830152612c268185612ad5565b9050612c3560a0830184612a4b565b979650505050505050565b60008060408385031215612c5757612c566129de565b5b6000612c6585828601612a09565b9250506020612c7685828601612a09565b9150509250929050565b7f4e487b7100000000000000000000000000000000000000000000000000000000600052602160045260246000fd5b60038110612cc057612cbf612c80565b5b50565b6000819050612cd182612caf565b919050565b6000612ce182612cc3565b9050919050565b612cf181612cd6565b82525050565b6000602082019050612d0c6000830184612ce8565b92915050565b600061014082019050612d28600083018d612a4b565b8181036020830152612d3a818c612ad5565b90508181036040830152612d4e818b612ad5565b9050612d5d606083018a612a4b565b8181036080830152612d6f8189612ad5565b9050612d7e60a0830188612a4b565b612d8b60c0830187612a4b565b612d9860e0830186612ce8565b612da6610100830185612a4b565b612db4610120830184612a4b565b9b9a5050505050505050505050565b600080fd5b600080fd5b7f4e487b7100000000000000000000000000000000000000000000000000000000600052604160045260246000fd5b612e0582612ac4565b810181811067ffffffffffffffff82111715612e2457612e23612dcd565b5b80604052505050565b6000612e376129d4565b9050612e438282612dfc565b919050565b600067ffffffffffffffff821115612e6357612e62612dcd565b5b612e6c82612ac4565b9050602081019050919050565b82818337600083830152505050565b6000612e9b612e9684612e48565b612e2d565b905082815260208101848484011115612eb757612eb6612dc8565b5b612ec2848285612e79565b509392505050565b600082601f830112612edf57612ede612dc3565b5b8135612eef848260208601612e88565b91505092915050565b60008060008060808587031215612f1257612f116129de565b5b6000612f2087828801612b79565b945050602085013567ffffffffffffffff811115612f4157612f406129e3565b5b612f4d87828801612eca565b935050604085013567ffffffffffffffff811115612f6e57612f6d6129e3565b5b612f7a87828801612eca565b925050606085013567ffffffffffffffff811115612f9b57612f9a6129e3565b5b612fa787828801612eca565b91505092959194509250565b6000602082019050612fc86000830184612bbb565b92915050565b7f4f6e6c792061646d696e2063616e20736f6c7665000000000000000000000000600082015250565b6000613004601483612a80565b915061300f82612fce565b602082019050919050565b6000602082019050818103600083015261303381612ff7565b9050919050565b7f4e487b7100000000000000000000000000000000000000000000000000000000600052603260045260246000fd5b7f4e487b7100000000000000000000000000000000000000000000000000000000600052602260045260246000fd5b600060028204905060018216806130b057607f821691505b602082108114156130c4576130c3613069565b5b50919050565b7f57726f6e6720737461747573206f66207365737374696f6e0000000000000000600082015250565b6000613100601883612a80565b915061310b826130ca565b602082019050919050565b6000602082019050818103600083015261312f816130f3565b9050919050565b7f4e487b7100000000000000000000000000000000000000000000000000000000600052601160045260246000fd5b6000613170826129e8565b915061317b836129e8565b92508282101561318e5761318d613136565b5b828203905092915050565b60006131a4826129e8565b91506131af836129e8565b9250817fffffffffffffffffffffffffffffffffffffffffffffffffffffffffffffffff04831182151516156131e8576131e7613136565b5b828202905092915050565b60006131fe826129e8565b9150613209836129e8565b9250827fffffffffffffffffffffffffffffffffffffffffffffffffffffffffffffffff0382111561323e5761323d613136565b5b828201905092915050565b6000613254826129e8565b91507fffffffffffffffffffffffffffffffffffffffffffffffffffffffffffffffff82141561328757613286613136565b5b600182019050919050565b7f4e487b7100000000000000000000000000000000000000000000000000000000600052601260045260246000fd5b60006132cc826129e8565b91506132d7836129e8565b9250826132e7576132e6613292565b5b828204905092915050565b7f4e6f74206f6e6c792061646d696e000000000000000000000000000000000000600082015250565b6000613328600e83612a80565b9150613333826132f2565b602082019050919050565b600060208201905081810360008301526133578161331b565b9050919050565b7f4163636f756e74206f662061646d696e2063616e277420726567697374657200600082015250565b6000613394601f83612a80565b915061339f8261335e565b602082019050919050565b600060208201905081810360008301526133c381613387565b9050919050565b7f546865206e756d626572206f66207061727469636970616e7473206973206c6560008201527f7373207468616e2074656e2e0000000000000000000000000000000000000000602082015250565b6000613426602c83612a80565b9150613431826133ca565b604082019050919050565b6000602082019050818103600083015261345581613419565b9050919050565b7f546869732061646472657373205265616c6c7920657869737465640000000000600082015250565b6000613492601b83612a80565b915061349d8261345c565b602082019050919050565b600060208201905081810360008301526134c181613485565b905091905056fea26469706673582212209061002acff581c19c461074dc5fb68d6e30af217be65b38608412c3187174d164736f6c634300080a0033516d643633454c6b5a6737467a4b424d33516336377750766e4a3251386b675269596d39634267465057526d4d6b516d637272466637386531656d6953674365335539514543345173374a714254344c4a7479764d35336335386d4a496d7072657373697665206475616c2073637265656e202d20372e39206d61696e2073637265656e20616e64207375622073637265656e3a20362e32332c20313230487a20736d6f6f7468206d6f74696f6e203c62722f3e537570657220696d70726573736976652063616d6572612073797374656d202d20536574206f6620332031324d502063616d657261206c656e7365732c2073656c6669652063616d6572612068696464656e20756e646572207468652073637265656e3c2f62723e496d707265737369766520706572666f726d616e63652c206d617374657220746865207370656564202d20536e6170647261676f6e2038383820636f6d62696e6564207769746820313247422052414d2c20354720737570706f72742e3c2f62723e53757065722070686f746f677261706879202d204e69676874204d6f6465202c204465657020467573696f6e20616c676f726974686d2c20536d6172742048445220332c204c694461722063616d6572612e3c62723e44757261626c652e206f75747374616e64696e67202d204950363820776174657270726f6f662c206475737470726f6f662c20436572616d696320536869656c64206261636b3c2f62723e204d617373697665206d656d6f727920666f7220756e6c696d697465642073746f726167652073706163652e56696272616e7420646973706c617920737061636520362e3120537570657220526574696e612058445220646973706c617920776974682068696768206272696768746e65737320616e642073686172706e65737354686520756c74696d6174652063696e656d6174696320657870657269656e6365203c62722f3e2031324d50206475616c2063616d657261732077697468206f70746963616c20696d6167652073746162696c697a6174696f6e3c2f62723e4f75747374616e64696e6720706572666f726d616e6365202d20506f77657266756c204170706c65204131352042696f6e696320636869702c20737570706f727420666f7220686967682d7370656564203547206e6574776f726b732e3c2f62723e566976696420646973706c6179207370616365202d20362e3720537570657220526574696e61205844522073637265656e20776974682068696768206272696768746e65737320616e642073686172706e6573732e3c2f62723e457870657269656e636520556c74696d6174652063696e656d6174696320657870657269656e6365202d20436c7573746572206f662033206475616c2031324d502063616d657261732c20737570706f7274696e67206f70746963616c20696d6167652073746162696c697a6174696f6e2e3c2f62723e506f776572206f7074696d697a6174696f6e202d20323020572066617374206368617267696e672c2035302520626174746572792066756c6c20696e2061626f7574203330206d696e75746573516d4e7156597448346d584736394c6e4159453478793168676666315a6b59427476566343447941345250693669556e6971756520666f6c64696e672073637265656e2c207365616d6c65737320646973706c6179202d2044796e616d696320414d4f4c45442032582c20313230487a207265667265736820726174652c2048445220737570706f72742c20446f6c627920566973696f6e2e203c2f62723e556e6971756520666f6c64696e672073637265656e2c207365616d6c65737320646973706c6179202d2044796e616d696320414d4f4c45442032582c20313230487a207265667265736820726174652c2048445220737570706f72742c20446f6c627920566973696f6e2e3c2f62723e537570657220696d70726573736976652063616d6572612073797374656d202d20536574206f6620332031324d502063616d657261206c656e7365732c2073686172702073656c6669652063616d6572612e3c2f62723e496d707265737369766520706572666f726d616e63652c206d617374657220746865207370656564202d20536e6170647261676f6e2038383820636f6d62696e65642077697468203847422052414d2c20354720737570706f72742e3c2f62723e53616d73756e672047616c617879205a20466c69702033202835472920556e6971756520666f6c64696e672073637265656e2070686f6e652e3c62723e43686172616374657269737469632064657369676e2c2070696f6e656572696e6720666c657869626c652073637265656e516d5865593537516658446e79744c3750554141796e727454566675424845596158577858346a464641794c7964427265616b20616c6c20746865206c696d697473206f6620706572666f726d616e6365202d20686967682d656e6420536e6170647261676f6e203836352b2c20354720636f6e6e65637469766974792c20313247422052414d2e3c62722f3e5374616e646172642067616d696e672073637265656e202d20414d4f4c45442070616e656c2c20686967682072656672657368207261746520313434487a2c2048445231302b2e3c62722f3e506c61792067616d657320776974686f757420696e74657272757074696f6e202d20363030306d416820626174746572792c20637573746f6d2062617474657279206d6f64653c2f62723e47616d6572206665617475726573202d20416972547269676765722035206d756c74692d746f7563682c207175616c697479206475616c20737065616b6572732e203c2f62723e526576696577204173757320524f472050686f6e65203528313647422f323536474229202d20556e726976616c656420706572666f726d616e63652e3c2f62723e2e426f6c642064657369676e2c20736861727020362e37382d696e6368204648442b2073637265656e506f77657266756c2c2073757065722d6661737420776974682041313420636869702c203647422052414d2c20686967682d7370656564203547206e6574776f726b203c62722f3e4272696c6c69616e742c2073686172702c2068696768206272696768746e657373202d205072656d69756d204f4c454420646973706c6179203c62722f3e537570657220526574696e6120584452207769746820484452313020737570706f72742c20446f6c627920566973696f6e3c2f62723e4f75747374616e64696e67206475726162696c697479202d204950363820776174657220616e64206475737420726573697374616e63652c20436572616d696320536869656c64206261636b2e3c2f62723e6950686f6e652031322050726f204d61783a20526169736520746865206c6576656c206f66207573652e3c2f62723e20362e3720696e636820537570657220526574696e61205844522073637265656e4c75787572792c20686967682d636c617373202d20556e6971756520616e64206174747261637469766520636f6c6f72732e3c62722f3e54616b652070726f66657373696f6e616c2070686f746f73202d20536574206f6620332063616d65726173207468617420737570706f7274205a6f6f6d20617320666172206173203330582e3c62722f3e54616b65206e6f74657320717569636b6c7920616e642061636375726174656c79207769746820746865206e65772067656e65726174696f6e20532d50656e2e3c62722f3e556c74696d6174652067616d696e67202d20506f77657266756c20376e6d204578796e6f73203939302c206f75747374616e64696e672070726f63657373696e6720706572666f726d616e63652e3c62722f3e53616d73756e67204e6f746520323020556c7472612035472070686f6e65202d204c75787572792c206f75747374616e64696e6720706572666f726d616e63652e3c62722f3e4d6f6e6f6c697468696320616c756d696e756d206672616d652064657369676e2c206c75787572696f75732074656d706572656420676c617373206261636b2e516d54703638734438654158535046616f5a707153366276627848467047384141454c58314a3754663843657269516d61476a6e7043337358656b516f6e385636326e5a467a356f4b7542316770794a614d754a744343344e376638",
  "immutableReferences": {},
  "source": "pragma solidity >=0.4.0 <0.9.0;\r\nimport \"./Main.sol\";\r\ncontract Session is Main{\r\n    struct Items{\r\n        uint IdItem;\r\n        string nameItem;\r\n        string imageHash;\r\n        uint firstPrice;\r\n        string itemDescription;\r\n        uint countPaticipantJoinSesstion;\r\n        uint[] listPriceOfPaticipant;\r\n        uint[] listPriceDeviation;\r\n        uint valueChangePricing;\r\n        address[] checkAccount;\r\n        StatusSesstion statusSesstion;\r\n        uint timeSesstionEachOtherproduct;\r\n        uint timeFinishSesstionEachOtherproduct;\r\n    }\r\n    \r\n    mapping(address => Paticipant) public paticipants;\r\n    Items[] public itemsList;\r\n    uint public index = 0;\r\n    address[] public totalAccounts;\r\n    uint indexPaticipant = 0;\r\n    string[] public listNameOfItems = [\"Samsung Galaxy Note20\", \"Samsung ZFlip3\", \"Asus Rog Phone\", \"Galaxy ZFold3\", \"Iphone 12 Pro Max\", \"Iphone 13 Pro Max\"];\r\n    string[] public listHashImage = [\"QmNqVYtH4mXG69LnAYE4xy1hgff1ZkYBtvVcCDyA4RPi6i\", \"Qmd63ELkZg7FzKBM3Qc67wPvnJ2Q8kgRiYm9cBgFPWRmMk\", \"QmTp68sD8eAXSPFaoZpqS6bvbxHFpG8AAELX1J7Tf8Ceri\", \"QmaGjnpC3sXekQon8V62nZFz5oKuB1gpyJaMuJtCC4N7f8\", \"QmXeY57QfXDnytL7PUAAynrtTVfuBHEYaXWxX4jFFAyLyd\", \"QmcrrFf78e1emiSgCe3U9QEC4Qs7JqBT4LJtyvM53c58mJ\"];\r\n    string[] public listInformationOfImage = [\"Luxury, high-class - Unique and attractive colors.<br/>Take professional photos - Set of 3 cameras that support Zoom as far as 30X.<br/>Take notes quickly and accurately with the new generation S-Pen.<br/>Ultimate gaming - Powerful 7nm Exynos 990, outstanding processing performance.<br/>Samsung Note 20 Ultra 5G phone - Luxury, outstanding performance.<br/>Monolithic aluminum frame design, luxurious tempered glass back.\", \"Unique folding screen, seamless display - Dynamic AMOLED 2X, 120Hz refresh rate, HDR support, Dolby Vision. </br>Unique folding screen, seamless display - Dynamic AMOLED 2X, 120Hz refresh rate, HDR support, Dolby Vision.</br>Super impressive camera system - Set of 3 12MP camera lenses, sharp selfie camera.</br>Impressive performance, master the speed - Snapdragon 888 combined with 8GB RAM, 5G support.</br>Samsung Galaxy Z Flip 3 (5G) Unique folding screen phone.<br>Characteristic design, pioneering flexible screen\", \"Break all the limits of performance - high-end Snapdragon 865+, 5G connectivity, 12GB RAM.<br/>Standard gaming screen - AMOLED panel, high refresh rate 144Hz, HDR10+.<br/>Play games without interruption - 6000mAh battery, custom battery mode</br>Gamer features - AirTrigger 5 multi-touch, quality dual speakers. </br>Review Asus ROG Phone 5(16GB/256GB) - Unrivaled performance.</br>.Bold design, sharp 6.78-inch FHD+ screen\", \"Impressive dual screen - 7.9 main screen and sub screen: 6.23, 120Hz smooth motion <br/>Super impressive camera system - Set of 3 12MP camera lenses, selfie camera hidden under the screen</br>Impressive performance, master the speed - Snapdragon 888 combined with 12GB RAM, 5G support.</br>Super photography - Night Mode , Deep Fusion algorithm, Smart HDR 3, LiDar camera.<br>Durable. outstanding - IP68 waterproof, dustproof, Ceramic Shield back</br> Massive memory for unlimited storage space.\", \"Powerful, super-fast with A14 chip, 6GB RAM, high-speed 5G network <br/>Brilliant, sharp, high brightness - Premium OLED display <br/>Super Retina XDR with HDR10 support, Dolby Vision</br>Outstanding durability - IP68 water and dust resistance, Ceramic Shield back.</br>iPhone 12 Pro Max: Raise the level of use.</br> 6.7 inch Super Retina XDR screen\", \"Vibrant display space 6.1 Super Retina XDR display with high brightness and sharpnessThe ultimate cinematic experience <br/> 12MP dual cameras with optical image stabilization</br>Outstanding performance - Powerful Apple A15 Bionic chip, support for high-speed 5G networks.</br>Vivid display space - 6.7 Super Retina XDR screen with high brightness and sharpness.</br>Experience Ultimate cinematic experience - Cluster of 3 dual 12MP cameras, supporting optical image stabilization.</br>Power optimization - 20 W fast charging, 50% battery full in about 30 minutes\"] ;\r\n    uint[] public listPrice = [930, 1740, 790, 1290, 986, 748];\r\n    \r\n    modifier checkStatus(StatusSesstion _statusSesstion, uint _IdItem){\r\n        require(itemsList[_IdItem].statusSesstion == _statusSesstion, \"Wrong status of sesstion\");\r\n        _;\r\n    }\r\n\r\n    function addData() public{\r\n        for(uint i = 0 ; i < listHashImage.length ; i++){\r\n            bool statusAdd;\r\n            for(uint j = 0 ; j < itemsList.length ; j++){\r\n               statusAdd = stringsEquals(itemsList[j].imageHash, listHashImage[i]);\r\n               if(statusAdd){\r\n                   break;\r\n               }\r\n            }\r\n            if(!statusAdd){\r\n                uint[] memory emptyArray;\r\n                address[] memory amptyAddressArray;\r\n                itemsList.push(Items(i, listNameOfItems[i], listHashImage[i], listPrice[i], listInformationOfImage[i],  0, emptyArray, emptyArray, 0, amptyAddressArray, StatusSesstion.START, 0, 100));\r\n                index++;\r\n            }  \r\n        }\r\n    }\r\n\r\n    function convertStateToString(uint _IdItem) public view returns(string memory){\r\n        if(itemsList[_IdItem].statusSesstion == StatusSesstion.START){\r\n            return \"Not Start\";\r\n        }else{\r\n            if(itemsList[_IdItem].statusSesstion == StatusSesstion.PRICING){\r\n                return \"Started\";\r\n            }else{\r\n                return \"Finish\";\r\n            }\r\n        }\r\n    }\r\n\r\n    function stringsEquals(string memory s1, string memory s2) private pure returns (bool) {\r\n        bytes memory b1 = bytes(s1);\r\n        bytes memory b2 = bytes(s2);\r\n        uint256 l1 = b1.length;\r\n        if (l1 != b2.length) return false;\r\n        for (uint256 i=0; i<l1; i++) {\r\n            if (b1[i] != b2[i]) return false;\r\n        }\r\n        return true;\r\n    }\r\n\r\n    function getLengthItems() public view returns(uint) {\r\n        return itemsList.length;\r\n    }\r\n    \r\n    function startSesstion(uint _IdItem) public onlyAdmin {\r\n        itemsList[_IdItem].statusSesstion = StatusSesstion.PRICING;\r\n        itemsList[_IdItem].timeSesstionEachOtherproduct = block.timestamp;\r\n    }\r\n\r\n    function stopSesstion(uint _IdItem) public onlyAdmin{\r\n        itemsList[_IdItem].statusSesstion = StatusSesstion.DONE;\r\n    }\r\n\r\n    function registerAccount(address _address, string memory _fullName, string memory _email, string memory _passwordAccount) public{\r\n        bool checkStatusAddress = false;\r\n        if(_address == admin){\r\n            revert(\"Account of admin can't register\");\r\n        }\r\n        if(totalAccounts.length > 10){\r\n            revert(\"The number of participants is less than ten.\");\r\n        }else{\r\n            for(uint i = 0; i < totalAccounts.length; i++){\r\n                if(_address == totalAccounts[i]){\r\n                    checkStatusAddress = true;\r\n                    break;\r\n                }\r\n            }\r\n            if(!checkStatusAddress){\r\n                totalAccounts.push(_address);\r\n                paticipants[_address].IDPaticipant = indexPaticipant;  \r\n                paticipants[_address].addressAccount = _address;\r\n                paticipants[_address].fullName = _fullName;\r\n                paticipants[_address].email = _email;\r\n                 paticipants[_address].passwordAccount = _passwordAccount;\r\n                paticipants[_address].countPricedSesstion = 0;\r\n                for(uint i = 0 ; i < index ; i++){\r\n                    DataChange memory dataChange = DataChange({IdItem: i, priceDeviation: 0, valueChangePricingOtherPaticipant: 0 , numberChangePricingOtherPaticipant: 0});\r\n                    paticipants[_address].listDataChange.push(dataChange);\r\n                }\r\n                indexPaticipant++;\r\n            }else{\r\n                revert(\"This address Really existed\");\r\n            }\r\n        }   \r\n    }\r\n    \r\n    function getProposedPrice(uint _IdItem) public onlyAdmin {\r\n        timeOutOfSesstion(_IdItem);\r\n        if(itemsList[_IdItem].statusSesstion != StatusSesstion.DONE){\r\n            revert(\"Wrong status of sesstion\");\r\n        }\r\n        uint totalPriceOfPaticipantAbove;\r\n        uint numberPaticipantJoneSestion = itemsList[_IdItem].checkAccount.length;\r\n        for(uint i = 0 ; i < numberPaticipantJoneSestion ; i++){\r\n              totalPriceOfPaticipantAbove += (paticipants[itemsList[_IdItem].checkAccount[i]].listDataChange[_IdItem].priceDeviation) * (100 - (paticipants[itemsList[_IdItem].checkAccount[i]].listDataChange[_IdItem].valueChangePricingOtherPaticipant));        \r\n        }\r\n        uint totalPriceOfPaticipantUnderLeft = 100 * numberPaticipantJoneSestion;\r\n        uint totalPriceOfPaticipantUnderRight;\r\n        for(uint i = 0 ; i < numberPaticipantJoneSestion ; i++){\r\n              totalPriceOfPaticipantUnderRight += paticipants[ itemsList[_IdItem].checkAccount[i]].listDataChange[_IdItem].valueChangePricingOtherPaticipant;\r\n        }\r\n        uint result = totalPriceOfPaticipantAbove / (totalPriceOfPaticipantUnderLeft - totalPriceOfPaticipantUnderRight);\r\n        itemsList[_IdItem].valueChangePricing = result;\r\n        //emit LogFinishPriceItems(_IdItem,  itemsList[_IdItem].nameItem, itemsList[_IdItem].firstPrice, itemsList[_IdItem].itemDescription, itemsList[_IdItem].statusSesstion, itemsList[_IdItem].valueChangePricing);\r\n    }\r\n\r\n    function accumulatedDeviation(uint _newPriceOfParticipan, uint _IdItem) public notOnlyAdmin checkStatus(StatusSesstion.PRICING, _IdItem){\r\n        if(itemsList[_IdItem].checkAccount.length == 0){\r\n            itemsList[_IdItem].checkAccount.push(msg.sender);\r\n        }else{\r\n            for(uint i = 0 ; i < itemsList[_IdItem].checkAccount.length; i++){\r\n                if(itemsList[_IdItem].checkAccount[i] == msg.sender){\r\n                    status = true;\r\n                    break;\r\n                }\r\n            }\r\n            if(status == false){\r\n                itemsList[_IdItem].checkAccount.push(msg.sender);\r\n            }else{\r\n                status = false;\r\n            }\r\n        }\r\n        uint calNewPriceOfParticipant = calculatingDeviation(_newPriceOfParticipan, _IdItem);\r\n        uint numberPaticipant = paticipants[msg.sender].listDataChange[_IdItem].numberChangePricingOtherPaticipant;\r\n        uint currentPriceDeviation = paticipants[msg.sender].listDataChange[_IdItem].valueChangePricingOtherPaticipant;\r\n        uint value = (currentPriceDeviation * numberPaticipant + calNewPriceOfParticipant) / (numberPaticipant + 1);\r\n        paticipants[msg.sender].listDataChange[_IdItem].valueChangePricingOtherPaticipant = value;\r\n        paticipants[msg.sender].listDataChange[_IdItem].priceDeviation = _newPriceOfParticipan;\r\n        paticipants[msg.sender].listDataChange[_IdItem].numberChangePricingOtherPaticipant++;\r\n        itemsList[_IdItem].countPaticipantJoinSesstion++;\r\n    }\r\n\r\n    function calculatingDeviation(uint _priceOfParticipan, uint _IdItem) internal view returns (uint){\r\n        uint newPriceDeviation = 0;\r\n        if(itemsList[_IdItem].firstPrice > _priceOfParticipan){\r\n            newPriceDeviation = (itemsList[_IdItem].firstPrice  - _priceOfParticipan) * 100 / itemsList[_IdItem].firstPrice;\r\n        }else{\r\n            newPriceDeviation = (_priceOfParticipan - itemsList[_IdItem].firstPrice) * 100 / itemsList[_IdItem].firstPrice;\r\n        }\r\n        return uint(newPriceDeviation);\r\n    }\r\n\r\n    function timeOutOfSesstion(uint _IdItem) internal checkStatus(StatusSesstion.PRICING, _IdItem){\r\n        if(block.timestamp > itemsList[_IdItem].timeSesstionEachOtherproduct + itemsList[_IdItem].timeFinishSesstionEachOtherproduct){\r\n             itemsList[_IdItem].statusSesstion = StatusSesstion.DONE;\r\n        }\r\n    }\r\n\r\n    function getDataItems(uint _IdItem) public view returns(uint) {\r\n       return itemsList[_IdItem].valueChangePricing;\r\n    }\r\n\r\n    function getStatusSesstion(uint _IdItem) public view returns(StatusSesstion){\r\n        return itemsList[_IdItem].statusSesstion;\r\n    }\r\n\r\n    function setPriceOfItem(uint _IdItem, uint _price) public checkStatus(StatusSesstion.DONE, _IdItem){\r\n         itemsList[_IdItem].valueChangePricing = _price;\r\n    }\r\n}",
  "sourcePath": "C:\\Users\\Admin\\Desktop\\FunixPriceChanging\\contracts\\Session.sol",
  "compiler": {
    "name": "solc",
    "version": "0.8.10+commit.fc410830.Emscripten.clang"
  },
  "schemaVersion": "3.4.3",
  "updatedAt": "2021-12-21T03:57:28.551Z",
  "networkType": "ethereum",
  "devdoc": {
    "kind": "dev",
    "methods": {},
    "version": 1
  },
  "userdoc": {
    "kind": "user",
    "methods": {},
    "version": 1
  }
}