{
  "contractName": "Session",
  "abi": [
    {
      "inputs": [],
      "stateMutability": "nonpayable",
      "type": "constructor"
    },
    {
      "anonymous": false,
      "inputs": [
        {
          "indexed": true,
          "internalType": "uint256",
          "name": "_IdItems",
          "type": "uint256"
        },
        {
          "indexed": false,
          "internalType": "string",
          "name": "_nameItem",
          "type": "string"
        },
        {
          "indexed": false,
          "internalType": "string",
          "name": "_fullName",
          "type": "string"
        },
        {
          "indexed": false,
          "internalType": "uint256",
          "name": "_valueChangePricing",
          "type": "uint256"
        }
      ],
      "name": "LogChainPriceOfSession",
      "type": "event"
    },
    {
      "anonymous": false,
      "inputs": [
        {
          "indexed": true,
          "internalType": "uint256",
          "name": "_IdItems",
          "type": "uint256"
        },
        {
          "indexed": false,
          "internalType": "string",
          "name": "_nameItem",
          "type": "string"
        },
        {
          "indexed": false,
          "internalType": "uint256",
          "name": "_firstPrice",
          "type": "uint256"
        }
      ],
      "name": "LogStartSession",
      "type": "event"
    },
    {
      "anonymous": false,
      "inputs": [
        {
          "indexed": true,
          "internalType": "uint256",
          "name": "_IdItems",
          "type": "uint256"
        },
        {
          "indexed": false,
          "internalType": "string",
          "name": "_nameItem",
          "type": "string"
        },
        {
          "indexed": false,
          "internalType": "uint256",
          "name": "_firstPrice",
          "type": "uint256"
        }
      ],
      "name": "LogStopSession",
      "type": "event"
    },
    {
      "inputs": [],
      "name": "admin",
      "outputs": [
        {
          "internalType": "address",
          "name": "",
          "type": "address"
        }
      ],
      "stateMutability": "view",
      "type": "function",
      "constant": true
    },
    {
      "inputs": [
        {
          "internalType": "uint256",
          "name": "",
          "type": "uint256"
        }
      ],
      "name": "emptyArray1",
      "outputs": [
        {
          "internalType": "uint256",
          "name": "",
          "type": "uint256"
        }
      ],
      "stateMutability": "view",
      "type": "function",
      "constant": true
    },
    {
      "inputs": [
        {
          "internalType": "uint256",
          "name": "",
          "type": "uint256"
        }
      ],
      "name": "emptyArray2",
      "outputs": [
        {
          "internalType": "uint256",
          "name": "",
          "type": "uint256"
        }
      ],
      "stateMutability": "view",
      "type": "function",
      "constant": true
    },
    {
      "inputs": [],
      "name": "index",
      "outputs": [
        {
          "internalType": "uint256",
          "name": "",
          "type": "uint256"
        }
      ],
      "stateMutability": "view",
      "type": "function",
      "constant": true
    },
    {
      "inputs": [
        {
          "internalType": "uint256",
          "name": "",
          "type": "uint256"
        }
      ],
      "name": "itemsList",
      "outputs": [
        {
          "internalType": "uint256",
          "name": "IdItem",
          "type": "uint256"
        },
        {
          "internalType": "string",
          "name": "nameItem",
          "type": "string"
        },
        {
          "internalType": "string",
          "name": "imageHash",
          "type": "string"
        },
        {
          "internalType": "uint256",
          "name": "firstPrice",
          "type": "uint256"
        },
        {
          "internalType": "string",
          "name": "itemDescription",
          "type": "string"
        },
        {
          "internalType": "uint256",
          "name": "countPaticipantJoinSesstion",
          "type": "uint256"
        },
        {
          "internalType": "uint256",
          "name": "valueChangePricing",
          "type": "uint256"
        },
        {
          "internalType": "enum Main.StatusSesstion",
          "name": "statusSesstion",
          "type": "uint8"
        },
        {
          "internalType": "uint256",
          "name": "timeSesstionEachOtherproduct",
          "type": "uint256"
        },
        {
          "internalType": "uint256",
          "name": "timeFinishSesstionEachOtherproduct",
          "type": "uint256"
        }
      ],
      "stateMutability": "view",
      "type": "function",
      "constant": true
    },
    {
      "inputs": [
        {
          "internalType": "uint256",
          "name": "",
          "type": "uint256"
        }
      ],
      "name": "listHashImage",
      "outputs": [
        {
          "internalType": "string",
          "name": "",
          "type": "string"
        }
      ],
      "stateMutability": "view",
      "type": "function",
      "constant": true
    },
    {
      "inputs": [
        {
          "internalType": "uint256",
          "name": "",
          "type": "uint256"
        }
      ],
      "name": "listInformationOfImage",
      "outputs": [
        {
          "internalType": "string",
          "name": "",
          "type": "string"
        }
      ],
      "stateMutability": "view",
      "type": "function",
      "constant": true
    },
    {
      "inputs": [
        {
          "internalType": "uint256",
          "name": "",
          "type": "uint256"
        }
      ],
      "name": "listNameOfItems",
      "outputs": [
        {
          "internalType": "string",
          "name": "",
          "type": "string"
        }
      ],
      "stateMutability": "view",
      "type": "function",
      "constant": true
    },
    {
      "inputs": [
        {
          "internalType": "uint256",
          "name": "",
          "type": "uint256"
        }
      ],
      "name": "listPrice",
      "outputs": [
        {
          "internalType": "uint256",
          "name": "",
          "type": "uint256"
        }
      ],
      "stateMutability": "view",
      "type": "function",
      "constant": true
    },
    {
      "inputs": [
        {
          "internalType": "address",
          "name": "",
          "type": "address"
        }
      ],
      "name": "paticipants",
      "outputs": [
        {
          "internalType": "address",
          "name": "addressAccount",
          "type": "address"
        },
        {
          "internalType": "string",
          "name": "fullName",
          "type": "string"
        },
        {
          "internalType": "string",
          "name": "email",
          "type": "string"
        },
        {
          "internalType": "string",
          "name": "passwordAccount",
          "type": "string"
        },
        {
          "internalType": "uint256",
          "name": "countPricedSesstion",
          "type": "uint256"
        }
      ],
      "stateMutability": "view",
      "type": "function",
      "constant": true
    },
    {
      "inputs": [
        {
          "internalType": "uint256",
          "name": "",
          "type": "uint256"
        }
      ],
      "name": "totalAccounts",
      "outputs": [
        {
          "internalType": "address",
          "name": "",
          "type": "address"
        }
      ],
      "stateMutability": "view",
      "type": "function",
      "constant": true
    },
    {
      "inputs": [
        {
          "internalType": "string",
          "name": "_nameItem",
          "type": "string"
        },
        {
          "internalType": "string",
          "name": "_imageHash",
          "type": "string"
        },
        {
          "internalType": "string",
          "name": "_itemDescription",
          "type": "string"
        },
        {
          "internalType": "uint256",
          "name": "_firstPrice",
          "type": "uint256"
        }
      ],
      "name": "createNewItem",
      "outputs": [],
      "stateMutability": "nonpayable",
      "type": "function"
    },
    {
      "inputs": [],
      "name": "addData",
      "outputs": [],
      "stateMutability": "nonpayable",
      "type": "function"
    },
    {
      "inputs": [
        {
          "internalType": "uint256",
          "name": "_IdItem",
          "type": "uint256"
        }
      ],
      "name": "convertStateToString",
      "outputs": [
        {
          "internalType": "string",
          "name": "",
          "type": "string"
        }
      ],
      "stateMutability": "view",
      "type": "function",
      "constant": true
    },
    {
      "inputs": [],
      "name": "getLengthItems",
      "outputs": [
        {
          "internalType": "uint256",
          "name": "",
          "type": "uint256"
        }
      ],
      "stateMutability": "view",
      "type": "function",
      "constant": true
    },
    {
      "inputs": [
        {
          "internalType": "uint256",
          "name": "_IdItem",
          "type": "uint256"
        }
      ],
      "name": "stopSesstion",
      "outputs": [],
      "stateMutability": "nonpayable",
      "type": "function"
    },
    {
      "inputs": [
        {
          "internalType": "uint256",
          "name": "_IdItem",
          "type": "uint256"
        }
      ],
      "name": "startSesstion",
      "outputs": [],
      "stateMutability": "nonpayable",
      "type": "function"
    },
    {
      "inputs": [
        {
          "internalType": "uint256",
          "name": "_IdItem",
          "type": "uint256"
        },
        {
          "internalType": "uint256",
          "name": "_price",
          "type": "uint256"
        }
      ],
      "name": "setFinalPriceOfItem",
      "outputs": [],
      "stateMutability": "nonpayable",
      "type": "function"
    },
    {
      "inputs": [
        {
          "internalType": "uint256",
          "name": "_IdItem",
          "type": "uint256"
        },
        {
          "internalType": "address",
          "name": "_address",
          "type": "address"
        }
      ],
      "name": "showDataPrice",
      "outputs": [
        {
          "internalType": "uint256[]",
          "name": "",
          "type": "uint256[]"
        }
      ],
      "stateMutability": "view",
      "type": "function",
      "constant": true
    },
    {
      "inputs": [
        {
          "internalType": "uint256",
          "name": "_IdItem",
          "type": "uint256"
        },
        {
          "internalType": "address",
          "name": "_address",
          "type": "address"
        }
      ],
      "name": "showDataDeviation",
      "outputs": [
        {
          "internalType": "uint256[]",
          "name": "",
          "type": "uint256[]"
        }
      ],
      "stateMutability": "view",
      "type": "function",
      "constant": true
    },
    {
      "inputs": [
        {
          "internalType": "uint256",
          "name": "_IdItem",
          "type": "uint256"
        }
      ],
      "name": "getAddressChangedPriceOfItems",
      "outputs": [
        {
          "internalType": "address[]",
          "name": "",
          "type": "address[]"
        }
      ],
      "stateMutability": "view",
      "type": "function",
      "constant": true
    },
    {
      "inputs": [],
      "name": "getAddressUserRegister",
      "outputs": [
        {
          "internalType": "address[]",
          "name": "",
          "type": "address[]"
        }
      ],
      "stateMutability": "view",
      "type": "function",
      "constant": true
    },
    {
      "inputs": [
        {
          "internalType": "address",
          "name": "_address",
          "type": "address"
        },
        {
          "internalType": "string",
          "name": "_fullName",
          "type": "string"
        },
        {
          "internalType": "string",
          "name": "_email",
          "type": "string"
        },
        {
          "internalType": "string",
          "name": "_passwordAccount",
          "type": "string"
        }
      ],
      "name": "registerAccount",
      "outputs": [],
      "stateMutability": "nonpayable",
      "type": "function"
    },
    {
      "inputs": [
        {
          "internalType": "uint256",
          "name": "_IdItem",
          "type": "uint256"
        }
      ],
      "name": "getProposedPrice",
      "outputs": [],
      "stateMutability": "nonpayable",
      "type": "function"
    },
    {
      "inputs": [
        {
          "internalType": "uint256",
          "name": "_newPriceOfParticipan",
          "type": "uint256"
        },
        {
          "internalType": "uint256",
          "name": "_IdItem",
          "type": "uint256"
        }
      ],
      "name": "accumulatedDeviation",
      "outputs": [],
      "stateMutability": "nonpayable",
      "type": "function"
    },
    {
      "inputs": [
        {
          "internalType": "uint256",
          "name": "_IdItem",
          "type": "uint256"
        }
      ],
      "name": "timeOutOfSesstion",
      "outputs": [],
      "stateMutability": "nonpayable",
      "type": "function"
    }
  ],
  "bytecode": "0x608060405260008060146101000a81548160ff021916908315150217905550600060035560405180602001604052806040518060400160405280601581526020017f53616d73756e672047616c617879204e6f746532300000000000000000000000815250815250600590600162000079929190620008c7565b5060405180602001604052806040518060600160405280602e8152602001620053a6602e91398152506006906001620000b4929190620008c7565b506040518060200160405280604051806101e001604052806101a58152602001620053d46101a591398152506007906001620000f2929190620008c7565b5060405180602001604052806103a261ffff1681525060089060016200011a9291906200092e565b506040518060200160405280600060ff1681525060099060016200014092919062000986565b506040518060200160405280600060ff16815250600a9060016200016692919062000986565b503480156200017457600080fd5b50336000806101000a81548173ffffffffffffffffffffffffffffffffffffffff021916908373ffffffffffffffffffffffffffffffffffffffff160217905550620001c5620001cb60201b60201c565b62000d26565b60005b600680549050811015620007d257600080600090505b60028054905081101562000392576200036d600282815481106200020d576200020c62000bdc565b5b90600052602060002090600d020160020180546200022b9062000c3a565b80601f0160208091040260200160405190810160405280929190818152602001828054620002599062000c3a565b8015620002aa5780601f106200027e57610100808354040283529160200191620002aa565b820191906000526020600020905b8154815290600101906020018083116200028c57829003601f168201915b505050505060068581548110620002c657620002c562000bdc565b5b906000526020600020018054620002dd9062000c3a565b80601f01602080910402602001604051908101604052809291908181526020018280546200030b9062000c3a565b80156200035c5780601f1062000330576101008083540402835291602001916200035c565b820191906000526020600020905b8154815290600101906020018083116200033e57829003601f168201915b5050505050620007d560201b60201c565b915081156200037c5762000392565b8080620003899062000ca9565b915050620001e4565b5080620007bb576060806002604051806101a0016040528086815260200160058781548110620003c757620003c662000bdc565b5b906000526020600020018054620003de9062000c3a565b80601f01602080910402602001604051908101604052809291908181526020018280546200040c9062000c3a565b80156200045d5780601f1062000431576101008083540402835291602001916200045d565b820191906000526020600020905b8154815290600101906020018083116200043f57829003601f168201915b50505050508152602001600687815481106200047e576200047d62000bdc565b5b906000526020600020018054620004959062000c3a565b80601f0160208091040260200160405190810160405280929190818152602001828054620004c39062000c3a565b8015620005145780601f10620004e85761010080835404028352916020019162000514565b820191906000526020600020905b815481529060010190602001808311620004f657829003601f168201915b505050505081526020016008878154811062000535576200053462000bdc565b5b90600052602060002001548152602001600787815481106200055c576200055b62000bdc565b5b906000526020600020018054620005739062000c3a565b80601f0160208091040260200160405190810160405280929190818152602001828054620005a19062000c3a565b8015620005f25780601f10620005c657610100808354040283529160200191620005f2565b820191906000526020600020905b815481529060010190602001808311620005d457829003601f168201915b5050505050815260200160008152602001848152602001848152602001600081526020018381526020016000600381111562000633576200063262000cf7565b5b81526020016000815260200161025881525090806001815401808255809150506001900390600052602060002090600d020160009091909190915060008201518160000155602082015181600101908051906020019062000696929190620009dd565b506040820151816002019080519060200190620006b5929190620009dd565b50606082015181600301556080820151816004019080519060200190620006de929190620009dd565b5060a0820151816005015560c08201518160060190805190602001906200070792919062000a6e565b5060e08201518160070190805190602001906200072692919062000a6e565b5061010082015181600801556101208201518160090190805190602001906200075192919062000ac0565b5061014082015181600a0160006101000a81548160ff0219169083600381111562000781576200078062000cf7565b5b021790555061016082015181600b015561018082015181600c0155505060036000815480929190620007b39062000ca9565b919050555050505b508080620007c99062000ca9565b915050620001ce565b50565b600080839050600083905060008251905081518114620007fc5760009350505050620008c1565b60005b81811015620008b8578281815181106200081e576200081d62000bdc565b5b602001015160f81c60f81b7effffffffffffffffffffffffffffffffffffffffffffffffffffffffffffff191684828151811062000861576200086062000bdc565b5b602001015160f81c60f81b7effffffffffffffffffffffffffffffffffffffffffffffffffffffffffffff191614620008a2576000945050505050620008c1565b8080620008af9062000ca9565b915050620007ff565b50600193505050505b92915050565b8280548282559060005260206000209081019282156200091b579160200282015b828111156200091a57825182908051906020019062000909929190620009dd565b5091602001919060010190620008e8565b5b5090506200092a919062000b4f565b5090565b82805482825590600052602060002090810192821562000973579160200282015b8281111562000972578251829061ffff169055916020019190600101906200094f565b5b50905062000982919062000b77565b5090565b828054828255906000526020600020908101928215620009ca579160200282015b82811115620009c9578251829060ff16905591602001919060010190620009a7565b5b509050620009d9919062000b77565b5090565b828054620009eb9062000c3a565b90600052602060002090601f01602090048101928262000a0f576000855562000a5b565b82601f1062000a2a57805160ff191683800117855562000a5b565b8280016001018555821562000a5b579182015b8281111562000a5a57825182559160200191906001019062000a3d565b5b50905062000a6a919062000b77565b5090565b82805482825590600052602060002090810192821562000aad579160200282015b8281111562000aac57825182559160200191906001019062000a8f565b5b50905062000abc919062000b77565b5090565b82805482825590600052602060002090810192821562000b3c579160200282015b8281111562000b3b5782518260006101000a81548173ffffffffffffffffffffffffffffffffffffffff021916908373ffffffffffffffffffffffffffffffffffffffff1602179055509160200191906001019062000ae1565b5b50905062000b4b919062000b77565b5090565b5b8082111562000b73576000818162000b69919062000b96565b5060010162000b50565b5090565b5b8082111562000b9257600081600090555060010162000b78565b5090565b50805462000ba49062000c3a565b6000825580601f1062000bb8575062000bd9565b601f01602090049060005260206000209081019062000bd8919062000b77565b5b50565b7f4e487b7100000000000000000000000000000000000000000000000000000000600052603260045260246000fd5b7f4e487b7100000000000000000000000000000000000000000000000000000000600052602260045260246000fd5b6000600282049050600182168062000c5357607f821691505b6020821081141562000c6a5762000c6962000c0b565b5b50919050565b7f4e487b7100000000000000000000000000000000000000000000000000000000600052601160045260246000fd5b6000819050919050565b600062000cb68262000c9f565b91507fffffffffffffffffffffffffffffffffffffffffffffffffffffffffffffffff82141562000cec5762000ceb62000c70565b5b600182019050919050565b7f4e487b7100000000000000000000000000000000000000000000000000000000600052602160045260246000fd5b6146708062000d366000396000f3fe608060405234801561001057600080fd5b506004361061018e5760003560e01c806387d81f7c116100de578063c990777711610097578063e8c06c5411610071578063e8c06c54146104d8578063f11c37c5146104f4578063f53dbb2e14610524578063f851a440146105545761018e565b8063c990777714610482578063d19757db146104b2578063e3ce9ba7146104ce5761018e565b806387d81f7c1461037f5780638df2873e146103af5780639005bf74146103df57806398f685101461040f578063b09da1541461042d578063c2bd9d95146104495761018e565b806340a1ca291161014b5780635ef00232116101255780635ef00232146102e75780636b5750c31461030357806379daaa601461033357806385d34fb71461034f5761018e565b806340a1ca29146102795780634ae19b1a146102955780635657198a146102c95761018e565b80631043bd701461019357806322017e35146101af5780632986c0e5146101df5780632d1c7f5e146101fd578063358c371f146102195780633fe9112114610249575b600080fd5b6101ad60048036038101906101a891906137f4565b610572565b005b6101c960048036038101906101c491906137f4565b61079b565b6040516101d69190613830565b60405180910390f35b6101e76107bf565b6040516101f49190613830565b60405180910390f35b6102176004803603810190610212919061384b565b6107c5565b005b610233600480360381019061022e91906137f4565b61096c565b6040516102409190613924565b60405180910390f35b610263600480360381019061025e91906137f4565b610a18565b6040516102709190613924565b60405180910390f35b610293600480360381019061028e91906137f4565b610ac4565b005b6102af60048036038101906102aa91906139a4565b61109d565b6040516102c09594939291906139e0565b60405180910390f35b6102d161128b565b6040516102de9190613b06565b60405180910390f35b61030160048036038101906102fc919061384b565b6113a7565b005b61031d60048036038101906103189190613b28565b611bb8565b60405161032a9190613c26565b60405180910390f35b61034d60048036038101906103489190613d7d565b611c76565b005b610369600480360381019061036491906137f4565b611de7565b6040516103769190613b06565b60405180910390f35b610399600480360381019061039491906137f4565b611e9a565b6040516103a69190613830565b60405180910390f35b6103c960048036038101906103c491906137f4565b611ebe565b6040516103d69190613924565b60405180910390f35b6103f960048036038101906103f491906137f4565b611f6a565b6040516104069190613924565b60405180910390f35b61041761217e565b6040516104249190613830565b60405180910390f35b610447600480360381019061044291906137f4565b61218b565b005b610463600480360381019061045e91906137f4565b61239c565b6040516104799a99989796959493929190613eaf565b60405180910390f35b61049c60048036038101906104979190613b28565b6125a5565b6040516104a99190613c26565b60405180910390f35b6104cc60048036038101906104c79190613f60565b612663565b005b6104d6612bfc565b005b6104f260048036038101906104ed91906137f4565b6131a5565b005b61050e600480360381019061050991906137f4565b6133a3565b60405161051b9190613830565b60405180910390f35b61053e600480360381019061053991906137f4565b6133c7565b60405161054b919061401b565b60405180910390f35b61055c613406565b604051610569919061401b565b60405180910390f35b60008054906101000a900473ffffffffffffffffffffffffffffffffffffffff1673ffffffffffffffffffffffffffffffffffffffff163373ffffffffffffffffffffffffffffffffffffffff1614610600576040517f08c379a00000000000000000000000000000000000000000000000000000000081526004016105f790614082565b60405180910390fd5b60008181600381111561061657610615613e38565b5b6002828154811061062a576106296140a2565b5b90600052602060002090600d0201600a0160009054906101000a900460ff16600381111561065b5761065a613e38565b5b1461069b576040517f08c379a00000000000000000000000000000000000000000000000000000000081526004016106929061411d565b60405180910390fd5b6001600284815481106106b1576106b06140a2565b5b90600052602060002090600d0201600a0160006101000a81548160ff021916908360038111156106e4576106e3613e38565b5b021790555042600284815481106106fe576106fd6140a2565b5b90600052602060002090600d0201600b0181905550827faa3f0b5a9d087149295bb224b9c28e39af6cb01e0e04999b4c44626f6f14498560028581548110610749576107486140a2565b5b90600052602060002090600d02016001016002868154811061076e5761076d6140a2565b5b90600052602060002090600d02016003015460405161078e929190614233565b60405180910390a2505050565b600a81815481106107ab57600080fd5b906000526020600020016000915090505481565b60035481565b60008054906101000a900473ffffffffffffffffffffffffffffffffffffffff1673ffffffffffffffffffffffffffffffffffffffff163373ffffffffffffffffffffffffffffffffffffffff1614610853576040517f08c379a000000000000000000000000000000000000000000000000000000000815260040161084a90614082565b60405180910390fd5b60028281600381111561086957610868613e38565b5b6002828154811061087d5761087c6140a2565b5b90600052602060002090600d0201600a0160009054906101000a900460ff1660038111156108ae576108ad613e38565b5b146108ee576040517f08c379a00000000000000000000000000000000000000000000000000000000081526004016108e59061411d565b60405180910390fd5b8260028581548110610903576109026140a2565b5b90600052602060002090600d02016003018190555060036002858154811061092e5761092d6140a2565b5b90600052602060002090600d0201600a0160006101000a81548160ff0219169083600381111561096157610960613e38565b5b021790555050505050565b6007818154811061097c57600080fd5b9060005260206000200160009150905080546109979061416c565b80601f01602080910402602001604051908101604052809291908181526020018280546109c39061416c565b8015610a105780601f106109e557610100808354040283529160200191610a10565b820191906000526020600020905b8154815290600101906020018083116109f357829003601f168201915b505050505081565b60058181548110610a2857600080fd5b906000526020600020016000915090508054610a439061416c565b80601f0160208091040260200160405190810160405280929190818152602001828054610a6f9061416c565b8015610abc5780601f10610a9157610100808354040283529160200191610abc565b820191906000526020600020905b815481529060010190602001808311610a9f57829003601f168201915b505050505081565b60026003811115610ad857610ad7613e38565b5b60028281548110610aec57610aeb6140a2565b5b90600052602060002090600d0201600a0160009054906101000a900460ff166003811115610b1d57610b1c613e38565b5b14610b5d576040517f08c379a0000000000000000000000000000000000000000000000000000000008152600401610b549061411d565b60405180910390fd5b60008060028381548110610b7457610b736140a2565b5b90600052602060002090600d020160090180549050905060005b81811015610e5e5760006001600060028781548110610bb057610baf6140a2565b5b90600052602060002090600d02016009018481548110610bd357610bd26140a2565b5b9060005260206000200160009054906101000a900473ffffffffffffffffffffffffffffffffffffffff1673ffffffffffffffffffffffffffffffffffffffff1673ffffffffffffffffffffffffffffffffffffffff1681526020019081526020016000206005018581548110610c4d57610c4c6140a2565b5b90600052602060002090600402016003015490506001600060028781548110610c7957610c786140a2565b5b90600052602060002090600d02016009018481548110610c9c57610c9b6140a2565b5b9060005260206000200160009054906101000a900473ffffffffffffffffffffffffffffffffffffffff1673ffffffffffffffffffffffffffffffffffffffff1673ffffffffffffffffffffffffffffffffffffffff1681526020019081526020016000206005018581548110610d1657610d156140a2565b5b90600052602060002090600402016002018181548110610d3957610d386140a2565b5b90600052602060002001546064610d509190614292565b6001600060028881548110610d6857610d676140a2565b5b90600052602060002090600d02016009018581548110610d8b57610d8a6140a2565b5b9060005260206000200160009054906101000a900473ffffffffffffffffffffffffffffffffffffffff1673ffffffffffffffffffffffffffffffffffffffff1673ffffffffffffffffffffffffffffffffffffffff1681526020019081526020016000206005018681548110610e0557610e046140a2565b5b90600052602060002090600402016001018281548110610e2857610e276140a2565b5b9060005260206000200154610e3d91906142c6565b84610e489190614320565b9350508080610e5690614376565b915050610b8e565b506000816064610e6e91906142c6565b9050600080600090505b8381101561104f5760006001600060028981548110610e9a57610e996140a2565b5b90600052602060002090600d02016009018481548110610ebd57610ebc6140a2565b5b9060005260206000200160009054906101000a900473ffffffffffffffffffffffffffffffffffffffff1673ffffffffffffffffffffffffffffffffffffffff1673ffffffffffffffffffffffffffffffffffffffff1681526020019081526020016000206005018781548110610f3757610f366140a2565b5b90600052602060002090600402016003015490506001600060028981548110610f6357610f626140a2565b5b90600052602060002090600d02016009018481548110610f8657610f856140a2565b5b9060005260206000200160009054906101000a900473ffffffffffffffffffffffffffffffffffffffff1673ffffffffffffffffffffffffffffffffffffffff1673ffffffffffffffffffffffffffffffffffffffff168152602001908152602001600020600501878154811061100057610fff6140a2565b5b90600052602060002090600402016002018181548110611023576110226140a2565b5b9060005260206000200154836110399190614320565b925050808061104790614376565b915050610e78565b506000818361105e9190614292565b8561106991906143ee565b905080600287815481106110805761107f6140a2565b5b90600052602060002090600d020160080181905550505050505050565b60016020528060005260406000206000915090508060000160009054906101000a900473ffffffffffffffffffffffffffffffffffffffff16908060010180546110e69061416c565b80601f01602080910402602001604051908101604052809291908181526020018280546111129061416c565b801561115f5780601f106111345761010080835404028352916020019161115f565b820191906000526020600020905b81548152906001019060200180831161114257829003601f168201915b5050505050908060020180546111749061416c565b80601f01602080910402602001604051908101604052809291908181526020018280546111a09061416c565b80156111ed5780601f106111c2576101008083540402835291602001916111ed565b820191906000526020600020905b8154815290600101906020018083116111d057829003601f168201915b5050505050908060030180546112029061416c565b80601f016020809104026020016040519081016040528092919081815260200182805461122e9061416c565b801561127b5780601f106112505761010080835404028352916020019161127b565b820191906000526020600020905b81548152906001019060200180831161125e57829003601f168201915b5050505050908060040154905085565b606060008054906101000a900473ffffffffffffffffffffffffffffffffffffffff1673ffffffffffffffffffffffffffffffffffffffff163373ffffffffffffffffffffffffffffffffffffffff161461131b576040517f08c379a000000000000000000000000000000000000000000000000000000000815260040161131290614082565b60405180910390fd5b600480548060200260200160405190810160405280929190818152602001828054801561139d57602002820191906000526020600020905b8160009054906101000a900473ffffffffffffffffffffffffffffffffffffffff1673ffffffffffffffffffffffffffffffffffffffff1681526020019060010190808311611353575b5050505050905090565b60008054906101000a900473ffffffffffffffffffffffffffffffffffffffff1673ffffffffffffffffffffffffffffffffffffffff163373ffffffffffffffffffffffffffffffffffffffff161415611436576040517f08c379a000000000000000000000000000000000000000000000000000000000815260040161142d9061446b565b60405180910390fd5b60018181600381111561144c5761144b613e38565b5b600282815481106114605761145f6140a2565b5b90600052602060002090600d0201600a0160009054906101000a900460ff16600381111561149157611490613e38565b5b146114d1576040517f08c379a00000000000000000000000000000000000000000000000000000000081526004016114c89061411d565b60405180910390fd5b6000600284815481106114e7576114e66140a2565b5b90600052602060002090600d020160090180549050141561158d5760028381548110611516576115156140a2565b5b90600052602060002090600d0201600901339080600181540180825580915050600190039060005260206000200160009091909190916101000a81548173ffffffffffffffffffffffffffffffffffffffff021916908373ffffffffffffffffffffffffffffffffffffffff16021790555061174c565b60005b600284815481106115a4576115a36140a2565b5b90600052602060002090600d020160090180549050811015611688573373ffffffffffffffffffffffffffffffffffffffff16600285815481106115eb576115ea6140a2565b5b90600052602060002090600d0201600901828154811061160e5761160d6140a2565b5b9060005260206000200160009054906101000a900473ffffffffffffffffffffffffffffffffffffffff1673ffffffffffffffffffffffffffffffffffffffff161415611675576001600060146101000a81548160ff021916908315150217905550611688565b808061168090614376565b915050611590565b5060001515600060149054906101000a900460ff161515141561173057600283815481106116b9576116b86140a2565b5b90600052602060002090600d0201600901339080600181540180825580915050600190039060005260206000200160009091909190916101000a81548173ffffffffffffffffffffffffffffffffffffffff021916908373ffffffffffffffffffffffffffffffffffffffff16021790555061174b565b60008060146101000a81548160ff0219169083151502179055505b5b6000611758858561342a565b90506000600160003373ffffffffffffffffffffffffffffffffffffffff1673ffffffffffffffffffffffffffffffffffffffff16815260200190815260200160002060050185815481106117b0576117af6140a2565b5b90600052602060002090600402016003015490506000600160003373ffffffffffffffffffffffffffffffffffffffff1673ffffffffffffffffffffffffffffffffffffffff168152602001908152602001600020600501868154811061181a576118196140a2565b5b90600052602060002090600402016003015490506000600160003373ffffffffffffffffffffffffffffffffffffffff1673ffffffffffffffffffffffffffffffffffffffff1681526020019081526020016000206005018781548110611884576118836140a2565b5b906000526020600020906004020160020183815481106118a7576118a66140a2565b5b9060005260206000200154905060006001836118c39190614320565b8584846118d091906142c6565b6118da9190614320565b6118e491906143ee565b9050600160003373ffffffffffffffffffffffffffffffffffffffff1673ffffffffffffffffffffffffffffffffffffffff168152602001908152602001600020600501888154811061193a576119396140a2565b5b9060005260206000209060040201600201819080600181540180825580915050600190039060005260206000200160009091909190915055600160003373ffffffffffffffffffffffffffffffffffffffff1673ffffffffffffffffffffffffffffffffffffffff16815260200190815260200160002060050188815481106119c6576119c56140a2565b5b9060005260206000209060040201600101899080600181540180825580915050600190039060005260206000200160009091909190915055600160003373ffffffffffffffffffffffffffffffffffffffff1673ffffffffffffffffffffffffffffffffffffffff1681526020019081526020016000206005018881548110611a5257611a516140a2565b5b90600052602060002090600402016003016000815480929190611a7490614376565b9190505550600160003373ffffffffffffffffffffffffffffffffffffffff1673ffffffffffffffffffffffffffffffffffffffff1681526020019081526020016000206004016000815480929190611acc90614376565b919050555060028881548110611ae557611ae46140a2565b5b90600052602060002090600d02016005016000815480929190611b0790614376565b9190505550877ffc94567f8570ffc605741a9414d18afce2f7a39ec1e0e0f6cb3339862d0e492160028a81548110611b4257611b416140a2565b5b90600052602060002090600d0201600101600160003373ffffffffffffffffffffffffffffffffffffffff1673ffffffffffffffffffffffffffffffffffffffff1681526020019081526020016000206001018c604051611ba59392919061448b565b60405180910390a2505050505050505050565b6060600160008373ffffffffffffffffffffffffffffffffffffffff1673ffffffffffffffffffffffffffffffffffffffff1681526020019081526020016000206005018381548110611c0e57611c0d6140a2565b5b9060005260206000209060040201600201805480602002602001604051908101604052809291908181526020018280548015611c6957602002820191906000526020600020905b815481526020019060010190808311611c55575b5050505050905092915050565b60008054906101000a900473ffffffffffffffffffffffffffffffffffffffff1673ffffffffffffffffffffffffffffffffffffffff163373ffffffffffffffffffffffffffffffffffffffff1614611d04576040517f08c379a0000000000000000000000000000000000000000000000000000000008152600401611cfb90614082565b60405180910390fd5b600584908060018154018082558091505060019003906000526020600020016000909190919091509080519060200190611d3f929190613630565b50600683908060018154018082558091505060019003906000526020600020016000909190919091509080519060200190611d7b929190613630565b50600782908060018154018082558091505060019003906000526020600020016000909190919091509080519060200190611db7929190613630565b50600881908060018154018082558091505060019003906000526020600020016000909190919091505550505050565b606060028281548110611dfd57611dfc6140a2565b5b90600052602060002090600d0201600901805480602002602001604051908101604052809291908181526020018280548015611e8e57602002820191906000526020600020905b8160009054906101000a900473ffffffffffffffffffffffffffffffffffffffff1673ffffffffffffffffffffffffffffffffffffffff1681526020019060010190808311611e44575b50505050509050919050565b60088181548110611eaa57600080fd5b906000526020600020016000915090505481565b60068181548110611ece57600080fd5b906000526020600020016000915090508054611ee99061416c565b80601f0160208091040260200160405190810160405280929190818152602001828054611f159061416c565b8015611f625780601f10611f3757610100808354040283529160200191611f62565b820191906000526020600020905b815481529060010190602001808311611f4557829003601f168201915b505050505081565b606060006003811115611f8057611f7f613e38565b5b60028381548110611f9457611f936140a2565b5b90600052602060002090600d0201600a0160009054906101000a900460ff166003811115611fc557611fc4613e38565b5b1415612008576040518060400160405280600981526020017f4e6f7420537461727400000000000000000000000000000000000000000000008152509050612179565b6001600381111561201c5761201b613e38565b5b600283815481106120305761202f6140a2565b5b90600052602060002090600d0201600a0160009054906101000a900460ff16600381111561206157612060613e38565b5b14156120a4576040518060400160405280600781526020017f53746172746564000000000000000000000000000000000000000000000000008152509050612179565b600260038111156120b8576120b7613e38565b5b600283815481106120cc576120cb6140a2565b5b90600052602060002090600d0201600a0160009054906101000a900460ff1660038111156120fd576120fc613e38565b5b1415612140576040518060400160405280600681526020017f456e64696e6700000000000000000000000000000000000000000000000000008152509050612179565b6040518060400160405280600481526020017f446f6e650000000000000000000000000000000000000000000000000000000081525090505b919050565b6000600280549050905090565b6000600282815481106121a1576121a06140a2565b5b90600052602060002090600d0201600b0154141561220c576000600282815481106121cf576121ce6140a2565b5b90600052602060002090600d0201600a0160006101000a81548160ff0219169083600381111561220257612201613e38565b5b0217905550612399565b600281815481106122205761221f6140a2565b5b90600052602060002090600d0201600b01544211801561229457506002818154811061224f5761224e6140a2565b5b90600052602060002090600d0201600c015460028281548110612275576122746140a2565b5b90600052602060002090600d0201600b01546122919190614320565b42105b156122ec576001600282815481106122af576122ae6140a2565b5b90600052602060002090600d0201600a0160006101000a81548160ff021916908360038111156122e2576122e1613e38565b5b0217905550612398565b60028181548110612300576122ff6140a2565b5b90600052602060002090600d0201600c015460028281548110612326576123256140a2565b5b90600052602060002090600d0201600b01546123429190614320565b42111561239757600280828154811061235e5761235d6140a2565b5b90600052602060002090600d0201600a0160006101000a81548160ff0219169083600381111561239157612390613e38565b5b02179055505b5b5b50565b600281815481106123ac57600080fd5b90600052602060002090600d02016000915090508060000154908060010180546123d59061416c565b80601f01602080910402602001604051908101604052809291908181526020018280546124019061416c565b801561244e5780601f106124235761010080835404028352916020019161244e565b820191906000526020600020905b81548152906001019060200180831161243157829003601f168201915b5050505050908060020180546124639061416c565b80601f016020809104026020016040519081016040528092919081815260200182805461248f9061416c565b80156124dc5780601f106124b1576101008083540402835291602001916124dc565b820191906000526020600020905b8154815290600101906020018083116124bf57829003601f168201915b5050505050908060030154908060040180546124f79061416c565b80601f01602080910402602001604051908101604052809291908181526020018280546125239061416c565b80156125705780601f1061254557610100808354040283529160200191612570565b820191906000526020600020905b81548152906001019060200180831161255357829003601f168201915b50505050509080600501549080600801549080600a0160009054906101000a900460ff169080600b01549080600c015490508a565b6060600160008373ffffffffffffffffffffffffffffffffffffffff1673ffffffffffffffffffffffffffffffffffffffff16815260200190815260200160002060050183815481106125fb576125fa6140a2565b5b906000526020600020906004020160010180548060200260200160405190810160405280929190818152602001828054801561265657602002820191906000526020600020905b815481526020019060010190808311612642575b5050505050905092915050565b6000808054906101000a900473ffffffffffffffffffffffffffffffffffffffff1673ffffffffffffffffffffffffffffffffffffffff168573ffffffffffffffffffffffffffffffffffffffff1614156126f3576040517f08c379a00000000000000000000000000000000000000000000000000000000081526004016126ea9061451c565b60405180910390fd5b600a600480549050111561273c576040517f08c379a0000000000000000000000000000000000000000000000000000000008152600401612733906145ae565b60405180910390fd5b60005b6004805490508110156127da57600481815481106127605761275f6140a2565b5b9060005260206000200160009054906101000a900473ffffffffffffffffffffffffffffffffffffffff1673ffffffffffffffffffffffffffffffffffffffff168673ffffffffffffffffffffffffffffffffffffffff1614156127c757600191506127da565b80806127d290614376565b91505061273f565b5080612bba576004859080600181540180825580915050600190039060005260206000200160009091909190916101000a81548173ffffffffffffffffffffffffffffffffffffffff021916908373ffffffffffffffffffffffffffffffffffffffff16021790555084600160008773ffffffffffffffffffffffffffffffffffffffff1673ffffffffffffffffffffffffffffffffffffffff16815260200190815260200160002060000160006101000a81548173ffffffffffffffffffffffffffffffffffffffff021916908373ffffffffffffffffffffffffffffffffffffffff16021790555083600160008773ffffffffffffffffffffffffffffffffffffffff1673ffffffffffffffffffffffffffffffffffffffff168152602001908152602001600020600101908051906020019061291a929190613630565b5082600160008773ffffffffffffffffffffffffffffffffffffffff1673ffffffffffffffffffffffffffffffffffffffff1681526020019081526020016000206002019080519060200190612971929190613630565b5081600160008773ffffffffffffffffffffffffffffffffffffffff1673ffffffffffffffffffffffffffffffffffffffff16815260200190815260200160002060030190805190602001906129c8929190613630565b506000600160008773ffffffffffffffffffffffffffffffffffffffff1673ffffffffffffffffffffffffffffffffffffffff1681526020019081526020016000206004018190555060005b600354811015612bb457600060405180608001604052808381526020016009805480602002602001604051908101604052809291908181526020018280548015612a7d57602002820191906000526020600020905b815481526020019060010190808311612a69575b50505050508152602001600a805480602002602001604051908101604052809291908181526020018280548015612ad357602002820191906000526020600020905b815481526020019060010190808311612abf575b5050505050815260200160008152509050600160008873ffffffffffffffffffffffffffffffffffffffff1673ffffffffffffffffffffffffffffffffffffffff168152602001908152602001600020600501819080600181540180825580915050600190039060005260206000209060040201600090919091909150600082015181600001556020820151816001019080519060200190612b769291906136b6565b506040820151816002019080519060200190612b939291906136b6565b50606082015181600301555050508080612bac90614376565b915050612a14565b50612bf5565b6040517f08c379a0000000000000000000000000000000000000000000000000000000008152600401612bec9061461a565b60405180910390fd5b5050505050565b60005b6006805490508110156131a257600080600090505b600280549050811015612d9e57612d7e60028281548110612c3857612c376140a2565b5b90600052602060002090600d02016002018054612c549061416c565b80601f0160208091040260200160405190810160405280929190818152602001828054612c809061416c565b8015612ccd5780601f10612ca257610100808354040283529160200191612ccd565b820191906000526020600020905b815481529060010190602001808311612cb057829003601f168201915b505050505060068581548110612ce657612ce56140a2565b5b906000526020600020018054612cfb9061416c565b80601f0160208091040260200160405190810160405280929190818152602001828054612d279061416c565b8015612d745780601f10612d4957610100808354040283529160200191612d74565b820191906000526020600020905b815481529060010190602001808311612d5757829003601f168201915b505050505061354c565b91508115612d8b57612d9e565b8080612d9690614376565b915050612c14565b508061318e576060806002604051806101a0016040528086815260200160058781548110612dcf57612dce6140a2565b5b906000526020600020018054612de49061416c565b80601f0160208091040260200160405190810160405280929190818152602001828054612e109061416c565b8015612e5d5780601f10612e3257610100808354040283529160200191612e5d565b820191906000526020600020905b815481529060010190602001808311612e4057829003601f168201915b5050505050815260200160068781548110612e7b57612e7a6140a2565b5b906000526020600020018054612e909061416c565b80601f0160208091040260200160405190810160405280929190818152602001828054612ebc9061416c565b8015612f095780601f10612ede57610100808354040283529160200191612f09565b820191906000526020600020905b815481529060010190602001808311612eec57829003601f168201915b5050505050815260200160088781548110612f2757612f266140a2565b5b9060005260206000200154815260200160078781548110612f4b57612f4a6140a2565b5b906000526020600020018054612f609061416c565b80601f0160208091040260200160405190810160405280929190818152602001828054612f8c9061416c565b8015612fd95780601f10612fae57610100808354040283529160200191612fd9565b820191906000526020600020905b815481529060010190602001808311612fbc57829003601f168201915b5050505050815260200160008152602001848152602001848152602001600081526020018381526020016000600381111561301757613016613e38565b5b81526020016000815260200161025881525090806001815401808255809150506001900390600052602060002090600d0201600090919091909150600082015181600001556020820151816001019080519060200190613078929190613630565b506040820151816002019080519060200190613095929190613630565b506060820151816003015560808201518160040190805190602001906130bc929190613630565b5060a0820151816005015560c08201518160060190805190602001906130e39291906136b6565b5060e08201518160070190805190602001906131009291906136b6565b506101008201518160080155610120820151816009019080519060200190613129929190613703565b5061014082015181600a0160006101000a81548160ff0219169083600381111561315657613155613e38565b5b021790555061016082015181600b015561018082015181600c015550506003600081548092919061318690614376565b919050555050505b50808061319a90614376565b915050612bff565b50565b60008054906101000a900473ffffffffffffffffffffffffffffffffffffffff1673ffffffffffffffffffffffffffffffffffffffff163373ffffffffffffffffffffffffffffffffffffffff1614613233576040517f08c379a000000000000000000000000000000000000000000000000000000000815260040161322a90614082565b60405180910390fd5b60018181600381111561324957613248613e38565b5b6002828154811061325d5761325c6140a2565b5b90600052602060002090600d0201600a0160009054906101000a900460ff16600381111561328e5761328d613e38565b5b146132ce576040517f08c379a00000000000000000000000000000000000000000000000000000000081526004016132c59061411d565b60405180910390fd5b60028084815481106132e3576132e26140a2565b5b90600052602060002090600d0201600a0160006101000a81548160ff0219169083600381111561331657613315613e38565b5b0217905550827f59aa868b6aec147bb867da96fc0722ac554fcb1658ec8ac50a51d08a192f047260028581548110613351576133506140a2565b5b90600052602060002090600d020160010160028681548110613376576133756140a2565b5b90600052602060002090600d020160030154604051613396929190614233565b60405180910390a2505050565b600981815481106133b357600080fd5b906000526020600020016000915090505481565b600481815481106133d757600080fd5b906000526020600020016000915054906101000a900473ffffffffffffffffffffffffffffffffffffffff1681565b60008054906101000a900473ffffffffffffffffffffffffffffffffffffffff1681565b600080600090508360028481548110613446576134456140a2565b5b90600052602060002090600d02016003015411156134d25760028381548110613472576134716140a2565b5b90600052602060002090600d0201600301546064856002868154811061349b5761349a6140a2565b5b90600052602060002090600d0201600301546134b79190614292565b6134c191906142c6565b6134cb91906143ee565b9050613542565b600283815481106134e6576134e56140a2565b5b90600052602060002090600d02016003015460646002858154811061350e5761350d6140a2565b5b90600052602060002090600d0201600301548661352b9190614292565b61353591906142c6565b61353f91906143ee565b90505b8091505092915050565b600080839050600083905060008251905081518114613571576000935050505061362a565b60005b818110156136215782818151811061358f5761358e6140a2565b5b602001015160f81c60f81b7effffffffffffffffffffffffffffffffffffffffffffffffffffffffffffff19168482815181106135cf576135ce6140a2565b5b602001015160f81c60f81b7effffffffffffffffffffffffffffffffffffffffffffffffffffffffffffff19161461360e57600094505050505061362a565b808061361990614376565b915050613574565b50600193505050505b92915050565b82805461363c9061416c565b90600052602060002090601f01602090048101928261365e57600085556136a5565b82601f1061367757805160ff19168380011785556136a5565b828001600101855582156136a5579182015b828111156136a4578251825591602001919060010190613689565b5b5090506136b2919061378d565b5090565b8280548282559060005260206000209081019282156136f2579160200282015b828111156136f15782518255916020019190600101906136d6565b5b5090506136ff919061378d565b5090565b82805482825590600052602060002090810192821561377c579160200282015b8281111561377b5782518260006101000a81548173ffffffffffffffffffffffffffffffffffffffff021916908373ffffffffffffffffffffffffffffffffffffffff16021790555091602001919060010190613723565b5b509050613789919061378d565b5090565b5b808211156137a657600081600090555060010161378e565b5090565b6000604051905090565b600080fd5b600080fd5b6000819050919050565b6137d1816137be565b81146137dc57600080fd5b50565b6000813590506137ee816137c8565b92915050565b60006020828403121561380a576138096137b4565b5b6000613818848285016137df565b91505092915050565b61382a816137be565b82525050565b60006020820190506138456000830184613821565b92915050565b60008060408385031215613862576138616137b4565b5b6000613870858286016137df565b9250506020613881858286016137df565b9150509250929050565b600081519050919050565b600082825260208201905092915050565b60005b838110156138c55780820151818401526020810190506138aa565b838111156138d4576000848401525b50505050565b6000601f19601f8301169050919050565b60006138f68261388b565b6139008185613896565b93506139108185602086016138a7565b613919816138da565b840191505092915050565b6000602082019050818103600083015261393e81846138eb565b905092915050565b600073ffffffffffffffffffffffffffffffffffffffff82169050919050565b600061397182613946565b9050919050565b61398181613966565b811461398c57600080fd5b50565b60008135905061399e81613978565b92915050565b6000602082840312156139ba576139b96137b4565b5b60006139c88482850161398f565b91505092915050565b6139da81613966565b82525050565b600060a0820190506139f560008301886139d1565b8181036020830152613a0781876138eb565b90508181036040830152613a1b81866138eb565b90508181036060830152613a2f81856138eb565b9050613a3e6080830184613821565b9695505050505050565b600081519050919050565b600082825260208201905092915050565b6000819050602082019050919050565b613a7d81613966565b82525050565b6000613a8f8383613a74565b60208301905092915050565b6000602082019050919050565b6000613ab382613a48565b613abd8185613a53565b9350613ac883613a64565b8060005b83811015613af9578151613ae08882613a83565b9750613aeb83613a9b565b925050600181019050613acc565b5085935050505092915050565b60006020820190508181036000830152613b208184613aa8565b905092915050565b60008060408385031215613b3f57613b3e6137b4565b5b6000613b4d858286016137df565b9250506020613b5e8582860161398f565b9150509250929050565b600081519050919050565b600082825260208201905092915050565b6000819050602082019050919050565b613b9d816137be565b82525050565b6000613baf8383613b94565b60208301905092915050565b6000602082019050919050565b6000613bd382613b68565b613bdd8185613b73565b9350613be883613b84565b8060005b83811015613c19578151613c008882613ba3565b9750613c0b83613bbb565b925050600181019050613bec565b5085935050505092915050565b60006020820190508181036000830152613c408184613bc8565b905092915050565b600080fd5b600080fd5b7f4e487b7100000000000000000000000000000000000000000000000000000000600052604160045260246000fd5b613c8a826138da565b810181811067ffffffffffffffff82111715613ca957613ca8613c52565b5b80604052505050565b6000613cbc6137aa565b9050613cc88282613c81565b919050565b600067ffffffffffffffff821115613ce857613ce7613c52565b5b613cf1826138da565b9050602081019050919050565b82818337600083830152505050565b6000613d20613d1b84613ccd565b613cb2565b905082815260208101848484011115613d3c57613d3b613c4d565b5b613d47848285613cfe565b509392505050565b600082601f830112613d6457613d63613c48565b5b8135613d74848260208601613d0d565b91505092915050565b60008060008060808587031215613d9757613d966137b4565b5b600085013567ffffffffffffffff811115613db557613db46137b9565b5b613dc187828801613d4f565b945050602085013567ffffffffffffffff811115613de257613de16137b9565b5b613dee87828801613d4f565b935050604085013567ffffffffffffffff811115613e0f57613e0e6137b9565b5b613e1b87828801613d4f565b9250506060613e2c878288016137df565b91505092959194509250565b7f4e487b7100000000000000000000000000000000000000000000000000000000600052602160045260246000fd5b60048110613e7857613e77613e38565b5b50565b6000819050613e8982613e67565b919050565b6000613e9982613e7b565b9050919050565b613ea981613e8e565b82525050565b600061014082019050613ec5600083018d613821565b8181036020830152613ed7818c6138eb565b90508181036040830152613eeb818b6138eb565b9050613efa606083018a613821565b8181036080830152613f0c81896138eb565b9050613f1b60a0830188613821565b613f2860c0830187613821565b613f3560e0830186613ea0565b613f43610100830185613821565b613f51610120830184613821565b9b9a5050505050505050505050565b60008060008060808587031215613f7a57613f796137b4565b5b6000613f888782880161398f565b945050602085013567ffffffffffffffff811115613fa957613fa86137b9565b5b613fb587828801613d4f565b935050604085013567ffffffffffffffff811115613fd657613fd56137b9565b5b613fe287828801613d4f565b925050606085013567ffffffffffffffff811115614003576140026137b9565b5b61400f87828801613d4f565b91505092959194509250565b600060208201905061403060008301846139d1565b92915050565b7f4f6e6c792061646d696e2063616e20736f6c7665000000000000000000000000600082015250565b600061406c601483613896565b915061407782614036565b602082019050919050565b6000602082019050818103600083015261409b8161405f565b9050919050565b7f4e487b7100000000000000000000000000000000000000000000000000000000600052603260045260246000fd5b7f57726f6e6720737461747573206f66207365737374696f6e0000000000000000600082015250565b6000614107601883613896565b9150614112826140d1565b602082019050919050565b60006020820190508181036000830152614136816140fa565b9050919050565b7f4e487b7100000000000000000000000000000000000000000000000000000000600052602260045260246000fd5b6000600282049050600182168061418457607f821691505b602082108114156141985761419761413d565b5b50919050565b60008190508160005260206000209050919050565b600081546141c08161416c565b6141ca8186613896565b945060018216600081146141e557600181146141f75761422a565b60ff198316865260208601935061422a565b6142008561419e565b60005b8381101561422257815481890152600182019150602081019050614203565b808801955050505b50505092915050565b6000604082019050818103600083015261424d81856141b3565b905061425c6020830184613821565b9392505050565b7f4e487b7100000000000000000000000000000000000000000000000000000000600052601160045260246000fd5b600061429d826137be565b91506142a8836137be565b9250828210156142bb576142ba614263565b5b828203905092915050565b60006142d1826137be565b91506142dc836137be565b9250817fffffffffffffffffffffffffffffffffffffffffffffffffffffffffffffffff048311821515161561431557614314614263565b5b828202905092915050565b600061432b826137be565b9150614336836137be565b9250827fffffffffffffffffffffffffffffffffffffffffffffffffffffffffffffffff0382111561436b5761436a614263565b5b828201905092915050565b6000614381826137be565b91507fffffffffffffffffffffffffffffffffffffffffffffffffffffffffffffffff8214156143b4576143b3614263565b5b600182019050919050565b7f4e487b7100000000000000000000000000000000000000000000000000000000600052601260045260246000fd5b60006143f9826137be565b9150614404836137be565b925082614414576144136143bf565b5b828204905092915050565b7f4e6f74206f6e6c792061646d696e000000000000000000000000000000000000600082015250565b6000614455600e83613896565b91506144608261441f565b602082019050919050565b6000602082019050818103600083015261448481614448565b9050919050565b600060608201905081810360008301526144a581866141b3565b905081810360208301526144b981856141b3565b90506144c86040830184613821565b949350505050565b7f4163636f756e74206f662061646d696e2063616e277420726567697374657200600082015250565b6000614506601f83613896565b9150614511826144d0565b602082019050919050565b60006020820190508181036000830152614535816144f9565b9050919050565b7f546865206e756d626572206f66207061727469636970616e7473206973206c6560008201527f7373207468616e2074656e2e0000000000000000000000000000000000000000602082015250565b6000614598602c83613896565b91506145a38261453c565b604082019050919050565b600060208201905081810360008301526145c78161458b565b9050919050565b7f546869732061646472657373205265616c6c7920657869737465640000000000600082015250565b6000614604601b83613896565b915061460f826145ce565b602082019050919050565b60006020820190508181036000830152614633816145f7565b905091905056fea26469706673582212207a46f17d7d942512c83c1f003c4e1c410404a7168a741e180d770b0bff35471164736f6c634300080a0033516d4e7156597448346d584736394c6e4159453478793168676666315a6b594274765663434479413452506936694c757875727920686967682d636c617373202d20556e6971756520616e64206174747261637469766520636f6c6f72732e3c62722f3e54616b652070726f66657373696f6e616c2070686f746f73202d20536574206f6620332063616d65726173207468617420737570706f7274205a6f6f6d20617320666172206173203330582e3c62722f3e54616b65206e6f74657320717569636b6c7920616e642061636375726174656c79207769746820746865206e65772067656e65726174696f6e20532d50656e2e3c62722f3e556c74696d6174652067616d696e67202d20506f77657266756c20376e6d204578796e6f73203939302c206f75747374616e64696e672070726f63657373696e6720706572666f726d616e63652e3c62722f3e53616d73756e67204e6f746520323020556c7472612035472070686f6e65202d204c75787572792c206f75747374616e64696e6720706572666f726d616e63652e3c62722f3e4d6f6e6f6c697468696320616c756d696e756d206672616d652064657369676e2c206c75787572696f75732074656d706572656420676c617373206261636b2e",
  "immutableReferences": {},
  "source": "pragma solidity >=0.4.0 <0.9.0;\r\nimport \"./Main.sol\";\r\ncontract Session is Main{\r\n    //Set Data for items object\r\n    struct Items{\r\n        uint IdItem;\r\n        string nameItem;\r\n        string imageHash;\r\n        uint firstPrice;\r\n        string itemDescription;\r\n        uint countPaticipantJoinSesstion;\r\n        uint[] listPriceOfPaticipant;\r\n        uint[] listPriceDeviation;\r\n        uint valueChangePricing;\r\n        address[] checkAccount;\r\n        StatusSesstion statusSesstion;\r\n        uint timeSesstionEachOtherproduct;\r\n        uint timeFinishSesstionEachOtherproduct;\r\n    }\r\n    //Reference paticipants throw address\r\n    mapping(address => Paticipant) public paticipants;\r\n    //List items\r\n    Items[] public itemsList;\r\n    //Count number items\r\n    uint public index = 0;\r\n    //List address of paticipants\r\n    address[] public totalAccounts;\r\n    //List name of items\r\n    string[] public listNameOfItems = [\"Samsung Galaxy Note20\"];\r\n    //List hashImage of items\r\n    string[] public listHashImage = [\"QmNqVYtH4mXG69LnAYE4xy1hgff1ZkYBtvVcCDyA4RPi6i\"];\r\n    //List information of image of items\r\n    string[] public listInformationOfImage = [\"Luxury high-class - Unique and attractive colors.<br/>Take professional photos - Set of 3 cameras that support Zoom as far as 30X.<br/>Take notes quickly and accurately with the new generation S-Pen.<br/>Ultimate gaming - Powerful 7nm Exynos 990, outstanding processing performance.<br/>Samsung Note 20 Ultra 5G phone - Luxury, outstanding performance.<br/>Monolithic aluminum frame design, luxurious tempered glass back.\"];\r\n    //List price of item\r\n    uint[] public listPrice = [930];\r\n    //Empty array\r\n    uint[] public emptyArray1 = [0];\r\n    uint[] public emptyArray2 = [0];\r\n    \r\n    //Modifiler check status of session\r\n    modifier checkStatus(StatusSesstion _statusSesstion, uint _IdItem){\r\n        require(itemsList[_IdItem].statusSesstion == _statusSesstion, \"Wrong status of sesstion\");\r\n        _;\r\n    }\r\n    //Event start session\r\n    event LogStartSession(uint indexed _IdItems, string _nameItem, uint _firstPrice);\r\n    //Event stop session\r\n    event LogStopSession(uint indexed _IdItems, string _nameItem, uint _firstPrice);\r\n    //Event changePriceSession\r\n    event LogChainPriceOfSession(uint indexed _IdItems, string _nameItem, string _fullName, uint _valueChangePricing);\r\n\r\n    constructor(){\r\n        addData();\r\n    }\r\n    //Add element of items to array\r\n    function createNewItem(string memory _nameItem, string memory _imageHash, string memory _itemDescription, uint _firstPrice) public onlyAdmin {\r\n        listNameOfItems.push(_nameItem);\r\n        listHashImage.push(_imageHash);\r\n        listInformationOfImage.push(_itemDescription);\r\n        listPrice.push(_firstPrice);\r\n    }\r\n    //Add item to itemsList\r\n    function addData() public{   \r\n        for(uint i = 0 ; i < listHashImage.length ; i++){\r\n            bool statusAdd;\r\n            for(uint j = 0 ; j < itemsList.length ; j++){\r\n               statusAdd = stringsEquals(itemsList[j].imageHash, listHashImage[i]);\r\n               if(statusAdd){\r\n                   break;\r\n               }\r\n            }\r\n            if(!statusAdd){\r\n                uint[] memory emptyArray;\r\n                address[] memory amptyAddressArray;\r\n                itemsList.push(Items(i, listNameOfItems[i], listHashImage[i], listPrice[i], listInformationOfImage[i],  0, emptyArray, emptyArray, 0, amptyAddressArray, StatusSesstion.START, 0, 600));\r\n                index++;\r\n            }  \r\n        }\r\n    }\r\n    //Convert status session to string\r\n    function convertStateToString(uint _IdItem) public view returns(string memory){\r\n        if(itemsList[_IdItem].statusSesstion == StatusSesstion.START){\r\n            return \"Not Start\";\r\n        }else{\r\n            if(itemsList[_IdItem].statusSesstion == StatusSesstion.PRICING){\r\n                return \"Started\";\r\n            }else{\r\n               if(itemsList[_IdItem].statusSesstion == StatusSesstion.ENDING){\r\n                  return \"Ending\";\r\n               }else{\r\n                    return \"Done\";\r\n               }\r\n            }\r\n        }\r\n    }\r\n    //Check same data\r\n    function stringsEquals(string memory s1, string memory s2) private pure returns (bool) {\r\n        bytes memory b1 = bytes(s1);\r\n        bytes memory b2 = bytes(s2);\r\n        uint256 l1 = b1.length;\r\n        if (l1 != b2.length) return false;\r\n        for (uint256 i=0; i<l1; i++) {\r\n            if (b1[i] != b2[i]) return false;\r\n        }\r\n        return true;\r\n    }\r\n    //get length of items\r\n    function getLengthItems() public view returns(uint) {\r\n        return itemsList.length;\r\n    }\r\n    //stop session\r\n    function stopSesstion(uint _IdItem) public onlyAdmin checkStatus(StatusSesstion.PRICING, _IdItem) {\r\n        itemsList[_IdItem].statusSesstion = StatusSesstion.ENDING;\r\n        emit LogStopSession(_IdItem,  itemsList[_IdItem].nameItem,  itemsList[_IdItem].firstPrice);\r\n    }\r\n    //statr session\r\n    function startSesstion(uint _IdItem) public onlyAdmin checkStatus(StatusSesstion.START, _IdItem){\r\n        itemsList[_IdItem].statusSesstion = StatusSesstion.PRICING;\r\n        itemsList[_IdItem].timeSesstionEachOtherproduct = block.timestamp;\r\n        emit LogStartSession(_IdItem,  itemsList[_IdItem].nameItem,  itemsList[_IdItem].firstPrice);\r\n    }\r\n    // set final price for items\r\n    function setFinalPriceOfItem(uint _IdItem, uint _price) public onlyAdmin checkStatus(StatusSesstion.ENDING, _IdItem){\r\n         itemsList[_IdItem].firstPrice = _price;\r\n         itemsList[_IdItem].statusSesstion = StatusSesstion.DONE;\r\n    }\r\n    //Show the price proposal each item\r\n    function showDataPrice(uint _IdItem, address _address) public view returns(uint[] memory){\r\n        return paticipants[_address].listDataChange[_IdItem].priceDeviation;\r\n    }\r\n    //Show the accumulated Deviation\r\n    function showDataDeviation(uint _IdItem, address _address) public view returns(uint[] memory){\r\n        return paticipants[_address].listDataChange[_IdItem].valueChangePricingOtherPaticipant;\r\n    }\r\n    //Show all address join pricing product\r\n    function getAddressChangedPriceOfItems(uint _IdItem) public view returns(address[] memory){\r\n         return itemsList[_IdItem].checkAccount;\r\n    }\r\n    //Show all address to register account\r\n    function getAddressUserRegister() public onlyAdmin view returns(address[] memory){\r\n        return totalAccounts;\r\n    }\r\n    //Register new account\r\n    function registerAccount(address _address, string memory _fullName, string memory _email, string memory _passwordAccount) public{\r\n    //Check account exist    \r\n        bool checkStatusAddress = false;\r\n        if(_address == admin){\r\n            revert(\"Account of admin can't register\");\r\n        }\r\n        if(totalAccounts.length > 10){\r\n            revert(\"The number of participants is less than ten.\");\r\n        }else{\r\n            for(uint i = 0; i < totalAccounts.length; i++){\r\n                if(_address == totalAccounts[i]){\r\n                    checkStatusAddress = true;\r\n                    break;\r\n                }\r\n            }\r\n            if(!checkStatusAddress){\r\n                totalAccounts.push(_address); \r\n                paticipants[_address].addressAccount = _address;\r\n                paticipants[_address].fullName = _fullName;\r\n                paticipants[_address].email = _email;\r\n                paticipants[_address].passwordAccount = _passwordAccount;\r\n                paticipants[_address].countPricedSesstion = 0;\r\n                \r\n                for(uint i = 0 ; i < index ; i++){\r\n                    DataChange memory dataChange = DataChange({IdItem: i, priceDeviation: emptyArray1, valueChangePricingOtherPaticipant: emptyArray2 , numberChangePricingOtherPaticipant: 0});\r\n                    paticipants[_address].listDataChange.push(dataChange);\r\n                }\r\n            }else{\r\n                revert(\"This address Really existed\");\r\n            }\r\n        }   \r\n    }  \r\n    //get price proposol each other item/product\r\n    function getProposedPrice(uint _IdItem) public{\r\n    //Stautus of session is ENDING   \r\n        if(itemsList[_IdItem].statusSesstion != StatusSesstion.ENDING){\r\n            revert(\"Wrong status of sesstion\");\r\n        }\r\n        uint totalPriceOfPaticipantAbove;\r\n    //Get number items\r\n        uint numberPaticipantJoneSestion = itemsList[_IdItem].checkAccount.length;\r\n        for(uint i = 0 ; i < numberPaticipantJoneSestion ; i++){\r\n              uint lengthPriceDeviation = paticipants[itemsList[_IdItem].checkAccount[i]].listDataChange[_IdItem].numberChangePricingOtherPaticipant;\r\n              totalPriceOfPaticipantAbove += (paticipants[itemsList[_IdItem].checkAccount[i]].listDataChange[_IdItem].priceDeviation[lengthPriceDeviation]) * (100 - (paticipants[itemsList[_IdItem].checkAccount[i]].listDataChange[_IdItem].valueChangePricingOtherPaticipant[lengthPriceDeviation]));        \r\n        }    \r\n        uint totalPriceOfPaticipantUnderLeft = 100 * numberPaticipantJoneSestion;\r\n        uint totalPriceOfPaticipantUnderRight;\r\n        for(uint i = 0 ; i < numberPaticipantJoneSestion ; i++){\r\n              uint lengthPriceDeviation = paticipants[itemsList[_IdItem].checkAccount[i]].listDataChange[_IdItem].numberChangePricingOtherPaticipant;\r\n              totalPriceOfPaticipantUnderRight += paticipants[ itemsList[_IdItem].checkAccount[i]].listDataChange[_IdItem].valueChangePricingOtherPaticipant[lengthPriceDeviation];\r\n        }\r\n        uint result = totalPriceOfPaticipantAbove / (totalPriceOfPaticipantUnderLeft - totalPriceOfPaticipantUnderRight);\r\n    //Set price proposal for items\r\n        itemsList[_IdItem].valueChangePricing = result;\r\n    }\r\n    //Calculate accumulated deviation each participants\r\n    function accumulatedDeviation(uint _newPriceOfParticipan, uint _IdItem) public notOnlyAdmin checkStatus(StatusSesstion.PRICING, _IdItem){\r\n        if(itemsList[_IdItem].checkAccount.length == 0){\r\n            itemsList[_IdItem].checkAccount.push(msg.sender);\r\n        }else{\r\n            for(uint i = 0 ; i < itemsList[_IdItem].checkAccount.length; i++){\r\n                if(itemsList[_IdItem].checkAccount[i] == msg.sender){\r\n                    status = true;\r\n                    break;\r\n                }\r\n            }\r\n            if(status == false){\r\n                itemsList[_IdItem].checkAccount.push(msg.sender);\r\n            }else{\r\n                status = false;\r\n            }\r\n        }\r\n        uint calNewPriceOfParticipant = calculatingDeviation(_newPriceOfParticipan, _IdItem);\r\n        uint lengthPriceDeviation = paticipants[msg.sender].listDataChange[_IdItem].numberChangePricingOtherPaticipant;\r\n        uint numberPaticipant = paticipants[msg.sender].listDataChange[_IdItem].numberChangePricingOtherPaticipant;\r\n        uint currentPriceDeviation = paticipants[msg.sender].listDataChange[_IdItem].valueChangePricingOtherPaticipant[lengthPriceDeviation];\r\n        uint value = (currentPriceDeviation * numberPaticipant + calNewPriceOfParticipant) / (numberPaticipant + 1);\r\n        paticipants[msg.sender].listDataChange[_IdItem].valueChangePricingOtherPaticipant.push(value);\r\n        paticipants[msg.sender].listDataChange[_IdItem].priceDeviation.push(_newPriceOfParticipan);\r\n        paticipants[msg.sender].listDataChange[_IdItem].numberChangePricingOtherPaticipant++;\r\n        paticipants[msg.sender].countPricedSesstion++;\r\n        itemsList[_IdItem].countPaticipantJoinSesstion++;\r\n        emit LogChainPriceOfSession(_IdItem, itemsList[_IdItem].nameItem,  paticipants[msg.sender].fullName, _newPriceOfParticipan);\r\n    }\r\n    //Calculate Deviation \r\n    function calculatingDeviation(uint _priceOfParticipan, uint _IdItem) internal view returns (uint){\r\n        uint newPriceDeviation = 0;\r\n        if(itemsList[_IdItem].firstPrice > _priceOfParticipan){\r\n            newPriceDeviation = (itemsList[_IdItem].firstPrice  - _priceOfParticipan) * 100 / itemsList[_IdItem].firstPrice;\r\n        }else{\r\n            newPriceDeviation = (_priceOfParticipan - itemsList[_IdItem].firstPrice) * 100 / itemsList[_IdItem].firstPrice;\r\n        }\r\n        return uint(newPriceDeviation);\r\n    }\r\n    //Set status for session\r\n\r\n    function timeOutOfSesstion(uint _IdItem) public{\r\n        if(itemsList[_IdItem].timeSesstionEachOtherproduct == 0){\r\n             itemsList[_IdItem].statusSesstion = StatusSesstion.START;\r\n        }else{\r\n            if(block.timestamp > itemsList[_IdItem].timeSesstionEachOtherproduct && block.timestamp < itemsList[_IdItem].timeSesstionEachOtherproduct +itemsList[_IdItem].timeFinishSesstionEachOtherproduct){\r\n                itemsList[_IdItem].statusSesstion = StatusSesstion.PRICING;\r\n            }else{\r\n                if(block.timestamp > itemsList[_IdItem].timeSesstionEachOtherproduct + itemsList[_IdItem].timeFinishSesstionEachOtherproduct){\r\n                    itemsList[_IdItem].statusSesstion = StatusSesstion.ENDING;\r\n                }\r\n            }\r\n        }  \r\n    }\r\n}",
  "sourcePath": "C:\\Users\\Admin\\OneDrive\\My tnh\\FunixPriceChanging\\contracts\\Session.sol",
  "compiler": {
    "name": "solc",
    "version": "0.8.10+commit.fc410830.Emscripten.clang"
  },
  "schemaVersion": "3.4.3",
  "updatedAt": "2022-01-08T05:33:01.121Z",
  "networkType": "ethereum",
  "devdoc": {
    "kind": "dev",
    "methods": {},
    "version": 1
  },
  "userdoc": {
    "kind": "user",
    "methods": {},
    "version": 1
  }
}