{
  "contractName": "Session",
  "abi": [
    {
      "anonymous": false,
      "inputs": [
        {
          "indexed": true,
          "internalType": "uint256",
          "name": "_IdItems",
          "type": "uint256"
        },
        {
          "indexed": false,
          "internalType": "string",
          "name": "_nameItem",
          "type": "string"
        },
        {
          "indexed": false,
          "internalType": "string",
          "name": "_fullName",
          "type": "string"
        },
        {
          "indexed": false,
          "internalType": "uint256",
          "name": "_valueChangePricing",
          "type": "uint256"
        }
      ],
      "name": "LogChainPriceOfSession",
      "type": "event"
    },
    {
      "anonymous": false,
      "inputs": [
        {
          "indexed": true,
          "internalType": "uint256",
          "name": "_IdItems",
          "type": "uint256"
        },
        {
          "indexed": false,
          "internalType": "string",
          "name": "_nameItem",
          "type": "string"
        },
        {
          "indexed": false,
          "internalType": "uint256",
          "name": "_firstPrice",
          "type": "uint256"
        }
      ],
      "name": "LogStartSession",
      "type": "event"
    },
    {
      "anonymous": false,
      "inputs": [
        {
          "indexed": true,
          "internalType": "uint256",
          "name": "_IdItems",
          "type": "uint256"
        },
        {
          "indexed": false,
          "internalType": "string",
          "name": "_nameItem",
          "type": "string"
        },
        {
          "indexed": false,
          "internalType": "uint256",
          "name": "_firstPrice",
          "type": "uint256"
        }
      ],
      "name": "LogStopSession",
      "type": "event"
    },
    {
      "inputs": [],
      "name": "admin",
      "outputs": [
        {
          "internalType": "address",
          "name": "",
          "type": "address"
        }
      ],
      "stateMutability": "view",
      "type": "function",
      "constant": true
    },
    {
      "inputs": [
        {
          "internalType": "uint256",
          "name": "",
          "type": "uint256"
        }
      ],
      "name": "emptyArray1",
      "outputs": [
        {
          "internalType": "uint256",
          "name": "",
          "type": "uint256"
        }
      ],
      "stateMutability": "view",
      "type": "function",
      "constant": true
    },
    {
      "inputs": [
        {
          "internalType": "uint256",
          "name": "",
          "type": "uint256"
        }
      ],
      "name": "emptyArray2",
      "outputs": [
        {
          "internalType": "uint256",
          "name": "",
          "type": "uint256"
        }
      ],
      "stateMutability": "view",
      "type": "function",
      "constant": true
    },
    {
      "inputs": [],
      "name": "index",
      "outputs": [
        {
          "internalType": "uint256",
          "name": "",
          "type": "uint256"
        }
      ],
      "stateMutability": "view",
      "type": "function",
      "constant": true
    },
    {
      "inputs": [
        {
          "internalType": "uint256",
          "name": "",
          "type": "uint256"
        }
      ],
      "name": "itemsList",
      "outputs": [
        {
          "internalType": "uint256",
          "name": "IdItem",
          "type": "uint256"
        },
        {
          "internalType": "string",
          "name": "nameItem",
          "type": "string"
        },
        {
          "internalType": "string",
          "name": "imageHash",
          "type": "string"
        },
        {
          "internalType": "uint256",
          "name": "firstPrice",
          "type": "uint256"
        },
        {
          "internalType": "string",
          "name": "itemDescription",
          "type": "string"
        },
        {
          "internalType": "uint256",
          "name": "countPaticipantJoinSesstion",
          "type": "uint256"
        },
        {
          "internalType": "uint256",
          "name": "valueChangePricing",
          "type": "uint256"
        },
        {
          "internalType": "enum Main.StatusSesstion",
          "name": "statusSesstion",
          "type": "uint8"
        },
        {
          "internalType": "uint256",
          "name": "timeSesstionEachOtherproduct",
          "type": "uint256"
        },
        {
          "internalType": "uint256",
          "name": "timeFinishSesstionEachOtherproduct",
          "type": "uint256"
        }
      ],
      "stateMutability": "view",
      "type": "function",
      "constant": true
    },
    {
      "inputs": [
        {
          "internalType": "uint256",
          "name": "",
          "type": "uint256"
        }
      ],
      "name": "listHashImage",
      "outputs": [
        {
          "internalType": "string",
          "name": "",
          "type": "string"
        }
      ],
      "stateMutability": "view",
      "type": "function",
      "constant": true
    },
    {
      "inputs": [
        {
          "internalType": "uint256",
          "name": "",
          "type": "uint256"
        }
      ],
      "name": "listInformationOfImage",
      "outputs": [
        {
          "internalType": "string",
          "name": "",
          "type": "string"
        }
      ],
      "stateMutability": "view",
      "type": "function",
      "constant": true
    },
    {
      "inputs": [
        {
          "internalType": "uint256",
          "name": "",
          "type": "uint256"
        }
      ],
      "name": "listNameOfItems",
      "outputs": [
        {
          "internalType": "string",
          "name": "",
          "type": "string"
        }
      ],
      "stateMutability": "view",
      "type": "function",
      "constant": true
    },
    {
      "inputs": [
        {
          "internalType": "uint256",
          "name": "",
          "type": "uint256"
        }
      ],
      "name": "listPrice",
      "outputs": [
        {
          "internalType": "uint256",
          "name": "",
          "type": "uint256"
        }
      ],
      "stateMutability": "view",
      "type": "function",
      "constant": true
    },
    {
      "inputs": [
        {
          "internalType": "address",
          "name": "",
          "type": "address"
        }
      ],
      "name": "paticipants",
      "outputs": [
        {
          "internalType": "address",
          "name": "addressAccount",
          "type": "address"
        },
        {
          "internalType": "string",
          "name": "fullName",
          "type": "string"
        },
        {
          "internalType": "string",
          "name": "email",
          "type": "string"
        },
        {
          "internalType": "string",
          "name": "passwordAccount",
          "type": "string"
        },
        {
          "internalType": "uint256",
          "name": "countPricedSesstion",
          "type": "uint256"
        }
      ],
      "stateMutability": "view",
      "type": "function",
      "constant": true
    },
    {
      "inputs": [
        {
          "internalType": "uint256",
          "name": "",
          "type": "uint256"
        }
      ],
      "name": "totalAccounts",
      "outputs": [
        {
          "internalType": "address",
          "name": "",
          "type": "address"
        }
      ],
      "stateMutability": "view",
      "type": "function",
      "constant": true
    },
    {
      "inputs": [
        {
          "internalType": "string",
          "name": "_nameItem",
          "type": "string"
        },
        {
          "internalType": "string",
          "name": "_imageHash",
          "type": "string"
        },
        {
          "internalType": "string",
          "name": "_itemDescription",
          "type": "string"
        },
        {
          "internalType": "uint256",
          "name": "_firstPrice",
          "type": "uint256"
        }
      ],
      "name": "createNewItem",
      "outputs": [],
      "stateMutability": "nonpayable",
      "type": "function"
    },
    {
      "inputs": [],
      "name": "addData",
      "outputs": [],
      "stateMutability": "nonpayable",
      "type": "function"
    },
    {
      "inputs": [
        {
          "internalType": "uint256",
          "name": "_IdItem",
          "type": "uint256"
        }
      ],
      "name": "convertStateToString",
      "outputs": [
        {
          "internalType": "string",
          "name": "",
          "type": "string"
        }
      ],
      "stateMutability": "view",
      "type": "function",
      "constant": true
    },
    {
      "inputs": [],
      "name": "getLengthItems",
      "outputs": [
        {
          "internalType": "uint256",
          "name": "",
          "type": "uint256"
        }
      ],
      "stateMutability": "view",
      "type": "function",
      "constant": true
    },
    {
      "inputs": [
        {
          "internalType": "uint256",
          "name": "_IdItem",
          "type": "uint256"
        }
      ],
      "name": "stopSesstion",
      "outputs": [],
      "stateMutability": "nonpayable",
      "type": "function"
    },
    {
      "inputs": [
        {
          "internalType": "uint256",
          "name": "_IdItem",
          "type": "uint256"
        }
      ],
      "name": "startSesstion",
      "outputs": [],
      "stateMutability": "nonpayable",
      "type": "function"
    },
    {
      "inputs": [
        {
          "internalType": "uint256",
          "name": "_IdItem",
          "type": "uint256"
        },
        {
          "internalType": "uint256",
          "name": "_price",
          "type": "uint256"
        }
      ],
      "name": "setFinalPriceOfItem",
      "outputs": [],
      "stateMutability": "nonpayable",
      "type": "function"
    },
    {
      "inputs": [
        {
          "internalType": "uint256",
          "name": "_IdItem",
          "type": "uint256"
        },
        {
          "internalType": "address",
          "name": "_address",
          "type": "address"
        }
      ],
      "name": "showDataPrice",
      "outputs": [
        {
          "internalType": "uint256[]",
          "name": "",
          "type": "uint256[]"
        }
      ],
      "stateMutability": "view",
      "type": "function",
      "constant": true
    },
    {
      "inputs": [
        {
          "internalType": "uint256",
          "name": "_IdItem",
          "type": "uint256"
        },
        {
          "internalType": "address",
          "name": "_address",
          "type": "address"
        }
      ],
      "name": "showDataDeviation",
      "outputs": [
        {
          "internalType": "uint256[]",
          "name": "",
          "type": "uint256[]"
        }
      ],
      "stateMutability": "view",
      "type": "function",
      "constant": true
    },
    {
      "inputs": [
        {
          "internalType": "uint256",
          "name": "_IdItem",
          "type": "uint256"
        }
      ],
      "name": "getAddressChangedPriceOfItems",
      "outputs": [
        {
          "internalType": "address[]",
          "name": "",
          "type": "address[]"
        }
      ],
      "stateMutability": "view",
      "type": "function",
      "constant": true
    },
    {
      "inputs": [
        {
          "internalType": "address",
          "name": "_address",
          "type": "address"
        },
        {
          "internalType": "string",
          "name": "_fullName",
          "type": "string"
        },
        {
          "internalType": "string",
          "name": "_email",
          "type": "string"
        },
        {
          "internalType": "string",
          "name": "_passwordAccount",
          "type": "string"
        }
      ],
      "name": "registerAccount",
      "outputs": [],
      "stateMutability": "nonpayable",
      "type": "function"
    },
    {
      "inputs": [
        {
          "internalType": "uint256",
          "name": "_IdItem",
          "type": "uint256"
        }
      ],
      "name": "getProposedPrice",
      "outputs": [],
      "stateMutability": "nonpayable",
      "type": "function"
    },
    {
      "inputs": [
        {
          "internalType": "uint256",
          "name": "_newPriceOfParticipan",
          "type": "uint256"
        },
        {
          "internalType": "uint256",
          "name": "_IdItem",
          "type": "uint256"
        }
      ],
      "name": "accumulatedDeviation",
      "outputs": [],
      "stateMutability": "nonpayable",
      "type": "function"
    },
    {
      "inputs": [
        {
          "internalType": "uint256",
          "name": "_IdItem",
          "type": "uint256"
        }
      ],
      "name": "timeOutOfSesstion",
      "outputs": [],
      "stateMutability": "nonpayable",
      "type": "function"
    }
  ],
  "bytecode": "0x608060405260008060146101000a81548160ff021916908315150217905550600060035560405180602001604052806040518060400160405280601581526020017f53616d73756e672047616c617879204e6f746532300000000000000000000000815250815250600590600162000079929190620001bb565b5060405180602001604052806040518060600160405280602e8152602001620047a8602e91398152506006906001620000b4929190620001bb565b506040518060200160405280604051806101e001604052806101a58152602001620047d66101a591398152506007906001620000f2929190620001bb565b5060405180602001604052806103a261ffff1681525060089060016200011a92919062000222565b506040518060200160405280600060ff168152506009906001620001409291906200027a565b506040518060200160405280600060ff16815250600a906001620001669291906200027a565b503480156200017457600080fd5b50336000806101000a81548173ffffffffffffffffffffffffffffffffffffffff021916908373ffffffffffffffffffffffffffffffffffffffff16021790555062000454565b8280548282559060005260206000209081019282156200020f579160200282015b828111156200020e578251829080519060200190620001fd929190620002d1565b5091602001919060010190620001dc565b5b5090506200021e919062000362565b5090565b82805482825590600052602060002090810192821562000267579160200282015b8281111562000266578251829061ffff1690559160200191906001019062000243565b5b5090506200027691906200038a565b5090565b828054828255906000526020600020908101928215620002be579160200282015b82811115620002bd578251829060ff169055916020019190600101906200029b565b5b509050620002cd91906200038a565b5090565b828054620002df906200041e565b90600052602060002090601f0160209004810192826200030357600085556200034f565b82601f106200031e57805160ff19168380011785556200034f565b828001600101855582156200034f579182015b828111156200034e57825182559160200191906001019062000331565b5b5090506200035e91906200038a565b5090565b5b808211156200038657600081816200037c9190620003a9565b5060010162000363565b5090565b5b80821115620003a55760008160009055506001016200038b565b5090565b508054620003b7906200041e565b6000825580601f10620003cb5750620003ec565b601f016020900490600052602060002090810190620003eb91906200038a565b5b50565b7f4e487b7100000000000000000000000000000000000000000000000000000000600052602260045260246000fd5b600060028204905060018216806200043757607f821691505b602082108114156200044e576200044d620003ef565b5b50919050565b61434480620004646000396000f3fe608060405234801561001057600080fd5b50600436106101735760003560e01c806387d81f7c116100de578063c990777711610097578063e8c06c5411610071578063e8c06c541461049f578063f11c37c5146104bb578063f53dbb2e146104eb578063f851a4401461051b57610173565b8063c990777714610449578063d19757db14610479578063e3ce9ba71461049557610173565b806387d81f7c146103465780638df2873e146103765780639005bf74146103a657806398f68510146103d6578063b09da154146103f4578063c2bd9d951461041057610173565b806340a1ca291161013057806340a1ca291461025e5780634ae19b1a1461027a5780635ef00232146102ae5780636b5750c3146102ca57806379daaa60146102fa57806385d34fb71461031657610173565b80631043bd701461017857806322017e35146101945780632986c0e5146101c45780632d1c7f5e146101e2578063358c371f146101fe5780633fe911211461022e575b600080fd5b610192600480360381019061018d91906134c8565b610539565b005b6101ae60048036038101906101a991906134c8565b6106c5565b6040516101bb9190613504565b60405180910390f35b6101cc6106e9565b6040516101d99190613504565b60405180910390f35b6101fc60048036038101906101f7919061351f565b6106ef565b005b610218600480360381019061021391906134c8565b6107f9565b60405161022591906135f8565b60405180910390f35b610248600480360381019061024391906134c8565b6108a5565b60405161025591906135f8565b60405180910390f35b610278600480360381019061027391906134c8565b610951565b005b610294600480360381019061028f9190613678565b610f2a565b6040516102a59594939291906136b4565b60405180910390f35b6102c860048036038101906102c3919061351f565b611118565b005b6102e460048036038101906102df919061371c565b611929565b6040516102f1919061381a565b60405180910390f35b610314600480360381019061030f9190613971565b6119e7565b005b610330600480360381019061032b91906134c8565b611b58565b60405161033d9190613aea565b60405180910390f35b610360600480360381019061035b91906134c8565b611c0b565b60405161036d9190613504565b60405180910390f35b610390600480360381019061038b91906134c8565b611c2f565b60405161039d91906135f8565b60405180910390f35b6103c060048036038101906103bb91906134c8565b611cdb565b6040516103cd91906135f8565b60405180910390f35b6103de611eef565b6040516103eb9190613504565b60405180910390f35b61040e600480360381019061040991906134c8565b611efc565b005b61042a600480360381019061042591906134c8565b61210d565b6040516104409a99989796959493929190613b83565b60405180910390f35b610463600480360381019061045e919061371c565b612316565b604051610470919061381a565b60405180910390f35b610493600480360381019061048e9190613c34565b6123d4565b005b61049d61296d565b005b6104b960048036038101906104b491906134c8565b612f16565b005b6104d560048036038101906104d091906134c8565b613077565b6040516104e29190613504565b60405180910390f35b610505600480360381019061050091906134c8565b61309b565b6040516105129190613cef565b60405180910390f35b6105236130da565b6040516105309190613cef565b60405180910390f35b60008054906101000a900473ffffffffffffffffffffffffffffffffffffffff1673ffffffffffffffffffffffffffffffffffffffff163373ffffffffffffffffffffffffffffffffffffffff16146105c7576040517f08c379a00000000000000000000000000000000000000000000000000000000081526004016105be90613d56565b60405180910390fd5b6001600282815481106105dd576105dc613d76565b5b90600052602060002090600d0201600a0160006101000a81548160ff021916908360038111156106105761060f613b0c565b5b0217905550426002828154811061062a57610629613d76565b5b90600052602060002090600d0201600b0181905550807faa3f0b5a9d087149295bb224b9c28e39af6cb01e0e04999b4c44626f6f1449856002838154811061067557610674613d76565b5b90600052602060002090600d02016001016002848154811061069a57610699613d76565b5b90600052602060002090600d0201600301546040516106ba929190613e9b565b60405180910390a250565b600a81815481106106d557600080fd5b906000526020600020016000915090505481565b60035481565b60008054906101000a900473ffffffffffffffffffffffffffffffffffffffff1673ffffffffffffffffffffffffffffffffffffffff163373ffffffffffffffffffffffffffffffffffffffff161461077d576040517f08c379a000000000000000000000000000000000000000000000000000000000815260040161077490613d56565b60405180910390fd5b806002838154811061079257610791613d76565b5b90600052602060002090600d0201600301819055506003600283815481106107bd576107bc613d76565b5b90600052602060002090600d0201600a0160006101000a81548160ff021916908360038111156107f0576107ef613b0c565b5b02179055505050565b6007818154811061080957600080fd5b90600052602060002001600091509050805461082490613dd4565b80601f016020809104026020016040519081016040528092919081815260200182805461085090613dd4565b801561089d5780601f106108725761010080835404028352916020019161089d565b820191906000526020600020905b81548152906001019060200180831161088057829003601f168201915b505050505081565b600581815481106108b557600080fd5b9060005260206000200160009150905080546108d090613dd4565b80601f01602080910402602001604051908101604052809291908181526020018280546108fc90613dd4565b80156109495780601f1061091e57610100808354040283529160200191610949565b820191906000526020600020905b81548152906001019060200180831161092c57829003601f168201915b505050505081565b6002600381111561096557610964613b0c565b5b6002828154811061097957610978613d76565b5b90600052602060002090600d0201600a0160009054906101000a900460ff1660038111156109aa576109a9613b0c565b5b146109ea576040517f08c379a00000000000000000000000000000000000000000000000000000000081526004016109e190613f17565b60405180910390fd5b60008060028381548110610a0157610a00613d76565b5b90600052602060002090600d020160090180549050905060005b81811015610ceb5760006001600060028781548110610a3d57610a3c613d76565b5b90600052602060002090600d02016009018481548110610a6057610a5f613d76565b5b9060005260206000200160009054906101000a900473ffffffffffffffffffffffffffffffffffffffff1673ffffffffffffffffffffffffffffffffffffffff1673ffffffffffffffffffffffffffffffffffffffff1681526020019081526020016000206005018581548110610ada57610ad9613d76565b5b90600052602060002090600402016003015490506001600060028781548110610b0657610b05613d76565b5b90600052602060002090600d02016009018481548110610b2957610b28613d76565b5b9060005260206000200160009054906101000a900473ffffffffffffffffffffffffffffffffffffffff1673ffffffffffffffffffffffffffffffffffffffff1673ffffffffffffffffffffffffffffffffffffffff1681526020019081526020016000206005018581548110610ba357610ba2613d76565b5b90600052602060002090600402016002018181548110610bc657610bc5613d76565b5b90600052602060002001546064610bdd9190613f66565b6001600060028881548110610bf557610bf4613d76565b5b90600052602060002090600d02016009018581548110610c1857610c17613d76565b5b9060005260206000200160009054906101000a900473ffffffffffffffffffffffffffffffffffffffff1673ffffffffffffffffffffffffffffffffffffffff1673ffffffffffffffffffffffffffffffffffffffff1681526020019081526020016000206005018681548110610c9257610c91613d76565b5b90600052602060002090600402016001018281548110610cb557610cb4613d76565b5b9060005260206000200154610cca9190613f9a565b84610cd59190613ff4565b9350508080610ce39061404a565b915050610a1b565b506000816064610cfb9190613f9a565b9050600080600090505b83811015610edc5760006001600060028981548110610d2757610d26613d76565b5b90600052602060002090600d02016009018481548110610d4a57610d49613d76565b5b9060005260206000200160009054906101000a900473ffffffffffffffffffffffffffffffffffffffff1673ffffffffffffffffffffffffffffffffffffffff1673ffffffffffffffffffffffffffffffffffffffff1681526020019081526020016000206005018781548110610dc457610dc3613d76565b5b90600052602060002090600402016003015490506001600060028981548110610df057610def613d76565b5b90600052602060002090600d02016009018481548110610e1357610e12613d76565b5b9060005260206000200160009054906101000a900473ffffffffffffffffffffffffffffffffffffffff1673ffffffffffffffffffffffffffffffffffffffff1673ffffffffffffffffffffffffffffffffffffffff1681526020019081526020016000206005018781548110610e8d57610e8c613d76565b5b90600052602060002090600402016002018181548110610eb057610eaf613d76565b5b906000526020600020015483610ec69190613ff4565b9250508080610ed49061404a565b915050610d05565b5060008183610eeb9190613f66565b85610ef691906140c2565b90508060028781548110610f0d57610f0c613d76565b5b90600052602060002090600d020160080181905550505050505050565b60016020528060005260406000206000915090508060000160009054906101000a900473ffffffffffffffffffffffffffffffffffffffff1690806001018054610f7390613dd4565b80601f0160208091040260200160405190810160405280929190818152602001828054610f9f90613dd4565b8015610fec5780601f10610fc157610100808354040283529160200191610fec565b820191906000526020600020905b815481529060010190602001808311610fcf57829003601f168201915b50505050509080600201805461100190613dd4565b80601f016020809104026020016040519081016040528092919081815260200182805461102d90613dd4565b801561107a5780601f1061104f5761010080835404028352916020019161107a565b820191906000526020600020905b81548152906001019060200180831161105d57829003601f168201915b50505050509080600301805461108f90613dd4565b80601f01602080910402602001604051908101604052809291908181526020018280546110bb90613dd4565b80156111085780601f106110dd57610100808354040283529160200191611108565b820191906000526020600020905b8154815290600101906020018083116110eb57829003601f168201915b5050505050908060040154905085565b60008054906101000a900473ffffffffffffffffffffffffffffffffffffffff1673ffffffffffffffffffffffffffffffffffffffff163373ffffffffffffffffffffffffffffffffffffffff1614156111a7576040517f08c379a000000000000000000000000000000000000000000000000000000000815260040161119e9061413f565b60405180910390fd5b6001818160038111156111bd576111bc613b0c565b5b600282815481106111d1576111d0613d76565b5b90600052602060002090600d0201600a0160009054906101000a900460ff16600381111561120257611201613b0c565b5b14611242576040517f08c379a000000000000000000000000000000000000000000000000000000000815260040161123990613f17565b60405180910390fd5b60006002848154811061125857611257613d76565b5b90600052602060002090600d02016009018054905014156112fe576002838154811061128757611286613d76565b5b90600052602060002090600d0201600901339080600181540180825580915050600190039060005260206000200160009091909190916101000a81548173ffffffffffffffffffffffffffffffffffffffff021916908373ffffffffffffffffffffffffffffffffffffffff1602179055506114bd565b60005b6002848154811061131557611314613d76565b5b90600052602060002090600d0201600901805490508110156113f9573373ffffffffffffffffffffffffffffffffffffffff166002858154811061135c5761135b613d76565b5b90600052602060002090600d0201600901828154811061137f5761137e613d76565b5b9060005260206000200160009054906101000a900473ffffffffffffffffffffffffffffffffffffffff1673ffffffffffffffffffffffffffffffffffffffff1614156113e6576001600060146101000a81548160ff0219169083151502179055506113f9565b80806113f19061404a565b915050611301565b5060001515600060149054906101000a900460ff16151514156114a1576002838154811061142a57611429613d76565b5b90600052602060002090600d0201600901339080600181540180825580915050600190039060005260206000200160009091909190916101000a81548173ffffffffffffffffffffffffffffffffffffffff021916908373ffffffffffffffffffffffffffffffffffffffff1602179055506114bc565b60008060146101000a81548160ff0219169083151502179055505b5b60006114c985856130fe565b90506000600160003373ffffffffffffffffffffffffffffffffffffffff1673ffffffffffffffffffffffffffffffffffffffff168152602001908152602001600020600501858154811061152157611520613d76565b5b90600052602060002090600402016003015490506000600160003373ffffffffffffffffffffffffffffffffffffffff1673ffffffffffffffffffffffffffffffffffffffff168152602001908152602001600020600501868154811061158b5761158a613d76565b5b90600052602060002090600402016003015490506000600160003373ffffffffffffffffffffffffffffffffffffffff1673ffffffffffffffffffffffffffffffffffffffff16815260200190815260200160002060050187815481106115f5576115f4613d76565b5b9060005260206000209060040201600201838154811061161857611617613d76565b5b9060005260206000200154905060006001836116349190613ff4565b8584846116419190613f9a565b61164b9190613ff4565b61165591906140c2565b9050600160003373ffffffffffffffffffffffffffffffffffffffff1673ffffffffffffffffffffffffffffffffffffffff16815260200190815260200160002060050188815481106116ab576116aa613d76565b5b9060005260206000209060040201600201819080600181540180825580915050600190039060005260206000200160009091909190915055600160003373ffffffffffffffffffffffffffffffffffffffff1673ffffffffffffffffffffffffffffffffffffffff168152602001908152602001600020600501888154811061173757611736613d76565b5b9060005260206000209060040201600101899080600181540180825580915050600190039060005260206000200160009091909190915055600160003373ffffffffffffffffffffffffffffffffffffffff1673ffffffffffffffffffffffffffffffffffffffff16815260200190815260200160002060050188815481106117c3576117c2613d76565b5b906000526020600020906004020160030160008154809291906117e59061404a565b9190505550600160003373ffffffffffffffffffffffffffffffffffffffff1673ffffffffffffffffffffffffffffffffffffffff168152602001908152602001600020600401600081548092919061183d9061404a565b91905055506002888154811061185657611855613d76565b5b90600052602060002090600d020160050160008154809291906118789061404a565b9190505550877ffc94567f8570ffc605741a9414d18afce2f7a39ec1e0e0f6cb3339862d0e492160028a815481106118b3576118b2613d76565b5b90600052602060002090600d0201600101600160003373ffffffffffffffffffffffffffffffffffffffff1673ffffffffffffffffffffffffffffffffffffffff1681526020019081526020016000206001018c6040516119169392919061415f565b60405180910390a2505050505050505050565b6060600160008373ffffffffffffffffffffffffffffffffffffffff1673ffffffffffffffffffffffffffffffffffffffff168152602001908152602001600020600501838154811061197f5761197e613d76565b5b90600052602060002090600402016002018054806020026020016040519081016040528092919081815260200182805480156119da57602002820191906000526020600020905b8154815260200190600101908083116119c6575b5050505050905092915050565b60008054906101000a900473ffffffffffffffffffffffffffffffffffffffff1673ffffffffffffffffffffffffffffffffffffffff163373ffffffffffffffffffffffffffffffffffffffff1614611a75576040517f08c379a0000000000000000000000000000000000000000000000000000000008152600401611a6c90613d56565b60405180910390fd5b600584908060018154018082558091505060019003906000526020600020016000909190919091509080519060200190611ab0929190613304565b50600683908060018154018082558091505060019003906000526020600020016000909190919091509080519060200190611aec929190613304565b50600782908060018154018082558091505060019003906000526020600020016000909190919091509080519060200190611b28929190613304565b50600881908060018154018082558091505060019003906000526020600020016000909190919091505550505050565b606060028281548110611b6e57611b6d613d76565b5b90600052602060002090600d0201600901805480602002602001604051908101604052809291908181526020018280548015611bff57602002820191906000526020600020905b8160009054906101000a900473ffffffffffffffffffffffffffffffffffffffff1673ffffffffffffffffffffffffffffffffffffffff1681526020019060010190808311611bb5575b50505050509050919050565b60088181548110611c1b57600080fd5b906000526020600020016000915090505481565b60068181548110611c3f57600080fd5b906000526020600020016000915090508054611c5a90613dd4565b80601f0160208091040260200160405190810160405280929190818152602001828054611c8690613dd4565b8015611cd35780601f10611ca857610100808354040283529160200191611cd3565b820191906000526020600020905b815481529060010190602001808311611cb657829003601f168201915b505050505081565b606060006003811115611cf157611cf0613b0c565b5b60028381548110611d0557611d04613d76565b5b90600052602060002090600d0201600a0160009054906101000a900460ff166003811115611d3657611d35613b0c565b5b1415611d79576040518060400160405280600981526020017f4e6f7420537461727400000000000000000000000000000000000000000000008152509050611eea565b60016003811115611d8d57611d8c613b0c565b5b60028381548110611da157611da0613d76565b5b90600052602060002090600d0201600a0160009054906101000a900460ff166003811115611dd257611dd1613b0c565b5b1415611e15576040518060400160405280600781526020017f53746172746564000000000000000000000000000000000000000000000000008152509050611eea565b60026003811115611e2957611e28613b0c565b5b60028381548110611e3d57611e3c613d76565b5b90600052602060002090600d0201600a0160009054906101000a900460ff166003811115611e6e57611e6d613b0c565b5b1415611eb1576040518060400160405280600681526020017f456e64696e6700000000000000000000000000000000000000000000000000008152509050611eea565b6040518060400160405280600481526020017f446f6e650000000000000000000000000000000000000000000000000000000081525090505b919050565b6000600280549050905090565b600060028281548110611f1257611f11613d76565b5b90600052602060002090600d0201600b01541415611f7d57600060028281548110611f4057611f3f613d76565b5b90600052602060002090600d0201600a0160006101000a81548160ff02191690836003811115611f7357611f72613b0c565b5b021790555061210a565b60028181548110611f9157611f90613d76565b5b90600052602060002090600d0201600b015442118015612005575060028181548110611fc057611fbf613d76565b5b90600052602060002090600d0201600c015460028281548110611fe657611fe5613d76565b5b90600052602060002090600d0201600b01546120029190613ff4565b42105b1561205d576001600282815481106120205761201f613d76565b5b90600052602060002090600d0201600a0160006101000a81548160ff0219169083600381111561205357612052613b0c565b5b0217905550612109565b6002818154811061207157612070613d76565b5b90600052602060002090600d0201600c01546002828154811061209757612096613d76565b5b90600052602060002090600d0201600b01546120b39190613ff4565b4211156121085760028082815481106120cf576120ce613d76565b5b90600052602060002090600d0201600a0160006101000a81548160ff0219169083600381111561210257612101613b0c565b5b02179055505b5b5b50565b6002818154811061211d57600080fd5b90600052602060002090600d020160009150905080600001549080600101805461214690613dd4565b80601f016020809104026020016040519081016040528092919081815260200182805461217290613dd4565b80156121bf5780601f10612194576101008083540402835291602001916121bf565b820191906000526020600020905b8154815290600101906020018083116121a257829003601f168201915b5050505050908060020180546121d490613dd4565b80601f016020809104026020016040519081016040528092919081815260200182805461220090613dd4565b801561224d5780601f106122225761010080835404028352916020019161224d565b820191906000526020600020905b81548152906001019060200180831161223057829003601f168201915b50505050509080600301549080600401805461226890613dd4565b80601f016020809104026020016040519081016040528092919081815260200182805461229490613dd4565b80156122e15780601f106122b6576101008083540402835291602001916122e1565b820191906000526020600020905b8154815290600101906020018083116122c457829003601f168201915b50505050509080600501549080600801549080600a0160009054906101000a900460ff169080600b01549080600c015490508a565b6060600160008373ffffffffffffffffffffffffffffffffffffffff1673ffffffffffffffffffffffffffffffffffffffff168152602001908152602001600020600501838154811061236c5761236b613d76565b5b90600052602060002090600402016001018054806020026020016040519081016040528092919081815260200182805480156123c757602002820191906000526020600020905b8154815260200190600101908083116123b3575b5050505050905092915050565b6000808054906101000a900473ffffffffffffffffffffffffffffffffffffffff1673ffffffffffffffffffffffffffffffffffffffff168573ffffffffffffffffffffffffffffffffffffffff161415612464576040517f08c379a000000000000000000000000000000000000000000000000000000000815260040161245b906141f0565b60405180910390fd5b600a60048054905011156124ad576040517f08c379a00000000000000000000000000000000000000000000000000000000081526004016124a490614282565b60405180910390fd5b60005b60048054905081101561254b57600481815481106124d1576124d0613d76565b5b9060005260206000200160009054906101000a900473ffffffffffffffffffffffffffffffffffffffff1673ffffffffffffffffffffffffffffffffffffffff168673ffffffffffffffffffffffffffffffffffffffff161415612538576001915061254b565b80806125439061404a565b9150506124b0565b508061292b576004859080600181540180825580915050600190039060005260206000200160009091909190916101000a81548173ffffffffffffffffffffffffffffffffffffffff021916908373ffffffffffffffffffffffffffffffffffffffff16021790555084600160008773ffffffffffffffffffffffffffffffffffffffff1673ffffffffffffffffffffffffffffffffffffffff16815260200190815260200160002060000160006101000a81548173ffffffffffffffffffffffffffffffffffffffff021916908373ffffffffffffffffffffffffffffffffffffffff16021790555083600160008773ffffffffffffffffffffffffffffffffffffffff1673ffffffffffffffffffffffffffffffffffffffff168152602001908152602001600020600101908051906020019061268b929190613304565b5082600160008773ffffffffffffffffffffffffffffffffffffffff1673ffffffffffffffffffffffffffffffffffffffff16815260200190815260200160002060020190805190602001906126e2929190613304565b5081600160008773ffffffffffffffffffffffffffffffffffffffff1673ffffffffffffffffffffffffffffffffffffffff1681526020019081526020016000206003019080519060200190612739929190613304565b506000600160008773ffffffffffffffffffffffffffffffffffffffff1673ffffffffffffffffffffffffffffffffffffffff1681526020019081526020016000206004018190555060005b600354811015612925576000604051806080016040528083815260200160098054806020026020016040519081016040528092919081815260200182805480156127ee57602002820191906000526020600020905b8154815260200190600101908083116127da575b50505050508152602001600a80548060200260200160405190810160405280929190818152602001828054801561284457602002820191906000526020600020905b815481526020019060010190808311612830575b5050505050815260200160008152509050600160008873ffffffffffffffffffffffffffffffffffffffff1673ffffffffffffffffffffffffffffffffffffffff1681526020019081526020016000206005018190806001815401808255809150506001900390600052602060002090600402016000909190919091506000820151816000015560208201518160010190805190602001906128e792919061338a565b50604082015181600201908051906020019061290492919061338a565b5060608201518160030155505050808061291d9061404a565b915050612785565b50612966565b6040517f08c379a000000000000000000000000000000000000000000000000000000000815260040161295d906142ee565b60405180910390fd5b5050505050565b60005b600680549050811015612f1357600080600090505b600280549050811015612b0f57612aef600282815481106129a9576129a8613d76565b5b90600052602060002090600d020160020180546129c590613dd4565b80601f01602080910402602001604051908101604052809291908181526020018280546129f190613dd4565b8015612a3e5780601f10612a1357610100808354040283529160200191612a3e565b820191906000526020600020905b815481529060010190602001808311612a2157829003601f168201915b505050505060068581548110612a5757612a56613d76565b5b906000526020600020018054612a6c90613dd4565b80601f0160208091040260200160405190810160405280929190818152602001828054612a9890613dd4565b8015612ae55780601f10612aba57610100808354040283529160200191612ae5565b820191906000526020600020905b815481529060010190602001808311612ac857829003601f168201915b5050505050613220565b91508115612afc57612b0f565b8080612b079061404a565b915050612985565b5080612eff576060806002604051806101a0016040528086815260200160058781548110612b4057612b3f613d76565b5b906000526020600020018054612b5590613dd4565b80601f0160208091040260200160405190810160405280929190818152602001828054612b8190613dd4565b8015612bce5780601f10612ba357610100808354040283529160200191612bce565b820191906000526020600020905b815481529060010190602001808311612bb157829003601f168201915b5050505050815260200160068781548110612bec57612beb613d76565b5b906000526020600020018054612c0190613dd4565b80601f0160208091040260200160405190810160405280929190818152602001828054612c2d90613dd4565b8015612c7a5780601f10612c4f57610100808354040283529160200191612c7a565b820191906000526020600020905b815481529060010190602001808311612c5d57829003601f168201915b5050505050815260200160088781548110612c9857612c97613d76565b5b9060005260206000200154815260200160078781548110612cbc57612cbb613d76565b5b906000526020600020018054612cd190613dd4565b80601f0160208091040260200160405190810160405280929190818152602001828054612cfd90613dd4565b8015612d4a5780601f10612d1f57610100808354040283529160200191612d4a565b820191906000526020600020905b815481529060010190602001808311612d2d57829003601f168201915b50505050508152602001600081526020018481526020018481526020016000815260200183815260200160006003811115612d8857612d87613b0c565b5b81526020016000815260200161025881525090806001815401808255809150506001900390600052602060002090600d0201600090919091909150600082015181600001556020820151816001019080519060200190612de9929190613304565b506040820151816002019080519060200190612e06929190613304565b50606082015181600301556080820151816004019080519060200190612e2d929190613304565b5060a0820151816005015560c0820151816006019080519060200190612e5492919061338a565b5060e0820151816007019080519060200190612e7192919061338a565b506101008201518160080155610120820151816009019080519060200190612e9a9291906133d7565b5061014082015181600a0160006101000a81548160ff02191690836003811115612ec757612ec6613b0c565b5b021790555061016082015181600b015561018082015181600c0155505060036000815480929190612ef79061404a565b919050555050505b508080612f0b9061404a565b915050612970565b50565b60008054906101000a900473ffffffffffffffffffffffffffffffffffffffff1673ffffffffffffffffffffffffffffffffffffffff163373ffffffffffffffffffffffffffffffffffffffff1614612fa4576040517f08c379a0000000000000000000000000000000000000000000000000000000008152600401612f9b90613d56565b60405180910390fd5b6002808281548110612fb957612fb8613d76565b5b90600052602060002090600d0201600a0160006101000a81548160ff02191690836003811115612fec57612feb613b0c565b5b0217905550807f59aa868b6aec147bb867da96fc0722ac554fcb1658ec8ac50a51d08a192f04726002838154811061302757613026613d76565b5b90600052602060002090600d02016001016002848154811061304c5761304b613d76565b5b90600052602060002090600d02016003015460405161306c929190613e9b565b60405180910390a250565b6009818154811061308757600080fd5b906000526020600020016000915090505481565b600481815481106130ab57600080fd5b906000526020600020016000915054906101000a900473ffffffffffffffffffffffffffffffffffffffff1681565b60008054906101000a900473ffffffffffffffffffffffffffffffffffffffff1681565b60008060009050836002848154811061311a57613119613d76565b5b90600052602060002090600d02016003015411156131a6576002838154811061314657613145613d76565b5b90600052602060002090600d0201600301546064856002868154811061316f5761316e613d76565b5b90600052602060002090600d02016003015461318b9190613f66565b6131959190613f9a565b61319f91906140c2565b9050613216565b600283815481106131ba576131b9613d76565b5b90600052602060002090600d0201600301546064600285815481106131e2576131e1613d76565b5b90600052602060002090600d020160030154866131ff9190613f66565b6132099190613f9a565b61321391906140c2565b90505b8091505092915050565b60008083905060008390506000825190508151811461324557600093505050506132fe565b60005b818110156132f55782818151811061326357613262613d76565b5b602001015160f81c60f81b7effffffffffffffffffffffffffffffffffffffffffffffffffffffffffffff19168482815181106132a3576132a2613d76565b5b602001015160f81c60f81b7effffffffffffffffffffffffffffffffffffffffffffffffffffffffffffff1916146132e25760009450505050506132fe565b80806132ed9061404a565b915050613248565b50600193505050505b92915050565b82805461331090613dd4565b90600052602060002090601f0160209004810192826133325760008555613379565b82601f1061334b57805160ff1916838001178555613379565b82800160010185558215613379579182015b8281111561337857825182559160200191906001019061335d565b5b5090506133869190613461565b5090565b8280548282559060005260206000209081019282156133c6579160200282015b828111156133c55782518255916020019190600101906133aa565b5b5090506133d39190613461565b5090565b828054828255906000526020600020908101928215613450579160200282015b8281111561344f5782518260006101000a81548173ffffffffffffffffffffffffffffffffffffffff021916908373ffffffffffffffffffffffffffffffffffffffff160217905550916020019190600101906133f7565b5b50905061345d9190613461565b5090565b5b8082111561347a576000816000905550600101613462565b5090565b6000604051905090565b600080fd5b600080fd5b6000819050919050565b6134a581613492565b81146134b057600080fd5b50565b6000813590506134c28161349c565b92915050565b6000602082840312156134de576134dd613488565b5b60006134ec848285016134b3565b91505092915050565b6134fe81613492565b82525050565b600060208201905061351960008301846134f5565b92915050565b6000806040838503121561353657613535613488565b5b6000613544858286016134b3565b9250506020613555858286016134b3565b9150509250929050565b600081519050919050565b600082825260208201905092915050565b60005b8381101561359957808201518184015260208101905061357e565b838111156135a8576000848401525b50505050565b6000601f19601f8301169050919050565b60006135ca8261355f565b6135d4818561356a565b93506135e481856020860161357b565b6135ed816135ae565b840191505092915050565b6000602082019050818103600083015261361281846135bf565b905092915050565b600073ffffffffffffffffffffffffffffffffffffffff82169050919050565b60006136458261361a565b9050919050565b6136558161363a565b811461366057600080fd5b50565b6000813590506136728161364c565b92915050565b60006020828403121561368e5761368d613488565b5b600061369c84828501613663565b91505092915050565b6136ae8161363a565b82525050565b600060a0820190506136c960008301886136a5565b81810360208301526136db81876135bf565b905081810360408301526136ef81866135bf565b9050818103606083015261370381856135bf565b905061371260808301846134f5565b9695505050505050565b6000806040838503121561373357613732613488565b5b6000613741858286016134b3565b925050602061375285828601613663565b9150509250929050565b600081519050919050565b600082825260208201905092915050565b6000819050602082019050919050565b61379181613492565b82525050565b60006137a38383613788565b60208301905092915050565b6000602082019050919050565b60006137c78261375c565b6137d18185613767565b93506137dc83613778565b8060005b8381101561380d5781516137f48882613797565b97506137ff836137af565b9250506001810190506137e0565b5085935050505092915050565b6000602082019050818103600083015261383481846137bc565b905092915050565b600080fd5b600080fd5b7f4e487b7100000000000000000000000000000000000000000000000000000000600052604160045260246000fd5b61387e826135ae565b810181811067ffffffffffffffff8211171561389d5761389c613846565b5b80604052505050565b60006138b061347e565b90506138bc8282613875565b919050565b600067ffffffffffffffff8211156138dc576138db613846565b5b6138e5826135ae565b9050602081019050919050565b82818337600083830152505050565b600061391461390f846138c1565b6138a6565b9050828152602081018484840111156139305761392f613841565b5b61393b8482856138f2565b509392505050565b600082601f8301126139585761395761383c565b5b8135613968848260208601613901565b91505092915050565b6000806000806080858703121561398b5761398a613488565b5b600085013567ffffffffffffffff8111156139a9576139a861348d565b5b6139b587828801613943565b945050602085013567ffffffffffffffff8111156139d6576139d561348d565b5b6139e287828801613943565b935050604085013567ffffffffffffffff811115613a0357613a0261348d565b5b613a0f87828801613943565b9250506060613a20878288016134b3565b91505092959194509250565b600081519050919050565b600082825260208201905092915050565b6000819050602082019050919050565b613a618161363a565b82525050565b6000613a738383613a58565b60208301905092915050565b6000602082019050919050565b6000613a9782613a2c565b613aa18185613a37565b9350613aac83613a48565b8060005b83811015613add578151613ac48882613a67565b9750613acf83613a7f565b925050600181019050613ab0565b5085935050505092915050565b60006020820190508181036000830152613b048184613a8c565b905092915050565b7f4e487b7100000000000000000000000000000000000000000000000000000000600052602160045260246000fd5b60048110613b4c57613b4b613b0c565b5b50565b6000819050613b5d82613b3b565b919050565b6000613b6d82613b4f565b9050919050565b613b7d81613b62565b82525050565b600061014082019050613b99600083018d6134f5565b8181036020830152613bab818c6135bf565b90508181036040830152613bbf818b6135bf565b9050613bce606083018a6134f5565b8181036080830152613be081896135bf565b9050613bef60a08301886134f5565b613bfc60c08301876134f5565b613c0960e0830186613b74565b613c176101008301856134f5565b613c256101208301846134f5565b9b9a5050505050505050505050565b60008060008060808587031215613c4e57613c4d613488565b5b6000613c5c87828801613663565b945050602085013567ffffffffffffffff811115613c7d57613c7c61348d565b5b613c8987828801613943565b935050604085013567ffffffffffffffff811115613caa57613ca961348d565b5b613cb687828801613943565b925050606085013567ffffffffffffffff811115613cd757613cd661348d565b5b613ce387828801613943565b91505092959194509250565b6000602082019050613d0460008301846136a5565b92915050565b7f4f6e6c792061646d696e2063616e20736f6c7665000000000000000000000000600082015250565b6000613d4060148361356a565b9150613d4b82613d0a565b602082019050919050565b60006020820190508181036000830152613d6f81613d33565b9050919050565b7f4e487b7100000000000000000000000000000000000000000000000000000000600052603260045260246000fd5b7f4e487b7100000000000000000000000000000000000000000000000000000000600052602260045260246000fd5b60006002820490506001821680613dec57607f821691505b60208210811415613e0057613dff613da5565b5b50919050565b60008190508160005260206000209050919050565b60008154613e2881613dd4565b613e32818661356a565b94506001821660008114613e4d5760018114613e5f57613e92565b60ff1983168652602086019350613e92565b613e6885613e06565b60005b83811015613e8a57815481890152600182019150602081019050613e6b565b808801955050505b50505092915050565b60006040820190508181036000830152613eb58185613e1b565b9050613ec460208301846134f5565b9392505050565b7f57726f6e6720737461747573206f66207365737374696f6e0000000000000000600082015250565b6000613f0160188361356a565b9150613f0c82613ecb565b602082019050919050565b60006020820190508181036000830152613f3081613ef4565b9050919050565b7f4e487b7100000000000000000000000000000000000000000000000000000000600052601160045260246000fd5b6000613f7182613492565b9150613f7c83613492565b925082821015613f8f57613f8e613f37565b5b828203905092915050565b6000613fa582613492565b9150613fb083613492565b9250817fffffffffffffffffffffffffffffffffffffffffffffffffffffffffffffffff0483118215151615613fe957613fe8613f37565b5b828202905092915050565b6000613fff82613492565b915061400a83613492565b9250827fffffffffffffffffffffffffffffffffffffffffffffffffffffffffffffffff0382111561403f5761403e613f37565b5b828201905092915050565b600061405582613492565b91507fffffffffffffffffffffffffffffffffffffffffffffffffffffffffffffffff82141561408857614087613f37565b5b600182019050919050565b7f4e487b7100000000000000000000000000000000000000000000000000000000600052601260045260246000fd5b60006140cd82613492565b91506140d883613492565b9250826140e8576140e7614093565b5b828204905092915050565b7f4e6f74206f6e6c792061646d696e000000000000000000000000000000000000600082015250565b6000614129600e8361356a565b9150614134826140f3565b602082019050919050565b600060208201905081810360008301526141588161411c565b9050919050565b600060608201905081810360008301526141798186613e1b565b9050818103602083015261418d8185613e1b565b905061419c60408301846134f5565b949350505050565b7f4163636f756e74206f662061646d696e2063616e277420726567697374657200600082015250565b60006141da601f8361356a565b91506141e5826141a4565b602082019050919050565b60006020820190508181036000830152614209816141cd565b9050919050565b7f546865206e756d626572206f66207061727469636970616e7473206973206c6560008201527f7373207468616e2074656e2e0000000000000000000000000000000000000000602082015250565b600061426c602c8361356a565b915061427782614210565b604082019050919050565b6000602082019050818103600083015261429b8161425f565b9050919050565b7f546869732061646472657373205265616c6c7920657869737465640000000000600082015250565b60006142d8601b8361356a565b91506142e3826142a2565b602082019050919050565b60006020820190508181036000830152614307816142cb565b905091905056fea26469706673582212202cea894ba9914fe1bc520d92e1b728f20091fbc0c4c7617cd12f33027961bb6664736f6c634300080a0033516d4e7156597448346d584736394c6e4159453478793168676666315a6b594274765663434479413452506936694c757875727920686967682d636c617373202d20556e6971756520616e64206174747261637469766520636f6c6f72732e3c62722f3e54616b652070726f66657373696f6e616c2070686f746f73202d20536574206f6620332063616d65726173207468617420737570706f7274205a6f6f6d20617320666172206173203330582e3c62722f3e54616b65206e6f74657320717569636b6c7920616e642061636375726174656c79207769746820746865206e65772067656e65726174696f6e20532d50656e2e3c62722f3e556c74696d6174652067616d696e67202d20506f77657266756c20376e6d204578796e6f73203939302c206f75747374616e64696e672070726f63657373696e6720706572666f726d616e63652e3c62722f3e53616d73756e67204e6f746520323020556c7472612035472070686f6e65202d204c75787572792c206f75747374616e64696e6720706572666f726d616e63652e3c62722f3e4d6f6e6f6c697468696320616c756d696e756d206672616d652064657369676e2c206c75787572696f75732074656d706572656420676c617373206261636b2e",
  "immutableReferences": {},
  "source": "pragma solidity >=0.4.0 <0.9.0;\r\nimport \"./Main.sol\";\r\ncontract Session is Main{\r\n    struct Items{\r\n        uint IdItem;\r\n        string nameItem;\r\n        string imageHash;\r\n        uint firstPrice;\r\n        string itemDescription;\r\n        uint countPaticipantJoinSesstion;\r\n        uint[] listPriceOfPaticipant;\r\n        uint[] listPriceDeviation;\r\n        uint valueChangePricing;\r\n        address[] checkAccount;\r\n        StatusSesstion statusSesstion;\r\n        uint timeSesstionEachOtherproduct;\r\n        uint timeFinishSesstionEachOtherproduct;\r\n    }\r\n    \r\n    mapping(address => Paticipant) public paticipants;\r\n    Items[] public itemsList;\r\n    uint public index = 0;\r\n    address[] public totalAccounts;\r\n    string[] public listNameOfItems = [\"Samsung Galaxy Note20\"];\r\n    string[] public listHashImage = [\"QmNqVYtH4mXG69LnAYE4xy1hgff1ZkYBtvVcCDyA4RPi6i\"];\r\n    string[] public listInformationOfImage = [\"Luxury high-class - Unique and attractive colors.<br/>Take professional photos - Set of 3 cameras that support Zoom as far as 30X.<br/>Take notes quickly and accurately with the new generation S-Pen.<br/>Ultimate gaming - Powerful 7nm Exynos 990, outstanding processing performance.<br/>Samsung Note 20 Ultra 5G phone - Luxury, outstanding performance.<br/>Monolithic aluminum frame design, luxurious tempered glass back.\"];\r\n    uint[] public listPrice = [930];\r\n    uint[] public emptyArray1 = [0];\r\n    uint[] public emptyArray2 = [0];\r\n    \r\n    modifier checkStatus(StatusSesstion _statusSesstion, uint _IdItem){\r\n        require(itemsList[_IdItem].statusSesstion == _statusSesstion, \"Wrong status of sesstion\");\r\n        _;\r\n    }\r\n\r\n    event LogStartSession(uint indexed _IdItems, string _nameItem, uint _firstPrice);\r\n    event LogStopSession(uint indexed _IdItems, string _nameItem, uint _firstPrice);\r\n    event LogChainPriceOfSession(uint indexed _IdItems, string _nameItem, string _fullName, uint _valueChangePricing);\r\n\r\n    function createNewItem(string memory _nameItem, string memory _imageHash, string memory _itemDescription, uint _firstPrice) public onlyAdmin {\r\n        listNameOfItems.push(_nameItem);\r\n        listHashImage.push(_imageHash);\r\n        listInformationOfImage.push(_itemDescription);\r\n        listPrice.push(_firstPrice);\r\n    }\r\n\r\n    function addData() public{\r\n        \r\n        for(uint i = 0 ; i < listHashImage.length ; i++){\r\n            bool statusAdd;\r\n            for(uint j = 0 ; j < itemsList.length ; j++){\r\n               statusAdd = stringsEquals(itemsList[j].imageHash, listHashImage[i]);\r\n               if(statusAdd){\r\n                   break;\r\n               }\r\n            }\r\n            if(!statusAdd){\r\n                uint[] memory emptyArray;\r\n                address[] memory amptyAddressArray;\r\n                itemsList.push(Items(i, listNameOfItems[i], listHashImage[i], listPrice[i], listInformationOfImage[i],  0, emptyArray, emptyArray, 0, amptyAddressArray, StatusSesstion.START, 0, 600));\r\n                index++;\r\n            }  \r\n        }\r\n    }\r\n\r\n    function convertStateToString(uint _IdItem) public view returns(string memory){\r\n        if(itemsList[_IdItem].statusSesstion == StatusSesstion.START){\r\n            return \"Not Start\";\r\n        }else{\r\n            if(itemsList[_IdItem].statusSesstion == StatusSesstion.PRICING){\r\n                return \"Started\";\r\n            }else{\r\n               if(itemsList[_IdItem].statusSesstion == StatusSesstion.ENDING){\r\n                  return \"Ending\";\r\n               }else{\r\n                    return \"Done\";\r\n               }\r\n            }\r\n        }\r\n    }\r\n\r\n    function stringsEquals(string memory s1, string memory s2) private pure returns (bool) {\r\n        bytes memory b1 = bytes(s1);\r\n        bytes memory b2 = bytes(s2);\r\n        uint256 l1 = b1.length;\r\n        if (l1 != b2.length) return false;\r\n        for (uint256 i=0; i<l1; i++) {\r\n            if (b1[i] != b2[i]) return false;\r\n        }\r\n        return true;\r\n    }\r\n\r\n    function getLengthItems() public view returns(uint) {\r\n        return itemsList.length;\r\n    }\r\n\r\n    function stopSesstion(uint _IdItem) public onlyAdmin {\r\n        itemsList[_IdItem].statusSesstion = StatusSesstion.ENDING;\r\n        emit LogStopSession(_IdItem,  itemsList[_IdItem].nameItem,  itemsList[_IdItem].firstPrice);\r\n    }\r\n    \r\n    function startSesstion(uint _IdItem) public onlyAdmin {\r\n        itemsList[_IdItem].statusSesstion = StatusSesstion.PRICING;\r\n        itemsList[_IdItem].timeSesstionEachOtherproduct = block.timestamp;\r\n        emit LogStartSession(_IdItem,  itemsList[_IdItem].nameItem,  itemsList[_IdItem].firstPrice);\r\n    }\r\n\r\n    function setFinalPriceOfItem(uint _IdItem, uint _price) public onlyAdmin {\r\n         itemsList[_IdItem].firstPrice = _price;\r\n         itemsList[_IdItem].statusSesstion = StatusSesstion.DONE;\r\n    }\r\n\r\n    function showDataPrice(uint _IdItem, address _address) public view returns(uint[] memory){\r\n        return paticipants[_address].listDataChange[_IdItem].priceDeviation;\r\n    }\r\n\r\n    function showDataDeviation(uint _IdItem, address _address) public view returns(uint[] memory){\r\n        return paticipants[_address].listDataChange[_IdItem].valueChangePricingOtherPaticipant;\r\n    }\r\n\r\n    function getAddressChangedPriceOfItems(uint _IdItem) public view returns(address[] memory){\r\n         return itemsList[_IdItem].checkAccount;\r\n    }\r\n\r\n    function registerAccount(address _address, string memory _fullName, string memory _email, string memory _passwordAccount) public{\r\n        bool checkStatusAddress = false;\r\n        if(_address == admin){\r\n            revert(\"Account of admin can't register\");\r\n        }\r\n        if(totalAccounts.length > 10){\r\n            revert(\"The number of participants is less than ten.\");\r\n        }else{\r\n            for(uint i = 0; i < totalAccounts.length; i++){\r\n                if(_address == totalAccounts[i]){\r\n                    checkStatusAddress = true;\r\n                    break;\r\n                }\r\n            }\r\n            if(!checkStatusAddress){\r\n                totalAccounts.push(_address); \r\n                paticipants[_address].addressAccount = _address;\r\n                paticipants[_address].fullName = _fullName;\r\n                paticipants[_address].email = _email;\r\n                paticipants[_address].passwordAccount = _passwordAccount;\r\n                paticipants[_address].countPricedSesstion = 0;\r\n                \r\n                for(uint i = 0 ; i < index ; i++){\r\n                    DataChange memory dataChange = DataChange({IdItem: i, priceDeviation: emptyArray1, valueChangePricingOtherPaticipant: emptyArray2 , numberChangePricingOtherPaticipant: 0});\r\n                    paticipants[_address].listDataChange.push(dataChange);\r\n                }\r\n            }else{\r\n                revert(\"This address Really existed\");\r\n            }\r\n        }   \r\n    }\r\n    \r\n    \r\n\r\n    \r\n    function getProposedPrice(uint _IdItem) public{\r\n        if(itemsList[_IdItem].statusSesstion != StatusSesstion.ENDING){\r\n            revert(\"Wrong status of sesstion\");\r\n        }\r\n        uint totalPriceOfPaticipantAbove;\r\n        uint numberPaticipantJoneSestion = itemsList[_IdItem].checkAccount.length;\r\n        for(uint i = 0 ; i < numberPaticipantJoneSestion ; i++){\r\n              uint lengthPriceDeviation = paticipants[itemsList[_IdItem].checkAccount[i]].listDataChange[_IdItem].numberChangePricingOtherPaticipant;\r\n              totalPriceOfPaticipantAbove += (paticipants[itemsList[_IdItem].checkAccount[i]].listDataChange[_IdItem].priceDeviation[lengthPriceDeviation]) * (100 - (paticipants[itemsList[_IdItem].checkAccount[i]].listDataChange[_IdItem].valueChangePricingOtherPaticipant[lengthPriceDeviation]));        \r\n        }\r\n        uint totalPriceOfPaticipantUnderLeft = 100 * numberPaticipantJoneSestion;\r\n        uint totalPriceOfPaticipantUnderRight;\r\n        for(uint i = 0 ; i < numberPaticipantJoneSestion ; i++){\r\n              uint lengthPriceDeviation = paticipants[itemsList[_IdItem].checkAccount[i]].listDataChange[_IdItem].numberChangePricingOtherPaticipant;\r\n              totalPriceOfPaticipantUnderRight += paticipants[ itemsList[_IdItem].checkAccount[i]].listDataChange[_IdItem].valueChangePricingOtherPaticipant[lengthPriceDeviation];\r\n        }\r\n        uint result = totalPriceOfPaticipantAbove / (totalPriceOfPaticipantUnderLeft - totalPriceOfPaticipantUnderRight);\r\n        itemsList[_IdItem].valueChangePricing = result;\r\n    }\r\n\r\n    function accumulatedDeviation(uint _newPriceOfParticipan, uint _IdItem) public notOnlyAdmin checkStatus(StatusSesstion.PRICING, _IdItem){\r\n        if(itemsList[_IdItem].checkAccount.length == 0){\r\n            itemsList[_IdItem].checkAccount.push(msg.sender);\r\n        }else{\r\n            for(uint i = 0 ; i < itemsList[_IdItem].checkAccount.length; i++){\r\n                if(itemsList[_IdItem].checkAccount[i] == msg.sender){\r\n                    status = true;\r\n                    break;\r\n                }\r\n            }\r\n            if(status == false){\r\n                itemsList[_IdItem].checkAccount.push(msg.sender);\r\n            }else{\r\n                status = false;\r\n            }\r\n        }\r\n        uint calNewPriceOfParticipant = calculatingDeviation(_newPriceOfParticipan, _IdItem);\r\n        uint lengthPriceDeviation = paticipants[msg.sender].listDataChange[_IdItem].numberChangePricingOtherPaticipant;\r\n        uint numberPaticipant = paticipants[msg.sender].listDataChange[_IdItem].numberChangePricingOtherPaticipant;\r\n        uint currentPriceDeviation = paticipants[msg.sender].listDataChange[_IdItem].valueChangePricingOtherPaticipant[lengthPriceDeviation];\r\n        uint value = (currentPriceDeviation * numberPaticipant + calNewPriceOfParticipant) / (numberPaticipant + 1);\r\n        paticipants[msg.sender].listDataChange[_IdItem].valueChangePricingOtherPaticipant.push(value);\r\n        paticipants[msg.sender].listDataChange[_IdItem].priceDeviation.push(_newPriceOfParticipan);\r\n        paticipants[msg.sender].listDataChange[_IdItem].numberChangePricingOtherPaticipant++;\r\n        paticipants[msg.sender].countPricedSesstion++;\r\n        itemsList[_IdItem].countPaticipantJoinSesstion++;\r\n        emit LogChainPriceOfSession(_IdItem, itemsList[_IdItem].nameItem,  paticipants[msg.sender].fullName, _newPriceOfParticipan);\r\n    }\r\n\r\n    function calculatingDeviation(uint _priceOfParticipan, uint _IdItem) internal view returns (uint){\r\n        uint newPriceDeviation = 0;\r\n        if(itemsList[_IdItem].firstPrice > _priceOfParticipan){\r\n            newPriceDeviation = (itemsList[_IdItem].firstPrice  - _priceOfParticipan) * 100 / itemsList[_IdItem].firstPrice;\r\n        }else{\r\n            newPriceDeviation = (_priceOfParticipan - itemsList[_IdItem].firstPrice) * 100 / itemsList[_IdItem].firstPrice;\r\n        }\r\n        return uint(newPriceDeviation);\r\n    }\r\n\r\n    function timeOutOfSesstion(uint _IdItem) public{\r\n        if(itemsList[_IdItem].timeSesstionEachOtherproduct == 0){\r\n             itemsList[_IdItem].statusSesstion = StatusSesstion.START;\r\n        }else{\r\n            if(block.timestamp > itemsList[_IdItem].timeSesstionEachOtherproduct && block.timestamp < itemsList[_IdItem].timeSesstionEachOtherproduct +itemsList[_IdItem].timeFinishSesstionEachOtherproduct){\r\n                itemsList[_IdItem].statusSesstion = StatusSesstion.PRICING;\r\n            }else{\r\n                if(block.timestamp > itemsList[_IdItem].timeSesstionEachOtherproduct + itemsList[_IdItem].timeFinishSesstionEachOtherproduct){\r\n                    itemsList[_IdItem].statusSesstion = StatusSesstion.ENDING;\r\n                }\r\n            }\r\n        }\r\n        \r\n    }\r\n}",
  "sourcePath": "C:\\Users\\Admin\\Desktop\\FunixPriceChanging\\contracts\\Session.sol",
  "compiler": {
    "name": "solc",
    "version": "0.8.10+commit.fc410830.Emscripten.clang"
  },
  "schemaVersion": "3.4.3",
  "updatedAt": "2021-12-27T08:48:45.865Z",
  "networkType": "ethereum",
  "devdoc": {
    "kind": "dev",
    "methods": {},
    "version": 1
  },
  "userdoc": {
    "kind": "user",
    "methods": {},
    "version": 1
  }
}