{
  "contractName": "Session",
  "abi": [
    {
      "inputs": [],
      "name": "admin",
      "outputs": [
        {
          "internalType": "address",
          "name": "",
          "type": "address"
        }
      ],
      "stateMutability": "view",
      "type": "function",
      "constant": true
    },
    {
      "inputs": [
        {
          "internalType": "uint256",
          "name": "",
          "type": "uint256"
        }
      ],
      "name": "itemsList",
      "outputs": [
        {
          "internalType": "uint256",
          "name": "IdItem",
          "type": "uint256"
        },
        {
          "internalType": "string",
          "name": "nameItem",
          "type": "string"
        },
        {
          "internalType": "string",
          "name": "imageHash",
          "type": "string"
        },
        {
          "internalType": "uint256",
          "name": "firstPrice",
          "type": "uint256"
        },
        {
          "internalType": "string",
          "name": "itemDescription",
          "type": "string"
        },
        {
          "internalType": "uint256",
          "name": "countPaticipantJoinSesstion",
          "type": "uint256"
        },
        {
          "internalType": "uint256",
          "name": "valueChangePricing",
          "type": "uint256"
        },
        {
          "internalType": "enum Main.StatusSesstion",
          "name": "statusSesstion",
          "type": "uint8"
        },
        {
          "internalType": "uint256",
          "name": "timeSesstionEachOtherproduct",
          "type": "uint256"
        },
        {
          "internalType": "uint256",
          "name": "timeFinishSesstionEachOtherproduct",
          "type": "uint256"
        }
      ],
      "stateMutability": "view",
      "type": "function",
      "constant": true
    },
    {
      "inputs": [
        {
          "internalType": "uint256",
          "name": "",
          "type": "uint256"
        }
      ],
      "name": "listHashImage",
      "outputs": [
        {
          "internalType": "string",
          "name": "",
          "type": "string"
        }
      ],
      "stateMutability": "view",
      "type": "function",
      "constant": true
    },
    {
      "inputs": [
        {
          "internalType": "uint256",
          "name": "",
          "type": "uint256"
        }
      ],
      "name": "listInformationOfImage",
      "outputs": [
        {
          "internalType": "string",
          "name": "",
          "type": "string"
        }
      ],
      "stateMutability": "view",
      "type": "function",
      "constant": true
    },
    {
      "inputs": [
        {
          "internalType": "uint256",
          "name": "",
          "type": "uint256"
        }
      ],
      "name": "listNameOfItems",
      "outputs": [
        {
          "internalType": "string",
          "name": "",
          "type": "string"
        }
      ],
      "stateMutability": "view",
      "type": "function",
      "constant": true
    },
    {
      "inputs": [
        {
          "internalType": "uint256",
          "name": "",
          "type": "uint256"
        }
      ],
      "name": "listPrice",
      "outputs": [
        {
          "internalType": "uint256",
          "name": "",
          "type": "uint256"
        }
      ],
      "stateMutability": "view",
      "type": "function",
      "constant": true
    },
    {
      "inputs": [
        {
          "internalType": "uint256",
          "name": "",
          "type": "uint256"
        }
      ],
      "name": "totalAccounts",
      "outputs": [
        {
          "internalType": "address",
          "name": "",
          "type": "address"
        }
      ],
      "stateMutability": "view",
      "type": "function",
      "constant": true
    },
    {
      "inputs": [],
      "name": "addData",
      "outputs": [],
      "stateMutability": "nonpayable",
      "type": "function"
    },
    {
      "inputs": [
        {
          "internalType": "uint256",
          "name": "_IdItem",
          "type": "uint256"
        }
      ],
      "name": "getDataX",
      "outputs": [
        {
          "internalType": "uint256",
          "name": "",
          "type": "uint256"
        }
      ],
      "stateMutability": "view",
      "type": "function",
      "constant": true
    },
    {
      "inputs": [
        {
          "internalType": "uint256",
          "name": "_IdItem",
          "type": "uint256"
        }
      ],
      "name": "startSesstion",
      "outputs": [],
      "stateMutability": "nonpayable",
      "type": "function"
    },
    {
      "inputs": [
        {
          "internalType": "uint256",
          "name": "_IdItem",
          "type": "uint256"
        }
      ],
      "name": "stopSesstion",
      "outputs": [],
      "stateMutability": "nonpayable",
      "type": "function"
    },
    {
      "inputs": [
        {
          "internalType": "address",
          "name": "_address",
          "type": "address"
        },
        {
          "internalType": "string",
          "name": "_fullName",
          "type": "string"
        },
        {
          "internalType": "string",
          "name": "_email",
          "type": "string"
        }
      ],
      "name": "register",
      "outputs": [],
      "stateMutability": "nonpayable",
      "type": "function"
    },
    {
      "inputs": [
        {
          "internalType": "uint256",
          "name": "_IdItem",
          "type": "uint256"
        }
      ],
      "name": "getProposedPrice",
      "outputs": [],
      "stateMutability": "nonpayable",
      "type": "function"
    },
    {
      "inputs": [
        {
          "internalType": "uint256",
          "name": "_newPriceOfParticipan",
          "type": "uint256"
        },
        {
          "internalType": "uint256",
          "name": "_IdItem",
          "type": "uint256"
        }
      ],
      "name": "accumulatedDeviation",
      "outputs": [],
      "stateMutability": "nonpayable",
      "type": "function"
    },
    {
      "inputs": [
        {
          "internalType": "uint256",
          "name": "_IdItem",
          "type": "uint256"
        }
      ],
      "name": "getDataItems",
      "outputs": [
        {
          "internalType": "uint256",
          "name": "",
          "type": "uint256"
        }
      ],
      "stateMutability": "view",
      "type": "function",
      "constant": true
    },
    {
      "inputs": [
        {
          "internalType": "uint256",
          "name": "_IdItem",
          "type": "uint256"
        }
      ],
      "name": "getStatusSesstion",
      "outputs": [
        {
          "internalType": "enum Main.StatusSesstion",
          "name": "",
          "type": "uint8"
        }
      ],
      "stateMutability": "view",
      "type": "function",
      "constant": true
    },
    {
      "inputs": [
        {
          "internalType": "uint256",
          "name": "_IdItem",
          "type": "uint256"
        },
        {
          "internalType": "uint256",
          "name": "_price",
          "type": "uint256"
        }
      ],
      "name": "setPriceOfItem",
      "outputs": [],
      "stateMutability": "nonpayable",
      "type": "function"
    }
  ],
  "bytecode": "0x608060405260008060146101000a81548160ff021916908315150217905550600a67ffffffffffffffff8111156200003c576200003b62000a4e565b5b6040519080825280602002602001820160405280156200007157816020015b60608152602001906001900390816200005b5790505b50600190805190602001906200008992919062000877565b50600a67ffffffffffffffff811115620000a857620000a762000a4e565b5b604051908082528060200260200182016040528015620000dd57816020015b6060815260200190600190039081620000c75790505b5060029080519060200190620000f592919062000877565b50600a67ffffffffffffffff81111562000114576200011362000a4e565b5b6040519080825280602002602001820160405280156200014957816020015b6060815260200190600190039081620001335790505b50600390805190602001906200016192919062000877565b50600a67ffffffffffffffff81111562000180576200017f62000a4e565b5b604051908082528060200260200182016040528015620001af5781602001602082028036833780820191505090505b5060049080519060200190620001c7929190620008de565b5060006007556000600955348015620001df57600080fd5b50336000806101000a81548173ffffffffffffffffffffffffffffffffffffffff021916908373ffffffffffffffffffffffffffffffffffffffff160217905550600180600181540180825580915050600190039060005260206000200160006040518060400160405280601681526020017f53616d73756e672047616c617879204e6f746532302000000000000000000000815250909190915090805190602001906200028f92919062000930565b50600180600181540180825580915050600190039060005260206000200160006040518060400160405280600e81526020017f53616d73756e67205a466c69703300000000000000000000000000000000000081525090919091509080519060200190620002ff92919062000930565b50600180600181540180825580915050600190039060005260206000200160006040518060400160405280600e81526020017f4173757320526f672050686f6e65000000000000000000000000000000000000815250909190915090805190602001906200036f92919062000930565b50600180600181540180825580915050600190039060005260206000200160006040518060400160405280600d81526020017f47616c617879205a466f6c64330000000000000000000000000000000000000081525090919091509080519060200190620003df92919062000930565b50600180600181540180825580915050600190039060005260206000200160006040518060400160405280601181526020017f4970686f6e652031322050726f204d6178000000000000000000000000000000815250909190915090805190602001906200044f92919062000930565b50600280600181540180825580915050600190039060005260206000200160006040518060600160405280602e815260200162003b7e602e913990919091509080519060200190620004a392919062000930565b50600280600181540180825580915050600190039060005260206000200160006040518060600160405280602e815260200162003901602e913990919091509080519060200190620004f792919062000930565b50600280600181540180825580915050600190039060005260206000200160006040518060600160405280602e815260200162003cca602e9139909190915090805190602001906200054b92919062000930565b50600280600181540180825580915050600190039060005260206000200160006040518060600160405280602e815260200162003db3602e9139909190915090805190602001906200059f92919062000930565b50600280600181540180825580915050600190039060005260206000200160006040518060600160405280602e815260200162003c9c602e913990919091509080519060200190620005f392919062000930565b50600380600181540180825580915050600190039060005260206000200160006040518060e0016040528060bc815260200162003ac260bc9139909190915090805190602001906200064792919062000930565b506003806001815401808255809150506001900390600052602060002001600060405180610100016040528060dc81526020016200392f60dc9139909190915090805190602001906200069c92919062000930565b506003806001815401808255809150506001900390600052602060002001600060405180610120016040528060f0815260200162003bac60f0913990919091509080519060200190620006f192919062000930565b50600380600181540180825580915050600190039060005260206000200160006040518060e0016040528060bb815260200162003cf860bb9139909190915090805190602001906200074592919062000930565b50600380600181540180825580915050600190039060005260206000200160006040518060e0016040528060b7815260200162003a0b60b79139909190915090805190602001906200079992919062000930565b5060046103a2908060018154018082558091505060019003906000526020600020016000909190919091505560046106cc908060018154018082558091505060019003906000526020600020016000909190919091505560046103169080600181540180825580915050600190039060005260206000200160009091909190915055600461050a908060018154018082558091505060019003906000526020600020016000909190919091505560046103da908060018154018082558091505060019003906000526020600020016000909190919091505562000ae2565b828054828255906000526020600020908101928215620008cb579160200282015b82811115620008ca578251829080519060200190620008b992919062000930565b509160200191906001019062000898565b5b509050620008da9190620009c1565b5090565b8280548282559060005260206000209081019282156200091d579160200282015b828111156200091c578251825591602001919060010190620008ff565b5b5090506200092c9190620009e9565b5090565b8280546200093e9062000aac565b90600052602060002090601f016020900481019282620009625760008555620009ae565b82601f106200097d57805160ff1916838001178555620009ae565b82800160010185558215620009ae579182015b82811115620009ad57825182559160200191906001019062000990565b5b509050620009bd9190620009e9565b5090565b5b80821115620009e55760008181620009db919062000a08565b50600101620009c2565b5090565b5b8082111562000a04576000816000905550600101620009ea565b5090565b50805462000a169062000aac565b6000825580601f1062000a2a575062000a4b565b601f01602090049060005260206000209081019062000a4a9190620009e9565b5b50565b7f4e487b7100000000000000000000000000000000000000000000000000000000600052604160045260246000fd5b7f4e487b7100000000000000000000000000000000000000000000000000000000600052602260045260246000fd5b6000600282049050600182168062000ac557607f821691505b6020821081141562000adc5762000adb62000a7d565b5b50919050565b612e0f8062000af26000396000f3fe608060405234801561001057600080fd5b506004361061010b5760003560e01c8063896af4a9116100a2578063e3ce9ba711610071578063e3ce9ba7146102f5578063e5b49a6b146102ff578063e8c06c541461032f578063f53dbb2e1461034b578063f851a4401461037b5761010b565b8063896af4a9146102545780638d59cc02146102705780638df2873e1461028c578063c2bd9d95146102bc5761010b565b806340a1ca29116100de57806340a1ca29146101bc5780635ef00232146101d857806387d81f7c146101f4578063894837ab146102245761010b565b806307d25fa2146101105780631043bd7014610140578063358c371f1461015c5780633fe911211461018c575b600080fd5b61012a60048036038101906101259190612402565b610399565b604051610137919061243e565b60405180910390f35b61015a60048036038101906101559190612402565b6103d4565b005b61017660048036038101906101719190612402565b6104dd565b60405161018391906124f2565b60405180910390f35b6101a660048036038101906101a19190612402565b610589565b6040516101b391906124f2565b60405180910390f35b6101d660048036038101906101d19190612402565b610635565b005b6101f260048036038101906101ed9190612514565b610ab8565b005b61020e60048036038101906102099190612402565b611105565b60405161021b919061243e565b60405180910390f35b61023e60048036038101906102399190612402565b611129565b60405161024b91906125cb565b60405180910390f35b61026e60048036038101906102699190612514565b611165565b005b61028a60048036038101906102859190612779565b611230565b005b6102a660048036038101906102a19190612402565b61179c565b6040516102b391906124f2565b60405180910390f35b6102d660048036038101906102d19190612402565b611848565b6040516102ec9a99989796959493929190612804565b60405180910390f35b6102fd611a51565b005b61031960048036038101906103149190612402565b611e5f565b604051610326919061243e565b60405180910390f35b61034960048036038101906103449190612402565b611e8e565b005b61036560048036038101906103609190612402565b611f6d565b60405161037291906128c4565b60405180910390f35b610383611fac565b60405161039091906128c4565b60405180910390f35b60006001600683815481106103b1576103b06128df565b5b90600052602060002090600d0201600301546103cd919061293d565b9050919050565b60008054906101000a900473ffffffffffffffffffffffffffffffffffffffff1673ffffffffffffffffffffffffffffffffffffffff163373ffffffffffffffffffffffffffffffffffffffff1614610462576040517f08c379a0000000000000000000000000000000000000000000000000000000008152600401610459906129df565b60405180910390fd5b600160068281548110610478576104776128df565b5b90600052602060002090600d0201600a0160006101000a81548160ff021916908360028111156104ab576104aa612554565b5b021790555042600682815481106104c5576104c46128df565b5b90600052602060002090600d0201600b018190555050565b600381815481106104ed57600080fd5b90600052602060002001600091509050805461050890612a2e565b80601f016020809104026020016040519081016040528092919081815260200182805461053490612a2e565b80156105815780601f1061055657610100808354040283529160200191610581565b820191906000526020600020905b81548152906001019060200180831161056457829003601f168201915b505050505081565b6001818154811061059957600080fd5b9060005260206000200160009150905080546105b490612a2e565b80601f01602080910402602001604051908101604052809291908181526020018280546105e090612a2e565b801561062d5780601f106106025761010080835404028352916020019161062d565b820191906000526020600020905b81548152906001019060200180831161061057829003601f168201915b505050505081565b60008054906101000a900473ffffffffffffffffffffffffffffffffffffffff1673ffffffffffffffffffffffffffffffffffffffff163373ffffffffffffffffffffffffffffffffffffffff16146106c3576040517f08c379a00000000000000000000000000000000000000000000000000000000081526004016106ba906129df565b60405180910390fd5b6106cc81611fd0565b6002808111156106df576106de612554565b5b600682815481106106f3576106f26128df565b5b90600052602060002090600d0201600a0160009054906101000a900460ff16600281111561072457610723612554565b5b14610764576040517f08c379a000000000000000000000000000000000000000000000000000000000815260040161075b90612aac565b60405180910390fd5b6000806006838154811061077b5761077a6128df565b5b90600052602060002090600d020160090180549050905060005b818110156109615760056000600686815481106107b5576107b46128df565b5b90600052602060002090600d020160090183815481106107d8576107d76128df565b5b9060005260206000200160009054906101000a900473ffffffffffffffffffffffffffffffffffffffff1673ffffffffffffffffffffffffffffffffffffffff1673ffffffffffffffffffffffffffffffffffffffff1681526020019081526020016000206005018481548110610852576108516128df565b5b90600052602060002090600402016002015460646108709190612acc565b6005600060068781548110610888576108876128df565b5b90600052602060002090600d020160090184815481106108ab576108aa6128df565b5b9060005260206000200160009054906101000a900473ffffffffffffffffffffffffffffffffffffffff1673ffffffffffffffffffffffffffffffffffffffff1673ffffffffffffffffffffffffffffffffffffffff1681526020019081526020016000206005018581548110610925576109246128df565b5b9060005260206000209060040201600101546109419190612b00565b8361094c919061293d565b9250808061095990612b5a565b915050610795565b5060008160646109719190612b00565b9050600080600090505b83811015610a6a57600560006006888154811061099b5761099a6128df565b5b90600052602060002090600d020160090183815481106109be576109bd6128df565b5b9060005260206000200160009054906101000a900473ffffffffffffffffffffffffffffffffffffffff1673ffffffffffffffffffffffffffffffffffffffff1673ffffffffffffffffffffffffffffffffffffffff1681526020019081526020016000206005018681548110610a3857610a376128df565b5b90600052602060002090600402016002015482610a55919061293d565b91508080610a6290612b5a565b91505061097b565b5060008183610a799190612acc565b85610a849190612bd2565b90508060068781548110610a9b57610a9a6128df565b5b90600052602060002090600d020160080181905550505050505050565b60008054906101000a900473ffffffffffffffffffffffffffffffffffffffff1673ffffffffffffffffffffffffffffffffffffffff163373ffffffffffffffffffffffffffffffffffffffff161415610b47576040517f08c379a0000000000000000000000000000000000000000000000000000000008152600401610b3e90612c4f565b60405180910390fd5b600181816002811115610b5d57610b5c612554565b5b60068281548110610b7157610b706128df565b5b90600052602060002090600d0201600a0160009054906101000a900460ff166002811115610ba257610ba1612554565b5b14610be2576040517f08c379a0000000000000000000000000000000000000000000000000000000008152600401610bd990612aac565b60405180910390fd5b600060068481548110610bf857610bf76128df565b5b90600052602060002090600d0201600901805490501415610c9e5760068381548110610c2757610c266128df565b5b90600052602060002090600d0201600901339080600181540180825580915050600190039060005260206000200160009091909190916101000a81548173ffffffffffffffffffffffffffffffffffffffff021916908373ffffffffffffffffffffffffffffffffffffffff160217905550610e5d565b60005b60068481548110610cb557610cb46128df565b5b90600052602060002090600d020160090180549050811015610d99573373ffffffffffffffffffffffffffffffffffffffff1660068581548110610cfc57610cfb6128df565b5b90600052602060002090600d02016009018281548110610d1f57610d1e6128df565b5b9060005260206000200160009054906101000a900473ffffffffffffffffffffffffffffffffffffffff1673ffffffffffffffffffffffffffffffffffffffff161415610d86576001600060146101000a81548160ff021916908315150217905550610d99565b8080610d9190612b5a565b915050610ca1565b5060001515600060149054906101000a900460ff1615151415610e415760068381548110610dca57610dc96128df565b5b90600052602060002090600d0201600901339080600181540180825580915050600190039060005260206000200160009091909190916101000a81548173ffffffffffffffffffffffffffffffffffffffff021916908373ffffffffffffffffffffffffffffffffffffffff160217905550610e5c565b60008060146101000a81548160ff0219169083151502179055505b5b6000610e69858561211c565b90506000600560003373ffffffffffffffffffffffffffffffffffffffff1673ffffffffffffffffffffffffffffffffffffffff1681526020019081526020016000206005018581548110610ec157610ec06128df565b5b90600052602060002090600402016003015490506000600560003373ffffffffffffffffffffffffffffffffffffffff1673ffffffffffffffffffffffffffffffffffffffff1681526020019081526020016000206005018681548110610f2b57610f2a6128df565b5b90600052602060002090600402016002015490506000600183610f4e919061293d565b848484610f5b9190612b00565b610f65919061293d565b610f6f9190612bd2565b905080600560003373ffffffffffffffffffffffffffffffffffffffff1673ffffffffffffffffffffffffffffffffffffffff1681526020019081526020016000206005018881548110610fc657610fc56128df565b5b90600052602060002090600402016002018190555087600560003373ffffffffffffffffffffffffffffffffffffffff1673ffffffffffffffffffffffffffffffffffffffff16815260200190815260200160002060050188815481106110305761102f6128df565b5b906000526020600020906004020160010181905550600560003373ffffffffffffffffffffffffffffffffffffffff1673ffffffffffffffffffffffffffffffffffffffff1681526020019081526020016000206005018781548110611099576110986128df565b5b906000526020600020906004020160030160008154809291906110bb90612b5a565b9190505550600687815481106110d4576110d36128df565b5b90600052602060002090600d020160050160008154809291906110f690612b5a565b91905055505050505050505050565b6004818154811061111557600080fd5b906000526020600020016000915090505481565b60006006828154811061113f5761113e6128df565b5b90600052602060002090600d0201600a0160009054906101000a900460ff169050919050565b60028281600281111561117b5761117a612554565b5b6006828154811061118f5761118e6128df565b5b90600052602060002090600d0201600a0160009054906101000a900460ff1660028111156111c0576111bf612554565b5b14611200576040517f08c379a00000000000000000000000000000000000000000000000000000000081526004016111f790612aac565b60405180910390fd5b8260068581548110611215576112146128df565b5b90600052602060002090600d02016008018190555050505050565b60008054906101000a900473ffffffffffffffffffffffffffffffffffffffff1673ffffffffffffffffffffffffffffffffffffffff163373ffffffffffffffffffffffffffffffffffffffff16146112be576040517f08c379a00000000000000000000000000000000000000000000000000000000081526004016112b5906129df565b60405180910390fd5b6000808054906101000a900473ffffffffffffffffffffffffffffffffffffffff1673ffffffffffffffffffffffffffffffffffffffff168473ffffffffffffffffffffffffffffffffffffffff16141561134e576040517f08c379a000000000000000000000000000000000000000000000000000000000815260040161134590612cbb565b60405180910390fd5b600a6008805490501115611397576040517f08c379a000000000000000000000000000000000000000000000000000000000815260040161138e90612d4d565b60405180910390fd5b60005b60088054905081101561143557600881815481106113bb576113ba6128df565b5b9060005260206000200160009054906101000a900473ffffffffffffffffffffffffffffffffffffffff1673ffffffffffffffffffffffffffffffffffffffff168573ffffffffffffffffffffffffffffffffffffffff1614156114225760019150611435565b808061142d90612b5a565b91505061139a565b508061175b576008849080600181540180825580915050600190039060005260206000200160009091909190916101000a81548173ffffffffffffffffffffffffffffffffffffffff021916908373ffffffffffffffffffffffffffffffffffffffff160217905550600954600560008673ffffffffffffffffffffffffffffffffffffffff1673ffffffffffffffffffffffffffffffffffffffff1681526020019081526020016000206000018190555083600560008673ffffffffffffffffffffffffffffffffffffffff1673ffffffffffffffffffffffffffffffffffffffff16815260200190815260200160002060010160006101000a81548173ffffffffffffffffffffffffffffffffffffffff021916908373ffffffffffffffffffffffffffffffffffffffff16021790555082600560008673ffffffffffffffffffffffffffffffffffffffff1673ffffffffffffffffffffffffffffffffffffffff16815260200190815260200160002060020190805190602001906115be92919061223e565b5081600560008673ffffffffffffffffffffffffffffffffffffffff1673ffffffffffffffffffffffffffffffffffffffff168152602001908152602001600020600301908051906020019061161592919061223e565b506000600560008673ffffffffffffffffffffffffffffffffffffffff1673ffffffffffffffffffffffffffffffffffffffff1681526020019081526020016000206004018190555060005b60075481101561173d5760006040518060800160405280838152602001600081526020016000815260200160008152509050600560008773ffffffffffffffffffffffffffffffffffffffff1673ffffffffffffffffffffffffffffffffffffffff16815260200190815260200160002060050181908060018154018082558091505060019003906000526020600020906004020160009091909190915060008201518160000155602082015181600101556040820151816002015560608201518160030155505050808061173590612b5a565b915050611661565b506009600081548092919061175190612b5a565b9190505550611796565b6040517f08c379a000000000000000000000000000000000000000000000000000000000815260040161178d90612db9565b60405180910390fd5b50505050565b600281815481106117ac57600080fd5b9060005260206000200160009150905080546117c790612a2e565b80601f01602080910402602001604051908101604052809291908181526020018280546117f390612a2e565b80156118405780601f1061181557610100808354040283529160200191611840565b820191906000526020600020905b81548152906001019060200180831161182357829003601f168201915b505050505081565b6006818154811061185857600080fd5b90600052602060002090600d020160009150905080600001549080600101805461188190612a2e565b80601f01602080910402602001604051908101604052809291908181526020018280546118ad90612a2e565b80156118fa5780601f106118cf576101008083540402835291602001916118fa565b820191906000526020600020905b8154815290600101906020018083116118dd57829003601f168201915b50505050509080600201805461190f90612a2e565b80601f016020809104026020016040519081016040528092919081815260200182805461193b90612a2e565b80156119885780601f1061195d57610100808354040283529160200191611988565b820191906000526020600020905b81548152906001019060200180831161196b57829003601f168201915b5050505050908060030154908060040180546119a390612a2e565b80601f01602080910402602001604051908101604052809291908181526020018280546119cf90612a2e565b8015611a1c5780601f106119f157610100808354040283529160200191611a1c565b820191906000526020600020905b8154815290600101906020018083116119ff57829003601f168201915b50505050509080600501549080600801549080600a0160009054906101000a900460ff169080600b01549080600c015490508a565b60005b600280549050811015611e5c576060806006604051806101a0016040528085815260200160018681548110611a8c57611a8b6128df565b5b906000526020600020018054611aa190612a2e565b80601f0160208091040260200160405190810160405280929190818152602001828054611acd90612a2e565b8015611b1a5780601f10611aef57610100808354040283529160200191611b1a565b820191906000526020600020905b815481529060010190602001808311611afd57829003601f168201915b5050505050815260200160028681548110611b3857611b376128df565b5b906000526020600020018054611b4d90612a2e565b80601f0160208091040260200160405190810160405280929190818152602001828054611b7990612a2e565b8015611bc65780601f10611b9b57610100808354040283529160200191611bc6565b820191906000526020600020905b815481529060010190602001808311611ba957829003601f168201915b5050505050815260200160048681548110611be457611be36128df565b5b9060005260206000200154815260200160038681548110611c0857611c076128df565b5b906000526020600020018054611c1d90612a2e565b80601f0160208091040260200160405190810160405280929190818152602001828054611c4990612a2e565b8015611c965780601f10611c6b57610100808354040283529160200191611c96565b820191906000526020600020905b815481529060010190602001808311611c7957829003601f168201915b50505050508152602001600081526020018481526020018481526020016000815260200183815260200160006002811115611cd457611cd3612554565b5b815260200160008152602001606481525090806001815401808255809150506001900390600052602060002090600d0201600090919091909150600082015181600001556020820151816001019080519060200190611d3492919061223e565b506040820151816002019080519060200190611d5192919061223e565b50606082015181600301556080820151816004019080519060200190611d7892919061223e565b5060a0820151816005015560c0820151816006019080519060200190611d9f9291906122c4565b5060e0820151816007019080519060200190611dbc9291906122c4565b506101008201518160080155610120820151816009019080519060200190611de5929190612311565b5061014082015181600a0160006101000a81548160ff02191690836002811115611e1257611e11612554565b5b021790555061016082015181600b015561018082015181600c0155505060076000815480929190611e4290612b5a565b919050555050508080611e5490612b5a565b915050611a54565b50565b600060068281548110611e7557611e746128df565b5b90600052602060002090600d0201600801549050919050565b60008054906101000a900473ffffffffffffffffffffffffffffffffffffffff1673ffffffffffffffffffffffffffffffffffffffff163373ffffffffffffffffffffffffffffffffffffffff1614611f1c576040517f08c379a0000000000000000000000000000000000000000000000000000000008152600401611f13906129df565b60405180910390fd5b600260068281548110611f3257611f316128df565b5b90600052602060002090600d0201600a0160006101000a81548160ff02191690836002811115611f6557611f64612554565b5b021790555050565b60088181548110611f7d57600080fd5b906000526020600020016000915054906101000a900473ffffffffffffffffffffffffffffffffffffffff1681565b60008054906101000a900473ffffffffffffffffffffffffffffffffffffffff1681565b600181816002811115611fe657611fe5612554565b5b60068281548110611ffa57611ff96128df565b5b90600052602060002090600d0201600a0160009054906101000a900460ff16600281111561202b5761202a612554565b5b1461206b576040517f08c379a000000000000000000000000000000000000000000000000000000000815260040161206290612aac565b60405180910390fd5b6006838154811061207f5761207e6128df565b5b90600052602060002090600d0201600c0154600684815481106120a5576120a46128df565b5b90600052602060002090600d0201600b01546120c1919061293d565b421115612117576002600684815481106120de576120dd6128df565b5b90600052602060002090600d0201600a0160006101000a81548160ff0219169083600281111561211157612110612554565b5b02179055505b505050565b600080600090508360068481548110612138576121376128df565b5b90600052602060002090600d02016003015411156121c45760068381548110612164576121636128df565b5b90600052602060002090600d0201600301546064856006868154811061218d5761218c6128df565b5b90600052602060002090600d0201600301546121a99190612acc565b6121b39190612b00565b6121bd9190612bd2565b9050612234565b600683815481106121d8576121d76128df565b5b90600052602060002090600d020160030154606460068581548110612200576121ff6128df565b5b90600052602060002090600d0201600301548661221d9190612acc565b6122279190612b00565b6122319190612bd2565b90505b8091505092915050565b82805461224a90612a2e565b90600052602060002090601f01602090048101928261226c57600085556122b3565b82601f1061228557805160ff19168380011785556122b3565b828001600101855582156122b3579182015b828111156122b2578251825591602001919060010190612297565b5b5090506122c0919061239b565b5090565b828054828255906000526020600020908101928215612300579160200282015b828111156122ff5782518255916020019190600101906122e4565b5b50905061230d919061239b565b5090565b82805482825590600052602060002090810192821561238a579160200282015b828111156123895782518260006101000a81548173ffffffffffffffffffffffffffffffffffffffff021916908373ffffffffffffffffffffffffffffffffffffffff16021790555091602001919060010190612331565b5b509050612397919061239b565b5090565b5b808211156123b457600081600090555060010161239c565b5090565b6000604051905090565b600080fd5b600080fd5b6000819050919050565b6123df816123cc565b81146123ea57600080fd5b50565b6000813590506123fc816123d6565b92915050565b600060208284031215612418576124176123c2565b5b6000612426848285016123ed565b91505092915050565b612438816123cc565b82525050565b6000602082019050612453600083018461242f565b92915050565b600081519050919050565b600082825260208201905092915050565b60005b83811015612493578082015181840152602081019050612478565b838111156124a2576000848401525b50505050565b6000601f19601f8301169050919050565b60006124c482612459565b6124ce8185612464565b93506124de818560208601612475565b6124e7816124a8565b840191505092915050565b6000602082019050818103600083015261250c81846124b9565b905092915050565b6000806040838503121561252b5761252a6123c2565b5b6000612539858286016123ed565b925050602061254a858286016123ed565b9150509250929050565b7f4e487b7100000000000000000000000000000000000000000000000000000000600052602160045260246000fd5b6003811061259457612593612554565b5b50565b60008190506125a582612583565b919050565b60006125b582612597565b9050919050565b6125c5816125aa565b82525050565b60006020820190506125e060008301846125bc565b92915050565b600073ffffffffffffffffffffffffffffffffffffffff82169050919050565b6000612611826125e6565b9050919050565b61262181612606565b811461262c57600080fd5b50565b60008135905061263e81612618565b92915050565b600080fd5b600080fd5b7f4e487b7100000000000000000000000000000000000000000000000000000000600052604160045260246000fd5b612686826124a8565b810181811067ffffffffffffffff821117156126a5576126a461264e565b5b80604052505050565b60006126b86123b8565b90506126c4828261267d565b919050565b600067ffffffffffffffff8211156126e4576126e361264e565b5b6126ed826124a8565b9050602081019050919050565b82818337600083830152505050565b600061271c612717846126c9565b6126ae565b90508281526020810184848401111561273857612737612649565b5b6127438482856126fa565b509392505050565b600082601f8301126127605761275f612644565b5b8135612770848260208601612709565b91505092915050565b600080600060608486031215612792576127916123c2565b5b60006127a08682870161262f565b935050602084013567ffffffffffffffff8111156127c1576127c06123c7565b5b6127cd8682870161274b565b925050604084013567ffffffffffffffff8111156127ee576127ed6123c7565b5b6127fa8682870161274b565b9150509250925092565b60006101408201905061281a600083018d61242f565b818103602083015261282c818c6124b9565b90508181036040830152612840818b6124b9565b905061284f606083018a61242f565b818103608083015261286181896124b9565b905061287060a083018861242f565b61287d60c083018761242f565b61288a60e08301866125bc565b61289861010083018561242f565b6128a661012083018461242f565b9b9a5050505050505050505050565b6128be81612606565b82525050565b60006020820190506128d960008301846128b5565b92915050565b7f4e487b7100000000000000000000000000000000000000000000000000000000600052603260045260246000fd5b7f4e487b7100000000000000000000000000000000000000000000000000000000600052601160045260246000fd5b6000612948826123cc565b9150612953836123cc565b9250827fffffffffffffffffffffffffffffffffffffffffffffffffffffffffffffffff038211156129885761298761290e565b5b828201905092915050565b7f4f6e6c792061646d696e2063616e20736f6c7665000000000000000000000000600082015250565b60006129c9601483612464565b91506129d482612993565b602082019050919050565b600060208201905081810360008301526129f8816129bc565b9050919050565b7f4e487b7100000000000000000000000000000000000000000000000000000000600052602260045260246000fd5b60006002820490506001821680612a4657607f821691505b60208210811415612a5a57612a596129ff565b5b50919050565b7f57726f6e6720737461747573206f66207365737374696f6e0000000000000000600082015250565b6000612a96601883612464565b9150612aa182612a60565b602082019050919050565b60006020820190508181036000830152612ac581612a89565b9050919050565b6000612ad7826123cc565b9150612ae2836123cc565b925082821015612af557612af461290e565b5b828203905092915050565b6000612b0b826123cc565b9150612b16836123cc565b9250817fffffffffffffffffffffffffffffffffffffffffffffffffffffffffffffffff0483118215151615612b4f57612b4e61290e565b5b828202905092915050565b6000612b65826123cc565b91507fffffffffffffffffffffffffffffffffffffffffffffffffffffffffffffffff821415612b9857612b9761290e565b5b600182019050919050565b7f4e487b7100000000000000000000000000000000000000000000000000000000600052601260045260246000fd5b6000612bdd826123cc565b9150612be8836123cc565b925082612bf857612bf7612ba3565b5b828204905092915050565b7f4e6f74206f6e6c792061646d696e000000000000000000000000000000000000600082015250565b6000612c39600e83612464565b9150612c4482612c03565b602082019050919050565b60006020820190508181036000830152612c6881612c2c565b9050919050565b7f4163636f756e74206f662061646d696e2063616e277420726567697374657200600082015250565b6000612ca5601f83612464565b9150612cb082612c6f565b602082019050919050565b60006020820190508181036000830152612cd481612c98565b9050919050565b7f546865206e756d626572206f66207061727469636970616e7473206973206c6560008201527f7373207468616e2074656e2e0000000000000000000000000000000000000000602082015250565b6000612d37602c83612464565b9150612d4282612cdb565b604082019050919050565b60006020820190508181036000830152612d6681612d2a565b9050919050565b7f546869732061646472657373205265616c6c7920657869737465640000000000600082015250565b6000612da3601b83612464565b9150612dae82612d6d565b602082019050919050565b60006020820190508181036000830152612dd281612d96565b905091905056fea264697066735822122084a49e84eb1985f66a7f3e8fade5d76ef53ebb5e42914fe027e3b1556fd451c364736f6c634300080a0033516d643633454c6b5a6737467a4b424d33516336377750766e4a3251386b675269596d39634267465057526d4d6b556e6971756520666f6c64696e672073637265656e2c207365616d6c65737320646973706c6179202d2044796e616d696320414d4f4c45442032582c20313230487a207265667265736820726174652c2048445220737570706f72742c20446f6c627920566973696f6e2e203c62722f3e556e6971756520666f6c64696e672073637265656e2c207365616d6c65737320646973706c6179202d2044796e616d696320414d4f4c45442032582c20313230487a207265667265736820726174652c2048445220737570706f72742c20446f6c627920566973696f6e2e506f77657266756c2c2073757065722d6661737420776974682041313420636869702c203647422052414d2c20686967682d7370656564203547206e6574776f726b203c62722f3e4272696c6c69616e742c2073686172702c2068696768206272696768746e657373202d205072656d69756d204f4c454420646973706c6179203c62722f3e537570657220526574696e6120584452207769746820484452313020737570706f72742c20446f6c627920566973696f6e4c75787572792c20686967682d636c617373202d20556e6971756520616e64206174747261637469766520636f6c6f7273203c62722f3e54616b652070726f66657373696f6e616c2070686f746f73202d20536574206f6620332063616d65726173207468617420737570706f7274205a6f6f6d20757020746f20333058203c62722f3e54616b6520717569636b2c206163637572617465206e6f746573207769746820746865206e65772067656e65726174696f6e20532d50656e516d4e7156597448346d584736394c6e4159453478793168676666315a6b59427476566343447941345250693669427265616b20616c6c20746865206c696d697473206f6620706572666f726d616e6365202d20686967682d656e6420536e6170647261676f6e203836352b2c20354720636f6e6e65637469766974792c20313247422052414d203c62722f3e5374616e646172642067616d696e672073637265656e202d20414d4f4c45442070616e656c2c20686967682072656672657368207261746520313434487a2c2048445231302b3c62722f3e506c61792067616d657320776974686f757420696e74657272757074696f6e202d20363030306d416820626174746572792c20637573746f6d2062617474657279206d6f6465516d5865593537516658446e79744c3750554141796e727454566675424845596158577858346a464641794c7964516d54703638734438654158535046616f5a707153366276627848467047384141454c58314a3754663843657269496d7072657373697665206475616c2073637265656e202d20372e39206d61696e2073637265656e20616e64207375622073637265656e3a20362e32332c20313230487a20736d6f6f7468206d6f74696f6e203c62722f3e537570657220696d70726573736976652063616d6572612073797374656d202d20536574206f6620332031324d502063616d657261206c656e7365732c2073656c6669652063616d6572612068696464656e20756e646572207468652073637265656e516d61476a6e7043337358656b516f6e385636326e5a467a356f4b7542316770794a614d754a744343344e376638",
  "immutableReferences": {},
  "source": "pragma solidity >=0.4.0 <0.9.0;\r\nimport \"./Main.sol\";\r\ncontract Session is Main{\r\n    struct Items{\r\n        uint IdItem;\r\n        string nameItem;\r\n        string imageHash;\r\n        uint firstPrice;\r\n        string itemDescription;\r\n        uint countPaticipantJoinSesstion;\r\n        uint[] listPriceOfPaticipant;\r\n        uint[] listPriceDeviation;\r\n        uint valueChangePricing;\r\n        address[] checkAccount;\r\n        StatusSesstion statusSesstion;\r\n        uint timeSesstionEachOtherproduct;\r\n        uint timeFinishSesstionEachOtherproduct;\r\n    }\r\n    \r\n    mapping(address => Paticipant) private paticipants;\r\n    Items[] public itemsList;\r\n    uint index = 0;\r\n    address[] public totalAccounts;\r\n    uint indexPaticipant = 0;\r\n    \r\n    modifier checkStatus(StatusSesstion _statusSesstion, uint _IdItem){\r\n        require(itemsList[_IdItem].statusSesstion == _statusSesstion, \"Wrong status of sesstion\");\r\n        _;\r\n    }\r\n\r\n    function addData() public{\r\n        for(uint i = 0 ; i < listHashImage.length ; i++){\r\n            uint[] memory emptyArray;\r\n            address[] memory amptyAddressArray;\r\n            itemsList.push(Items(i, listNameOfItems[i], listHashImage[i], listPrice[i], listInformationOfImage[i],  0, emptyArray, emptyArray, 0, amptyAddressArray, StatusSesstion.START, 0, 100));\r\n            index++;\r\n        }\r\n    }\r\n\r\n    function getDataX(uint _IdItem) public view returns(uint){\r\n        return itemsList[_IdItem].firstPrice +1;\r\n    }\r\n\r\n    function startSesstion(uint _IdItem) public onlyAdmin {\r\n        itemsList[_IdItem].statusSesstion = StatusSesstion.PRICING;\r\n        itemsList[_IdItem].timeSesstionEachOtherproduct = block.timestamp;\r\n    }\r\n\r\n    function stopSesstion(uint _IdItem) public onlyAdmin{\r\n        itemsList[_IdItem].statusSesstion = StatusSesstion.DONE;\r\n    }\r\n\r\n    function register(address _address, string memory _fullName, string memory _email) public onlyAdmin(){\r\n        bool checkStatusAddress = false;\r\n        if(_address == admin){\r\n            revert(\"Account of admin can't register\");\r\n        }\r\n        if(totalAccounts.length > 10){\r\n            revert(\"The number of participants is less than ten.\");\r\n        }else{\r\n            for(uint i = 0; i < totalAccounts.length; i++){\r\n                if(_address == totalAccounts[i]){\r\n                    checkStatusAddress = true;\r\n                    break;\r\n                }\r\n            }\r\n            if(!checkStatusAddress){\r\n                totalAccounts.push(_address);\r\n                paticipants[_address].IDPaticipant = indexPaticipant;  \r\n                paticipants[_address].addressAccount = _address;\r\n                paticipants[_address].fullName = _fullName;\r\n                paticipants[_address].email = _email;\r\n                paticipants[_address].countPricedSesstion = 0;\r\n                for(uint i = 0 ; i < index ; i++){\r\n                    DataChange memory dataChange = DataChange({IdItem: i, priceDeviation: 0, valueChangePricingOtherPaticipant: 0 , numberChangePricingOtherPaticipant: 0});\r\n                    paticipants[_address].listDataChange.push(dataChange);\r\n                }\r\n                indexPaticipant++;\r\n            }else{\r\n                revert(\"This address Really existed\");\r\n            }\r\n        }   \r\n    }\r\n    \r\n    function getProposedPrice(uint _IdItem) public onlyAdmin {\r\n        timeOutOfSesstion(_IdItem);\r\n        if(itemsList[_IdItem].statusSesstion != StatusSesstion.DONE){\r\n            revert(\"Wrong status of sesstion\");\r\n        }\r\n        uint totalPriceOfPaticipantAbove;\r\n        uint numberPaticipantJoneSestion = itemsList[_IdItem].checkAccount.length;\r\n        for(uint i = 0 ; i < numberPaticipantJoneSestion ; i++){\r\n              totalPriceOfPaticipantAbove += (paticipants[itemsList[_IdItem].checkAccount[i]].listDataChange[_IdItem].priceDeviation) * (100 - (paticipants[itemsList[_IdItem].checkAccount[i]].listDataChange[_IdItem].valueChangePricingOtherPaticipant));        \r\n        }\r\n        uint totalPriceOfPaticipantUnderLeft = 100 * numberPaticipantJoneSestion;\r\n        uint totalPriceOfPaticipantUnderRight;\r\n        for(uint i = 0 ; i < numberPaticipantJoneSestion ; i++){\r\n              totalPriceOfPaticipantUnderRight += paticipants[ itemsList[_IdItem].checkAccount[i]].listDataChange[_IdItem].valueChangePricingOtherPaticipant;\r\n        }\r\n        uint result = totalPriceOfPaticipantAbove / (totalPriceOfPaticipantUnderLeft - totalPriceOfPaticipantUnderRight);\r\n        itemsList[_IdItem].valueChangePricing = result;\r\n        //emit LogFinishPriceItems(_IdItem,  itemsList[_IdItem].nameItem, itemsList[_IdItem].firstPrice, itemsList[_IdItem].itemDescription, itemsList[_IdItem].statusSesstion, itemsList[_IdItem].valueChangePricing);\r\n    }\r\n\r\n    function accumulatedDeviation(uint _newPriceOfParticipan, uint _IdItem) public notOnlyAdmin checkStatus(StatusSesstion.PRICING, _IdItem){\r\n        if(itemsList[_IdItem].checkAccount.length == 0){\r\n            itemsList[_IdItem].checkAccount.push(msg.sender);\r\n        }else{\r\n            for(uint i = 0 ; i < itemsList[_IdItem].checkAccount.length; i++){\r\n                if(itemsList[_IdItem].checkAccount[i] == msg.sender){\r\n                    status = true;\r\n                    break;\r\n                }\r\n            }\r\n            if(status == false){\r\n                itemsList[_IdItem].checkAccount.push(msg.sender);\r\n            }else{\r\n                status = false;\r\n            }\r\n        }\r\n        uint calNewPriceOfParticipant = calculatingDeviation(_newPriceOfParticipan, _IdItem);\r\n        uint numberPaticipant = paticipants[msg.sender].listDataChange[_IdItem].numberChangePricingOtherPaticipant;\r\n        uint currentPriceDeviation = paticipants[msg.sender].listDataChange[_IdItem].valueChangePricingOtherPaticipant;\r\n        uint value = (currentPriceDeviation * numberPaticipant + calNewPriceOfParticipant) / (numberPaticipant + 1);\r\n        paticipants[msg.sender].listDataChange[_IdItem].valueChangePricingOtherPaticipant = value;\r\n        paticipants[msg.sender].listDataChange[_IdItem].priceDeviation = _newPriceOfParticipan;\r\n        paticipants[msg.sender].listDataChange[_IdItem].numberChangePricingOtherPaticipant++;\r\n        itemsList[_IdItem].countPaticipantJoinSesstion++;\r\n    }\r\n\r\n    function calculatingDeviation(uint _priceOfParticipan, uint _IdItem) internal view returns (uint){\r\n        uint newPriceDeviation = 0;\r\n        if(itemsList[_IdItem].firstPrice > _priceOfParticipan){\r\n            newPriceDeviation = (itemsList[_IdItem].firstPrice  - _priceOfParticipan) * 100 / itemsList[_IdItem].firstPrice;\r\n        }else{\r\n            newPriceDeviation = (_priceOfParticipan - itemsList[_IdItem].firstPrice) * 100 / itemsList[_IdItem].firstPrice;\r\n        }\r\n        return uint(newPriceDeviation);\r\n    }\r\n\r\n    function timeOutOfSesstion(uint _IdItem) internal checkStatus(StatusSesstion.PRICING, _IdItem){\r\n        if(block.timestamp > itemsList[_IdItem].timeSesstionEachOtherproduct + itemsList[_IdItem].timeFinishSesstionEachOtherproduct){\r\n             itemsList[_IdItem].statusSesstion = StatusSesstion.DONE;\r\n        }\r\n    }\r\n\r\n    function getDataItems(uint _IdItem) public view returns(uint) {\r\n       return itemsList[_IdItem].valueChangePricing;\r\n    }\r\n\r\n    function getStatusSesstion(uint _IdItem) public view returns(StatusSesstion){\r\n        return itemsList[_IdItem].statusSesstion;\r\n    }\r\n\r\n    function setPriceOfItem(uint _IdItem, uint _price) public checkStatus(StatusSesstion.DONE, _IdItem){\r\n         itemsList[_IdItem].valueChangePricing = _price;\r\n    }\r\n}",
  "sourcePath": "C:\\Users\\Admin\\Desktop\\FunixPriceChanging\\contracts\\Session.sol",
  "compiler": {
    "name": "solc",
    "version": "0.8.10+commit.fc410830.Emscripten.clang"
  },
  "schemaVersion": "3.4.3",
  "updatedAt": "2021-12-18T04:04:02.013Z",
  "networkType": "ethereum",
  "devdoc": {
    "kind": "dev",
    "methods": {},
    "version": 1
  },
  "userdoc": {
    "kind": "user",
    "methods": {},
    "version": 1
  }
}